{
  "contractName": "EtherealPlanet",
  "abi": [
    {
      "inputs": [],
      "stateMutability": "nonpayable",
      "type": "constructor"
    },
    {
      "anonymous": false,
      "inputs": [
        {
          "indexed": false,
          "internalType": "bool",
          "name": "newStatus",
          "type": "bool"
        }
      ],
      "name": "ContractStatusUpdated",
      "type": "event"
    },
    {
      "anonymous": false,
      "inputs": [
        {
          "indexed": true,
          "internalType": "uint256",
          "name": "planetId",
          "type": "uint256"
        },
        {
          "indexed": false,
          "internalType": "bytes32",
          "name": "name",
          "type": "bytes32"
        }
      ],
      "name": "NewPlanetCreated",
      "type": "event"
    },
    {
      "anonymous": false,
      "inputs": [
        {
          "indexed": true,
          "internalType": "uint256",
          "name": "planetId",
          "type": "uint256"
        },
        {
          "indexed": false,
          "internalType": "uint256",
          "name": "population",
          "type": "uint256"
        }
      ],
      "name": "PlanetPopulationIncreased",
      "type": "event"
    },
    {
      "anonymous": false,
      "inputs": [
        {
          "indexed": true,
          "internalType": "uint256",
          "name": "planetId",
          "type": "uint256"
        },
        {
          "indexed": false,
          "internalType": "bool",
          "name": "newStatus",
          "type": "bool"
        }
      ],
      "name": "PlanetStatusUpdated",
      "type": "event"
    },
    {
      "anonymous": false,
      "inputs": [
        {
          "indexed": true,
          "internalType": "bytes32",
          "name": "role",
          "type": "bytes32"
        },
        {
          "indexed": true,
          "internalType": "bytes32",
          "name": "previousAdminRole",
          "type": "bytes32"
        },
        {
          "indexed": true,
          "internalType": "bytes32",
          "name": "newAdminRole",
          "type": "bytes32"
        }
      ],
      "name": "RoleAdminChanged",
      "type": "event"
    },
    {
      "anonymous": false,
      "inputs": [
        {
          "indexed": true,
          "internalType": "bytes32",
          "name": "role",
          "type": "bytes32"
        },
        {
          "indexed": true,
          "internalType": "address",
          "name": "account",
          "type": "address"
        },
        {
          "indexed": true,
          "internalType": "address",
          "name": "sender",
          "type": "address"
        }
      ],
      "name": "RoleGranted",
      "type": "event"
    },
    {
      "anonymous": false,
      "inputs": [
        {
          "indexed": true,
          "internalType": "bytes32",
          "name": "role",
          "type": "bytes32"
        },
        {
          "indexed": true,
          "internalType": "address",
          "name": "account",
          "type": "address"
        },
        {
          "indexed": true,
          "internalType": "address",
          "name": "sender",
          "type": "address"
        }
      ],
      "name": "RoleRevoked",
      "type": "event"
    },
    {
      "inputs": [],
      "name": "DEFAULT_ADMIN_ROLE",
      "outputs": [
        {
          "internalType": "bytes32",
          "name": "",
          "type": "bytes32"
        }
      ],
      "stateMutability": "view",
      "type": "function",
      "constant": true
    },
    {
      "inputs": [],
      "name": "MINTER_ROLE",
      "outputs": [
        {
          "internalType": "bytes32",
          "name": "",
          "type": "bytes32"
        }
      ],
      "stateMutability": "view",
      "type": "function",
      "constant": true
    },
    {
      "inputs": [],
      "name": "active",
      "outputs": [
        {
          "internalType": "bool",
          "name": "",
          "type": "bool"
        }
      ],
      "stateMutability": "view",
      "type": "function",
      "constant": true
    },
    {
      "inputs": [
        {
          "internalType": "bytes32",
          "name": "role",
          "type": "bytes32"
        }
      ],
      "name": "getRoleAdmin",
      "outputs": [
        {
          "internalType": "bytes32",
          "name": "",
          "type": "bytes32"
        }
      ],
      "stateMutability": "view",
      "type": "function",
      "constant": true
    },
    {
      "inputs": [
        {
          "internalType": "bytes32",
          "name": "role",
          "type": "bytes32"
        },
        {
          "internalType": "uint256",
          "name": "index",
          "type": "uint256"
        }
      ],
      "name": "getRoleMember",
      "outputs": [
        {
          "internalType": "address",
          "name": "",
          "type": "address"
        }
      ],
      "stateMutability": "view",
      "type": "function",
      "constant": true
    },
    {
      "inputs": [
        {
          "internalType": "bytes32",
          "name": "role",
          "type": "bytes32"
        }
      ],
      "name": "getRoleMemberCount",
      "outputs": [
        {
          "internalType": "uint256",
          "name": "",
          "type": "uint256"
        }
      ],
      "stateMutability": "view",
      "type": "function",
      "constant": true
    },
    {
      "inputs": [
        {
          "internalType": "bytes32",
          "name": "role",
          "type": "bytes32"
        },
        {
          "internalType": "address",
          "name": "account",
          "type": "address"
        }
      ],
      "name": "grantRole",
      "outputs": [],
      "stateMutability": "nonpayable",
      "type": "function"
    },
    {
      "inputs": [
        {
          "internalType": "bytes32",
          "name": "role",
          "type": "bytes32"
        },
        {
          "internalType": "address",
          "name": "account",
          "type": "address"
        }
      ],
      "name": "hasRole",
      "outputs": [
        {
          "internalType": "bool",
          "name": "",
          "type": "bool"
        }
      ],
      "stateMutability": "view",
      "type": "function",
      "constant": true
    },
    {
      "inputs": [
        {
          "internalType": "bytes32",
          "name": "",
          "type": "bytes32"
        }
      ],
      "name": "planetNameExists",
      "outputs": [
        {
          "internalType": "bool",
          "name": "",
          "type": "bool"
        }
      ],
      "stateMutability": "view",
      "type": "function",
      "constant": true
    },
    {
      "inputs": [
        {
          "internalType": "uint256",
          "name": "",
          "type": "uint256"
        }
      ],
      "name": "planetPopulation",
      "outputs": [
        {
          "internalType": "uint256",
          "name": "",
          "type": "uint256"
        }
      ],
      "stateMutability": "view",
      "type": "function",
      "constant": true
    },
    {
      "inputs": [
        {
          "internalType": "uint256",
          "name": "",
          "type": "uint256"
        }
      ],
      "name": "planets",
      "outputs": [
        {
          "internalType": "bytes32",
          "name": "name",
          "type": "bytes32"
        },
        {
          "internalType": "string",
          "name": "description",
          "type": "string"
        },
        {
          "internalType": "uint256",
          "name": "population",
          "type": "uint256"
        },
        {
          "internalType": "bool",
          "name": "active",
          "type": "bool"
        }
      ],
      "stateMutability": "view",
      "type": "function",
      "constant": true
    },
    {
      "inputs": [
        {
          "internalType": "bytes32",
          "name": "role",
          "type": "bytes32"
        },
        {
          "internalType": "address",
          "name": "account",
          "type": "address"
        }
      ],
      "name": "renounceRole",
      "outputs": [],
      "stateMutability": "nonpayable",
      "type": "function"
    },
    {
      "inputs": [
        {
          "internalType": "bytes32",
          "name": "role",
          "type": "bytes32"
        },
        {
          "internalType": "address",
          "name": "account",
          "type": "address"
        }
      ],
      "name": "revokeRole",
      "outputs": [],
      "stateMutability": "nonpayable",
      "type": "function"
    },
    {
      "inputs": [],
      "name": "totalInactivePlanets",
      "outputs": [
        {
          "internalType": "uint256",
          "name": "",
          "type": "uint256"
        }
      ],
      "stateMutability": "view",
      "type": "function",
      "constant": true
    },
    {
      "inputs": [],
      "name": "totalNumPlanets",
      "outputs": [
        {
          "internalType": "uint256",
          "name": "",
          "type": "uint256"
        }
      ],
      "stateMutability": "view",
      "type": "function",
      "constant": true
    },
    {
      "inputs": [
        {
          "internalType": "bytes32",
          "name": "_name",
          "type": "bytes32"
        },
        {
          "internalType": "string",
          "name": "_description",
          "type": "string"
        }
      ],
      "name": "createPlanet",
      "outputs": [
        {
          "internalType": "uint256",
          "name": "id",
          "type": "uint256"
        }
      ],
      "stateMutability": "nonpayable",
      "type": "function"
    },
    {
      "inputs": [
        {
          "internalType": "uint256",
          "name": "_planetId",
          "type": "uint256"
        },
        {
          "internalType": "bool",
          "name": "_active",
          "type": "bool"
        }
      ],
      "name": "activateDeactivatePlanet",
      "outputs": [],
      "stateMutability": "nonpayable",
      "type": "function"
    },
    {
      "inputs": [
        {
          "internalType": "bool",
          "name": "_active",
          "type": "bool"
        }
      ],
      "name": "activateDeactivateContract",
      "outputs": [],
      "stateMutability": "nonpayable",
      "type": "function"
    },
    {
      "inputs": [],
      "name": "getNumActivePlanets",
      "outputs": [
        {
          "internalType": "uint256",
          "name": "",
          "type": "uint256"
        }
      ],
      "stateMutability": "view",
      "type": "function",
      "constant": true
    },
    {
      "inputs": [],
      "name": "getPlanets",
      "outputs": [
        {
          "internalType": "uint256[]",
          "name": "",
          "type": "uint256[]"
        }
      ],
      "stateMutability": "view",
      "type": "function",
      "constant": true
    },
    {
      "inputs": [],
      "name": "getInactivePlanets",
      "outputs": [
        {
          "internalType": "uint256[]",
          "name": "",
          "type": "uint256[]"
        }
      ],
      "stateMutability": "view",
      "type": "function",
      "constant": true
    },
    {
      "inputs": [
        {
          "internalType": "uint256",
          "name": "_planetId",
          "type": "uint256"
        }
      ],
      "name": "getIsPlanetActive",
      "outputs": [
        {
          "internalType": "bool",
          "name": "",
          "type": "bool"
        }
      ],
      "stateMutability": "view",
      "type": "function",
      "constant": true
    },
    {
      "inputs": [
        {
          "internalType": "uint256",
          "name": "_planetId",
          "type": "uint256"
        }
      ],
      "name": "increasePopulation",
      "outputs": [
        {
          "internalType": "uint256",
          "name": "",
          "type": "uint256"
        }
      ],
      "stateMutability": "nonpayable",
      "type": "function"
    }
  ],
  "bytecode": "0x60806040523480156200001157600080fd5b50620000366000801b6200002a6200005760201b60201c565b6200005f60201b60201c565b6001600560006101000a81548160ff021916908315150217905550620001ed565b600033905090565b6200007182826200007560201b60201c565b5050565b620000a3816000808581526020019081526020016000206000016200011860201b620019941790919060201c565b156200011457620000b96200005760201b60201c565b73ffffffffffffffffffffffffffffffffffffffff168173ffffffffffffffffffffffffffffffffffffffff16837f2f8788117e7eff1d82e926ec794901d17c78024a50270940304540a733656f0d60405160405180910390a45b5050565b600062000148836000018373ffffffffffffffffffffffffffffffffffffffff1660001b6200015060201b60201c565b905092915050565b6000620001648383620001ca60201b60201c565b620001bf578260000182908060018154018082558091505060019003906000526020600020016000909190919091505582600001805490508360010160008481526020019081526020016000208190555060019050620001c4565b600090505b92915050565b600080836001016000848152602001908152602001600020541415905092915050565b6120d580620001fd6000396000f3fe608060405234801561001057600080fd5b506004361061014c5760003560e01c80639010d07c116100c3578063d547741f1161007c578063d547741f146105de578063d64a626e1461062c578063e581e0b61461064a578063f32bb42314610723578063f4107cbe14610782578063f50ec69e146107c45761014c565b80639010d07c1461047c57806391d14854146104de578063a217fddf14610542578063b0fc900b14610560578063ca15c8731461057e578063d5391393146105c05761014c565b806326c1e7501161011557806326c1e75014610261578063292438c71461031f5780632f2ff15d1461036357806336568abe146103b157806340d89309146103ff57806364f547171461045e5761014c565b8062912bd01461015157806302fb0c5e1461018b578063100e12d0146101ab57806321bbf14c146101ef578063248a9ca31461021f575b600080fd5b6101896004803603604081101561016757600080fd5b8101908080359060200190929190803515159060200190929190505050610806565b005b610193610a4a565b60405180821515815260200191505060405180910390f35b6101d7600480360360208110156101c157600080fd5b8101908080359060200190929190505050610a5d565b60405180821515815260200191505060405180910390f35b61021d6004803603602081101561020557600080fd5b81019080803515159060200190929190505050610b12565b005b61024b6004803603602081101561023557600080fd5b8101908080359060200190929190505050610bd1565b6040518082815260200191505060405180910390f35b61028d6004803603602081101561027757600080fd5b8101908080359060200190929190505050610bf0565b60405180858152602001806020018481526020018315158152602001828103825285818151815260200191508051906020019080838360005b838110156102e15780820151818401526020810190506102c6565b50505050905090810190601f16801561030e5780820380516001836020036101000a031916815260200191505b509550505050505060405180910390f35b61034b6004803603602081101561033557600080fd5b8101908080359060200190929190505050610cc5565b60405180821515815260200191505060405180910390f35b6103af6004803603604081101561037957600080fd5b8101908080359060200190929190803573ffffffffffffffffffffffffffffffffffffffff169060200190929190505050610ce5565b005b6103fd600480360360408110156103c757600080fd5b8101908080359060200190929190803573ffffffffffffffffffffffffffffffffffffffff169060200190929190505050610d6e565b005b610407610e07565b6040518080602001828103825283818151815260200191508051906020019060200280838360005b8381101561044a57808201518184015260208101905061042f565b505050509050019250505060405180910390f35b610466610f83565b6040518082815260200191505060405180910390f35b6104b26004803603604081101561049257600080fd5b810190808035906020019092919080359060200190929190505050610f89565b604051808273ffffffffffffffffffffffffffffffffffffffff16815260200191505060405180910390f35b61052a600480360360408110156104f457600080fd5b8101908080359060200190929190803573ffffffffffffffffffffffffffffffffffffffff169060200190929190505050610fba565b60405180821515815260200191505060405180910390f35b61054a610feb565b6040518082815260200191505060405180910390f35b610568610ff2565b6040518082815260200191505060405180910390f35b6105aa6004803603602081101561059457600080fd5b8101908080359060200190929190505050610ff8565b6040518082815260200191505060405180910390f35b6105c861101e565b6040518082815260200191505060405180910390f35b61062a600480360360408110156105f457600080fd5b8101908080359060200190929190803573ffffffffffffffffffffffffffffffffffffffff169060200190929190505050611042565b005b6106346110cb565b6040518082815260200191505060405180910390f35b61070d6004803603604081101561066057600080fd5b81019080803590602001909291908035906020019064010000000081111561068757600080fd5b82018360208201111561069957600080fd5b803590602001918460018302840111640100000000831117156106bb57600080fd5b91908080601f016020809104026020016040519081016040528093929190818152602001838380828437600081840152601f19601f820116905080830192505050505050509192919290505050611171565b6040518082815260200191505060405180910390f35b61072b61153a565b6040518080602001828103825283818151815260200191508051906020019060200280838360005b8381101561076e578082015181840152602081019050610753565b505050509050019250505060405180910390f35b6107ae6004803603602081101561079857600080fd5b8101908080359060200190929190505050611736565b6040518082815260200191505060405180910390f35b6107f0600480360360208110156107da57600080fd5b810190808035906020019092919050505061197c565b6040518082815260200191505060405180910390f35b600560009054906101000a900460ff16610888576040517f08c379a00000000000000000000000000000000000000000000000000000000081526004018080602001828103825260148152602001807f436f6e747261637420697320696e61637469766500000000000000000000000081525060200191505060405180910390fd5b61089c6000801b6108976119c4565b610fba565b6108f1576040517f08c379a000000000000000000000000000000000000000000000000000000000815260040180806020018281038252602e815260200180612043602e913960400191505060405180910390fd5b600260006001600085815260200190815260200160002060000154815260200190815260200160002060009054906101000a900460ff1661099a576040517f08c379a00000000000000000000000000000000000000000000000000000000081526004018080602001828103825260148152602001807f506c616e657420646f65736e277420657869737400000000000000000000000081525060200191505060405180910390fd5b806001600084815260200190815260200160002060030160006101000a81548160ff02191690831515021790555080156109ef576109e460016004546119cc90919063ffffffff16565b600481905550610a0c565b610a056001600454611a4f90919063ffffffff16565b6004819055505b817f7d364863130b2db985ca067bf7ffe3eae1d3e9d99f41b292e0965ea5c3ca8d018260405180821515815260200191505060405180910390a25050565b600560009054906101000a900460ff1681565b6000600560009054906101000a900460ff16610ae1576040517f08c379a00000000000000000000000000000000000000000000000000000000081526004018080602001828103825260148152602001807f436f6e747261637420697320696e61637469766500000000000000000000000081525060200191505060405180910390fd5b60006001600084815260200190815260200160002060030160009054906101000a900460ff16905080915050919050565b610b266000801b610b216119c4565b610fba565b610b7b576040517f08c379a0000000000000000000000000000000000000000000000000000000008152600401808060200182810382526030815260200180611fba6030913960400191505060405180910390fd5b80600560006101000a81548160ff0219169083151502179055507f89cb8aeac390e3fc9016dc87a4ed02fbbb63c5adafcbb03db9b6227a14fe589d8160405180821515815260200191505060405180910390a150565b6000806000838152602001908152602001600020600201549050919050565b6001602052806000526040600020600091509050806000015490806001018054600181600116156101000203166002900480601f016020809104026020016040519081016040528092919081815260200182805460018160011615610100020316600290048015610ca25780601f10610c7757610100808354040283529160200191610ca2565b820191906000526020600020905b815481529060010190602001808311610c8557829003601f168201915b5050505050908060020154908060030160009054906101000a900460ff16905084565b60026020528060005260406000206000915054906101000a900460ff1681565b610d0b60008084815260200190815260200160002060020154610d066119c4565b610fba565b610d60576040517f08c379a000000000000000000000000000000000000000000000000000000000815260040180806020018281038252602f815260200180611f69602f913960400191505060405180910390fd5b610d6a8282611ad7565b5050565b610d766119c4565b73ffffffffffffffffffffffffffffffffffffffff168173ffffffffffffffffffffffffffffffffffffffff1614610df9576040517f08c379a000000000000000000000000000000000000000000000000000000000815260040180806020018281038252602f815260200180612071602f913960400191505060405180910390fd5b610e038282611b6a565b5050565b6060600560009054906101000a900460ff16610e8b576040517f08c379a00000000000000000000000000000000000000000000000000000000081526004018080602001828103825260148152602001807f436f6e747261637420697320696e61637469766500000000000000000000000081525060200191505060405180910390fd5b606060045467ffffffffffffffff81118015610ea657600080fd5b50604051908082528060200260200182016040528015610ed55781602001602082028036833780820191505090505b5090506000805b600354811015610f7a576001600082815260200190815260200160002060030160009054906101000a900460ff168015610f17575060045482105b15610f505780838381518110610f2957fe5b602002602001018181525050610f49600183611a4f90919063ffffffff16565b9150610f5f565b6004548210610f5e57610f7a565b5b610f73600182611a4f90919063ffffffff16565b9050610edc565b50819250505090565b60045481565b6000610fb282600080868152602001908152602001600020600001611bfd90919063ffffffff16565b905092915050565b6000610fe382600080868152602001908152602001600020600001611c1790919063ffffffff16565b905092915050565b6000801b81565b60035481565b6000611017600080848152602001908152602001600020600001611c47565b9050919050565b7f9f2df0fed2c77648de5860a4cc508cd0818c85b8b8a1ab4ceeef8d981c8956a681565b611068600080848152602001908152602001600020600201546110636119c4565b610fba565b6110bd576040517f08c379a0000000000000000000000000000000000000000000000000000000008152600401808060200182810382526030815260200180611fea6030913960400191505060405180910390fd5b6110c78282611b6a565b5050565b6000600560009054906101000a900460ff1661114f576040517f08c379a00000000000000000000000000000000000000000000000000000000081526004018080602001828103825260148152602001807f436f6e747261637420697320696e61637469766500000000000000000000000081525060200191505060405180910390fd5b60006111686004546003546119cc90919063ffffffff16565b90508091505090565b6000600560009054906101000a900460ff166111f5576040517f08c379a00000000000000000000000000000000000000000000000000000000081526004018080602001828103825260148152602001807f436f6e747261637420697320696e61637469766500000000000000000000000081525060200191505060405180910390fd5b82604051602001808060200182810382526000815260200160200191505060405160208183030381529060405280519060200120816040516020018082815260200191505060405160208183030381529060405280519060200120141580156112ab57506000604051602001808281526020019150506040516020818303038152906040528051906020012081604051602001808281526020019150506040516020818303038152906040528051906020012014155b61131d576040517f08c379a00000000000000000000000000000000000000000000000000000000081526004018080602001828103825260188152602001807f456d70747920737472696e67206e6f7420616c6c6f776564000000000000000081525060200191505060405180910390fd5b836002600082815260200190815260200160002060009054906101000a900460ff16156113b2576040517f08c379a000000000000000000000000000000000000000000000000000000000815260040180806020018281038252601a8152602001807f506c616e6574206e616d6520616c72656164792065786973747300000000000081525060200191505060405180910390fd5b6113c66000801b6113c16119c4565b610fba565b61141b576040517f08c379a0000000000000000000000000000000000000000000000000000000008152600401808060200182810382526022815260200180611f986022913960400191505060405180910390fd5b6114316001600354611a4f90919063ffffffff16565b60038190555060006003549050604051806080016040528087815260200186815260200160008152602001600115158152506001600083815260200190815260200160002060008201518160000155602082015181600101908051906020019061149c929190611e9b565b506040820151816002015560608201518160030160006101000a81548160ff02191690831515021790555090505060016002600088815260200190815260200160002060006101000a81548160ff021916908315150217905550807f77173fe9730b8c94d6e2099a799c4891fb0142645f3e139e87aa71c5f014979a876040518082815260200191505060405180910390a280935050505092915050565b6060600560009054906101000a900460ff166115be576040517f08c379a00000000000000000000000000000000000000000000000000000000081526004018080602001828103825260148152602001807f436f6e747261637420697320696e61637469766500000000000000000000000081525060200191505060405180910390fd5b60003073ffffffffffffffffffffffffffffffffffffffff1663d64a626e6040518163ffffffff1660e01b815260040160206040518083038186803b15801561160657600080fd5b505afa15801561161a573d6000803e3d6000fd5b505050506040513d602081101561163057600080fd5b8101908080519060200190929190505050905060608167ffffffffffffffff8111801561165c57600080fd5b5060405190808252806020026020018201604052801561168b5781602001602082028036833780820191505090505b5090506000805b60035481101561172c576001600082815260200190815260200160002060030160009054906101000a900460ff1680156116cb57508382105b1561170457808383815181106116dd57fe5b6020026020010181815250506116fd600183611a4f90919063ffffffff16565b9150611711565b8382106117105761172c565b5b611725600182611a4f90919063ffffffff16565b9050611692565b5081935050505090565b6000600560009054906101000a900460ff166117ba576040517f08c379a00000000000000000000000000000000000000000000000000000000081526004018080602001828103825260148152602001807f436f6e747261637420697320696e61637469766500000000000000000000000081525060200191505060405180910390fd5b816001600082815260200190815260200160002060030160009054906101000a900460ff16611851576040517f08c379a00000000000000000000000000000000000000000000000000000000081526004018080602001828103825260128152602001807f506c616e657420697320696e616374697665000000000000000000000000000081525060200191505060405180910390fd5b6118827f9f2df0fed2c77648de5860a4cc508cd0818c85b8b8a1ab4ceeef8d981c8956a661187d6119c4565b610fba565b6118d7576040517f08c379a000000000000000000000000000000000000000000000000000000000815260040180806020018281038252602981526020018061201a6029913960400191505060405180910390fd5b6118fe60016006600086815260200190815260200160002054611a4f90919063ffffffff16565b6006600085815260200190815260200160002081905550827f0150987855c90ffde3a790d486ad381d3b4b5833df4fa5e0fb38366548f8473660066000868152602001908152602001600020546040518082815260200191505060405180910390a26006600084815260200190815260200160002054915050919050565b60066020528060005260406000206000915090505481565b60006119bc836000018373ffffffffffffffffffffffffffffffffffffffff1660001b611c5c565b905092915050565b600033905090565b600082821115611a44576040517f08c379a000000000000000000000000000000000000000000000000000000000815260040180806020018281038252601e8152602001807f536166654d6174683a207375627472616374696f6e206f766572666c6f77000081525060200191505060405180910390fd5b818303905092915050565b600080828401905083811015611acd576040517f08c379a000000000000000000000000000000000000000000000000000000000815260040180806020018281038252601b8152602001807f536166654d6174683a206164646974696f6e206f766572666c6f77000000000081525060200191505060405180910390fd5b8091505092915050565b611afe8160008085815260200190815260200160002060000161199490919063ffffffff16565b15611b6657611b0b6119c4565b73ffffffffffffffffffffffffffffffffffffffff168173ffffffffffffffffffffffffffffffffffffffff16837f2f8788117e7eff1d82e926ec794901d17c78024a50270940304540a733656f0d60405160405180910390a45b5050565b611b9181600080858152602001908152602001600020600001611ccc90919063ffffffff16565b15611bf957611b9e6119c4565b73ffffffffffffffffffffffffffffffffffffffff168173ffffffffffffffffffffffffffffffffffffffff16837ff6391f5c32d9c69d2a47ea670b442974b53935d1edc7fd64eb21e047a839171b60405160405180910390a45b5050565b6000611c0c8360000183611cfc565b60001c905092915050565b6000611c3f836000018373ffffffffffffffffffffffffffffffffffffffff1660001b611d7f565b905092915050565b6000611c5582600001611da2565b9050919050565b6000611c688383611d7f565b611cc1578260000182908060018154018082558091505060019003906000526020600020016000909190919091505582600001805490508360010160008481526020019081526020016000208190555060019050611cc6565b600090505b92915050565b6000611cf4836000018373ffffffffffffffffffffffffffffffffffffffff1660001b611db3565b905092915050565b600081836000018054905011611d5d576040517f08c379a0000000000000000000000000000000000000000000000000000000008152600401808060200182810382526022815260200180611f476022913960400191505060405180910390fd5b826000018281548110611d6c57fe5b9060005260206000200154905092915050565b600080836001016000848152602001908152602001600020541415905092915050565b600081600001805490509050919050565b60008083600101600084815260200190815260200160002054905060008114611e8f5760006001820390506000600186600001805490500390506000866000018281548110611dfe57fe5b9060005260206000200154905080876000018481548110611e1b57fe5b9060005260206000200181905550600183018760010160008381526020019081526020016000208190555086600001805480611e5357fe5b60019003818190600052602060002001600090559055866001016000878152602001908152602001600020600090556001945050505050611e95565b60009150505b92915050565b828054600181600116156101000203166002900490600052602060002090601f016020900481019282611ed15760008555611f18565b82601f10611eea57805160ff1916838001178555611f18565b82800160010185558215611f18579182015b82811115611f17578251825591602001919060010190611efc565b5b509050611f259190611f29565b5090565b5b80821115611f42576000816000905550600101611f2a565b509056fe456e756d657261626c655365743a20696e646578206f7574206f6620626f756e6473416363657373436f6e74726f6c3a2073656e646572206d75737420626520616e2061646d696e20746f206772616e74637265617465506c616e65743a206d75737420686176652061646d696e20726f6c65616374697661746544656163746976617465436f6e74726163743a206d75737420686176652061646d696e20726f6c65416363657373436f6e74726f6c3a2073656e646572206d75737420626520616e2061646d696e20746f207265766f6b65696e637265617365506f70756c6174696f6e3a206d7573742068617665206d696e74657220726f6c65616374697661746544656163746976617465506c616e65743a206d75737420686176652061646d696e20726f6c65416363657373436f6e74726f6c3a2063616e206f6e6c792072656e6f756e636520726f6c657320666f722073656c66a2646970667358221220ea6d189001c1c6c912012f911a40d1c3139c8492aac8a52e9b6c072cab5250ec64736f6c63430007050033",
  "immutableReferences": {},
  "source": "// SPDX-License-Identifier: MIT\r\npragma solidity 0.7.5;\r\nimport '@openzeppelin/contracts/access/AccessControl.sol';\r\nimport '@openzeppelin/contracts/math/SafeMath.sol';\r\nimport \"@openzeppelin/contracts/utils/Context.sol\";\r\nimport './IEtherealBase.sol';\r\n\r\n/*\r\n* @title Create new planets for the Ethereal universe\r\n*/\r\ncontract EtherealPlanet is Context, AccessControl, IEtherealBase\r\n{\r\n\tusing SafeMath for uint256;\r\n\r\n\t// Player role to improve access control\r\n  bytes32 public constant MINTER_ROLE = keccak256(\"MINTER_ROLE\");\r\n\r\n\t// Planet's info\r\n\tmapping(uint256 => Planet) public planets;\r\n\t// Table to store if planet's name alreay exists\r\n\tmapping(bytes32 => bool) public planetNameExists;\r\n\r\n\t// Total number of planets\r\n\tuint256 public totalNumPlanets;\r\n\t// Total number of inactive planets\r\n\tuint256 public totalInactivePlanets;\r\n\t// Contract status\r\n\tbool public active;\r\n\r\n\t// Planet population\r\n\tmapping(uint256 => uint256) public planetPopulation;\r\n\r\n\t/*\r\n\t*\t@dev Check if bytes32 is empty\r\n\t*/\r\n\tmodifier isNotEmptyBytes32(bytes32 _s)\r\n\t{\r\n\t\trequire(\r\n\t\t\t(keccak256(abi.encode(_s)) != keccak256(abi.encode(\"\"))) &&\r\n\t\t\t(keccak256(abi.encode(_s)) != keccak256(abi.encode(0x00))),\r\n\t\t\t\"Empty string not allowed\"\r\n\t\t);\r\n\t\t_;\r\n\t}\r\n\r\n\t/*\r\n\t*\t@dev Check if planet name is available or if is already used\r\n\t*/\r\n\tmodifier isPlanetNameAvailable(bytes32 _name) {\r\n\t\trequire(\r\n\t\t\t!planetNameExists[_name],\r\n\t\t\t\"Planet name already exists\"\r\n\t\t);\r\n\t\t_;\r\n\t}\r\n\r\n\t/*\r\n\t*\t@dev Check if planet is active\r\n\t*/\r\n\tmodifier isPlanetActive(uint256 _planetId) {\r\n\t\trequire( planets[_planetId].active, \"Planet is inactive\" );\r\n\t\t_;\r\n\t}\r\n\r\n\t/*\r\n\t*\t@dev Check if contract is active\r\n\t*/\r\n\tmodifier isContractActive {\r\n\t\trequire( active, \"Contract is inactive\" );\r\n\t\t_;\r\n\t}\r\n\r\n\t/*\r\n\t* @dev Log new planet creation\r\n\t*/\r\n\tevent NewPlanetCreated(uint256 indexed planetId, bytes32 name);\r\n\t/*\r\n\t* @dev Log planet status update\r\n\t*/\r\n\tevent PlanetStatusUpdated(uint256 indexed planetId, bool newStatus);\r\n\t/*\r\n\t* @dev Log contract status update\r\n\t*/\r\n\tevent ContractStatusUpdated(bool newStatus);\r\n\t/*\r\n\t* @dev A New character has born in this planet\r\n\t*/\r\n\tevent PlanetPopulationIncreased(uint256 indexed planetId, uint256 population);\r\n\r\n\r\n\t/*\r\n\t* @dev Set default admin role to owner\r\n\t*/\r\n\tconstructor() {\r\n\t\t_setupRole(DEFAULT_ADMIN_ROLE, _msgSender());\r\n\t\tactive = true;\r\n\t}\r\n\r\n\r\n\t/*\r\n\t*\t@notice Create a new planet\r\n\t*/\r\n\tfunction createPlanet(\r\n\t\tbytes32 _name,\r\n\t\tstring memory _description\r\n\t) \r\n\t\texternal\r\n\t\tisContractActive\r\n\t\tisNotEmptyBytes32(_name)\r\n\t\tisPlanetNameAvailable(_name)\r\n\t\treturns (uint id)\r\n\t{\r\n\t\trequire(hasRole(DEFAULT_ADMIN_ROLE, _msgSender()), \"createPlanet: must have admin role\");\r\n\t\ttotalNumPlanets = totalNumPlanets.add(1);\r\n\t\tuint256 planetId = totalNumPlanets;\r\n\t\tplanets[planetId] = Planet(_name, _description, 0, true);\r\n\t\tplanetNameExists[_name] = true;\r\n\t\temit NewPlanetCreated(planetId, _name);\r\n\t\treturn planetId;\r\n\t}\r\n\r\n\t/*\r\n\t*\t@notice Update planet status\r\n\t*/\r\n\tfunction activateDeactivatePlanet(uint256 _planetId, bool _active)\r\n\t\texternal\r\n\t\tisContractActive\r\n\t{\r\n\t\trequire(hasRole(DEFAULT_ADMIN_ROLE, _msgSender()), \"activateDeactivatePlanet: must have admin role\");\r\n\t\t// Planet must exist\r\n\t\trequire(\r\n\t\t\tplanetNameExists[planets[_planetId].name],\r\n\t\t\t\"Planet doesn't exist\"\r\n\t\t);\r\n\r\n\t\tplanets[_planetId].active = _active;\r\n\t\tif (_active) {\r\n\t\t\ttotalInactivePlanets = totalInactivePlanets.sub(1);\r\n\t\t} else {\r\n\t\t\ttotalInactivePlanets = totalInactivePlanets.add(1);\r\n\t\t}\r\n\t\temit PlanetStatusUpdated(_planetId, _active);\r\n\t}\r\n\r\n\t/*\r\n\t*\t@notice Update contract status\r\n\t*/\r\n\tfunction activateDeactivateContract(bool _active)\r\n\t\texternal\r\n\t{\r\n\t\trequire(hasRole(DEFAULT_ADMIN_ROLE, _msgSender()), \"activateDeactivateContract: must have admin role\");\r\n\r\n\t\tactive = _active;\r\n\t\temit ContractStatusUpdated(_active);\r\n\t}\r\n\r\n\t/*\r\n\t* @notice Returns the number of active planets\r\n\t*/\r\n\tfunction getNumActivePlanets()\r\n\t\texternal\r\n\t\tview\r\n\t\tisContractActive\r\n\t\treturns (uint256)\r\n\t{\r\n\t\tuint256 total = totalNumPlanets.sub(totalInactivePlanets);\r\n\t\treturn total;\r\n\t}\r\n\r\n\t/*\r\n\t* @notice Returns the list of active planets\r\n\t*/\r\n\tfunction getPlanets()\r\n\t\texternal\r\n\t\tview\r\n\t\tisContractActive\r\n\t\treturns (uint256[] memory)\r\n\t{\r\n\t\tuint256 totalActive = this.getNumActivePlanets();\r\n\t\tuint256[] memory planetList = new uint256[](totalActive);\r\n\t\tuint256 counter = 0;\r\n\r\n\t\tfor (uint256 i = 0; i < totalNumPlanets; i = i.add(1)) {\r\n\t\t\tif (planets[i].active && counter < totalActive) {\r\n\t\t\t\tplanetList[counter] = i;\r\n\t\t\t\tcounter = counter.add(1);\r\n\t\t\t} else if (counter >= totalActive) {\r\n\t\t\t\tbreak;\r\n\t\t\t}\r\n\t\t}\r\n\r\n\t\treturn planetList;\r\n\t}\r\n\r\n\t/*\r\n\t* @notice Returns the list of inactive planets\r\n\t*/\r\n\tfunction getInactivePlanets()\r\n\t\texternal\r\n\t\tview\r\n\t\tisContractActive\r\n\t\treturns (uint256[] memory)\r\n\t{\r\n\t\tuint256[] memory planetList = new uint256[](totalInactivePlanets);\r\n\t\tuint256 counter = 0;\r\n\r\n\t\tfor (uint256 i = 0; i < totalNumPlanets; i = i.add(1)) {\r\n\t\t\tif (planets[i].active && counter < totalInactivePlanets) {\r\n\t\t\t\tplanetList[counter] = i;\r\n\t\t\t\tcounter = counter.add(1);\r\n\t\t\t} else if (counter >= totalInactivePlanets) {\r\n\t\t\t\tbreak;\r\n\t\t\t}\r\n\t\t}\r\n\r\n\t\treturn planetList;\r\n\t}\r\n\r\n\t/*\r\n\t* @notice Return true if planet is active and exists\r\n\t*/\r\n\tfunction getIsPlanetActive(uint256 _planetId)\r\n\t\texternal\r\n\t\tview\r\n\t\tisContractActive\r\n\t\treturns (bool)\r\n\t{\r\n\t\tbool planetStatus = planets[_planetId].active;\r\n\t\treturn planetStatus;\r\n\t}\r\n\r\n\t/*\r\n\t* @notice Increase by one population counter\r\n\t*/\r\n\tfunction increasePopulation(uint256 _planetId)\r\n\t\texternal \r\n\t\tisContractActive\r\n\t\tisPlanetActive(_planetId)\r\n\t\treturns (uint256)\r\n\t{\r\n\t\trequire(hasRole(MINTER_ROLE, _msgSender()), \"increasePopulation: must have minter role\");\r\n\t\tplanetPopulation[_planetId] = planetPopulation[_planetId].add(1);\r\n\t\temit PlanetPopulationIncreased(_planetId, planetPopulation[_planetId]);\r\n\t\treturn planetPopulation[_planetId];\r\n\t}\r\n\r\n\r\n}\r\n",
  "sourcePath": "C:/xampp/htdocs/ethereal-bnb/truffle-files/contracts/EtherealPlanet.sol",
  "compiler": {
    "name": "solc",
    "version": "0.7.5+commit.eb77ed08.Emscripten.clang"
  },
  "schemaVersion": "3.3.3",
  "updatedAt": "2021-02-18T01:21:21.549Z",
  "networkType": "ethereum",
  "devdoc": {
    "kind": "dev",
    "methods": {
      "getRoleAdmin(bytes32)": {
        "details": "Returns the admin role that controls `role`. See {grantRole} and {revokeRole}. To change a role's admin, use {_setRoleAdmin}."
      },
      "getRoleMember(bytes32,uint256)": {
        "details": "Returns one of the accounts that have `role`. `index` must be a value between 0 and {getRoleMemberCount}, non-inclusive. Role bearers are not sorted in any particular way, and their ordering may change at any point. WARNING: When using {getRoleMember} and {getRoleMemberCount}, make sure you perform all queries on the same block. See the following https://forum.openzeppelin.com/t/iterating-over-elements-on-enumerableset-in-openzeppelin-contracts/2296[forum post] for more information."
      },
      "getRoleMemberCount(bytes32)": {
        "details": "Returns the number of accounts that have `role`. Can be used together with {getRoleMember} to enumerate all bearers of a role."
      },
      "grantRole(bytes32,address)": {
        "details": "Grants `role` to `account`. If `account` had not been already granted `role`, emits a {RoleGranted} event. Requirements: - the caller must have ``role``'s admin role."
      },
      "hasRole(bytes32,address)": {
        "details": "Returns `true` if `account` has been granted `role`."
      },
      "renounceRole(bytes32,address)": {
        "details": "Revokes `role` from the calling account. Roles are often managed via {grantRole} and {revokeRole}: this function's purpose is to provide a mechanism for accounts to lose their privileges if they are compromised (such as when a trusted device is misplaced). If the calling account had been granted `role`, emits a {RoleRevoked} event. Requirements: - the caller must be `account`."
      },
      "revokeRole(bytes32,address)": {
        "details": "Revokes `role` from `account`. If `account` had been granted `role`, emits a {RoleRevoked} event. Requirements: - the caller must have ``role``'s admin role."
      }
    },
    "version": 1
  },
  "userdoc": {
    "kind": "user",
    "methods": {},
    "version": 1
  }
}