{
  "contractName": "EtherealGame",
  "abi": [
    {
      "inputs": [
        {
          "internalType": "address",
          "name": "_planetAddress",
          "type": "address"
        },
        {
          "internalType": "address",
          "name": "_characterAddress",
          "type": "address"
        },
        {
          "internalType": "address",
          "name": "_weaponAddress",
          "type": "address"
        },
        {
          "internalType": "address",
          "name": "_tokenAddress",
          "type": "address"
        },
        {
          "internalType": "uint256",
          "name": "_initialTokens",
          "type": "uint256"
        }
      ],
      "stateMutability": "nonpayable",
      "type": "constructor"
    },
    {
      "anonymous": false,
      "inputs": [
        {
          "indexed": false,
          "internalType": "bool",
          "name": "newStatus",
          "type": "bool"
        }
      ],
      "name": "ContractStatusUpdate",
      "type": "event"
    },
    {
      "anonymous": false,
      "inputs": [
        {
          "indexed": false,
          "internalType": "address",
          "name": "newAddress",
          "type": "address"
        },
        {
          "indexed": false,
          "internalType": "bytes32",
          "name": "contractName",
          "type": "bytes32"
        }
      ],
      "name": "LibContractAddressUpdate",
      "type": "event"
    },
    {
      "anonymous": false,
      "inputs": [
        {
          "indexed": true,
          "internalType": "address",
          "name": "player",
          "type": "address"
        },
        {
          "indexed": false,
          "internalType": "bytes32",
          "name": "name",
          "type": "bytes32"
        }
      ],
      "name": "NewCharacterMinted",
      "type": "event"
    },
    {
      "anonymous": false,
      "inputs": [
        {
          "indexed": true,
          "internalType": "address",
          "name": "player1",
          "type": "address"
        },
        {
          "indexed": true,
          "internalType": "address",
          "name": "player2",
          "type": "address"
        },
        {
          "indexed": false,
          "internalType": "uint256",
          "name": "id",
          "type": "uint256"
        }
      ],
      "name": "NewFightRequest",
      "type": "event"
    },
    {
      "anonymous": false,
      "inputs": [
        {
          "indexed": true,
          "internalType": "address",
          "name": "player1",
          "type": "address"
        },
        {
          "indexed": true,
          "internalType": "address",
          "name": "player2",
          "type": "address"
        }
      ],
      "name": "NewFightRequestAccepted",
      "type": "event"
    },
    {
      "anonymous": false,
      "inputs": [
        {
          "indexed": true,
          "internalType": "address",
          "name": "player",
          "type": "address"
        },
        {
          "indexed": false,
          "internalType": "bytes32",
          "name": "name",
          "type": "bytes32"
        },
        {
          "indexed": false,
          "internalType": "uint256",
          "name": "totalPlayers",
          "type": "uint256"
        }
      ],
      "name": "NewPlayerRegistered",
      "type": "event"
    },
    {
      "anonymous": false,
      "inputs": [
        {
          "indexed": true,
          "internalType": "enum IEtherealBase.ElementOfNature",
          "name": "_me",
          "type": "uint8"
        },
        {
          "indexed": false,
          "internalType": "enum IEtherealBase.ElementOfNature",
          "name": "_enemy",
          "type": "uint8"
        },
        {
          "indexed": false,
          "internalType": "uint8",
          "name": "_prob",
          "type": "uint8"
        }
      ],
      "name": "ProbabilityOfWinningUpdate",
      "type": "event"
    },
    {
      "anonymous": false,
      "inputs": [
        {
          "indexed": true,
          "internalType": "bytes32",
          "name": "role",
          "type": "bytes32"
        },
        {
          "indexed": true,
          "internalType": "bytes32",
          "name": "previousAdminRole",
          "type": "bytes32"
        },
        {
          "indexed": true,
          "internalType": "bytes32",
          "name": "newAdminRole",
          "type": "bytes32"
        }
      ],
      "name": "RoleAdminChanged",
      "type": "event"
    },
    {
      "anonymous": false,
      "inputs": [
        {
          "indexed": true,
          "internalType": "bytes32",
          "name": "role",
          "type": "bytes32"
        },
        {
          "indexed": true,
          "internalType": "address",
          "name": "account",
          "type": "address"
        },
        {
          "indexed": true,
          "internalType": "address",
          "name": "sender",
          "type": "address"
        }
      ],
      "name": "RoleGranted",
      "type": "event"
    },
    {
      "anonymous": false,
      "inputs": [
        {
          "indexed": true,
          "internalType": "bytes32",
          "name": "role",
          "type": "bytes32"
        },
        {
          "indexed": true,
          "internalType": "address",
          "name": "account",
          "type": "address"
        },
        {
          "indexed": true,
          "internalType": "address",
          "name": "sender",
          "type": "address"
        }
      ],
      "name": "RoleRevoked",
      "type": "event"
    },
    {
      "inputs": [],
      "name": "DEFAULT_ADMIN_ROLE",
      "outputs": [
        {
          "internalType": "bytes32",
          "name": "",
          "type": "bytes32"
        }
      ],
      "stateMutability": "view",
      "type": "function"
    },
    {
      "inputs": [],
      "name": "PLAYER_ROLE",
      "outputs": [
        {
          "internalType": "bytes32",
          "name": "",
          "type": "bytes32"
        }
      ],
      "stateMutability": "view",
      "type": "function"
    },
    {
      "inputs": [],
      "name": "active",
      "outputs": [
        {
          "internalType": "bool",
          "name": "",
          "type": "bool"
        }
      ],
      "stateMutability": "view",
      "type": "function"
    },
    {
      "inputs": [],
      "name": "characterContract",
      "outputs": [
        {
          "internalType": "address",
          "name": "",
          "type": "address"
        }
      ],
      "stateMutability": "view",
      "type": "function"
    },
    {
      "inputs": [
        {
          "internalType": "address",
          "name": "",
          "type": "address"
        },
        {
          "internalType": "uint256",
          "name": "",
          "type": "uint256"
        }
      ],
      "name": "fightRequests",
      "outputs": [
        {
          "internalType": "address",
          "name": "contender",
          "type": "address"
        },
        {
          "internalType": "bool",
          "name": "accepted",
          "type": "bool"
        },
        {
          "internalType": "bool",
          "name": "rejected",
          "type": "bool"
        },
        {
          "internalType": "bool",
          "name": "pending",
          "type": "bool"
        },
        {
          "internalType": "bool",
          "name": "win",
          "type": "bool"
        },
        {
          "internalType": "bool",
          "name": "loss",
          "type": "bool"
        },
        {
          "internalType": "uint256",
          "name": "expirationDate",
          "type": "uint256"
        }
      ],
      "stateMutability": "view",
      "type": "function"
    },
    {
      "inputs": [
        {
          "internalType": "bytes32",
          "name": "role",
          "type": "bytes32"
        }
      ],
      "name": "getRoleAdmin",
      "outputs": [
        {
          "internalType": "bytes32",
          "name": "",
          "type": "bytes32"
        }
      ],
      "stateMutability": "view",
      "type": "function"
    },
    {
      "inputs": [
        {
          "internalType": "bytes32",
          "name": "role",
          "type": "bytes32"
        },
        {
          "internalType": "uint256",
          "name": "index",
          "type": "uint256"
        }
      ],
      "name": "getRoleMember",
      "outputs": [
        {
          "internalType": "address",
          "name": "",
          "type": "address"
        }
      ],
      "stateMutability": "view",
      "type": "function"
    },
    {
      "inputs": [
        {
          "internalType": "bytes32",
          "name": "role",
          "type": "bytes32"
        }
      ],
      "name": "getRoleMemberCount",
      "outputs": [
        {
          "internalType": "uint256",
          "name": "",
          "type": "uint256"
        }
      ],
      "stateMutability": "view",
      "type": "function"
    },
    {
      "inputs": [
        {
          "internalType": "bytes32",
          "name": "role",
          "type": "bytes32"
        },
        {
          "internalType": "address",
          "name": "account",
          "type": "address"
        }
      ],
      "name": "grantRole",
      "outputs": [],
      "stateMutability": "nonpayable",
      "type": "function"
    },
    {
      "inputs": [
        {
          "internalType": "bytes32",
          "name": "role",
          "type": "bytes32"
        },
        {
          "internalType": "address",
          "name": "account",
          "type": "address"
        }
      ],
      "name": "hasRole",
      "outputs": [
        {
          "internalType": "bool",
          "name": "",
          "type": "bool"
        }
      ],
      "stateMutability": "view",
      "type": "function"
    },
    {
      "inputs": [],
      "name": "initialTokens",
      "outputs": [
        {
          "internalType": "uint256",
          "name": "",
          "type": "uint256"
        }
      ],
      "stateMutability": "view",
      "type": "function"
    },
    {
      "inputs": [],
      "name": "kopernikTokenContract",
      "outputs": [
        {
          "internalType": "address",
          "name": "",
          "type": "address"
        }
      ],
      "stateMutability": "view",
      "type": "function"
    },
    {
      "inputs": [],
      "name": "numPlayers",
      "outputs": [
        {
          "internalType": "uint256",
          "name": "",
          "type": "uint256"
        }
      ],
      "stateMutability": "view",
      "type": "function"
    },
    {
      "inputs": [],
      "name": "planetContract",
      "outputs": [
        {
          "internalType": "address",
          "name": "",
          "type": "address"
        }
      ],
      "stateMutability": "view",
      "type": "function"
    },
    {
      "inputs": [
        {
          "internalType": "address",
          "name": "",
          "type": "address"
        }
      ],
      "name": "playerData",
      "outputs": [
        {
          "internalType": "bytes32",
          "name": "nickname",
          "type": "bytes32"
        },
        {
          "internalType": "uint32",
          "name": "wins",
          "type": "uint32"
        },
        {
          "internalType": "uint32",
          "name": "loss",
          "type": "uint32"
        },
        {
          "internalType": "uint32",
          "name": "tie",
          "type": "uint32"
        },
        {
          "internalType": "uint32",
          "name": "gaveup",
          "type": "uint32"
        }
      ],
      "stateMutability": "view",
      "type": "function"
    },
    {
      "inputs": [
        {
          "internalType": "address",
          "name": "",
          "type": "address"
        }
      ],
      "name": "playerIsRegistered",
      "outputs": [
        {
          "internalType": "bool",
          "name": "",
          "type": "bool"
        }
      ],
      "stateMutability": "view",
      "type": "function"
    },
    {
      "inputs": [
        {
          "internalType": "bytes32",
          "name": "",
          "type": "bytes32"
        }
      ],
      "name": "playerNicknameExists",
      "outputs": [
        {
          "internalType": "bool",
          "name": "",
          "type": "bool"
        }
      ],
      "stateMutability": "view",
      "type": "function"
    },
    {
      "inputs": [
        {
          "internalType": "uint256",
          "name": "",
          "type": "uint256"
        }
      ],
      "name": "players",
      "outputs": [
        {
          "internalType": "address",
          "name": "",
          "type": "address"
        }
      ],
      "stateMutability": "view",
      "type": "function"
    },
    {
      "inputs": [
        {
          "internalType": "enum IEtherealBase.ElementOfNature",
          "name": "",
          "type": "uint8"
        },
        {
          "internalType": "enum IEtherealBase.ElementOfNature",
          "name": "",
          "type": "uint8"
        }
      ],
      "name": "probabilityOfWinningAgainstElem",
      "outputs": [
        {
          "internalType": "uint8",
          "name": "",
          "type": "uint8"
        }
      ],
      "stateMutability": "view",
      "type": "function"
    },
    {
      "inputs": [
        {
          "internalType": "bytes32",
          "name": "role",
          "type": "bytes32"
        },
        {
          "internalType": "address",
          "name": "account",
          "type": "address"
        }
      ],
      "name": "renounceRole",
      "outputs": [],
      "stateMutability": "nonpayable",
      "type": "function"
    },
    {
      "inputs": [
        {
          "internalType": "bytes32",
          "name": "role",
          "type": "bytes32"
        },
        {
          "internalType": "address",
          "name": "account",
          "type": "address"
        }
      ],
      "name": "revokeRole",
      "outputs": [],
      "stateMutability": "nonpayable",
      "type": "function"
    },
    {
      "inputs": [],
      "name": "topFighter",
      "outputs": [
        {
          "internalType": "uint256",
          "name": "",
          "type": "uint256"
        }
      ],
      "stateMutability": "view",
      "type": "function"
    },
    {
      "inputs": [],
      "name": "topPlayer",
      "outputs": [
        {
          "internalType": "address",
          "name": "",
          "type": "address"
        }
      ],
      "stateMutability": "view",
      "type": "function"
    },
    {
      "inputs": [
        {
          "internalType": "address",
          "name": "",
          "type": "address"
        }
      ],
      "name": "totalFightRequests",
      "outputs": [
        {
          "internalType": "uint256",
          "name": "",
          "type": "uint256"
        }
      ],
      "stateMutability": "view",
      "type": "function"
    },
    {
      "inputs": [],
      "name": "weaponsContract",
      "outputs": [
        {
          "internalType": "address",
          "name": "",
          "type": "address"
        }
      ],
      "stateMutability": "view",
      "type": "function"
    },
    {
      "inputs": [
        {
          "internalType": "bytes32",
          "name": "_name",
          "type": "bytes32"
        }
      ],
      "name": "registerPlayer",
      "outputs": [],
      "stateMutability": "nonpayable",
      "type": "function"
    },
    {
      "inputs": [
        {
          "components": [
            {
              "internalType": "bytes32",
              "name": "name",
              "type": "bytes32"
            },
            {
              "internalType": "bytes24",
              "name": "birthdate",
              "type": "bytes24"
            },
            {
              "internalType": "string",
              "name": "description",
              "type": "string"
            },
            {
              "internalType": "uint256",
              "name": "planetId",
              "type": "uint256"
            },
            {
              "internalType": "uint8",
              "name": "genre",
              "type": "uint8"
            }
          ],
          "internalType": "struct IEtherealBase.CharacterBaseMetadata",
          "name": "extraBaseMetaData",
          "type": "tuple"
        },
        {
          "components": [
            {
              "internalType": "uint24",
              "name": "skintone",
              "type": "uint24"
            },
            {
              "internalType": "uint24",
              "name": "haircolor",
              "type": "uint24"
            },
            {
              "internalType": "uint24",
              "name": "eyescolor",
              "type": "uint24"
            },
            {
              "internalType": "uint16",
              "name": "weight",
              "type": "uint16"
            },
            {
              "internalType": "uint16",
              "name": "height",
              "type": "uint16"
            },
            {
              "internalType": "uint8",
              "name": "bodyType",
              "type": "uint8"
            }
          ],
          "internalType": "struct IEtherealBase.CharacterPhysicalMetadata",
          "name": "extraPhysicalMetaData",
          "type": "tuple"
        },
        {
          "components": [
            {
              "internalType": "enum IEtherealBase.ElementOfNature",
              "name": "primaryElement",
              "type": "uint8"
            },
            {
              "internalType": "enum IEtherealBase.ElementOfNature",
              "name": "secondaryElement",
              "type": "uint8"
            },
            {
              "internalType": "uint8",
              "name": "life",
              "type": "uint8"
            },
            {
              "internalType": "uint8",
              "name": "armor",
              "type": "uint8"
            },
            {
              "internalType": "uint8",
              "name": "strength",
              "type": "uint8"
            },
            {
              "internalType": "uint8",
              "name": "speed",
              "type": "uint8"
            },
            {
              "internalType": "uint8",
              "name": "luck",
              "type": "uint8"
            },
            {
              "internalType": "uint8",
              "name": "spirit",
              "type": "uint8"
            }
          ],
          "internalType": "struct IEtherealBase.CharacterAttributesMetadata",
          "name": "extraAbilitiesMetaData",
          "type": "tuple"
        }
      ],
      "name": "createCharacter",
      "outputs": [
        {
          "internalType": "uint256",
          "name": "",
          "type": "uint256"
        }
      ],
      "stateMutability": "nonpayable",
      "type": "function"
    },
    {
      "inputs": [
        {
          "internalType": "address",
          "name": "_contender",
          "type": "address"
        }
      ],
      "name": "requestFight",
      "outputs": [
        {
          "internalType": "uint256",
          "name": "",
          "type": "uint256"
        }
      ],
      "stateMutability": "nonpayable",
      "type": "function"
    },
    {
      "inputs": [
        {
          "internalType": "enum IEtherealBase.ElementOfNature",
          "name": "_me",
          "type": "uint8"
        },
        {
          "internalType": "enum IEtherealBase.ElementOfNature",
          "name": "_enemy",
          "type": "uint8"
        },
        {
          "internalType": "uint8",
          "name": "_probWin",
          "type": "uint8"
        }
      ],
      "name": "assignProbabilityOfWinning",
      "outputs": [],
      "stateMutability": "nonpayable",
      "type": "function"
    },
    {
      "inputs": [
        {
          "internalType": "bool",
          "name": "_active",
          "type": "bool"
        }
      ],
      "name": "activateDeactivateContract",
      "outputs": [],
      "stateMutability": "nonpayable",
      "type": "function"
    }
  ],
  "bytecode": "0x60806040523480156200001157600080fd5b5060405162003b7e38038062003b7e833981810160405281019062000037919062000484565b6200005b6000801b6200004f620000cc60201b60201c565b620000d460201b60201c565b6200006c85620000ea60201b60201c565b6200007d846200016760201b60201c565b6200008e83620001e460201b60201c565b6200009f826200026160201b60201c565b80600f819055506001600460146101000a81548160ff0219169083151502179055505050505050620006cd565b600033905090565b620000e68282620002de60201b60201c565b5050565b80600160006101000a81548173ffffffffffffffffffffffffffffffffffffffff021916908373ffffffffffffffffffffffffffffffffffffffff1602179055507fc02dd078a5d63c2645d0da4b3173f425d353dafebbb14064059edbd4244a31bf816040516200015c919062000630565b60405180910390a150565b80600260006101000a81548173ffffffffffffffffffffffffffffffffffffffff021916908373ffffffffffffffffffffffffffffffffffffffff1602179055507fc02dd078a5d63c2645d0da4b3173f425d353dafebbb14064059edbd4244a31bf81604051620001d99190620005af565b60405180910390a150565b80600360006101000a81548173ffffffffffffffffffffffffffffffffffffffff021916908373ffffffffffffffffffffffffffffffffffffffff1602179055507fc02dd078a5d63c2645d0da4b3173f425d353dafebbb14064059edbd4244a31bf81604051620002569190620005da565b60405180910390a150565b80600460006101000a81548173ffffffffffffffffffffffffffffffffffffffff021916908373ffffffffffffffffffffffffffffffffffffffff1602179055507fc02dd078a5d63c2645d0da4b3173f425d353dafebbb14064059edbd4244a31bf81604051620002d3919062000605565b60405180910390a150565b6200030c816000808581526020019081526020016000206000016200038160201b62000ece1790919060201c565b156200037d5762000322620000cc60201b60201c565b73ffffffffffffffffffffffffffffffffffffffff168173ffffffffffffffffffffffffffffffffffffffff16837f2f8788117e7eff1d82e926ec794901d17c78024a50270940304540a733656f0d60405160405180910390a45b5050565b6000620003b1836000018373ffffffffffffffffffffffffffffffffffffffff1660001b620003b960201b60201c565b905092915050565b6000620003cd83836200043360201b60201c565b620004285782600001829080600181540180825580915050600190039060005260206000200160009091909190915055826000018054905083600101600084815260200190815260200160002081905550600190506200042d565b600090505b92915050565b600080836001016000848152602001908152602001600020541415905092915050565b600081519050620004678162000699565b92915050565b6000815190506200047e81620006b3565b92915050565b600080600080600060a086880312156200049d57600080fd5b6000620004ad8882890162000456565b9550506020620004c08882890162000456565b9450506040620004d38882890162000456565b9350506060620004e68882890162000456565b9250506080620004f9888289016200046d565b9150509295509295909350565b62000511816200065b565b82525050565b7f6368617261637465720000000000000000000000000000000000000000000000815250565b7f776561706f6e0000000000000000000000000000000000000000000000000000815250565b7f6b6f7065726e696b000000000000000000000000000000000000000000000000815250565b7f706c616e65740000000000000000000000000000000000000000000000000000815250565b6000604082019050620005c6600083018462000506565b620005d46020830162000517565b92915050565b6000604082019050620005f1600083018462000506565b620005ff602083016200053d565b92915050565b60006040820190506200061c600083018462000506565b6200062a6020830162000563565b92915050565b600060408201905062000647600083018462000506565b620006556020830162000589565b92915050565b600062000668826200066f565b9050919050565b600073ffffffffffffffffffffffffffffffffffffffff82169050919050565b6000819050919050565b620006a4816200065b565b8114620006b057600080fd5b50565b620006be816200068f565b8114620006ca57600080fd5b50565b6134a180620006dd6000396000f3fe608060405234801561001057600080fd5b50600436106101da5760003560e01c80638d0494f511610104578063a84d7833116100a2578063d5cfee3e11610071578063d5cfee3e146105b1578063daee4ec8146105e1578063e18e32dc146105ff578063f71d96cb1461061b576101da565b8063a84d783314610505578063be353a5014610535578063ca15c87314610565578063d547741f14610595576101da565b806391d14854116100de57806391d148541461046957806397b2f556146104995780639ccd14b9146104b7578063a217fddf146104e7576101da565b80638d0494f5146103eb5780638f089c171461041b5780639010d07c14610439576101da565b80633505c67d1161017c5780634810c35b1161014b5780634810c35b1461036357806350bfeadc146103935780636ebe71f8146103b15780638996e7dc146103cf576101da565b80633505c67d146102d757806336568abe146102f5578063424aeded1461031157806343b60f7414610345576101da565b8063248a9ca3116101b8578063248a9ca3146102375780632a02d1fd146102675780632f2ff15d14610285578063309e5a5f146102a1576101da565b806302fb0c5e146101df57806316c30ebc146101fd57806321bbf14c1461021b575b600080fd5b6101e761064b565b6040516101f49190612e0b565b60405180910390f35b61020561065e565b6040516102129190612e26565b60405180910390f35b610235600480360381019061023091906123ef565b610682565b005b610251600480360381019061024c9190612441565b610729565b60405161025e9190612e26565b60405180910390f35b61026f610748565b60405161027c9190612ce1565b60405180910390f35b61029f600480360381019061029a919061246a565b61076e565b005b6102bb60048036038101906102b691906123b3565b6107f7565b6040516102ce9796959493929190612d73565b60405180910390f35b6102df6108b7565b6040516102ec9190612ce1565b60405180910390f35b61030f600480360381019061030a919061246a565b6108dd565b005b61032b6004803603810190610326919061238a565b610976565b60405161033c959493929190612e6a565b60405180910390f35b61034d6109ec565b60405161035a9190612ce1565b60405180910390f35b61037d60048036038101906103789190612441565b610a12565b60405161038a9190612e0b565b60405180910390f35b61039b610a32565b6040516103a891906130a1565b60405180910390f35b6103b9610a38565b6040516103c69190612ce1565b60405180910390f35b6103e960048036038101906103e49190612441565b610a5e565b005b6104056004803603810190610400919061238a565b610ac9565b60405161041291906130a1565b60405180910390f35b610423610ba0565b6040516104309190612ce1565b60405180910390f35b610453600480360381019061044e91906124a6565b610bc6565b6040516104609190612ce1565b60405180910390f35b610483600480360381019061047e919061246a565b610bf7565b6040516104909190612e0b565b60405180910390f35b6104a1610c28565b6040516104ae91906130a1565b60405180910390f35b6104d160048036038101906104cc91906124e2565b610c2e565b6040516104de91906130bc565b60405180910390f35b6104ef610c5d565b6040516104fc9190612e26565b60405180910390f35b61051f600480360381019061051a919061256d565b610c64565b60405161052c91906130a1565b60405180910390f35b61054f600480360381019061054a919061238a565b610d3f565b60405161055c91906130a1565b60405180910390f35b61057f600480360381019061057a9190612441565b610d57565b60405161058c91906130a1565b60405180910390f35b6105af60048036038101906105aa919061246a565b610d7d565b005b6105cb60048036038101906105c6919061238a565b610e06565b6040516105d89190612e0b565b60405180910390f35b6105e9610e26565b6040516105f691906130a1565b60405180910390f35b6106196004803603810190610614919061251e565b610e2c565b005b610635600480360381019061063091906125d5565b610e8f565b6040516106429190612ce1565b60405180910390f35b600460149054906101000a900460ff1681565b7fce04d177cfe9f73a7157bda35b0add7251966ad70509ceaef76ad7d5e6c4504281565b6106966000801b610691610efe565b610bf7565b6106d5576040517f08c379a00000000000000000000000000000000000000000000000000000000081526004016106cc90612f21565b60405180910390fd5b80600460146101000a81548160ff0219169083151502179055507f09712b3452a5348a0328397d58ce3c6cdc382ad233b3c04924a1f5683fa925748160405161071e9190612e0b565b60405180910390a150565b6000806000838152602001908152602001600020600201549050919050565b600460009054906101000a900473ffffffffffffffffffffffffffffffffffffffff1681565b6107946000808481526020019081526020016000206002015461078f610efe565b610bf7565b6107e9576040517f08c379a000000000000000000000000000000000000000000000000000000000815260040180806020018281038252602f8152602001806133de602f913960400191505060405180910390fd5b6107f38282610f06565b5050565b600a602052816000526040600020818154811061081357600080fd5b9060005260206000209060020201600091509150508060000160009054906101000a900473ffffffffffffffffffffffffffffffffffffffff16908060000160149054906101000a900460ff16908060000160159054906101000a900460ff16908060000160169054906101000a900460ff16908060000160179054906101000a900460ff16908060000160189054906101000a900460ff16908060010154905087565b600360009054906101000a900473ffffffffffffffffffffffffffffffffffffffff1681565b6108e5610efe565b73ffffffffffffffffffffffffffffffffffffffff168173ffffffffffffffffffffffffffffffffffffffff1614610968576040517f08c379a000000000000000000000000000000000000000000000000000000000815260040180806020018281038252602f81526020018061343d602f913960400191505060405180910390fd5b6109728282610f99565b5050565b60056020528060005260406000206000915090508060000154908060010160009054906101000a900463ffffffff16908060010160049054906101000a900463ffffffff16908060010160089054906101000a900463ffffffff169080600101600c9054906101000a900463ffffffff16905085565b600260009054906101000a900473ffffffffffffffffffffffffffffffffffffffff1681565b60086020528060005260406000206000915054906101000a900460ff1681565b600f5481565b600d60009054906101000a900473ffffffffffffffffffffffffffffffffffffffff1681565b600460149054906101000a900460ff16610aad576040517f08c379a0000000000000000000000000000000000000000000000000000000008152600401610aa490612f61565b60405180910390fd5b610ab68161102c565b610ac6610ac1610efe565b6114cb565b50565b6000600460149054906101000a900460ff16610b1a576040517f08c379a0000000000000000000000000000000000000000000000000000000008152600401610b1190612f61565b60405180910390fd5b610b4b7fce04d177cfe9f73a7157bda35b0add7251966ad70509ceaef76ad7d5e6c45042610b46610efe565b610bf7565b610b8a576040517f08c379a0000000000000000000000000000000000000000000000000000000008152600401610b8190612fc1565b60405180910390fd5b6000610b9583611697565b905080915050919050565b600160009054906101000a900473ffffffffffffffffffffffffffffffffffffffff1681565b6000610bef82600080868152602001908152602001600020600001611ac790919063ffffffff16565b905092915050565b6000610c2082600080868152602001908152602001600020600001611ae190919063ffffffff16565b905092915050565b60075481565b600c6020528160005260406000206020528060005260406000206000915091509054906101000a900460ff1681565b6000801b81565b6000600460149054906101000a900460ff16610cb5576040517f08c379a0000000000000000000000000000000000000000000000000000000008152600401610cac90612f61565b60405180910390fd5b610ce67fce04d177cfe9f73a7157bda35b0add7251966ad70509ceaef76ad7d5e6c45042610ce1610efe565b610bf7565b610d25576040517f08c379a0000000000000000000000000000000000000000000000000000000008152600401610d1c90612fe1565b60405180910390fd5b6000610d32858585611b11565b9050809150509392505050565b600b6020528060005260406000206000915090505481565b6000610d76600080848152602001908152602001600020600001611c3a565b9050919050565b610da360008084815260200190815260200160002060020154610d9e610efe565b610bf7565b610df8576040517f08c379a000000000000000000000000000000000000000000000000000000000815260040180806020018281038252603081526020018061340d6030913960400191505060405180910390fd5b610e028282610f99565b5050565b60096020528060005260406000206000915054906101000a900460ff1681565b600e5481565b610e406000801b610e3b610efe565b610bf7565b610e7f576040517f08c379a0000000000000000000000000000000000000000000000000000000008152600401610e7690613001565b60405180910390fd5b610e8a838383611c4f565b505050565b60068181548110610e9f57600080fd5b906000526020600020016000915054906101000a900473ffffffffffffffffffffffffffffffffffffffff1681565b6000610ef6836000018373ffffffffffffffffffffffffffffffffffffffff1660001b611e00565b905092915050565b600033905090565b610f2d81600080858152602001908152602001600020600001610ece90919063ffffffff16565b15610f9557610f3a610efe565b73ffffffffffffffffffffffffffffffffffffffff168173ffffffffffffffffffffffffffffffffffffffff16837f2f8788117e7eff1d82e926ec794901d17c78024a50270940304540a733656f0d60405160405180910390a45b5050565b610fc081600080858152602001908152602001600020600001611e7090919063ffffffff16565b1561102857610fcd610efe565b73ffffffffffffffffffffffffffffffffffffffff168173ffffffffffffffffffffffffffffffffffffffff16837ff6391f5c32d9c69d2a47ea670b442974b53935d1edc7fd64eb21e047a839171b60405160405180910390a45b5050565b8060405160200161103c90613041565b60405160208183030381529060405280519060200120816040516020016110639190612e26565b60405160208183030381529060405280519060200120141580156110d4575060006040516020016110949190612ee6565b60405160208183030381529060405280519060200120816040516020016110bb9190612e26565b6040516020818303038152906040528051906020012014155b611113576040517f08c379a000000000000000000000000000000000000000000000000000000000815260040161110a90612f41565b60405180910390fd5b6009600061111f610efe565b73ffffffffffffffffffffffffffffffffffffffff1673ffffffffffffffffffffffffffffffffffffffff16815260200190815260200160002060009054906101000a900460ff16156111a7576040517f08c379a000000000000000000000000000000000000000000000000000000000815260040161119e90612fa1565b60405180910390fd5b816008600082815260200190815260200160002060009054906101000a900460ff1615611209576040517f08c379a000000000000000000000000000000000000000000000000000000000815260040161120090612f81565b60405180910390fd5b6040518060a00160405280848152602001600063ffffffff168152602001600063ffffffff168152602001600063ffffffff168152602001600063ffffffff1681525060056000611258610efe565b73ffffffffffffffffffffffffffffffffffffffff1673ffffffffffffffffffffffffffffffffffffffff1681526020019081526020016000206000820151816000015560208201518160010160006101000a81548163ffffffff021916908363ffffffff16021790555060408201518160010160046101000a81548163ffffffff021916908363ffffffff16021790555060608201518160010160086101000a81548163ffffffff021916908363ffffffff160217905550608082015181600101600c6101000a81548163ffffffff021916908363ffffffff1602179055509050506006611345610efe565b9080600181540180825580915050600190039060005260206000200160009091909190916101000a81548173ffffffffffffffffffffffffffffffffffffffff021916908373ffffffffffffffffffffffffffffffffffffffff16021790555060016008600085815260200190815260200160002060006101000a81548160ff0219169083151502179055506001600960006113df610efe565b73ffffffffffffffffffffffffffffffffffffffff1673ffffffffffffffffffffffffffffffffffffffff16815260200190815260200160002060006101000a81548160ff02191690831515021790555060068054905060078190555061146d7fce04d177cfe9f73a7157bda35b0add7251966ad70509ceaef76ad7d5e6c45042611468610efe565b611ea0565b611475610efe565b73ffffffffffffffffffffffffffffffffffffffff167fb15dfd21b68df9009b3cf0c00f71adb58432149afacbb5e885e3cece431e95ff846007546040516114be929190612e41565b60405180910390a2505050565b6000600460009054906101000a900473ffffffffffffffffffffffffffffffffffffffff16905060008173ffffffffffffffffffffffffffffffffffffffff166370a08231306040518263ffffffff1660e01b815260040161152d9190612ce1565b60206040518083038186803b15801561154557600080fd5b505afa158015611559573d6000803e3d6000fd5b505050506040513d601f19601f8201168201806040525081019061157d91906125fe565b9050600f548110156115c4576040517f08c379a00000000000000000000000000000000000000000000000000000000081526004016115bb90612f01565b60405180910390fd5b8173ffffffffffffffffffffffffffffffffffffffff1663a9059cbb84600f546040518363ffffffff1660e01b8152600401611601929190612de2565b602060405180830381600087803b15801561161b57600080fd5b505af115801561162f573d6000803e3d6000fd5b505050506040513d601f19601f820116820180604052508101906116539190612418565b611692576040517f08c379a000000000000000000000000000000000000000000000000000000000815260040161168990613081565b60405180910390fd5b505050565b60006001600460009054906101000a900473ffffffffffffffffffffffffffffffffffffffff1673ffffffffffffffffffffffffffffffffffffffff1663dd62ed3e6116e1610efe565b306040518363ffffffff1660e01b81526004016116ff929190612cfc565b60206040518083038186803b15801561171757600080fd5b505afa15801561172b573d6000803e3d6000fd5b505050506040513d601f19601f8201168201806040525081019061174f91906125fe565b1015611790576040517f08c379a000000000000000000000000000000000000000000000000000000000815260040161178790613061565b60405180910390fd5b600a60008373ffffffffffffffffffffffffffffffffffffffff1673ffffffffffffffffffffffffffffffffffffffff1681526020019081526020016000206040518060e001604052806117e2610efe565b73ffffffffffffffffffffffffffffffffffffffff168152602001600015158152602001600015158152602001600115158152602001600015158152602001600015158152602001620151804201815250908060018154018082558091505060019003906000526020600020906002020160009091909190915060008201518160000160006101000a81548173ffffffffffffffffffffffffffffffffffffffff021916908373ffffffffffffffffffffffffffffffffffffffff16021790555060208201518160000160146101000a81548160ff02191690831515021790555060408201518160000160156101000a81548160ff02191690831515021790555060608201518160000160166101000a81548160ff02191690831515021790555060808201518160000160176101000a81548160ff02191690831515021790555060a08201518160000160186101000a81548160ff02191690831515021790555060c082015181600101555050600a60008373ffffffffffffffffffffffffffffffffffffffff1673ffffffffffffffffffffffffffffffffffffffff16815260200190815260200160002080549050600b60008473ffffffffffffffffffffffffffffffffffffffff1673ffffffffffffffffffffffffffffffffffffffff168152602001908152602001600020819055508173ffffffffffffffffffffffffffffffffffffffff166119f4610efe565b73ffffffffffffffffffffffffffffffffffffffff167f9666d22455f262a428885a8577a540aa86f9d8697637c663bd39379ce76341dd600b60008673ffffffffffffffffffffffffffffffffffffffff1673ffffffffffffffffffffffffffffffffffffffff16815260200190815260200160002054604051611a7891906130a1565b60405180910390a3600b60008373ffffffffffffffffffffffffffffffffffffffff1673ffffffffffffffffffffffffffffffffffffffff168152602001908152602001600020549050919050565b6000611ad68360000183611eae565b60001c905092915050565b6000611b09836000018373ffffffffffffffffffffffffffffffffffffffff1660001b611f31565b905092915050565b600080600260009054906101000a900473ffffffffffffffffffffffffffffffffffffffff16905060008173ffffffffffffffffffffffffffffffffffffffff1663af3ca093611b5f610efe565b8888886040518563ffffffff1660e01b8152600401611b819493929190612d25565b602060405180830381600087803b158015611b9b57600080fd5b505af1158015611baf573d6000803e3d6000fd5b505050506040513d601f19601f82011682018060405250810190611bd391906125fe565b9050611bdd610efe565b73ffffffffffffffffffffffffffffffffffffffff167f62be5f3bdc2d869fa9c0f72d60d1efc5baa37ba376c364bd58557e952b3fcf878760000151604051611c269190612e26565b60405180910390a280925050509392505050565b6000611c4882600001611f54565b9050919050565b60648160ff161115611c96576040517f08c379a0000000000000000000000000000000000000000000000000000000008152600401611c8d90613021565b60405180910390fd5b600081606403905081600c600086600c811115611caf57fe5b600c811115611cba57fe5b8152602001908152602001600020600085600c811115611cd657fe5b600c811115611ce157fe5b815260200190815260200160002060006101000a81548160ff021916908360ff16021790555083600c811115611d1357fe5b7f184ca1b6e59081f312c2ab1e90a1a442486d2324c3be4ebe8f4253f63082f6e88484604051611d44929190612ebd565b60405180910390a280600c600085600c811115611d5d57fe5b600c811115611d6857fe5b8152602001908152602001600020600086600c811115611d8457fe5b600c811115611d8f57fe5b815260200190815260200160002060006101000a81548160ff021916908360ff16021790555082600c811115611dc157fe5b7f184ca1b6e59081f312c2ab1e90a1a442486d2324c3be4ebe8f4253f63082f6e88583604051611df2929190612ebd565b60405180910390a250505050565b6000611e0c8383611f31565b611e65578260000182908060018154018082558091505060019003906000526020600020016000909190919091505582600001805490508360010160008481526020019081526020016000208190555060019050611e6a565b600090505b92915050565b6000611e98836000018373ffffffffffffffffffffffffffffffffffffffff1660001b611f65565b905092915050565b611eaa8282610f06565b5050565b600081836000018054905011611f0f576040517f08c379a00000000000000000000000000000000000000000000000000000000081526004018080602001828103825260228152602001806133bc6022913960400191505060405180910390fd5b826000018281548110611f1e57fe5b9060005260206000200154905092915050565b600080836001016000848152602001908152602001600020541415905092915050565b600081600001805490509050919050565b600080836001016000848152602001908152602001600020549050600081146120415760006001820390506000600186600001805490500390506000866000018281548110611fb057fe5b9060005260206000200154905080876000018481548110611fcd57fe5b906000526020600020018190555060018301876001016000838152602001908152602001600020819055508660000180548061200557fe5b60019003818190600052602060002001600090559055866001016000878152602001908152602001600020600090556001945050505050612047565b60009150505b92915050565b60008135905061205c816132f3565b92915050565b6000813590506120718161330a565b92915050565b6000815190506120868161330a565b92915050565b60008135905061209b81613321565b92915050565b6000813590506120b081613338565b92915050565b6000813590506120c58161334f565b92915050565b600082601f8301126120dc57600080fd5b81356120ef6120ea82613108565b6130d7565b9150808252602083016020830185838301111561210b57600080fd5b61211683828461328a565b50505092915050565b6000610100828403121561213257600080fd5b61213d6101006130d7565b9050600061214d848285016120b6565b6000830152506020612161848285016120b6565b602083015250604061217584828501612375565b604083015250606061218984828501612375565b606083015250608061219d84828501612375565b60808301525060a06121b184828501612375565b60a08301525060c06121c584828501612375565b60c08301525060e06121d984828501612375565b60e08301525092915050565b600060a082840312156121f757600080fd5b61220160a06130d7565b90506000612211848285016120a1565b60008301525060206122258482850161208c565b602083015250604082013567ffffffffffffffff81111561224557600080fd5b612251848285016120cb565b60408301525060606122658482850161234b565b606083015250608061227984828501612375565b60808301525092915050565b600060c0828403121561229757600080fd5b6122a160c06130d7565b905060006122b184828501612336565b60008301525060206122c584828501612336565b60208301525060406122d984828501612336565b60408301525060606122ed84828501612321565b606083015250608061230184828501612321565b60808301525060a061231584828501612375565b60a08301525092915050565b6000813590506123308161335f565b92915050565b60008135905061234581613376565b92915050565b60008135905061235a8161338d565b92915050565b60008151905061236f8161338d565b92915050565b600081359050612384816133a4565b92915050565b60006020828403121561239c57600080fd5b60006123aa8482850161204d565b91505092915050565b600080604083850312156123c657600080fd5b60006123d48582860161204d565b92505060206123e58582860161234b565b9150509250929050565b60006020828403121561240157600080fd5b600061240f84828501612062565b91505092915050565b60006020828403121561242a57600080fd5b600061243884828501612077565b91505092915050565b60006020828403121561245357600080fd5b6000612461848285016120a1565b91505092915050565b6000806040838503121561247d57600080fd5b600061248b858286016120a1565b925050602061249c8582860161204d565b9150509250929050565b600080604083850312156124b957600080fd5b60006124c7858286016120a1565b92505060206124d88582860161234b565b9150509250929050565b600080604083850312156124f557600080fd5b6000612503858286016120b6565b9250506020612514858286016120b6565b9150509250929050565b60008060006060848603121561253357600080fd5b6000612541868287016120b6565b9350506020612552868287016120b6565b925050604061256386828701612375565b9150509250925092565b60008060006101e0848603121561258357600080fd5b600084013567ffffffffffffffff81111561259d57600080fd5b6125a9868287016121e5565b93505060206125ba86828701612285565b92505060e06125cb8682870161211f565b9150509250925092565b6000602082840312156125e757600080fd5b60006125f58482850161234b565b91505092915050565b60006020828403121561261057600080fd5b600061261e84828501612360565b91505092915050565b61263081613230565b82525050565b61263f81613165565b82525050565b61264e81613177565b82525050565b61265d81613183565b82525050565b61266c816131af565b82525050565b61267b816131af565b82525050565b61268a81613242565b82525050565b61269981613242565b82525050565b6126a881613254565b82525050565b60006126b982613138565b6126c38185613143565b93506126d3818560208601613299565b6126dc816132ce565b840191505092915050565b60006126f4602c83613154565b91507f4e6f7420656e6f7567682062616c616e6365206f6e20457468657265616c476160008301527f6d6520636f6e74726163742100000000000000000000000000000000000000006020830152604082019050919050565b600061275a603083613154565b91507f616374697661746544656163746976617465436f6e74726163743a206d75737460008301527f20686176652061646d696e20726f6c65000000000000000000000000000000006020830152604082019050919050565b60006127c0601883613154565b91507f456d70747920737472696e67206e6f7420616c6c6f77656400000000000000006000830152602082019050919050565b6000612800601483613154565b91507f436f6e747261637420697320696e6163746976650000000000000000000000006000830152602082019050919050565b6000612840601c83613154565b91507f4e69636b6e616d65206e616d6520616c726561647920657869737473000000006000830152602082019050919050565b6000612880601c83613154565b91507f506c6179657220697320616c72656164792072656769737465726564000000006000830152602082019050919050565b60006128c0602383613154565b91507f7265717565737446696768743a206d757374206861766520706c61796572207260008301527f6f6c6500000000000000000000000000000000000000000000000000000000006020830152604082019050919050565b6000612926602683613154565b91507f6372656174654368617261637465723a206d757374206861766520706c61796560008301527f7220726f6c6500000000000000000000000000000000000000000000000000006020830152604082019050919050565b600061298c603083613154565b91507f61737369676e50726f626162696c6974794f6657696e6e696e673a206d75737460008301527f20686176652061646d696e20726f6c65000000000000000000000000000000006020830152604082019050919050565b60006129f2602583613154565b91507f50726f626162696c697479206d757374206265206265747765656e203020616e60008301527f64203130300000000000000000000000000000000000000000000000000000006020830152604082019050919050565b6000612a58600083613154565b9150600082019050919050565b6000612a72602083613154565b91507f4e6f7420656e6f75676820746f6b656e7320616c6c6f77656420746f207573656000830152602082019050919050565b6000612ab2601883613154565b91507f4572726f72207472616e73666572696e6720746f6b656e7300000000000000006000830152602082019050919050565b61010082016000820151612afc6000850182612681565b506020820151612b0f6020850182612681565b506040820151612b226040850182612cc3565b506060820151612b356060850182612cc3565b506080820151612b486080850182612cc3565b5060a0820151612b5b60a0850182612cc3565b5060c0820151612b6e60c0850182612cc3565b5060e0820151612b8160e0850182612cc3565b50505050565b600060a083016000830151612b9f6000860182612663565b506020830151612bb26020860182612654565b5060408301518482036040860152612bca82826126ae565b9150506060830151612bdf6060860182612c96565b506080830151612bf26080860182612cc3565b508091505092915050565b60c082016000820151612c136000850182612c87565b506020820151612c266020850182612c87565b506040820151612c396040850182612c87565b506060820151612c4c6060850182612c78565b506080820151612c5f6080850182612c78565b5060a0820151612c7260a0850182612cc3565b50505050565b612c81816131cc565b82525050565b612c90816131fa565b82525050565b612c9f81613209565b82525050565b612cae81613209565b82525050565b612cbd81613213565b82525050565b612ccc81613223565b82525050565b612cdb81613223565b82525050565b6000602082019050612cf66000830184612636565b92915050565b6000604082019050612d116000830185612627565b612d1e6020830184612636565b9392505050565b600061020082019050612d3b6000830187612627565b8181036020830152612d4d8186612b87565b9050612d5c6040830185612bfd565b612d6a610100830184612ae5565b95945050505050565b600060e082019050612d88600083018a612636565b612d956020830189612645565b612da26040830188612645565b612daf6060830187612645565b612dbc6080830186612645565b612dc960a0830185612645565b612dd660c0830184612ca5565b98975050505050505050565b6000604082019050612df76000830185612636565b612e046020830184612ca5565b9392505050565b6000602082019050612e206000830184612645565b92915050565b6000602082019050612e3b6000830184612672565b92915050565b6000604082019050612e566000830185612672565b612e636020830184612ca5565b9392505050565b600060a082019050612e7f6000830188612672565b612e8c6020830187612cb4565b612e996040830186612cb4565b612ea66060830185612cb4565b612eb36080830184612cb4565b9695505050505050565b6000604082019050612ed26000830185612690565b612edf6020830184612cd2565b9392505050565b6000602082019050612efb600083018461269f565b92915050565b60006020820190508181036000830152612f1a816126e7565b9050919050565b60006020820190508181036000830152612f3a8161274d565b9050919050565b60006020820190508181036000830152612f5a816127b3565b9050919050565b60006020820190508181036000830152612f7a816127f3565b9050919050565b60006020820190508181036000830152612f9a81612833565b9050919050565b60006020820190508181036000830152612fba81612873565b9050919050565b60006020820190508181036000830152612fda816128b3565b9050919050565b60006020820190508181036000830152612ffa81612919565b9050919050565b6000602082019050818103600083015261301a8161297f565b9050919050565b6000602082019050818103600083015261303a816129e5565b9050919050565b6000602082019050818103600083015261305a81612a4b565b9050919050565b6000602082019050818103600083015261307a81612a65565b9050919050565b6000602082019050818103600083015261309a81612aa5565b9050919050565b60006020820190506130b66000830184612ca5565b92915050565b60006020820190506130d16000830184612cd2565b92915050565b6000604051905081810181811067ffffffffffffffff821117156130fe576130fd6132cc565b5b8060405250919050565b600067ffffffffffffffff821115613123576131226132cc565b5b601f19601f8301169050602081019050919050565b600081519050919050565b600082825260208201905092915050565b600082825260208201905092915050565b6000613170826131da565b9050919050565b60008115159050919050565b60007fffffffffffffffffffffffffffffffffffffffffffffffff000000000000000082169050919050565b6000819050919050565b60008190506131c7826132df565b919050565b600061ffff82169050919050565b600073ffffffffffffffffffffffffffffffffffffffff82169050919050565b600062ffffff82169050919050565b6000819050919050565b600063ffffffff82169050919050565b600060ff82169050919050565b600061323b82613266565b9050919050565b600061324d826131b9565b9050919050565b600061325f82613223565b9050919050565b600061327182613278565b9050919050565b6000613283826131da565b9050919050565b82818337600083830152505050565b60005b838110156132b757808201518184015260208101905061329c565b838111156132c6576000848401525b50505050565bfe5b6000601f19601f8301169050919050565b600d81106132f0576132ef6132cc565b5b50565b6132fc81613165565b811461330757600080fd5b50565b61331381613177565b811461331e57600080fd5b50565b61332a81613183565b811461333557600080fd5b50565b613341816131af565b811461334c57600080fd5b50565b600d811061335c57600080fd5b50565b613368816131cc565b811461337357600080fd5b50565b61337f816131fa565b811461338a57600080fd5b50565b61339681613209565b81146133a157600080fd5b50565b6133ad81613223565b81146133b857600080fd5b5056fe456e756d657261626c655365743a20696e646578206f7574206f6620626f756e6473416363657373436f6e74726f6c3a2073656e646572206d75737420626520616e2061646d696e20746f206772616e74416363657373436f6e74726f6c3a2073656e646572206d75737420626520616e2061646d696e20746f207265766f6b65416363657373436f6e74726f6c3a2063616e206f6e6c792072656e6f756e636520726f6c657320666f722073656c66a26469706673582212207e009250ede7823737c6dfbe04cd0150d0bdd94146a419f6c6b9c04551205aa864736f6c63430007050033",
  "immutableReferences": {},
  "source": "// SPDX-License-Identifier: MIT\r\npragma solidity 0.7.5;\r\npragma abicoder v2;\r\n\r\nimport '@openzeppelin/contracts/access/AccessControl.sol';\r\nimport \"@openzeppelin/contracts/utils/Context.sol\";\r\nimport '@openzeppelin/contracts/math/SafeMath.sol';\r\nimport './SafeMath8.sol';\r\nimport './SafeMath16.sol';\r\nimport './SafeMath24.sol';\r\nimport './SafeMath32.sol';\r\nimport './IEtherealBase.sol';\r\nimport './IEtherealCharacter.sol';\r\nimport './IBEP20.sol';\r\n\r\ncontract EtherealGame is Context, AccessControl, IEtherealBase\r\n{\r\n  using SafeMath for uint256;\r\n  using SafeMath8 for uint8;\r\n  using SafeMath16 for uint16;\r\n  using SafeMath24 for uint24;\r\n  using SafeMath32 for uint32;\r\n\r\n  struct Player {\r\n    bytes32 nickname;\r\n    uint32 wins;\r\n    uint32 loss;\r\n    uint32 tie;\r\n    uint32 gaveup;\r\n  }\r\n\r\n  struct Fight {\r\n    address player1;\r\n    address player2;\r\n    uint256 player1CharacterId;\r\n    uint256 player2CharacterId;\r\n  }\r\n\r\n  struct FightRequest {\r\n    address contender;\r\n    bool accepted;\r\n    bool rejected;\r\n    bool pending;\r\n    bool win;\r\n    bool loss;\r\n    uint256 expirationDate;\r\n  }\r\n  \r\n  // Player role to improve access control\r\n  bytes32 public constant PLAYER_ROLE = keccak256(\"PLAYER_ROLE\");\r\n\r\n  // Addresses of other contracts\r\n  address public planetContract;\r\n  address public characterContract;\r\n  address public weaponsContract;\r\n  address public kopernikTokenContract;\r\n\r\n  // Contract status\r\n  bool public active;\r\n  // Table of players\r\n  mapping(address => Player) public playerData;\r\n  address[] public players;\r\n  uint256 public numPlayers;\r\n  mapping(bytes32 => bool) public playerNicknameExists;\r\n  mapping(address => bool) public playerIsRegistered;\r\n  \r\n  // Table of fight requests\r\n  mapping(address => FightRequest[]) public fightRequests;\r\n  mapping(address => uint256) public totalFightRequests;\r\n\r\n  // Table for Elements of nature probs\r\n  mapping(ElementOfNature => mapping(ElementOfNature => uint8)) public probabilityOfWinningAgainstElem;\r\n\r\n  // Statistics\r\n  address public topPlayer;\r\n  uint256 public topFighter;\r\n\r\n  // Settings\r\n  uint256 public initialTokens;\r\n\r\n  /*\r\n  * @dev Check if bytes32 is empty\r\n  */\r\n  modifier isNotEmptyBytes32(bytes32 _s)\r\n  {\r\n    require(\r\n      (keccak256(abi.encode(_s)) != keccak256(abi.encode(\"\"))) &&\r\n      (keccak256(abi.encode(_s)) != keccak256(abi.encode(0x00))),\r\n      \"Empty string not allowed\"\r\n    );\r\n    _;\r\n  }\r\n\r\n\r\n\t/*\r\n\t*\t@dev Check if contract is active\r\n\t*/\r\n\tmodifier isContractActive {\r\n\t\trequire( active, \"Contract is inactive\" );\r\n\t\t_;\r\n\t}\r\n\r\n  /*\r\n  * @dev Check if contract is active\r\n  */\r\n  modifier isNotRegistered() {\r\n    require(!playerIsRegistered[_msgSender()], \"Player is already registered\");\r\n    _;\r\n  }\r\n\r\n  /*\r\n  * @dev Check if planet name is available or if is already used\r\n  */\r\n  modifier isPlayerNicknameAvailable(bytes32 _name) {\r\n    require(\r\n      !playerNicknameExists[_name],\r\n      \"Nickname name already exists\"\r\n    );\r\n    _;\r\n  }\r\n\r\n\r\n  /*\r\n  * @dev Log contract status update\r\n  */\r\n  event ContractStatusUpdate(bool newStatus);\r\n  event LibContractAddressUpdate(address newAddress, bytes32 contractName);\r\n  event ProbabilityOfWinningUpdate(ElementOfNature indexed _me, ElementOfNature _enemy, uint8 _prob);\r\n  event NewPlayerRegistered(address indexed player, bytes32 name, uint256 totalPlayers);\r\n  event NewCharacterMinted(address indexed player, bytes32 name);\r\n  event NewFightRequest(address indexed player1, address indexed player2, uint256 id);\r\n  event NewFightRequestAccepted(address indexed player1, address indexed player2);\r\n\r\n  /*\r\n  * @dev Set default admin role to owner\r\n  */\r\n  constructor(\r\n    address _planetAddress,\r\n    address _characterAddress,\r\n    address _weaponAddress,\r\n    address _tokenAddress,\r\n    uint256 _initialTokens\r\n  ) {\r\n    _setupRole(DEFAULT_ADMIN_ROLE, _msgSender());\r\n    _setPlanetContractAddress(_planetAddress);\r\n    _setCharacterContractAddress(_characterAddress);\r\n    _setWeaponContractAddress(_weaponAddress);\r\n    _setKopernikTokenContractAddress(_tokenAddress);\r\n    initialTokens = _initialTokens;\r\n    active = true;\r\n  }\r\n\r\n  /*\r\n  *  @Update planet contract address\r\n  */\r\n  function _setPlanetContractAddress(address _contract)\r\n    private\r\n  {\r\n    planetContract = _contract;\r\n    emit LibContractAddressUpdate(_contract, 'planet');\r\n  }\r\n\r\n  /*\r\n  *  @Update character contract address\r\n  */\r\n  function _setCharacterContractAddress(address _contract)\r\n    private\r\n  {\r\n    characterContract = _contract;\r\n    emit LibContractAddressUpdate(_contract, 'character');\r\n  }\r\n\r\n  /*\r\n  *  @Update weapon contract address\r\n  */\r\n  function _setWeaponContractAddress(address _contract)\r\n    private\r\n  {\r\n    weaponsContract = _contract;\r\n    emit LibContractAddressUpdate(_contract, 'weapon');\r\n  }\r\n\r\n  /*\r\n  *  @Update token contract address\r\n  */\r\n  function _setKopernikTokenContractAddress(address _contract)\r\n    private\r\n  {\r\n    kopernikTokenContract = _contract;\r\n    emit LibContractAddressUpdate(_contract, 'kopernik');\r\n  }\r\n\r\n  /*\r\n  *  @dev Register a new player\r\n  */\r\n  function _registerPlayer(bytes32 _name)\r\n    private\r\n    isNotEmptyBytes32(_name)\r\n    isNotRegistered\r\n    isPlayerNicknameAvailable(_name)\r\n  {\r\n    playerData[_msgSender()] = Player(_name, 0, 0, 0, 0);\r\n    players.push(_msgSender());\r\n    playerNicknameExists[_name] = true;\r\n    playerIsRegistered[_msgSender()] = true;\r\n    numPlayers = players.length;\r\n    _setupRole(PLAYER_ROLE, _msgSender());\r\n    emit NewPlayerRegistered(_msgSender(), _name, numPlayers);\r\n  }\r\n\r\n  /*\r\n  * @dev Send initial tokens\r\n  */\r\n  function _sendInitialTokensToPlayer(address _to)\r\n    private\r\n  {\r\n    IBEP20 KopernikToken = IBEP20(kopernikTokenContract);\r\n    uint256 etherealBalance = KopernikToken.balanceOf(address(this));\r\n    // Check contract balance\r\n    if (etherealBalance < initialTokens) {\r\n      revert(\"Not enough balance on EtherealGame contract!\");\r\n    }\r\n    if (!KopernikToken.transfer(_to, initialTokens)) {\r\n      revert(\"Error transfering tokens\");\r\n    }\r\n  }\r\n\r\n  /*\r\n  * @dev Create a new character\r\n  *\r\n  * CharacterBaseMetadata {\r\n  *    bytes32 name;\r\n  *    bytes24 birthdate;\r\n  *    string description;\r\n  *    uint256 planetId;\r\n  *    uint8 genre;\r\n  *  }\r\n  *\r\n  */\r\n  function _createCharacter(\r\n    // BaseMetadata\r\n    CharacterBaseMetadata memory extraBaseMetaData,\r\n    // PhysicalMetadata\r\n    CharacterPhysicalMetadata memory extraPhysicalMetaData,\r\n    // AttributesMetadata\r\n    CharacterAttributesMetadata memory extraAbilitiesMetaData\r\n  )\r\n    private\r\n    returns (uint256)\r\n  {\r\n    IEtherealCharacter CharacterContract = IEtherealCharacter(characterContract);\r\n    uint256 characterId = CharacterContract.mint(\r\n      _msgSender(),\r\n      extraBaseMetaData,\r\n      extraPhysicalMetaData,\r\n      extraAbilitiesMetaData\r\n    );\r\n    emit NewCharacterMinted(_msgSender(), extraBaseMetaData.name);\r\n    return characterId;\r\n  }\r\n\r\n  \r\n\r\n  /*\r\n  * @dev Assign/update probability of my _element defeating _enemy\r\n  */\r\n  function _assignProbabilityOfWinning(\r\n    ElementOfNature _me,\r\n    ElementOfNature _enemy,\r\n    uint8 _probWin\r\n  )\r\n    private\r\n  {\r\n    require (_probWin <= 100, \"Probability must be between 0 and 100\");\r\n    uint8 probLoss = 100 - _probWin;\r\n    probabilityOfWinningAgainstElem[_me][_enemy] = _probWin;\r\n    emit ProbabilityOfWinningUpdate(_me, _enemy, _probWin);\r\n    probabilityOfWinningAgainstElem[_enemy][_me] = probLoss;\r\n    emit ProbabilityOfWinningUpdate(_enemy, _me, probLoss);\r\n  }\r\n\r\n  /*\r\n  * @dev Request fight\r\n  */\r\n  function _requestFight(address _contender)\r\n    private\r\n    returns(uint256)\r\n  {\r\n    require(\r\n      IBEP20(kopernikTokenContract).allowance(\r\n        _msgSender(), address(this)\r\n      ) >= 1, \"Not enough tokens allowed to use\"\r\n    );\r\n\r\n    // Initialize as true only the \"pending\" flag\r\n    fightRequests[_contender].push(FightRequest(\r\n        _msgSender(), false, false, true, false, false,\r\n        block.timestamp + 1 days\r\n      ));\r\n    totalFightRequests[_contender] = fightRequests[_contender].length;\r\n    NewFightRequest(_msgSender(), _contender, totalFightRequests[_contender]);\r\n    return totalFightRequests[_contender];\r\n  }\r\n\r\n  /*\r\n  * @dev Accept fight\r\n  */\r\n  function _acceptFight(uint256 _fightRequestId)\r\n    private\r\n  {\r\n    require(\r\n      IBEP20(kopernikTokenContract).allowance(\r\n        _msgSender(), address(this)\r\n      ) >= 1, \"Not enough tokens allowed to use\"\r\n    );\r\n    require(\r\n      _fightRequestId < totalFightRequests[_msgSender()],\r\n      \"Fight index beyond array elements\"\r\n    );\r\n    require(\r\n      fightRequests[_msgSender()][_fightRequestId].expirationDate < block.timestamp,\r\n      \"Invitation has expired!\"\r\n    );\r\n    require(\r\n      fightRequests[_msgSender()][_fightRequestId].pending,\r\n      \"Invitation was already acceted/rejected\"\r\n    );\r\n    require(\r\n      IBEP20(kopernikTokenContract).allowance(\r\n        fightRequests[_msgSender()][_fightRequestId].contender, address(this)\r\n      ) >= 1, \"Not enough tokens allowed to use\"\r\n    );\r\n\r\n    fightRequests[_msgSender()][_fightRequestId].accepted = true;\r\n    fightRequests[_msgSender()][_fightRequestId].pending = false;\r\n    \r\n    NewFightRequestAccepted(\r\n      _msgSender(), \r\n      fightRequests[_msgSender()][_fightRequestId].contender\r\n    );\r\n  }\r\n\r\n\r\n  /*\r\n  * @dev FIGHT!\r\n  *   returns winner\r\n  */\r\n  function _fight(\r\n    address _character1,\r\n    address _character2\r\n  )\r\n    private\r\n    returns(address)\r\n  {\r\n    return _character1;\r\n  }\r\n\r\n\r\n  /*\r\n  * @dev Create a new player and send initial tokens\r\n  */\r\n  function registerPlayer(bytes32 _name)\r\n    public\r\n    isContractActive\r\n  {\r\n    _registerPlayer(_name);\r\n    _sendInitialTokensToPlayer(_msgSender());\r\n  }\r\n\r\n  /*\r\n  * @dev Create a new character\r\n  */\r\n  function createCharacter(\r\n    // BaseMetadata\r\n    CharacterBaseMetadata memory extraBaseMetaData,\r\n    // PhysicalMetadata\r\n    CharacterPhysicalMetadata memory extraPhysicalMetaData,\r\n    // AttributesMetadata\r\n    CharacterAttributesMetadata memory extraAbilitiesMetaData\r\n  )\r\n    public\r\n    isContractActive\r\n    returns(uint256)\r\n  {\r\n    require(hasRole(PLAYER_ROLE, _msgSender()), \"createCharacter: must have player role\");\r\n\r\n    uint256 characterId = _createCharacter(\r\n      extraBaseMetaData,\r\n      extraPhysicalMetaData,\r\n      extraAbilitiesMetaData\r\n    );\r\n    return characterId;\r\n  }\r\n\r\n  /*\r\n  * @dev Request a fight\r\n  */\r\n  function requestFight(\r\n    address _contender\r\n  )\r\n    public\r\n    isContractActive\r\n    returns(uint256)\r\n  {\r\n    require(hasRole(PLAYER_ROLE, _msgSender()), \"requestFight: must have player role\");\r\n    uint256 fightId = _requestFight(_contender);\r\n    return fightId;\r\n  }\r\n\r\n  /*\r\n  * @dev Assign/update probability of my _element defeating _enemy\r\n  */\r\n  function assignProbabilityOfWinning(\r\n    ElementOfNature _me,\r\n    ElementOfNature _enemy,\r\n    uint8 _probWin\r\n  )\r\n    external\r\n  {\r\n    require(hasRole(DEFAULT_ADMIN_ROLE, _msgSender()), \"assignProbabilityOfWinning: must have admin role\");\r\n    _assignProbabilityOfWinning(_me, _enemy, _probWin);\r\n  }\r\n\r\n  /*\r\n  * @dev Update contract status\r\n  */\r\n  function activateDeactivateContract(bool _active)\r\n    external\r\n  {\r\n    require(hasRole(DEFAULT_ADMIN_ROLE, _msgSender()), \"activateDeactivateContract: must have admin role\");\r\n\r\n    active = _active;\r\n    emit ContractStatusUpdate(_active);\r\n  }\r\n\r\n\r\n\r\n}",
  "sourcePath": "C:/xampp/htdocs/ethereal-bnb/truffle-files/contracts/EtherealGame.sol",
  "compiler": {
    "name": "solc",
    "version": "0.7.5+commit.eb77ed08.Emscripten.clang"
  },
  "schemaVersion": "3.3.3",
  "updatedAt": "2021-02-16T06:27:27.739Z",
  "devdoc": {
    "kind": "dev",
    "methods": {
      "getRoleAdmin(bytes32)": {
        "details": "Returns the admin role that controls `role`. See {grantRole} and {revokeRole}. To change a role's admin, use {_setRoleAdmin}."
      },
      "getRoleMember(bytes32,uint256)": {
        "details": "Returns one of the accounts that have `role`. `index` must be a value between 0 and {getRoleMemberCount}, non-inclusive. Role bearers are not sorted in any particular way, and their ordering may change at any point. WARNING: When using {getRoleMember} and {getRoleMemberCount}, make sure you perform all queries on the same block. See the following https://forum.openzeppelin.com/t/iterating-over-elements-on-enumerableset-in-openzeppelin-contracts/2296[forum post] for more information."
      },
      "getRoleMemberCount(bytes32)": {
        "details": "Returns the number of accounts that have `role`. Can be used together with {getRoleMember} to enumerate all bearers of a role."
      },
      "grantRole(bytes32,address)": {
        "details": "Grants `role` to `account`. If `account` had not been already granted `role`, emits a {RoleGranted} event. Requirements: - the caller must have ``role``'s admin role."
      },
      "hasRole(bytes32,address)": {
        "details": "Returns `true` if `account` has been granted `role`."
      },
      "renounceRole(bytes32,address)": {
        "details": "Revokes `role` from the calling account. Roles are often managed via {grantRole} and {revokeRole}: this function's purpose is to provide a mechanism for accounts to lose their privileges if they are compromised (such as when a trusted device is misplaced). If the calling account had been granted `role`, emits a {RoleRevoked} event. Requirements: - the caller must be `account`."
      },
      "revokeRole(bytes32,address)": {
        "details": "Revokes `role` from `account`. If `account` had been granted `role`, emits a {RoleRevoked} event. Requirements: - the caller must have ``role``'s admin role."
      }
    },
    "version": 1
  },
  "userdoc": {
    "kind": "user",
    "methods": {},
    "version": 1
  }
}