{
  "contractName": "EtherealCharacter",
  "abi": [
    {
      "inputs": [
        {
          "internalType": "string",
          "name": "name",
          "type": "string"
        },
        {
          "internalType": "string",
          "name": "symbol",
          "type": "string"
        },
        {
          "internalType": "string",
          "name": "baseURI",
          "type": "string"
        }
      ],
      "stateMutability": "nonpayable",
      "type": "constructor"
    },
    {
      "anonymous": false,
      "inputs": [
        {
          "indexed": true,
          "internalType": "address",
          "name": "owner",
          "type": "address"
        },
        {
          "indexed": true,
          "internalType": "address",
          "name": "approved",
          "type": "address"
        },
        {
          "indexed": true,
          "internalType": "uint256",
          "name": "tokenId",
          "type": "uint256"
        }
      ],
      "name": "Approval",
      "type": "event"
    },
    {
      "anonymous": false,
      "inputs": [
        {
          "indexed": true,
          "internalType": "address",
          "name": "owner",
          "type": "address"
        },
        {
          "indexed": true,
          "internalType": "address",
          "name": "operator",
          "type": "address"
        },
        {
          "indexed": false,
          "internalType": "bool",
          "name": "approved",
          "type": "bool"
        }
      ],
      "name": "ApprovalForAll",
      "type": "event"
    },
    {
      "anonymous": false,
      "inputs": [
        {
          "indexed": false,
          "internalType": "string",
          "name": "_baseURI",
          "type": "string"
        }
      ],
      "name": "NewBaseURI",
      "type": "event"
    },
    {
      "anonymous": false,
      "inputs": [
        {
          "indexed": false,
          "internalType": "address",
          "name": "account",
          "type": "address"
        }
      ],
      "name": "Paused",
      "type": "event"
    },
    {
      "anonymous": false,
      "inputs": [
        {
          "indexed": true,
          "internalType": "bytes32",
          "name": "role",
          "type": "bytes32"
        },
        {
          "indexed": true,
          "internalType": "bytes32",
          "name": "previousAdminRole",
          "type": "bytes32"
        },
        {
          "indexed": true,
          "internalType": "bytes32",
          "name": "newAdminRole",
          "type": "bytes32"
        }
      ],
      "name": "RoleAdminChanged",
      "type": "event"
    },
    {
      "anonymous": false,
      "inputs": [
        {
          "indexed": true,
          "internalType": "bytes32",
          "name": "role",
          "type": "bytes32"
        },
        {
          "indexed": true,
          "internalType": "address",
          "name": "account",
          "type": "address"
        },
        {
          "indexed": true,
          "internalType": "address",
          "name": "sender",
          "type": "address"
        }
      ],
      "name": "RoleGranted",
      "type": "event"
    },
    {
      "anonymous": false,
      "inputs": [
        {
          "indexed": true,
          "internalType": "bytes32",
          "name": "role",
          "type": "bytes32"
        },
        {
          "indexed": true,
          "internalType": "address",
          "name": "account",
          "type": "address"
        },
        {
          "indexed": true,
          "internalType": "address",
          "name": "sender",
          "type": "address"
        }
      ],
      "name": "RoleRevoked",
      "type": "event"
    },
    {
      "anonymous": false,
      "inputs": [
        {
          "indexed": true,
          "internalType": "address",
          "name": "from",
          "type": "address"
        },
        {
          "indexed": true,
          "internalType": "address",
          "name": "to",
          "type": "address"
        },
        {
          "indexed": true,
          "internalType": "uint256",
          "name": "tokenId",
          "type": "uint256"
        }
      ],
      "name": "Transfer",
      "type": "event"
    },
    {
      "anonymous": false,
      "inputs": [
        {
          "indexed": false,
          "internalType": "address",
          "name": "account",
          "type": "address"
        }
      ],
      "name": "Unpaused",
      "type": "event"
    },
    {
      "inputs": [],
      "name": "DEFAULT_ADMIN_ROLE",
      "outputs": [
        {
          "internalType": "bytes32",
          "name": "",
          "type": "bytes32"
        }
      ],
      "stateMutability": "view",
      "type": "function"
    },
    {
      "inputs": [],
      "name": "MINTER_ROLE",
      "outputs": [
        {
          "internalType": "bytes32",
          "name": "",
          "type": "bytes32"
        }
      ],
      "stateMutability": "view",
      "type": "function"
    },
    {
      "inputs": [],
      "name": "PAUSER_ROLE",
      "outputs": [
        {
          "internalType": "bytes32",
          "name": "",
          "type": "bytes32"
        }
      ],
      "stateMutability": "view",
      "type": "function"
    },
    {
      "inputs": [
        {
          "internalType": "address",
          "name": "to",
          "type": "address"
        },
        {
          "internalType": "uint256",
          "name": "tokenId",
          "type": "uint256"
        }
      ],
      "name": "approve",
      "outputs": [],
      "stateMutability": "nonpayable",
      "type": "function"
    },
    {
      "inputs": [
        {
          "internalType": "address",
          "name": "owner",
          "type": "address"
        }
      ],
      "name": "balanceOf",
      "outputs": [
        {
          "internalType": "uint256",
          "name": "",
          "type": "uint256"
        }
      ],
      "stateMutability": "view",
      "type": "function"
    },
    {
      "inputs": [],
      "name": "baseURI",
      "outputs": [
        {
          "internalType": "string",
          "name": "",
          "type": "string"
        }
      ],
      "stateMutability": "view",
      "type": "function"
    },
    {
      "inputs": [
        {
          "internalType": "uint256",
          "name": "",
          "type": "uint256"
        }
      ],
      "name": "characterAttributesMetadata",
      "outputs": [
        {
          "internalType": "enum IEtherealBase.ElementOfNature",
          "name": "primaryElement",
          "type": "uint8"
        },
        {
          "internalType": "enum IEtherealBase.ElementOfNature",
          "name": "secondaryElement",
          "type": "uint8"
        },
        {
          "internalType": "uint8",
          "name": "life",
          "type": "uint8"
        },
        {
          "internalType": "uint8",
          "name": "armor",
          "type": "uint8"
        },
        {
          "internalType": "uint8",
          "name": "strength",
          "type": "uint8"
        },
        {
          "internalType": "uint8",
          "name": "speed",
          "type": "uint8"
        },
        {
          "internalType": "uint8",
          "name": "luck",
          "type": "uint8"
        },
        {
          "internalType": "uint8",
          "name": "spirit",
          "type": "uint8"
        }
      ],
      "stateMutability": "view",
      "type": "function"
    },
    {
      "inputs": [
        {
          "internalType": "uint256",
          "name": "",
          "type": "uint256"
        }
      ],
      "name": "characterBaseMetadata",
      "outputs": [
        {
          "internalType": "bytes32",
          "name": "name",
          "type": "bytes32"
        },
        {
          "internalType": "bytes24",
          "name": "birthdate",
          "type": "bytes24"
        },
        {
          "internalType": "string",
          "name": "description",
          "type": "string"
        },
        {
          "internalType": "uint256",
          "name": "planetId",
          "type": "uint256"
        },
        {
          "internalType": "uint8",
          "name": "genre",
          "type": "uint8"
        }
      ],
      "stateMutability": "view",
      "type": "function"
    },
    {
      "inputs": [
        {
          "internalType": "bytes32",
          "name": "",
          "type": "bytes32"
        }
      ],
      "name": "characterNameExists",
      "outputs": [
        {
          "internalType": "bool",
          "name": "",
          "type": "bool"
        }
      ],
      "stateMutability": "view",
      "type": "function"
    },
    {
      "inputs": [
        {
          "internalType": "uint256",
          "name": "",
          "type": "uint256"
        }
      ],
      "name": "characterPhysicalMetadata",
      "outputs": [
        {
          "internalType": "uint24",
          "name": "skintone",
          "type": "uint24"
        },
        {
          "internalType": "uint24",
          "name": "haircolor",
          "type": "uint24"
        },
        {
          "internalType": "uint24",
          "name": "eyescolor",
          "type": "uint24"
        },
        {
          "internalType": "uint16",
          "name": "weight",
          "type": "uint16"
        },
        {
          "internalType": "uint16",
          "name": "height",
          "type": "uint16"
        },
        {
          "internalType": "uint8",
          "name": "bodyType",
          "type": "uint8"
        }
      ],
      "stateMutability": "view",
      "type": "function"
    },
    {
      "inputs": [
        {
          "internalType": "uint256",
          "name": "tokenId",
          "type": "uint256"
        }
      ],
      "name": "getApproved",
      "outputs": [
        {
          "internalType": "address",
          "name": "",
          "type": "address"
        }
      ],
      "stateMutability": "view",
      "type": "function"
    },
    {
      "inputs": [
        {
          "internalType": "bytes32",
          "name": "role",
          "type": "bytes32"
        }
      ],
      "name": "getRoleAdmin",
      "outputs": [
        {
          "internalType": "bytes32",
          "name": "",
          "type": "bytes32"
        }
      ],
      "stateMutability": "view",
      "type": "function"
    },
    {
      "inputs": [
        {
          "internalType": "bytes32",
          "name": "role",
          "type": "bytes32"
        },
        {
          "internalType": "uint256",
          "name": "index",
          "type": "uint256"
        }
      ],
      "name": "getRoleMember",
      "outputs": [
        {
          "internalType": "address",
          "name": "",
          "type": "address"
        }
      ],
      "stateMutability": "view",
      "type": "function"
    },
    {
      "inputs": [
        {
          "internalType": "bytes32",
          "name": "role",
          "type": "bytes32"
        }
      ],
      "name": "getRoleMemberCount",
      "outputs": [
        {
          "internalType": "uint256",
          "name": "",
          "type": "uint256"
        }
      ],
      "stateMutability": "view",
      "type": "function"
    },
    {
      "inputs": [
        {
          "internalType": "bytes32",
          "name": "role",
          "type": "bytes32"
        },
        {
          "internalType": "address",
          "name": "account",
          "type": "address"
        }
      ],
      "name": "grantRole",
      "outputs": [],
      "stateMutability": "nonpayable",
      "type": "function"
    },
    {
      "inputs": [
        {
          "internalType": "bytes32",
          "name": "role",
          "type": "bytes32"
        },
        {
          "internalType": "address",
          "name": "account",
          "type": "address"
        }
      ],
      "name": "hasRole",
      "outputs": [
        {
          "internalType": "bool",
          "name": "",
          "type": "bool"
        }
      ],
      "stateMutability": "view",
      "type": "function"
    },
    {
      "inputs": [
        {
          "internalType": "address",
          "name": "owner",
          "type": "address"
        },
        {
          "internalType": "address",
          "name": "operator",
          "type": "address"
        }
      ],
      "name": "isApprovedForAll",
      "outputs": [
        {
          "internalType": "bool",
          "name": "",
          "type": "bool"
        }
      ],
      "stateMutability": "view",
      "type": "function"
    },
    {
      "inputs": [],
      "name": "name",
      "outputs": [
        {
          "internalType": "string",
          "name": "",
          "type": "string"
        }
      ],
      "stateMutability": "view",
      "type": "function"
    },
    {
      "inputs": [
        {
          "internalType": "uint256",
          "name": "tokenId",
          "type": "uint256"
        }
      ],
      "name": "ownerOf",
      "outputs": [
        {
          "internalType": "address",
          "name": "",
          "type": "address"
        }
      ],
      "stateMutability": "view",
      "type": "function"
    },
    {
      "inputs": [],
      "name": "paused",
      "outputs": [
        {
          "internalType": "bool",
          "name": "",
          "type": "bool"
        }
      ],
      "stateMutability": "view",
      "type": "function"
    },
    {
      "inputs": [
        {
          "internalType": "bytes32",
          "name": "role",
          "type": "bytes32"
        },
        {
          "internalType": "address",
          "name": "account",
          "type": "address"
        }
      ],
      "name": "renounceRole",
      "outputs": [],
      "stateMutability": "nonpayable",
      "type": "function"
    },
    {
      "inputs": [
        {
          "internalType": "bytes32",
          "name": "role",
          "type": "bytes32"
        },
        {
          "internalType": "address",
          "name": "account",
          "type": "address"
        }
      ],
      "name": "revokeRole",
      "outputs": [],
      "stateMutability": "nonpayable",
      "type": "function"
    },
    {
      "inputs": [
        {
          "internalType": "address",
          "name": "from",
          "type": "address"
        },
        {
          "internalType": "address",
          "name": "to",
          "type": "address"
        },
        {
          "internalType": "uint256",
          "name": "tokenId",
          "type": "uint256"
        }
      ],
      "name": "safeTransferFrom",
      "outputs": [],
      "stateMutability": "nonpayable",
      "type": "function"
    },
    {
      "inputs": [
        {
          "internalType": "address",
          "name": "from",
          "type": "address"
        },
        {
          "internalType": "address",
          "name": "to",
          "type": "address"
        },
        {
          "internalType": "uint256",
          "name": "tokenId",
          "type": "uint256"
        },
        {
          "internalType": "bytes",
          "name": "_data",
          "type": "bytes"
        }
      ],
      "name": "safeTransferFrom",
      "outputs": [],
      "stateMutability": "nonpayable",
      "type": "function"
    },
    {
      "inputs": [
        {
          "internalType": "address",
          "name": "operator",
          "type": "address"
        },
        {
          "internalType": "bool",
          "name": "approved",
          "type": "bool"
        }
      ],
      "name": "setApprovalForAll",
      "outputs": [],
      "stateMutability": "nonpayable",
      "type": "function"
    },
    {
      "inputs": [
        {
          "internalType": "bytes4",
          "name": "interfaceId",
          "type": "bytes4"
        }
      ],
      "name": "supportsInterface",
      "outputs": [
        {
          "internalType": "bool",
          "name": "",
          "type": "bool"
        }
      ],
      "stateMutability": "view",
      "type": "function"
    },
    {
      "inputs": [],
      "name": "symbol",
      "outputs": [
        {
          "internalType": "string",
          "name": "",
          "type": "string"
        }
      ],
      "stateMutability": "view",
      "type": "function"
    },
    {
      "inputs": [
        {
          "internalType": "uint256",
          "name": "index",
          "type": "uint256"
        }
      ],
      "name": "tokenByIndex",
      "outputs": [
        {
          "internalType": "uint256",
          "name": "",
          "type": "uint256"
        }
      ],
      "stateMutability": "view",
      "type": "function"
    },
    {
      "inputs": [
        {
          "internalType": "address",
          "name": "owner",
          "type": "address"
        },
        {
          "internalType": "uint256",
          "name": "index",
          "type": "uint256"
        }
      ],
      "name": "tokenOfOwnerByIndex",
      "outputs": [
        {
          "internalType": "uint256",
          "name": "",
          "type": "uint256"
        }
      ],
      "stateMutability": "view",
      "type": "function"
    },
    {
      "inputs": [
        {
          "internalType": "uint256",
          "name": "tokenId",
          "type": "uint256"
        }
      ],
      "name": "tokenURI",
      "outputs": [
        {
          "internalType": "string",
          "name": "",
          "type": "string"
        }
      ],
      "stateMutability": "view",
      "type": "function"
    },
    {
      "inputs": [],
      "name": "totalSupply",
      "outputs": [
        {
          "internalType": "uint256",
          "name": "",
          "type": "uint256"
        }
      ],
      "stateMutability": "view",
      "type": "function"
    },
    {
      "inputs": [
        {
          "internalType": "address",
          "name": "from",
          "type": "address"
        },
        {
          "internalType": "address",
          "name": "to",
          "type": "address"
        },
        {
          "internalType": "uint256",
          "name": "tokenId",
          "type": "uint256"
        }
      ],
      "name": "transferFrom",
      "outputs": [],
      "stateMutability": "nonpayable",
      "type": "function"
    },
    {
      "inputs": [
        {
          "internalType": "string",
          "name": "_baseURI",
          "type": "string"
        }
      ],
      "name": "setBaseURI",
      "outputs": [],
      "stateMutability": "nonpayable",
      "type": "function"
    },
    {
      "inputs": [
        {
          "internalType": "address",
          "name": "to",
          "type": "address"
        },
        {
          "components": [
            {
              "internalType": "bytes32",
              "name": "name",
              "type": "bytes32"
            },
            {
              "internalType": "bytes24",
              "name": "birthdate",
              "type": "bytes24"
            },
            {
              "internalType": "string",
              "name": "description",
              "type": "string"
            },
            {
              "internalType": "uint256",
              "name": "planetId",
              "type": "uint256"
            },
            {
              "internalType": "uint8",
              "name": "genre",
              "type": "uint8"
            }
          ],
          "internalType": "struct IEtherealBase.CharacterBaseMetadata",
          "name": "extraBaseMetaData",
          "type": "tuple"
        },
        {
          "components": [
            {
              "internalType": "uint24",
              "name": "skintone",
              "type": "uint24"
            },
            {
              "internalType": "uint24",
              "name": "haircolor",
              "type": "uint24"
            },
            {
              "internalType": "uint24",
              "name": "eyescolor",
              "type": "uint24"
            },
            {
              "internalType": "uint16",
              "name": "weight",
              "type": "uint16"
            },
            {
              "internalType": "uint16",
              "name": "height",
              "type": "uint16"
            },
            {
              "internalType": "uint8",
              "name": "bodyType",
              "type": "uint8"
            }
          ],
          "internalType": "struct IEtherealBase.CharacterPhysicalMetadata",
          "name": "extraPhysicalMetaData",
          "type": "tuple"
        },
        {
          "components": [
            {
              "internalType": "enum IEtherealBase.ElementOfNature",
              "name": "primaryElement",
              "type": "uint8"
            },
            {
              "internalType": "enum IEtherealBase.ElementOfNature",
              "name": "secondaryElement",
              "type": "uint8"
            },
            {
              "internalType": "uint8",
              "name": "life",
              "type": "uint8"
            },
            {
              "internalType": "uint8",
              "name": "armor",
              "type": "uint8"
            },
            {
              "internalType": "uint8",
              "name": "strength",
              "type": "uint8"
            },
            {
              "internalType": "uint8",
              "name": "speed",
              "type": "uint8"
            },
            {
              "internalType": "uint8",
              "name": "luck",
              "type": "uint8"
            },
            {
              "internalType": "uint8",
              "name": "spirit",
              "type": "uint8"
            }
          ],
          "internalType": "struct IEtherealBase.CharacterAttributesMetadata",
          "name": "extraAbilitiesMetaData",
          "type": "tuple"
        }
      ],
      "name": "mint",
      "outputs": [
        {
          "internalType": "uint256",
          "name": "",
          "type": "uint256"
        }
      ],
      "stateMutability": "nonpayable",
      "type": "function"
    },
    {
      "inputs": [
        {
          "internalType": "uint256",
          "name": "tokenId",
          "type": "uint256"
        }
      ],
      "name": "burn",
      "outputs": [],
      "stateMutability": "nonpayable",
      "type": "function"
    },
    {
      "inputs": [],
      "name": "pause",
      "outputs": [],
      "stateMutability": "nonpayable",
      "type": "function"
    },
    {
      "inputs": [],
      "name": "unpause",
      "outputs": [],
      "stateMutability": "nonpayable",
      "type": "function"
    }
  ],
  "bytecode": "0x60806040523480156200001157600080fd5b506040516200567838038062005678833981810160405281019062000037919062000575565b8282620000516301ffc9a760e01b620001a860201b60201c565b81600790805190602001906200006992919062000463565b5080600890805190602001906200008292919062000463565b506200009b6380ac58cd60e01b620001a860201b60201c565b620000b3635b5e139f60e01b620001a860201b60201c565b620000cb63780e9d6360e01b620001a860201b60201c565b50506000600b60006101000a81548160ff0219169083151502179055506200010c6000801b62000100620002b160201b60201c565b620002b960201b60201c565b6200014d7f9f2df0fed2c77648de5860a4cc508cd0818c85b8b8a1ab4ceeef8d981c8956a662000141620002b160201b60201c565b620002b960201b60201c565b6200018e7f65d7a28e3265b37a6474929f336521b332c1681b933f6cb9f3376673440d862a62000182620002b160201b60201c565b620002b960201b60201c565b6200019f81620002cf60201b60201c565b505050620006b5565b63ffffffff60e01b817bffffffffffffffffffffffffffffffffffffffffffffffffffffffff1916141562000245576040517f08c379a000000000000000000000000000000000000000000000000000000000815260040180806020018281038252601c8152602001807f4552433136353a20696e76616c696420696e746572666163652069640000000081525060200191505060405180910390fd5b6001806000837bffffffffffffffffffffffffffffffffffffffffffffffffffffffff19167bffffffffffffffffffffffffffffffffffffffffffffffffffffffff1916815260200190815260200160002060006101000a81548160ff02191690831515021790555050565b600033905090565b620002cb8282620002eb60201b60201c565b5050565b80600a9080519060200190620002e792919062000463565b5050565b62000319816000808581526020019081526020016000206000016200038e60201b620021411790919060201c565b156200038a576200032f620002b160201b60201c565b73ffffffffffffffffffffffffffffffffffffffff168173ffffffffffffffffffffffffffffffffffffffff16837f2f8788117e7eff1d82e926ec794901d17c78024a50270940304540a733656f0d60405160405180910390a45b5050565b6000620003be836000018373ffffffffffffffffffffffffffffffffffffffff1660001b620003c660201b60201c565b905092915050565b6000620003da83836200044060201b60201c565b620004355782600001829080600181540180825580915050600190039060005260206000200160009091909190915055826000018054905083600101600084815260200190815260200160002081905550600190506200043a565b600090505b92915050565b600080836001016000848152602001908152602001600020541415905092915050565b828054600181600116156101000203166002900490600052602060002090601f0160209004810192826200049b5760008555620004e7565b82601f10620004b657805160ff1916838001178555620004e7565b82800160010185558215620004e7579182015b82811115620004e6578251825591602001919060010190620004c9565b5b509050620004f69190620004fa565b5090565b5b8082111562000515576000816000905550600101620004fb565b5090565b600082601f8301126200052b57600080fd5b8151620005426200053c826200064a565b62000616565b915080825260208301602083018583830111156200055f57600080fd5b6200056c8382846200067d565b50505092915050565b6000806000606084860312156200058b57600080fd5b600084015167ffffffffffffffff811115620005a657600080fd5b620005b48682870162000519565b935050602084015167ffffffffffffffff811115620005d257600080fd5b620005e08682870162000519565b925050604084015167ffffffffffffffff811115620005fe57600080fd5b6200060c8682870162000519565b9150509250925092565b6000604051905081810181811067ffffffffffffffff8211171562000640576200063f620006b3565b5b8060405250919050565b600067ffffffffffffffff821115620006685762000667620006b3565b5b601f19601f8301169050602081019050919050565b60005b838110156200069d57808201518184015260208101905062000680565b83811115620006ad576000848401525b50505050565bfe5b614fb380620006c56000396000f3fe608060405234801561001057600080fd5b50600436106102275760003560e01c80636c0360eb11610130578063b88d4fde116100b8578063e1d65d7f1161007c578063e1d65d7f1461069e578063e63ab1e9146106d5578063e985e9c5146106f3578063ebaf308814610723578063eeff53f01461075357610227565b8063b88d4fde146105e8578063c87b56dd14610604578063ca15c87314610634578063d539139314610664578063d547741f1461068257610227565b806391d14854116100ff57806391d148541461053057806395d89b4114610560578063a217fddf1461057e578063a22cb4651461059c578063af3ca093146105b857610227565b80636c0360eb146104a857806370a08231146104c65780638456cb59146104f65780639010d07c1461050057610227565b806336568abe116101b35780634e39cafc116101825780634e39cafc146103da5780634f6ccce71461040e57806355f804b31461043e5780635c975abb1461045a5780636352211e1461047857610227565b806336568abe1461037c5780633f4ba83a1461039857806342842e0e146103a257806342966c68146103be57610227565b806318160ddd116101fa57806318160ddd146102c657806323b872dd146102e4578063248a9ca3146103005780632f2ff15d146103305780632f745c591461034c57610227565b806301ffc9a71461022c57806306fdde031461025c578063081812fc1461027a578063095ea7b3146102aa575b600080fd5b61024660048036038101906102419190614229565b610788565b60405161025391906146b0565b60405180910390f35b6102646107f0565b60405161027191906147d9565b60405180910390f35b610294600480360381019061028f9190614293565b610892565b6040516102a19190614695565b60405180910390f35b6102c460048036038101906102bf919061414c565b61092d565b005b6102ce610a71565b6040516102db919061495c565b60405180910390f35b6102fe60048036038101906102f99190613fc9565b610a82565b005b61031a60048036038101906103159190614188565b610af8565b60405161032791906146cb565b60405180910390f35b61034a600480360381019061034591906141b1565b610b17565b005b6103666004803603810190610361919061414c565b610ba0565b604051610373919061495c565b60405180910390f35b610396600480360381019061039191906141b1565b610bfb565b005b6103a0610c94565b005b6103bc60048036038101906103b79190613fc9565b610d0e565b005b6103d860048036038101906103d39190614293565b610d2e565b005b6103f460048036038101906103ef9190614293565b610f8a565b6040516104059594939291906146e6565b60405180910390f35b61042860048036038101906104239190614293565b611072565b604051610435919061495c565b60405180910390f35b61045860048036038101906104539190614252565b611095565b005b61046261112b565b60405161046f91906146b0565b60405180910390f35b610492600480360381019061048d9190614293565b611142565b60405161049f9190614695565b60405180910390f35b6104b0611179565b6040516104bd91906147d9565b60405180910390f35b6104e060048036038101906104db9190613f64565b61121b565b6040516104ed919061495c565b60405180910390f35b6104fe6112f0565b005b61051a600480360381019061051591906141ed565b61136a565b6040516105279190614695565b60405180910390f35b61054a600480360381019061054591906141b1565b61139b565b60405161055791906146b0565b60405180910390f35b6105686113cc565b60405161057591906147d9565b60405180910390f35b61058661146e565b60405161059391906146cb565b60405180910390f35b6105b660048036038101906105b19190614093565b611475565b005b6105d260048036038101906105cd91906140cf565b61162b565b6040516105df919061495c565b60405180910390f35b61060260048036038101906105fd9190614018565b611b0b565b005b61061e60048036038101906106199190614293565b611b83565b60405161062b91906147d9565b60405180910390f35b61064e60048036038101906106499190614188565b611e54565b60405161065b919061495c565b60405180910390f35b61066c611e7a565b60405161067991906146cb565b60405180910390f35b61069c600480360381019061069791906141b1565b611e9e565b005b6106b860048036038101906106b39190614293565b611f27565b6040516106cc989796959493929190614740565b60405180910390f35b6106dd611fd7565b6040516106ea91906146cb565b60405180910390f35b61070d60048036038101906107089190613f8d565b611ffb565b60405161071a91906146b0565b60405180910390f35b61073d60048036038101906107389190614188565b61208f565b60405161074a91906146b0565b60405180910390f35b61076d60048036038101906107689190614293565b6120af565b60405161077f969594939291906148fb565b60405180910390f35b600060016000837bffffffffffffffffffffffffffffffffffffffffffffffffffffffff19167bffffffffffffffffffffffffffffffffffffffffffffffffffffffff1916815260200190815260200160002060009054906101000a900460ff169050919050565b606060078054600181600116156101000203166002900480601f0160208091040260200160405190810160405280929190818152602001828054600181600116156101000203166002900480156108885780601f1061085d57610100808354040283529160200191610888565b820191906000526020600020905b81548152906001019060200180831161086b57829003601f168201915b5050505050905090565b600061089d82612171565b6108f2576040517f08c379a000000000000000000000000000000000000000000000000000000000815260040180806020018281038252602c815260200180614e79602c913960400191505060405180910390fd5b6005600083815260200190815260200160002060009054906101000a900473ffffffffffffffffffffffffffffffffffffffff169050919050565b600061093882611142565b90508073ffffffffffffffffffffffffffffffffffffffff168373ffffffffffffffffffffffffffffffffffffffff1614156109bf576040517f08c379a0000000000000000000000000000000000000000000000000000000008152600401808060200182810382526021815260200180614efd6021913960400191505060405180910390fd5b8073ffffffffffffffffffffffffffffffffffffffff166109de61218e565b73ffffffffffffffffffffffffffffffffffffffff161480610a0d5750610a0c81610a0761218e565b611ffb565b5b610a62576040517f08c379a0000000000000000000000000000000000000000000000000000000008152600401808060200182810382526038815260200180614dcc6038913960400191505060405180910390fd5b610a6c8383612196565b505050565b6000610a7d600361224f565b905090565b610a93610a8d61218e565b82612264565b610ae8576040517f08c379a0000000000000000000000000000000000000000000000000000000008152600401808060200182810382526031815260200180614f1e6031913960400191505060405180910390fd5b610af3838383612358565b505050565b6000806000838152602001908152602001600020600201549050919050565b610b3d60008084815260200190815260200160002060020154610b3861218e565b61139b565b610b92576040517f08c379a000000000000000000000000000000000000000000000000000000000815260040180806020018281038252602f815260200180614cc5602f913960400191505060405180910390fd5b610b9c828261259b565b5050565b6000610bf382600260008673ffffffffffffffffffffffffffffffffffffffff1673ffffffffffffffffffffffffffffffffffffffff16815260200190815260200160002061262e90919063ffffffff16565b905092915050565b610c0361218e565b73ffffffffffffffffffffffffffffffffffffffff168173ffffffffffffffffffffffffffffffffffffffff1614610c86576040517f08c379a000000000000000000000000000000000000000000000000000000000815260040180806020018281038252602f815260200180614f4f602f913960400191505060405180910390fd5b610c908282612648565b5050565b610cc57f65d7a28e3265b37a6474929f336521b332c1681b933f6cb9f3376673440d862a610cc061218e565b61139b565b610d04576040517f08c379a0000000000000000000000000000000000000000000000000000000008152600401610cfb906148db565b60405180910390fd5b610d0c6126db565b565b610d2983838360405180602001604052806000815250611b0b565b505050565b610d3f610d3961218e565b82612264565b610d7e576040517f08c379a0000000000000000000000000000000000000000000000000000000008152600401610d75906148bb565b60405180910390fd5b610d87816127c6565b6000600d60008381526020019081526020016000206000015490506010600082815260200190815260200160002060006101000a81549060ff0219169055600d60008381526020019081526020016000206000808201600090556001820160006101000a81549077ffffffffffffffffffffffffffffffffffffffffffffffff0219169055600282016000610e1c9190613af5565b60038201600090556004820160006101000a81549060ff02191690555050600f6000838152602001908152602001600020600080820160006101000a81549060ff02191690556000820160016101000a81549060ff02191690556000820160026101000a81549060ff02191690556000820160036101000a81549060ff02191690556000820160046101000a81549060ff02191690556000820160056101000a81549060ff02191690556000820160066101000a81549060ff02191690556000820160076101000a81549060ff02191690555050600e6000838152602001908152602001600020600080820160006101000a81549062ffffff02191690556000820160036101000a81549062ffffff02191690556000820160066101000a81549062ffffff02191690556000820160096101000a81549061ffff021916905560008201600b6101000a81549061ffff021916905560008201600d6101000a81549060ff021916905550505050565b600d6020528060005260406000206000915090508060000154908060010160009054906101000a900460401b90806002018054600181600116156101000203166002900480601f01602080910402602001604051908101604052809291908181526020018280546001816001161561010002031660029004801561104f5780601f106110245761010080835404028352916020019161104f565b820191906000526020600020905b81548152906001019060200180831161103257829003601f168201915b5050505050908060030154908060040160009054906101000a900460ff16905085565b60008061108983600361290090919063ffffffff16565b50905080915050919050565b6110a96000801b6110a461218e565b61139b565b6110e8576040517f08c379a00000000000000000000000000000000000000000000000000000000081526004016110df9061483b565b60405180910390fd5b6110f18161292c565b7f325d37e8fb549c86966f09bc3e6f62eb3afa93b255d6e3234338001f3d80bd868160405161112091906147d9565b60405180910390a150565b6000600b60009054906101000a900460ff16905090565b600061117282604051806060016040528060298152602001614e2e6029913960036129469092919063ffffffff16565b9050919050565b6060600a8054600181600116156101000203166002900480601f0160208091040260200160405190810160405280929190818152602001828054600181600116156101000203166002900480156112115780601f106111e657610100808354040283529160200191611211565b820191906000526020600020905b8154815290600101906020018083116111f457829003601f168201915b5050505050905090565b60008073ffffffffffffffffffffffffffffffffffffffff168273ffffffffffffffffffffffffffffffffffffffff1614156112a2576040517f08c379a000000000000000000000000000000000000000000000000000000000815260040180806020018281038252602a815260200180614e04602a913960400191505060405180910390fd5b6112e9600260008473ffffffffffffffffffffffffffffffffffffffff1673ffffffffffffffffffffffffffffffffffffffff168152602001908152602001600020612965565b9050919050565b6113217f65d7a28e3265b37a6474929f336521b332c1681b933f6cb9f3376673440d862a61131c61218e565b61139b565b611360576040517f08c379a00000000000000000000000000000000000000000000000000000000081526004016113579061481b565b60405180910390fd5b61136861297a565b565b600061139382600080868152602001908152602001600020600001612a6690919063ffffffff16565b905092915050565b60006113c482600080868152602001908152602001600020600001612a8090919063ffffffff16565b905092915050565b606060088054600181600116156101000203166002900480601f0160208091040260200160405190810160405280929190818152602001828054600181600116156101000203166002900480156114645780601f1061143957610100808354040283529160200191611464565b820191906000526020600020905b81548152906001019060200180831161144757829003601f168201915b5050505050905090565b6000801b81565b61147d61218e565b73ffffffffffffffffffffffffffffffffffffffff168273ffffffffffffffffffffffffffffffffffffffff16141561151e576040517f08c379a00000000000000000000000000000000000000000000000000000000081526004018080602001828103825260198152602001807f4552433732313a20617070726f766520746f2063616c6c65720000000000000081525060200191505060405180910390fd5b806006600061152b61218e565b73ffffffffffffffffffffffffffffffffffffffff1673ffffffffffffffffffffffffffffffffffffffff16815260200190815260200160002060008473ffffffffffffffffffffffffffffffffffffffff1673ffffffffffffffffffffffffffffffffffffffff16815260200190815260200160002060006101000a81548160ff0219169083151502179055508173ffffffffffffffffffffffffffffffffffffffff166115d861218e565b73ffffffffffffffffffffffffffffffffffffffff167f17307eab39ab6107e8899845ad3d59bd9653f200f220920489ca2b5937696c318360405180821515815260200191505060405180910390a35050565b600061165e7f9f2df0fed2c77648de5860a4cc508cd0818c85b8b8a1ab4ceeef8d981c8956a661165961218e565b61139b565b61169d576040517f08c379a00000000000000000000000000000000000000000000000000000000081526004016116949061485b565b60405180910390fd5b6040516020016116ac9061489b565b6040516020818303038152906040528051906020012084600001516040516020016116d791906146cb565b604051602081830303815290604052805190602001201415801561174c5750600060405160200161170891906147be565b60405160208183030381529060405280519060200120846000015160405160200161173391906146cb565b6040516020818303038152906040528051906020012014155b61178b576040517f08c379a0000000000000000000000000000000000000000000000000000000008152600401611782906147fb565b60405180910390fd5b601060008560000151815260200190815260200160002060009054906101000a900460ff16156117f0576040517f08c379a00000000000000000000000000000000000000000000000000000000081526004016117e79061487b565b60405180910390fd5b60006117fc600c612ab0565b90506118088682612abe565b611812600c612adc565b6001601060008760000151815260200190815260200160002060006101000a81548160ff02191690831515021790555084600d60008381526020019081526020016000206000820151816000015560208201518160010160006101000a81548177ffffffffffffffffffffffffffffffffffffffffffffffff021916908360401c021790555060408201518160020190805190602001906118b4929190613b3d565b506060820151816003015560808201518160040160006101000a81548160ff021916908360ff16021790555090505083600e600083815260200190815260200160002060008201518160000160006101000a81548162ffffff021916908362ffffff16021790555060208201518160000160036101000a81548162ffffff021916908362ffffff16021790555060408201518160000160066101000a81548162ffffff021916908362ffffff16021790555060608201518160000160096101000a81548161ffff021916908361ffff160217905550608082015181600001600b6101000a81548161ffff021916908361ffff16021790555060a082015181600001600d6101000a81548160ff021916908360ff16021790555090505082600f600083815260200190815260200160002060008201518160000160006101000a81548160ff0219169083600c811115611a0857fe5b021790555060208201518160000160016101000a81548160ff0219169083600c811115611a3157fe5b021790555060408201518160000160026101000a81548160ff021916908360ff16021790555060608201518160000160036101000a81548160ff021916908360ff16021790555060808201518160000160046101000a81548160ff021916908360ff16021790555060a08201518160000160056101000a81548160ff021916908360ff16021790555060c08201518160000160066101000a81548160ff021916908360ff16021790555060e08201518160000160076101000a81548160ff021916908360ff16021790555090505080915050949350505050565b611b1c611b1661218e565b83612264565b611b71576040517f08c379a0000000000000000000000000000000000000000000000000000000008152600401808060200182810382526031815260200180614f1e6031913960400191505060405180910390fd5b611b7d84848484612af2565b50505050565b6060611b8e82612171565b611be3576040517f08c379a000000000000000000000000000000000000000000000000000000000815260040180806020018281038252602f815260200180614ece602f913960400191505060405180910390fd5b6060600960008481526020019081526020016000208054600181600116156101000203166002900480601f016020809104026020016040519081016040528092919081815260200182805460018160011615610100020316600290048015611c8c5780601f10611c6157610100808354040283529160200191611c8c565b820191906000526020600020905b815481529060010190602001808311611c6f57829003601f168201915b505050505090506060611c9d611179565b9050600081511415611cb3578192505050611e4f565b600082511115611d845780826040516020018083805190602001908083835b60208310611cf55780518252602082019150602081019050602083039250611cd2565b6001836020036101000a03801982511681845116808217855250505050505090500182805190602001908083835b60208310611d465780518252602082019150602081019050602083039250611d23565b6001836020036101000a0380198251168184511680821785525050505050509050019250505060405160208183030381529060405292505050611e4f565b80611d8e85612b64565b6040516020018083805190602001908083835b60208310611dc45780518252602082019150602081019050602083039250611da1565b6001836020036101000a03801982511681845116808217855250505050505090500182805190602001908083835b60208310611e155780518252602082019150602081019050602083039250611df2565b6001836020036101000a03801982511681845116808217855250505050505090500192505050604051602081830303815290604052925050505b919050565b6000611e73600080848152602001908152602001600020600001612cab565b9050919050565b7f9f2df0fed2c77648de5860a4cc508cd0818c85b8b8a1ab4ceeef8d981c8956a681565b611ec460008084815260200190815260200160002060020154611ebf61218e565b61139b565b611f19576040517f08c379a0000000000000000000000000000000000000000000000000000000008152600401808060200182810382526030815260200180614d9c6030913960400191505060405180910390fd5b611f238282612648565b5050565b600f6020528060005260406000206000915090508060000160009054906101000a900460ff16908060000160019054906101000a900460ff16908060000160029054906101000a900460ff16908060000160039054906101000a900460ff16908060000160049054906101000a900460ff16908060000160059054906101000a900460ff16908060000160069054906101000a900460ff16908060000160079054906101000a900460ff16905088565b7f65d7a28e3265b37a6474929f336521b332c1681b933f6cb9f3376673440d862a81565b6000600660008473ffffffffffffffffffffffffffffffffffffffff1673ffffffffffffffffffffffffffffffffffffffff16815260200190815260200160002060008373ffffffffffffffffffffffffffffffffffffffff1673ffffffffffffffffffffffffffffffffffffffff16815260200190815260200160002060009054906101000a900460ff16905092915050565b60106020528060005260406000206000915054906101000a900460ff1681565b600e6020528060005260406000206000915090508060000160009054906101000a900462ffffff16908060000160039054906101000a900462ffffff16908060000160069054906101000a900462ffffff16908060000160099054906101000a900461ffff169080600001600b9054906101000a900461ffff169080600001600d9054906101000a900460ff16905086565b6000612169836000018373ffffffffffffffffffffffffffffffffffffffff1660001b612cc0565b905092915050565b6000612187826003612d3090919063ffffffff16565b9050919050565b600033905090565b816005600083815260200190815260200160002060006101000a81548173ffffffffffffffffffffffffffffffffffffffff021916908373ffffffffffffffffffffffffffffffffffffffff160217905550808273ffffffffffffffffffffffffffffffffffffffff1661220983611142565b73ffffffffffffffffffffffffffffffffffffffff167f8c5be1e5ebec7d5bd14f71427d1e84f3dd0314c0f7b2291e5b200ac8c7c3b92560405160405180910390a45050565b600061225d82600001612d4a565b9050919050565b600061226f82612171565b6122c4576040517f08c379a000000000000000000000000000000000000000000000000000000000815260040180806020018281038252602c815260200180614d70602c913960400191505060405180910390fd5b60006122cf83611142565b90508073ffffffffffffffffffffffffffffffffffffffff168473ffffffffffffffffffffffffffffffffffffffff16148061233e57508373ffffffffffffffffffffffffffffffffffffffff1661232684610892565b73ffffffffffffffffffffffffffffffffffffffff16145b8061234f575061234e8185611ffb565b5b91505092915050565b8273ffffffffffffffffffffffffffffffffffffffff1661237882611142565b73ffffffffffffffffffffffffffffffffffffffff16146123e4576040517f08c379a0000000000000000000000000000000000000000000000000000000008152600401808060200182810382526029815260200180614ea56029913960400191505060405180910390fd5b600073ffffffffffffffffffffffffffffffffffffffff168273ffffffffffffffffffffffffffffffffffffffff16141561246a576040517f08c379a0000000000000000000000000000000000000000000000000000000008152600401808060200182810382526024815260200180614d266024913960400191505060405180910390fd5b612475838383612d5b565b612480600082612196565b6124d181600260008673ffffffffffffffffffffffffffffffffffffffff1673ffffffffffffffffffffffffffffffffffffffff168152602001908152602001600020612d6b90919063ffffffff16565b5061252381600260008573ffffffffffffffffffffffffffffffffffffffff1673ffffffffffffffffffffffffffffffffffffffff168152602001908152602001600020612d8590919063ffffffff16565b5061253a81836003612d9f9092919063ffffffff16565b50808273ffffffffffffffffffffffffffffffffffffffff168473ffffffffffffffffffffffffffffffffffffffff167fddf252ad1be2c89b69c2b068fc378daa952ba7f163c4a11628f55a4df523b3ef60405160405180910390a4505050565b6125c28160008085815260200190815260200160002060000161214190919063ffffffff16565b1561262a576125cf61218e565b73ffffffffffffffffffffffffffffffffffffffff168173ffffffffffffffffffffffffffffffffffffffff16837f2f8788117e7eff1d82e926ec794901d17c78024a50270940304540a733656f0d60405160405180910390a45b5050565b600061263d8360000183612dd4565b60001c905092915050565b61266f81600080858152602001908152602001600020600001612e5790919063ffffffff16565b156126d75761267c61218e565b73ffffffffffffffffffffffffffffffffffffffff168173ffffffffffffffffffffffffffffffffffffffff16837ff6391f5c32d9c69d2a47ea670b442974b53935d1edc7fd64eb21e047a839171b60405160405180910390a45b5050565b6126e361112b565b612755576040517f08c379a00000000000000000000000000000000000000000000000000000000081526004018080602001828103825260148152602001807f5061757361626c653a206e6f742070617573656400000000000000000000000081525060200191505060405180910390fd5b6000600b60006101000a81548160ff0219169083151502179055507f5db9ee0a495bf2e6ff9c91a7834c1ba4fdd244a5e8aa4e537bd38aeae4b073aa61279961218e565b604051808273ffffffffffffffffffffffffffffffffffffffff16815260200191505060405180910390a1565b60006127d182611142565b90506127df81600084612d5b565b6127ea600083612196565b60006009600084815260200190815260200160002080546001816001161561010002031660029004905014612839576009600083815260200190815260200160002060006128389190613af5565b5b61288a82600260008473ffffffffffffffffffffffffffffffffffffffff1673ffffffffffffffffffffffffffffffffffffffff168152602001908152602001600020612d6b90919063ffffffff16565b5061289f826003612e8790919063ffffffff16565b5081600073ffffffffffffffffffffffffffffffffffffffff168273ffffffffffffffffffffffffffffffffffffffff167fddf252ad1be2c89b69c2b068fc378daa952ba7f163c4a11628f55a4df523b3ef60405160405180910390a45050565b6000806000806129138660000186612ea1565b915091508160001c8160001c9350935050509250929050565b80600a9080519060200190612942929190613b3d565b5050565b6000612959846000018460001b84612f3a565b60001c90509392505050565b600061297382600001613030565b9050919050565b61298261112b565b156129f5576040517f08c379a00000000000000000000000000000000000000000000000000000000081526004018080602001828103825260108152602001807f5061757361626c653a207061757365640000000000000000000000000000000081525060200191505060405180910390fd5b6001600b60006101000a81548160ff0219169083151502179055507f62e78cea01bee320cd4e420270b5ea74000d11b0c9f74754ebdbfc544b05a258612a3961218e565b604051808273ffffffffffffffffffffffffffffffffffffffff16815260200191505060405180910390a1565b6000612a758360000183612dd4565b60001c905092915050565b6000612aa8836000018373ffffffffffffffffffffffffffffffffffffffff1660001b613041565b905092915050565b600081600001549050919050565b612ad8828260405180602001604052806000815250613064565b5050565b6001816000016000828254019250508190555050565b612afd848484612358565b612b09848484846130d5565b612b5e576040517f08c379a0000000000000000000000000000000000000000000000000000000008152600401808060200182810382526032815260200180614cf46032913960400191505060405180910390fd5b50505050565b60606000821415612bac576040518060400160405280600181526020017f30000000000000000000000000000000000000000000000000000000000000008152509050612ca6565b600082905060005b60008214612bd6578080600101915050600a8281612bce57fe5b049150612bb4565b60608167ffffffffffffffff81118015612bef57600080fd5b506040519080825280601f01601f191660200182016040528015612c225781602001600182028036833780820191505090505b50905060006001830390508593505b60008414612c9e57600a8481612c4357fe5b0660300160f81b82828060019003935081518110612c5d57fe5b60200101907effffffffffffffffffffffffffffffffffffffffffffffffffffffffffffff1916908160001a905350600a8481612c9657fe5b049350612c31565b819450505050505b919050565b6000612cb982600001613030565b9050919050565b6000612ccc8383613041565b612d25578260000182908060018154018082558091505060019003906000526020600020016000909190919091505582600001805490508360010160008481526020019081526020016000208190555060019050612d2a565b600090505b92915050565b6000612d42836000018360001b6132ee565b905092915050565b600081600001805490509050919050565b612d66838383613311565b505050565b6000612d7d836000018360001b61337f565b905092915050565b6000612d97836000018360001b612cc0565b905092915050565b6000612dcb846000018460001b8473ffffffffffffffffffffffffffffffffffffffff1660001b613467565b90509392505050565b600081836000018054905011612e35576040517f08c379a0000000000000000000000000000000000000000000000000000000008152600401808060200182810382526022815260200180614c786022913960400191505060405180910390fd5b826000018281548110612e4457fe5b9060005260206000200154905092915050565b6000612e7f836000018373ffffffffffffffffffffffffffffffffffffffff1660001b61337f565b905092915050565b6000612e99836000018360001b613543565b905092915050565b60008082846000018054905011612f03576040517f08c379a0000000000000000000000000000000000000000000000000000000008152600401808060200182810382526022815260200180614e576022913960400191505060405180910390fd5b6000846000018481548110612f1457fe5b906000526020600020906002020190508060000154816001015492509250509250929050565b60008084600101600085815260200190815260200160002054905060008114158390613001576040517f08c379a00000000000000000000000000000000000000000000000000000000081526004018080602001828103825283818151815260200191508051906020019080838360005b83811015612fc6578082015181840152602081019050612fab565b50505050905090810190601f168015612ff35780820380516001836020036101000a031916815260200191505b509250505060405180910390fd5b5084600001600182038154811061301457fe5b9060005260206000209060020201600101549150509392505050565b600081600001805490509050919050565b600080836001016000848152602001908152602001600020541415905092915050565b61306e838361365c565b61307b60008484846130d5565b6130d0576040517f08c379a0000000000000000000000000000000000000000000000000000000008152600401808060200182810382526032815260200180614cf46032913960400191505060405180910390fd5b505050565b60006130f68473ffffffffffffffffffffffffffffffffffffffff16613850565b61310357600190506132e6565b606061326d63150b7a0260e01b61311861218e565b888787604051602401808573ffffffffffffffffffffffffffffffffffffffff1681526020018473ffffffffffffffffffffffffffffffffffffffff16815260200183815260200180602001828103825283818151815260200191508051906020019080838360005b8381101561319c578082015181840152602081019050613181565b50505050905090810190601f1680156131c95780820380516001836020036101000a031916815260200191505b5095505050505050604051602081830303815290604052907bffffffffffffffffffffffffffffffffffffffffffffffffffffffff19166020820180517bffffffffffffffffffffffffffffffffffffffffffffffffffffffff8381831617835250505050604051806060016040528060328152602001614cf4603291398773ffffffffffffffffffffffffffffffffffffffff166138639092919063ffffffff16565b9050600081806020019051602081101561328657600080fd5b8101908080519060200190929190505050905063150b7a0260e01b7bffffffffffffffffffffffffffffffffffffffffffffffffffffffff1916817bffffffffffffffffffffffffffffffffffffffffffffffffffffffff191614925050505b949350505050565b600080836001016000848152602001908152602001600020541415905092915050565b61331c83838361387b565b61332461112b565b1561337a576040517f08c379a000000000000000000000000000000000000000000000000000000000815260040180806020018281038252602b815260200180614c9a602b913960400191505060405180910390fd5b505050565b6000808360010160008481526020019081526020016000205490506000811461345b57600060018203905060006001866000018054905003905060008660000182815481106133ca57fe5b90600052602060002001549050808760000184815481106133e757fe5b906000526020600020018190555060018301876001016000838152602001908152602001600020819055508660000180548061341f57fe5b60019003818190600052602060002001600090559055866001016000878152602001908152602001600020600090556001945050505050613461565b60009150505b92915050565b600080846001016000858152602001908152602001600020549050600081141561350e5784600001604051806040016040528086815260200185815250908060018154018082558091505060019003906000526020600020906002020160009091909190915060008201518160000155602082015181600101555050846000018054905085600101600086815260200190815260200160002081905550600191505061353c565b8285600001600183038154811061352157fe5b90600052602060002090600202016001018190555060009150505b9392505050565b60008083600101600084815260200190815260200160002054905060008114613650576000600182039050600060018660000180549050039050600086600001828154811061358e57fe5b90600052602060002090600202019050808760000184815481106135ae57fe5b906000526020600020906002020160008201548160000155600182015481600101559050506001830187600101600083600001548152602001908152602001600020819055508660000180548061360157fe5b6001900381819060005260206000209060020201600080820160009055600182016000905550509055866001016000878152602001908152602001600020600090556001945050505050613656565b60009150505b92915050565b600073ffffffffffffffffffffffffffffffffffffffff168273ffffffffffffffffffffffffffffffffffffffff1614156136ff576040517f08c379a00000000000000000000000000000000000000000000000000000000081526004018080602001828103825260208152602001807f4552433732313a206d696e7420746f20746865207a65726f206164647265737381525060200191505060405180910390fd5b61370881612171565b1561377b576040517f08c379a000000000000000000000000000000000000000000000000000000000815260040180806020018281038252601c8152602001807f4552433732313a20746f6b656e20616c7265616479206d696e7465640000000081525060200191505060405180910390fd5b61378760008383612d5b565b6137d881600260008573ffffffffffffffffffffffffffffffffffffffff1673ffffffffffffffffffffffffffffffffffffffff168152602001908152602001600020612d8590919063ffffffff16565b506137ef81836003612d9f9092919063ffffffff16565b50808273ffffffffffffffffffffffffffffffffffffffff16600073ffffffffffffffffffffffffffffffffffffffff167fddf252ad1be2c89b69c2b068fc378daa952ba7f163c4a11628f55a4df523b3ef60405160405180910390a45050565b600080823b905060008111915050919050565b60606138728484600085613880565b90509392505050565b505050565b6060824710156138db576040517f08c379a0000000000000000000000000000000000000000000000000000000008152600401808060200182810382526026815260200180614d4a6026913960400191505060405180910390fd5b6138e485613850565b613956576040517f08c379a000000000000000000000000000000000000000000000000000000000815260040180806020018281038252601d8152602001807f416464726573733a2063616c6c20746f206e6f6e2d636f6e747261637400000081525060200191505060405180910390fd5b600060608673ffffffffffffffffffffffffffffffffffffffff1685876040518082805190602001908083835b602083106139a65780518252602082019150602081019050602083039250613983565b6001836020036101000a03801982511681845116808217855250505050505090500191505060006040518083038185875af1925050503d8060008114613a08576040519150601f19603f3d011682016040523d82523d6000602084013e613a0d565b606091505b5091509150613a1d828286613a29565b92505050949350505050565b60608315613a3957829050613aee565b600083511115613a4c5782518084602001fd5b816040517f08c379a00000000000000000000000000000000000000000000000000000000081526004018080602001828103825283818151815260200191508051906020019080838360005b83811015613ab3578082015181840152602081019050613a98565b50505050905090810190601f168015613ae05780820380516001836020036101000a031916815260200191505b509250505060405180910390fd5b9392505050565b50805460018160011615610100020316600290046000825580601f10613b1b5750613b3a565b601f016020900490600052602060002090810190613b399190613bcb565b5b50565b828054600181600116156101000203166002900490600052602060002090601f016020900481019282613b735760008555613bba565b82601f10613b8c57805160ff1916838001178555613bba565b82800160010185558215613bba579182015b82811115613bb9578251825591602001919060010190613b9e565b5b509050613bc79190613bcb565b5090565b5b80821115613be4576000816000905550600101613bcc565b5090565b600081359050613bf781614b98565b92915050565b600081359050613c0c81614baf565b92915050565b600081359050613c2181614bc6565b92915050565b600081359050613c3681614bdd565b92915050565b600081359050613c4b81614bf4565b92915050565b600082601f830112613c6257600080fd5b8135613c75613c70826149a8565b614977565b91508082526020830160208301858383011115613c9157600080fd5b613c9c838284614b2f565b50505092915050565b600081359050613cb481614c0b565b92915050565b600082601f830112613ccb57600080fd5b8135613cde613cd9826149d8565b614977565b91508082526020830160208301858383011115613cfa57600080fd5b613d05838284614b2f565b50505092915050565b60006101008284031215613d2157600080fd5b613d2c610100614977565b90506000613d3c84828501613ca5565b6000830152506020613d5084828501613ca5565b6020830152506040613d6484828501613f4f565b6040830152506060613d7884828501613f4f565b6060830152506080613d8c84828501613f4f565b60808301525060a0613da084828501613f4f565b60a08301525060c0613db484828501613f4f565b60c08301525060e0613dc884828501613f4f565b60e08301525092915050565b600060a08284031215613de657600080fd5b613df060a0614977565b90506000613e0084828501613c27565b6000830152506020613e1484828501613c12565b602083015250604082013567ffffffffffffffff811115613e3457600080fd5b613e4084828501613cba565b6040830152506060613e5484828501613f3a565b6060830152506080613e6884828501613f4f565b60808301525092915050565b600060c08284031215613e8657600080fd5b613e9060c0614977565b90506000613ea084828501613f25565b6000830152506020613eb484828501613f25565b6020830152506040613ec884828501613f25565b6040830152506060613edc84828501613f10565b6060830152506080613ef084828501613f10565b60808301525060a0613f0484828501613f4f565b60a08301525092915050565b600081359050613f1f81614c1b565b92915050565b600081359050613f3481614c32565b92915050565b600081359050613f4981614c49565b92915050565b600081359050613f5e81614c60565b92915050565b600060208284031215613f7657600080fd5b6000613f8484828501613be8565b91505092915050565b60008060408385031215613fa057600080fd5b6000613fae85828601613be8565b9250506020613fbf85828601613be8565b9150509250929050565b600080600060608486031215613fde57600080fd5b6000613fec86828701613be8565b9350506020613ffd86828701613be8565b925050604061400e86828701613f3a565b9150509250925092565b6000806000806080858703121561402e57600080fd5b600061403c87828801613be8565b945050602061404d87828801613be8565b935050604061405e87828801613f3a565b925050606085013567ffffffffffffffff81111561407b57600080fd5b61408787828801613c51565b91505092959194509250565b600080604083850312156140a657600080fd5b60006140b485828601613be8565b92505060206140c585828601613bfd565b9150509250929050565b60008060008061020085870312156140e657600080fd5b60006140f487828801613be8565b945050602085013567ffffffffffffffff81111561411157600080fd5b61411d87828801613dd4565b935050604061412e87828801613e74565b92505061010061414087828801613d0e565b91505092959194509250565b6000806040838503121561415f57600080fd5b600061416d85828601613be8565b925050602061417e85828601613f3a565b9150509250929050565b60006020828403121561419a57600080fd5b60006141a884828501613c27565b91505092915050565b600080604083850312156141c457600080fd5b60006141d285828601613c27565b92505060206141e385828601613be8565b9150509250929050565b6000806040838503121561420057600080fd5b600061420e85828601613c27565b925050602061421f85828601613f3a565b9150509250929050565b60006020828403121561423b57600080fd5b600061424984828501613c3c565b91505092915050565b60006020828403121561426457600080fd5b600082013567ffffffffffffffff81111561427e57600080fd5b61428a84828501613cba565b91505092915050565b6000602082840312156142a557600080fd5b60006142b384828501613f3a565b91505092915050565b6142c581614a24565b82525050565b6142d481614a36565b82525050565b6142e381614a42565b82525050565b6142f281614a6e565b82525050565b61430181614b0b565b82525050565b61431081614b1d565b82525050565b600061432182614a08565b61432b8185614a13565b935061433b818560208601614b3e565b61434481614b73565b840191505092915050565b600061435c603583614a13565b91507f457468657265616c4368617261637465723a20636861726163746572206e616d60008301527f652073686f756c64206e6f7420626520656d70747900000000000000000000006020830152604082019050919050565b60006143c2603e83614a13565b91507f4552433732315072657365744d696e7465725061757365724175746f49643a2060008301527f6d75737420686176652070617573657220726f6c6520746f20706175736500006020830152604082019050919050565b6000614428603583614a13565b91507f457468657265616c4368617261637465723a206d75737420686176652061646d60008301527f696e20726f6c6520746f207365744261736555524900000000000000000000006020830152604082019050919050565b600061448e603083614a13565b91507f457468657265616c4368617261637465723a206d7573742068617665206d696e60008301527f74657220726f6c6520746f206d696e74000000000000000000000000000000006020830152604082019050919050565b60006144f4604c83614a13565b91507f457468657265616c4368617261637465723a206e616d6520616c72656164792060008301527f74616b656e20627920616e6f746865722075736572203a292043686f6f73652060208301527f616e6f74686572206f6e652100000000000000000000000000000000000000006040830152606082019050919050565b6000614580600083614a13565b9150600082019050919050565b600061459a603083614a13565b91507f4552433732314275726e61626c653a2063616c6c6572206973206e6f74206f7760008301527f6e6572206e6f7220617070726f766564000000000000000000000000000000006020830152604082019050919050565b6000614600604083614a13565b91507f4552433732315072657365744d696e7465725061757365724175746f49643a2060008301527f6d75737420686176652070617573657220726f6c6520746f20756e70617573656020830152604082019050919050565b61466281614ab7565b82525050565b61467181614ae5565b82525050565b61468081614af4565b82525050565b61468f81614afe565b82525050565b60006020820190506146aa60008301846142bc565b92915050565b60006020820190506146c560008301846142cb565b92915050565b60006020820190506146e060008301846142e9565b92915050565b600060a0820190506146fb60008301886142e9565b61470860208301876142da565b818103604083015261471a8186614316565b90506147296060830185614677565b6147366080830184614686565b9695505050505050565b600061010082019050614756600083018b6142f8565b614763602083018a6142f8565b6147706040830189614686565b61477d6060830188614686565b61478a6080830187614686565b61479760a0830186614686565b6147a460c0830185614686565b6147b160e0830184614686565b9998505050505050505050565b60006020820190506147d36000830184614307565b92915050565b600060208201905081810360008301526147f38184614316565b905092915050565b600060208201905081810360008301526148148161434f565b9050919050565b60006020820190508181036000830152614834816143b5565b9050919050565b600060208201905081810360008301526148548161441b565b9050919050565b6000602082019050818103600083015261487481614481565b9050919050565b60006020820190508181036000830152614894816144e7565b9050919050565b600060208201905081810360008301526148b481614573565b9050919050565b600060208201905081810360008301526148d48161458d565b9050919050565b600060208201905081810360008301526148f4816145f3565b9050919050565b600060c0820190506149106000830189614668565b61491d6020830188614668565b61492a6040830187614668565b6149376060830186614659565b6149446080830185614659565b61495160a0830184614686565b979650505050505050565b60006020820190506149716000830184614677565b92915050565b6000604051905081810181811067ffffffffffffffff8211171561499e5761499d614b71565b5b8060405250919050565b600067ffffffffffffffff8211156149c3576149c2614b71565b5b601f19601f8301169050602081019050919050565b600067ffffffffffffffff8211156149f3576149f2614b71565b5b601f19601f8301169050602081019050919050565b600081519050919050565b600082825260208201905092915050565b6000614a2f82614ac5565b9050919050565b60008115159050919050565b60007fffffffffffffffffffffffffffffffffffffffffffffffff000000000000000082169050919050565b6000819050919050565b60007fffffffff0000000000000000000000000000000000000000000000000000000082169050919050565b6000819050614ab282614b84565b919050565b600061ffff82169050919050565b600073ffffffffffffffffffffffffffffffffffffffff82169050919050565b600062ffffff82169050919050565b6000819050919050565b600060ff82169050919050565b6000614b1682614aa4565b9050919050565b6000614b2882614afe565b9050919050565b82818337600083830152505050565b60005b83811015614b5c578082015181840152602081019050614b41565b83811115614b6b576000848401525b50505050565bfe5b6000601f19601f8301169050919050565b600d8110614b9557614b94614b71565b5b50565b614ba181614a24565b8114614bac57600080fd5b50565b614bb881614a36565b8114614bc357600080fd5b50565b614bcf81614a42565b8114614bda57600080fd5b50565b614be681614a6e565b8114614bf157600080fd5b50565b614bfd81614a78565b8114614c0857600080fd5b50565b600d8110614c1857600080fd5b50565b614c2481614ab7565b8114614c2f57600080fd5b50565b614c3b81614ae5565b8114614c4657600080fd5b50565b614c5281614af4565b8114614c5d57600080fd5b50565b614c6981614afe565b8114614c7457600080fd5b5056fe456e756d657261626c655365743a20696e646578206f7574206f6620626f756e64734552433732315061757361626c653a20746f6b656e207472616e73666572207768696c6520706175736564416363657373436f6e74726f6c3a2073656e646572206d75737420626520616e2061646d696e20746f206772616e744552433732313a207472616e7366657220746f206e6f6e20455243373231526563656976657220696d706c656d656e7465724552433732313a207472616e7366657220746f20746865207a65726f2061646472657373416464726573733a20696e73756666696369656e742062616c616e636520666f722063616c6c4552433732313a206f70657261746f7220717565727920666f72206e6f6e6578697374656e7420746f6b656e416363657373436f6e74726f6c3a2073656e646572206d75737420626520616e2061646d696e20746f207265766f6b654552433732313a20617070726f76652063616c6c6572206973206e6f74206f776e6572206e6f7220617070726f76656420666f7220616c6c4552433732313a2062616c616e636520717565727920666f7220746865207a65726f20616464726573734552433732313a206f776e657220717565727920666f72206e6f6e6578697374656e7420746f6b656e456e756d657261626c654d61703a20696e646578206f7574206f6620626f756e64734552433732313a20617070726f76656420717565727920666f72206e6f6e6578697374656e7420746f6b656e4552433732313a207472616e73666572206f6620746f6b656e2074686174206973206e6f74206f776e4552433732314d657461646174613a2055524920717565727920666f72206e6f6e6578697374656e7420746f6b656e4552433732313a20617070726f76616c20746f2063757272656e74206f776e65724552433732313a207472616e736665722063616c6c6572206973206e6f74206f776e6572206e6f7220617070726f766564416363657373436f6e74726f6c3a2063616e206f6e6c792072656e6f756e636520726f6c657320666f722073656c66a26469706673582212201b71a7d1beaa07f85fcefcea0cf15ccd8decff3791d462287670328fad3afd5764736f6c63430007050033",
  "immutableReferences": {},
  "source": "// SPDX-License-Identifier: MIT\r\npragma solidity 0.7.5;\r\npragma abicoder v2;\r\n\r\nimport \"@openzeppelin/contracts/access/AccessControl.sol\";\r\nimport \"@openzeppelin/contracts/utils/Context.sol\";\r\nimport \"@openzeppelin/contracts/utils/Counters.sol\";\r\nimport \"@openzeppelin/contracts/token/ERC721/ERC721.sol\";\r\nimport \"@openzeppelin/contracts/token/ERC721/ERC721Burnable.sol\";\r\nimport \"@openzeppelin/contracts/token/ERC721/ERC721Pausable.sol\";\r\nimport '@openzeppelin/contracts/math/SafeMath.sol';\r\nimport './IEtherealBase.sol';\r\n\r\n\r\n/**\r\n * @dev {ERC721} token, including:\r\n *\r\n *  - ability for holders to burn (destroy) their tokens\r\n *  - a minter role that allows for token minting (creation)\r\n *  - a pauser role that allows to stop all token transfers\r\n *  - token ID and URI autogeneration\r\n *  - includes extra properties to store important metadata\r\n *\r\n * This contract uses {AccessControl} to lock permissioned functions using the\r\n * different roles - head to its documentation for details.\r\n *\r\n * The account that deploys the contract will be granted the minter and pauser\r\n * roles, as well as the default admin role, which will let it grant both minter\r\n * and pauser roles to other accounts.\r\n */\r\ncontract EtherealCharacter is Context, AccessControl, ERC721Burnable, ERC721Pausable, IEtherealBase {\r\n    using Counters for Counters.Counter;\r\n\r\n    bytes32 public constant MINTER_ROLE = keccak256(\"MINTER_ROLE\");\r\n    bytes32 public constant PAUSER_ROLE = keccak256(\"PAUSER_ROLE\");\r\n\r\n    Counters.Counter private _tokenIdTracker;\r\n    using SafeMath for uint256;\r\n\r\n   \r\n    /**\r\n    * @dev Character extra metadata tables\r\n    */\r\n    mapping(uint256 => CharacterBaseMetadata) public characterBaseMetadata;\r\n    mapping(uint256 => CharacterPhysicalMetadata) public characterPhysicalMetadata;\r\n    mapping(uint256 => CharacterAttributesMetadata) public characterAttributesMetadata;\r\n    mapping(bytes32 => bool) public characterNameExists;\r\n    \r\n    /**\r\n     * @dev Emitted when `tokenId` token is transferred from `from` to `to`.\r\n     */\r\n    event NewBaseURI(string _baseURI);\r\n\r\n    /**\r\n     * @dev Grants `DEFAULT_ADMIN_ROLE`, `MINTER_ROLE` and `PAUSER_ROLE` to the\r\n     * account that deploys the contract.\r\n     *\r\n     * Token URIs will be autogenerated based on `baseURI` and their token IDs.\r\n     * See {ERC721-tokenURI}.\r\n     */\r\n    constructor(string memory name, string memory symbol, string memory baseURI) ERC721(name, symbol) {\r\n        _setupRole(DEFAULT_ADMIN_ROLE, _msgSender());\r\n\r\n        _setupRole(MINTER_ROLE, _msgSender());\r\n        _setupRole(PAUSER_ROLE, _msgSender());\r\n\r\n        _setBaseURI(baseURI);\r\n    }\r\n\r\n    \r\n    /**\r\n     * @dev External function to set the base URI for all token IDs. \r\n     */\r\n    function setBaseURI(string memory _baseURI) external {\r\n      require(\r\n        hasRole(DEFAULT_ADMIN_ROLE, _msgSender()),\r\n        \"EtherealCharacter: must have admin role to setBaseURI\"\r\n      );\r\n      _setBaseURI(_baseURI);\r\n      emit NewBaseURI(_baseURI);\r\n    }\r\n\r\n    /**\r\n     * @dev Creates a new token for `to`. Its token ID will be automatically\r\n     * assigned (and available on the emitted {IERC721-Transfer} event), and the token\r\n     * URI autogenerated based on the base URI passed at construction.\r\n     *\r\n     * See {ERC721-_mint}.\r\n     *\r\n     * Requirements:\r\n     *\r\n     * - the caller must have the `MINTER_ROLE`.\r\n     */\r\n    function mint(\r\n      address to,\r\n      CharacterBaseMetadata memory extraBaseMetaData,\r\n      CharacterPhysicalMetadata memory extraPhysicalMetaData,\r\n      CharacterAttributesMetadata memory extraAbilitiesMetaData\r\n    )\r\n        public\r\n        returns (uint256)\r\n    {\r\n        require(hasRole(MINTER_ROLE, _msgSender()), \"EtherealCharacter: must have minter role to mint\");\r\n        require(\r\n          keccak256(abi.encode(extraBaseMetaData.name)) != keccak256(abi.encode(\"\")) &&\r\n          keccak256(abi.encode(extraBaseMetaData.name)) != keccak256(abi.encode(0x00)),\r\n          \"EtherealCharacter: character name should not be empty\"\r\n        );\r\n        require(\r\n          !characterNameExists[extraBaseMetaData.name],\r\n          \"EtherealCharacter: name already taken by another user :) Choose another one!\"\r\n        );\r\n\r\n        // We cannot just use balanceOf to create the new tokenId because tokens\r\n        // can be burned (destroyed), so we need a separate counter.\r\n        uint256 currentTokenId = _tokenIdTracker.current();\r\n        _safeMint(to, currentTokenId);\r\n        _tokenIdTracker.increment();\r\n        characterNameExists[extraBaseMetaData.name] = true;\r\n        characterBaseMetadata[currentTokenId] = extraBaseMetaData;\r\n        characterPhysicalMetadata[currentTokenId] = extraPhysicalMetaData;\r\n        characterAttributesMetadata[currentTokenId] = extraAbilitiesMetaData;\r\n        return currentTokenId;\r\n    }\r\n\r\n    /**\r\n     * @dev Burns `tokenId`. See {ERC721-_burn}.\r\n     *\r\n     * Requirements:\r\n     *\r\n     * - The caller must own `tokenId` or be an approved operator.\r\n     */\r\n    function burn(uint256 tokenId) public override {\r\n        //solhint-disable-next-line max-line-length\r\n        require(_isApprovedOrOwner(_msgSender(), tokenId), \"ERC721Burnable: caller is not owner nor approved\");\r\n        _burn(tokenId);\r\n        bytes32 tmpChrName = characterBaseMetadata[tokenId].name;\r\n        delete characterNameExists[tmpChrName];\r\n        delete characterBaseMetadata[tokenId];\r\n        delete characterAttributesMetadata[tokenId];\r\n        delete characterPhysicalMetadata[tokenId];\r\n    }\r\n\r\n    /**\r\n     * @dev Pauses all token transfers.\r\n     *\r\n     * See {ERC721Pausable} and {Pausable-_pause}.\r\n     *\r\n     * Requirements:\r\n     *\r\n     * - the caller must have the `PAUSER_ROLE`.\r\n     */\r\n    function pause() public virtual {\r\n        require(hasRole(PAUSER_ROLE, _msgSender()), \"ERC721PresetMinterPauserAutoId: must have pauser role to pause\");\r\n        _pause();\r\n    }\r\n\r\n    /**\r\n     * @dev Unpauses all token transfers.\r\n     *\r\n     * See {ERC721Pausable} and {Pausable-_unpause}.\r\n     *\r\n     * Requirements:\r\n     *\r\n     * - the caller must have the `PAUSER_ROLE`.\r\n     */\r\n    function unpause() public virtual {\r\n        require(hasRole(PAUSER_ROLE, _msgSender()), \"ERC721PresetMinterPauserAutoId: must have pauser role to unpause\");\r\n        _unpause();\r\n    }\r\n\r\n    function _beforeTokenTransfer(address from, address to, uint256 tokenId) internal virtual override(ERC721, ERC721Pausable) {\r\n        super._beforeTokenTransfer(from, to, tokenId);\r\n    }\r\n}",
  "sourcePath": "C:/xampp/htdocs/ethereal-bnb/truffle-files/contracts/EtherealCharacter.sol",
  "compiler": {
    "name": "solc",
    "version": "0.7.5+commit.eb77ed08.Emscripten.clang"
  },
  "schemaVersion": "3.3.3",
  "updatedAt": "2021-02-16T04:43:59.724Z",
  "devdoc": {
    "details": "{ERC721} token, including:  - ability for holders to burn (destroy) their tokens  - a minter role that allows for token minting (creation)  - a pauser role that allows to stop all token transfers  - token ID and URI autogeneration  - includes extra properties to store important metadata This contract uses {AccessControl} to lock permissioned functions using the different roles - head to its documentation for details. The account that deploys the contract will be granted the minter and pauser roles, as well as the default admin role, which will let it grant both minter and pauser roles to other accounts.",
    "events": {
      "NewBaseURI(string)": {
        "details": "Emitted when `tokenId` token is transferred from `from` to `to`."
      }
    },
    "kind": "dev",
    "methods": {
      "approve(address,uint256)": {
        "details": "See {IERC721-approve}."
      },
      "balanceOf(address)": {
        "details": "See {IERC721-balanceOf}."
      },
      "baseURI()": {
        "details": "Returns the base URI set via {_setBaseURI}. This will be automatically added as a prefix in {tokenURI} to each token's URI, or to the token ID if no specific URI is set for that token ID."
      },
      "burn(uint256)": {
        "details": "Burns `tokenId`. See {ERC721-_burn}. Requirements: - The caller must own `tokenId` or be an approved operator."
      },
      "constructor": {
        "details": "Grants `DEFAULT_ADMIN_ROLE`, `MINTER_ROLE` and `PAUSER_ROLE` to the account that deploys the contract. Token URIs will be autogenerated based on `baseURI` and their token IDs. See {ERC721-tokenURI}."
      },
      "getApproved(uint256)": {
        "details": "See {IERC721-getApproved}."
      },
      "getRoleAdmin(bytes32)": {
        "details": "Returns the admin role that controls `role`. See {grantRole} and {revokeRole}. To change a role's admin, use {_setRoleAdmin}."
      },
      "getRoleMember(bytes32,uint256)": {
        "details": "Returns one of the accounts that have `role`. `index` must be a value between 0 and {getRoleMemberCount}, non-inclusive. Role bearers are not sorted in any particular way, and their ordering may change at any point. WARNING: When using {getRoleMember} and {getRoleMemberCount}, make sure you perform all queries on the same block. See the following https://forum.openzeppelin.com/t/iterating-over-elements-on-enumerableset-in-openzeppelin-contracts/2296[forum post] for more information."
      },
      "getRoleMemberCount(bytes32)": {
        "details": "Returns the number of accounts that have `role`. Can be used together with {getRoleMember} to enumerate all bearers of a role."
      },
      "grantRole(bytes32,address)": {
        "details": "Grants `role` to `account`. If `account` had not been already granted `role`, emits a {RoleGranted} event. Requirements: - the caller must have ``role``'s admin role."
      },
      "hasRole(bytes32,address)": {
        "details": "Returns `true` if `account` has been granted `role`."
      },
      "isApprovedForAll(address,address)": {
        "details": "See {IERC721-isApprovedForAll}."
      },
      "mint(address,(bytes32,bytes24,string,uint256,uint8),(uint24,uint24,uint24,uint16,uint16,uint8),(uint8,uint8,uint8,uint8,uint8,uint8,uint8,uint8))": {
        "details": "Creates a new token for `to`. Its token ID will be automatically assigned (and available on the emitted {IERC721-Transfer} event), and the token URI autogenerated based on the base URI passed at construction. See {ERC721-_mint}. Requirements: - the caller must have the `MINTER_ROLE`."
      },
      "name()": {
        "details": "See {IERC721Metadata-name}."
      },
      "ownerOf(uint256)": {
        "details": "See {IERC721-ownerOf}."
      },
      "pause()": {
        "details": "Pauses all token transfers. See {ERC721Pausable} and {Pausable-_pause}. Requirements: - the caller must have the `PAUSER_ROLE`."
      },
      "paused()": {
        "details": "Returns true if the contract is paused, and false otherwise."
      },
      "renounceRole(bytes32,address)": {
        "details": "Revokes `role` from the calling account. Roles are often managed via {grantRole} and {revokeRole}: this function's purpose is to provide a mechanism for accounts to lose their privileges if they are compromised (such as when a trusted device is misplaced). If the calling account had been granted `role`, emits a {RoleRevoked} event. Requirements: - the caller must be `account`."
      },
      "revokeRole(bytes32,address)": {
        "details": "Revokes `role` from `account`. If `account` had been granted `role`, emits a {RoleRevoked} event. Requirements: - the caller must have ``role``'s admin role."
      },
      "safeTransferFrom(address,address,uint256)": {
        "details": "See {IERC721-safeTransferFrom}."
      },
      "safeTransferFrom(address,address,uint256,bytes)": {
        "details": "See {IERC721-safeTransferFrom}."
      },
      "setApprovalForAll(address,bool)": {
        "details": "See {IERC721-setApprovalForAll}."
      },
      "setBaseURI(string)": {
        "details": "External function to set the base URI for all token IDs. "
      },
      "supportsInterface(bytes4)": {
        "details": "See {IERC165-supportsInterface}. Time complexity O(1), guaranteed to always use less than 30 000 gas."
      },
      "symbol()": {
        "details": "See {IERC721Metadata-symbol}."
      },
      "tokenByIndex(uint256)": {
        "details": "See {IERC721Enumerable-tokenByIndex}."
      },
      "tokenOfOwnerByIndex(address,uint256)": {
        "details": "See {IERC721Enumerable-tokenOfOwnerByIndex}."
      },
      "tokenURI(uint256)": {
        "details": "See {IERC721Metadata-tokenURI}."
      },
      "totalSupply()": {
        "details": "See {IERC721Enumerable-totalSupply}."
      },
      "transferFrom(address,address,uint256)": {
        "details": "See {IERC721-transferFrom}."
      },
      "unpause()": {
        "details": "Unpauses all token transfers. See {ERC721Pausable} and {Pausable-_unpause}. Requirements: - the caller must have the `PAUSER_ROLE`."
      }
    },
    "stateVariables": {
      "characterBaseMetadata": {
        "details": "Character extra metadata tables"
      }
    },
    "version": 1
  },
  "userdoc": {
    "kind": "user",
    "methods": {},
    "version": 1
  }
}