{
  "contractName": "EtherealGame",
  "abi": [
    {
      "inputs": [
        {
          "internalType": "address",
          "name": "_planetAddress",
          "type": "address"
        },
        {
          "internalType": "address",
          "name": "_characterAddress",
          "type": "address"
        },
        {
          "internalType": "address",
          "name": "_weaponAddress",
          "type": "address"
        },
        {
          "internalType": "address",
          "name": "_tokenAddress",
          "type": "address"
        },
        {
          "internalType": "uint256",
          "name": "_initialTokens",
          "type": "uint256"
        }
      ],
      "stateMutability": "nonpayable",
      "type": "constructor"
    },
    {
      "anonymous": false,
      "inputs": [
        {
          "indexed": false,
          "internalType": "bool",
          "name": "newStatus",
          "type": "bool"
        }
      ],
      "name": "ContractStatusUpdate",
      "type": "event"
    },
    {
      "anonymous": false,
      "inputs": [
        {
          "indexed": false,
          "internalType": "address",
          "name": "newAddress",
          "type": "address"
        },
        {
          "indexed": false,
          "internalType": "bytes32",
          "name": "contractName",
          "type": "bytes32"
        }
      ],
      "name": "LibContractAddressUpdate",
      "type": "event"
    },
    {
      "anonymous": false,
      "inputs": [
        {
          "indexed": true,
          "internalType": "address",
          "name": "player",
          "type": "address"
        },
        {
          "indexed": false,
          "internalType": "bytes32",
          "name": "name",
          "type": "bytes32"
        }
      ],
      "name": "NewCharacterMinted",
      "type": "event"
    },
    {
      "anonymous": false,
      "inputs": [
        {
          "indexed": true,
          "internalType": "address",
          "name": "player",
          "type": "address"
        },
        {
          "indexed": false,
          "internalType": "bytes32",
          "name": "name",
          "type": "bytes32"
        },
        {
          "indexed": false,
          "internalType": "uint256",
          "name": "totalPlayers",
          "type": "uint256"
        }
      ],
      "name": "NewPlayerRegistered",
      "type": "event"
    },
    {
      "anonymous": false,
      "inputs": [
        {
          "indexed": true,
          "internalType": "enum IEtherealBase.ElementOfNature",
          "name": "_me",
          "type": "uint8"
        },
        {
          "indexed": false,
          "internalType": "enum IEtherealBase.ElementOfNature",
          "name": "_enemy",
          "type": "uint8"
        },
        {
          "indexed": false,
          "internalType": "uint8",
          "name": "_prob",
          "type": "uint8"
        }
      ],
      "name": "ProbabilityOfWinningUpdate",
      "type": "event"
    },
    {
      "anonymous": false,
      "inputs": [
        {
          "indexed": true,
          "internalType": "bytes32",
          "name": "role",
          "type": "bytes32"
        },
        {
          "indexed": true,
          "internalType": "bytes32",
          "name": "previousAdminRole",
          "type": "bytes32"
        },
        {
          "indexed": true,
          "internalType": "bytes32",
          "name": "newAdminRole",
          "type": "bytes32"
        }
      ],
      "name": "RoleAdminChanged",
      "type": "event"
    },
    {
      "anonymous": false,
      "inputs": [
        {
          "indexed": true,
          "internalType": "bytes32",
          "name": "role",
          "type": "bytes32"
        },
        {
          "indexed": true,
          "internalType": "address",
          "name": "account",
          "type": "address"
        },
        {
          "indexed": true,
          "internalType": "address",
          "name": "sender",
          "type": "address"
        }
      ],
      "name": "RoleGranted",
      "type": "event"
    },
    {
      "anonymous": false,
      "inputs": [
        {
          "indexed": true,
          "internalType": "bytes32",
          "name": "role",
          "type": "bytes32"
        },
        {
          "indexed": true,
          "internalType": "address",
          "name": "account",
          "type": "address"
        },
        {
          "indexed": true,
          "internalType": "address",
          "name": "sender",
          "type": "address"
        }
      ],
      "name": "RoleRevoked",
      "type": "event"
    },
    {
      "inputs": [],
      "name": "DEFAULT_ADMIN_ROLE",
      "outputs": [
        {
          "internalType": "bytes32",
          "name": "",
          "type": "bytes32"
        }
      ],
      "stateMutability": "view",
      "type": "function"
    },
    {
      "inputs": [],
      "name": "PLAYER_ROLE",
      "outputs": [
        {
          "internalType": "bytes32",
          "name": "",
          "type": "bytes32"
        }
      ],
      "stateMutability": "view",
      "type": "function"
    },
    {
      "inputs": [],
      "name": "active",
      "outputs": [
        {
          "internalType": "bool",
          "name": "",
          "type": "bool"
        }
      ],
      "stateMutability": "view",
      "type": "function"
    },
    {
      "inputs": [],
      "name": "characterContract",
      "outputs": [
        {
          "internalType": "address",
          "name": "",
          "type": "address"
        }
      ],
      "stateMutability": "view",
      "type": "function"
    },
    {
      "inputs": [
        {
          "internalType": "uint256",
          "name": "",
          "type": "uint256"
        }
      ],
      "name": "fights",
      "outputs": [
        {
          "internalType": "address",
          "name": "player1",
          "type": "address"
        },
        {
          "internalType": "address",
          "name": "player2",
          "type": "address"
        },
        {
          "internalType": "uint256",
          "name": "player1CharacterId",
          "type": "uint256"
        },
        {
          "internalType": "uint256",
          "name": "player2CharacterId",
          "type": "uint256"
        }
      ],
      "stateMutability": "view",
      "type": "function"
    },
    {
      "inputs": [
        {
          "internalType": "bytes32",
          "name": "role",
          "type": "bytes32"
        }
      ],
      "name": "getRoleAdmin",
      "outputs": [
        {
          "internalType": "bytes32",
          "name": "",
          "type": "bytes32"
        }
      ],
      "stateMutability": "view",
      "type": "function"
    },
    {
      "inputs": [
        {
          "internalType": "bytes32",
          "name": "role",
          "type": "bytes32"
        },
        {
          "internalType": "uint256",
          "name": "index",
          "type": "uint256"
        }
      ],
      "name": "getRoleMember",
      "outputs": [
        {
          "internalType": "address",
          "name": "",
          "type": "address"
        }
      ],
      "stateMutability": "view",
      "type": "function"
    },
    {
      "inputs": [
        {
          "internalType": "bytes32",
          "name": "role",
          "type": "bytes32"
        }
      ],
      "name": "getRoleMemberCount",
      "outputs": [
        {
          "internalType": "uint256",
          "name": "",
          "type": "uint256"
        }
      ],
      "stateMutability": "view",
      "type": "function"
    },
    {
      "inputs": [
        {
          "internalType": "bytes32",
          "name": "role",
          "type": "bytes32"
        },
        {
          "internalType": "address",
          "name": "account",
          "type": "address"
        }
      ],
      "name": "grantRole",
      "outputs": [],
      "stateMutability": "nonpayable",
      "type": "function"
    },
    {
      "inputs": [
        {
          "internalType": "bytes32",
          "name": "role",
          "type": "bytes32"
        },
        {
          "internalType": "address",
          "name": "account",
          "type": "address"
        }
      ],
      "name": "hasRole",
      "outputs": [
        {
          "internalType": "bool",
          "name": "",
          "type": "bool"
        }
      ],
      "stateMutability": "view",
      "type": "function"
    },
    {
      "inputs": [],
      "name": "initialTokens",
      "outputs": [
        {
          "internalType": "uint256",
          "name": "",
          "type": "uint256"
        }
      ],
      "stateMutability": "view",
      "type": "function"
    },
    {
      "inputs": [],
      "name": "kopernikTokenContract",
      "outputs": [
        {
          "internalType": "address",
          "name": "",
          "type": "address"
        }
      ],
      "stateMutability": "view",
      "type": "function"
    },
    {
      "inputs": [],
      "name": "numFights",
      "outputs": [
        {
          "internalType": "uint256",
          "name": "",
          "type": "uint256"
        }
      ],
      "stateMutability": "view",
      "type": "function"
    },
    {
      "inputs": [],
      "name": "numPlayers",
      "outputs": [
        {
          "internalType": "uint256",
          "name": "",
          "type": "uint256"
        }
      ],
      "stateMutability": "view",
      "type": "function"
    },
    {
      "inputs": [],
      "name": "planetContract",
      "outputs": [
        {
          "internalType": "address",
          "name": "",
          "type": "address"
        }
      ],
      "stateMutability": "view",
      "type": "function"
    },
    {
      "inputs": [
        {
          "internalType": "address",
          "name": "",
          "type": "address"
        }
      ],
      "name": "playerData",
      "outputs": [
        {
          "internalType": "bytes32",
          "name": "nickname",
          "type": "bytes32"
        },
        {
          "internalType": "uint32",
          "name": "wins",
          "type": "uint32"
        },
        {
          "internalType": "uint32",
          "name": "loss",
          "type": "uint32"
        },
        {
          "internalType": "uint32",
          "name": "tie",
          "type": "uint32"
        },
        {
          "internalType": "uint32",
          "name": "gaveup",
          "type": "uint32"
        }
      ],
      "stateMutability": "view",
      "type": "function"
    },
    {
      "inputs": [
        {
          "internalType": "address",
          "name": "",
          "type": "address"
        }
      ],
      "name": "playerIsRegistered",
      "outputs": [
        {
          "internalType": "bool",
          "name": "",
          "type": "bool"
        }
      ],
      "stateMutability": "view",
      "type": "function"
    },
    {
      "inputs": [
        {
          "internalType": "bytes32",
          "name": "",
          "type": "bytes32"
        }
      ],
      "name": "playerNicknameExists",
      "outputs": [
        {
          "internalType": "bool",
          "name": "",
          "type": "bool"
        }
      ],
      "stateMutability": "view",
      "type": "function"
    },
    {
      "inputs": [
        {
          "internalType": "uint256",
          "name": "",
          "type": "uint256"
        }
      ],
      "name": "players",
      "outputs": [
        {
          "internalType": "address",
          "name": "",
          "type": "address"
        }
      ],
      "stateMutability": "view",
      "type": "function"
    },
    {
      "inputs": [
        {
          "internalType": "enum IEtherealBase.ElementOfNature",
          "name": "",
          "type": "uint8"
        },
        {
          "internalType": "enum IEtherealBase.ElementOfNature",
          "name": "",
          "type": "uint8"
        }
      ],
      "name": "probabilityOfWinningAgainstElem",
      "outputs": [
        {
          "internalType": "uint8",
          "name": "",
          "type": "uint8"
        }
      ],
      "stateMutability": "view",
      "type": "function"
    },
    {
      "inputs": [
        {
          "internalType": "bytes32",
          "name": "role",
          "type": "bytes32"
        },
        {
          "internalType": "address",
          "name": "account",
          "type": "address"
        }
      ],
      "name": "renounceRole",
      "outputs": [],
      "stateMutability": "nonpayable",
      "type": "function"
    },
    {
      "inputs": [
        {
          "internalType": "bytes32",
          "name": "role",
          "type": "bytes32"
        },
        {
          "internalType": "address",
          "name": "account",
          "type": "address"
        }
      ],
      "name": "revokeRole",
      "outputs": [],
      "stateMutability": "nonpayable",
      "type": "function"
    },
    {
      "inputs": [],
      "name": "topFighter",
      "outputs": [
        {
          "internalType": "uint256",
          "name": "",
          "type": "uint256"
        }
      ],
      "stateMutability": "view",
      "type": "function"
    },
    {
      "inputs": [],
      "name": "topPlayer",
      "outputs": [
        {
          "internalType": "address",
          "name": "",
          "type": "address"
        }
      ],
      "stateMutability": "view",
      "type": "function"
    },
    {
      "inputs": [],
      "name": "weaponsContract",
      "outputs": [
        {
          "internalType": "address",
          "name": "",
          "type": "address"
        }
      ],
      "stateMutability": "view",
      "type": "function"
    },
    {
      "inputs": [
        {
          "internalType": "bytes32",
          "name": "_name",
          "type": "bytes32"
        }
      ],
      "name": "registerPlayer",
      "outputs": [],
      "stateMutability": "nonpayable",
      "type": "function"
    },
    {
      "inputs": [
        {
          "components": [
            {
              "internalType": "bytes32",
              "name": "name",
              "type": "bytes32"
            },
            {
              "internalType": "bytes24",
              "name": "birthdate",
              "type": "bytes24"
            },
            {
              "internalType": "string",
              "name": "description",
              "type": "string"
            },
            {
              "internalType": "uint256",
              "name": "planetId",
              "type": "uint256"
            },
            {
              "internalType": "uint8",
              "name": "genre",
              "type": "uint8"
            }
          ],
          "internalType": "struct IEtherealBase.CharacterBaseMetadata",
          "name": "extraBaseMetaData",
          "type": "tuple"
        },
        {
          "components": [
            {
              "internalType": "uint24",
              "name": "skintone",
              "type": "uint24"
            },
            {
              "internalType": "uint24",
              "name": "haircolor",
              "type": "uint24"
            },
            {
              "internalType": "uint24",
              "name": "eyescolor",
              "type": "uint24"
            },
            {
              "internalType": "uint16",
              "name": "weight",
              "type": "uint16"
            },
            {
              "internalType": "uint16",
              "name": "height",
              "type": "uint16"
            },
            {
              "internalType": "uint8",
              "name": "bodyType",
              "type": "uint8"
            }
          ],
          "internalType": "struct IEtherealBase.CharacterPhysicalMetadata",
          "name": "extraPhysicalMetaData",
          "type": "tuple"
        },
        {
          "components": [
            {
              "internalType": "enum IEtherealBase.ElementOfNature",
              "name": "primaryElement",
              "type": "uint8"
            },
            {
              "internalType": "enum IEtherealBase.ElementOfNature",
              "name": "secondaryElement",
              "type": "uint8"
            },
            {
              "internalType": "uint8",
              "name": "life",
              "type": "uint8"
            },
            {
              "internalType": "uint8",
              "name": "armor",
              "type": "uint8"
            },
            {
              "internalType": "uint8",
              "name": "strength",
              "type": "uint8"
            },
            {
              "internalType": "uint8",
              "name": "speed",
              "type": "uint8"
            },
            {
              "internalType": "uint8",
              "name": "luck",
              "type": "uint8"
            },
            {
              "internalType": "uint8",
              "name": "spirit",
              "type": "uint8"
            }
          ],
          "internalType": "struct IEtherealBase.CharacterAttributesMetadata",
          "name": "extraAbilitiesMetaData",
          "type": "tuple"
        }
      ],
      "name": "createCharacter",
      "outputs": [
        {
          "internalType": "uint256",
          "name": "",
          "type": "uint256"
        }
      ],
      "stateMutability": "nonpayable",
      "type": "function"
    },
    {
      "inputs": [
        {
          "internalType": "enum IEtherealBase.ElementOfNature",
          "name": "_me",
          "type": "uint8"
        },
        {
          "internalType": "enum IEtherealBase.ElementOfNature",
          "name": "_enemy",
          "type": "uint8"
        },
        {
          "internalType": "uint8",
          "name": "_probWin",
          "type": "uint8"
        }
      ],
      "name": "assignProbabilityOfWinning",
      "outputs": [],
      "stateMutability": "nonpayable",
      "type": "function"
    },
    {
      "inputs": [
        {
          "internalType": "bool",
          "name": "_active",
          "type": "bool"
        }
      ],
      "name": "activateDeactivateContract",
      "outputs": [],
      "stateMutability": "nonpayable",
      "type": "function"
    }
  ],
  "bytecode": "0x60806040523480156200001157600080fd5b506040516200346038038062003460833981810160405281019062000037919062000484565b6200005b6000801b6200004f620000cc60201b60201c565b620000d460201b60201c565b6200006c85620000ea60201b60201c565b6200007d846200016760201b60201c565b6200008e83620001e460201b60201c565b6200009f826200026160201b60201c565b80600e819055506001600460146101000a81548160ff0219169083151502179055505050505050620006cd565b600033905090565b620000e68282620002de60201b60201c565b5050565b80600160006101000a81548173ffffffffffffffffffffffffffffffffffffffff021916908373ffffffffffffffffffffffffffffffffffffffff1602179055507fc02dd078a5d63c2645d0da4b3173f425d353dafebbb14064059edbd4244a31bf816040516200015c919062000630565b60405180910390a150565b80600260006101000a81548173ffffffffffffffffffffffffffffffffffffffff021916908373ffffffffffffffffffffffffffffffffffffffff1602179055507fc02dd078a5d63c2645d0da4b3173f425d353dafebbb14064059edbd4244a31bf81604051620001d99190620005af565b60405180910390a150565b80600360006101000a81548173ffffffffffffffffffffffffffffffffffffffff021916908373ffffffffffffffffffffffffffffffffffffffff1602179055507fc02dd078a5d63c2645d0da4b3173f425d353dafebbb14064059edbd4244a31bf81604051620002569190620005da565b60405180910390a150565b80600460006101000a81548173ffffffffffffffffffffffffffffffffffffffff021916908373ffffffffffffffffffffffffffffffffffffffff1602179055507fc02dd078a5d63c2645d0da4b3173f425d353dafebbb14064059edbd4244a31bf81604051620002d3919062000605565b60405180910390a150565b6200030c816000808581526020019081526020016000206000016200038160201b62000d551790919060201c565b156200037d5762000322620000cc60201b60201c565b73ffffffffffffffffffffffffffffffffffffffff168173ffffffffffffffffffffffffffffffffffffffff16837f2f8788117e7eff1d82e926ec794901d17c78024a50270940304540a733656f0d60405160405180910390a45b5050565b6000620003b1836000018373ffffffffffffffffffffffffffffffffffffffff1660001b620003b960201b60201c565b905092915050565b6000620003cd83836200043360201b60201c565b620004285782600001829080600181540180825580915050600190039060005260206000200160009091909190915055826000018054905083600101600084815260200190815260200160002081905550600190506200042d565b600090505b92915050565b600080836001016000848152602001908152602001600020541415905092915050565b600081519050620004678162000699565b92915050565b6000815190506200047e81620006b3565b92915050565b600080600080600060a086880312156200049d57600080fd5b6000620004ad8882890162000456565b9550506020620004c08882890162000456565b9450506040620004d38882890162000456565b9350506060620004e68882890162000456565b9250506080620004f9888289016200046d565b9150509295509295909350565b62000511816200065b565b82525050565b7f6368617261637465720000000000000000000000000000000000000000000000815250565b7f776561706f6e0000000000000000000000000000000000000000000000000000815250565b7f6b6f7065726e696b000000000000000000000000000000000000000000000000815250565b7f706c616e65740000000000000000000000000000000000000000000000000000815250565b6000604082019050620005c6600083018462000506565b620005d46020830162000517565b92915050565b6000604082019050620005f1600083018462000506565b620005ff602083016200053d565b92915050565b60006040820190506200061c600083018462000506565b6200062a6020830162000563565b92915050565b600060408201905062000647600083018462000506565b620006556020830162000589565b92915050565b600062000668826200066f565b9050919050565b600073ffffffffffffffffffffffffffffffffffffffff82169050919050565b6000819050919050565b620006a4816200065b565b8114620006b057600080fd5b50565b620006be816200068f565b8114620006ca57600080fd5b50565b612d8380620006dd6000396000f3fe608060405234801561001057600080fd5b50600436106101cf5760003560e01c80636ebe71f811610104578063a217fddf116100a2578063d5cfee3e11610071578063d5cfee3e14610561578063daee4ec814610591578063e18e32dc146105af578063f71d96cb146105cb576101cf565b8063a217fddf146104c7578063a84d7833146104e5578063ca15c87314610515578063d547741f14610545576101cf565b80639010d07c116100de5780639010d07c1461041957806391d148541461044957806397b2f556146104795780639ccd14b914610497576101cf565b80636ebe71f8146103c15780638996e7dc146103df5780638f089c17146103fb576101cf565b806336568abe1161017157806343b60f741161014b57806343b60f74146103375780634810c35b1461035557806350bfeadc1461038557806357a318c1146103a3576101cf565b806336568abe146102b4578063424aeded146102d05780634315e72314610304576101cf565b8063248a9ca3116101ad578063248a9ca31461022c5780632a02d1fd1461025c5780632f2ff15d1461027a5780633505c67d14610296576101cf565b806302fb0c5e146101d457806316c30ebc146101f257806321bbf14c14610210575b600080fd5b6101dc6105fb565b6040516101e9919061272d565b60405180910390f35b6101fa61060e565b6040516102079190612748565b60405180910390f35b61022a60048036038101906102259190611e0a565b610632565b005b61024660048036038101906102419190611e5c565b6106d9565b6040516102539190612748565b60405180910390f35b6102646106f8565b6040516102719190612656565b60405180910390f35b610294600480360381019061028f9190611e85565b61071e565b005b61029e6107a7565b6040516102ab9190612656565b60405180910390f35b6102ce60048036038101906102c99190611e85565b6107cd565b005b6102ea60048036038101906102e59190611de1565b610866565b6040516102fb95949392919061278c565b60405180910390f35b61031e60048036038101906103199190611ff0565b6108dc565b60405161032e94939291906126bf565b60405180910390f35b61033f61095c565b60405161034c9190612656565b60405180910390f35b61036f600480360381019061036a9190611e5c565b610982565b60405161037c919061272d565b60405180910390f35b61038d6109a2565b60405161039a9190612983565b60405180910390f35b6103ab6109a8565b6040516103b89190612983565b60405180910390f35b6103c96109ae565b6040516103d69190612656565b60405180910390f35b6103f960048036038101906103f49190611e5c565b6109d4565b005b610403610a3f565b6040516104109190612656565b60405180910390f35b610433600480360381019061042e9190611ec1565b610a65565b6040516104409190612656565b60405180910390f35b610463600480360381019061045e9190611e85565b610a96565b604051610470919061272d565b60405180910390f35b610481610ac7565b60405161048e9190612983565b60405180910390f35b6104b160048036038101906104ac9190611efd565b610acd565b6040516104be919061299e565b60405180910390f35b6104cf610afc565b6040516104dc9190612748565b60405180910390f35b6104ff60048036038101906104fa9190611f88565b610b03565b60405161050c9190612983565b60405180910390f35b61052f600480360381019061052a9190611e5c565b610bde565b60405161053c9190612983565b60405180910390f35b61055f600480360381019061055a9190611e85565b610c04565b005b61057b60048036038101906105769190611de1565b610c8d565b604051610588919061272d565b60405180910390f35b610599610cad565b6040516105a69190612983565b60405180910390f35b6105c960048036038101906105c49190611f39565b610cb3565b005b6105e560048036038101906105e09190611ff0565b610d16565b6040516105f29190612656565b60405180910390f35b600460149054906101000a900460ff1681565b7fce04d177cfe9f73a7157bda35b0add7251966ad70509ceaef76ad7d5e6c4504281565b6106466000801b610641610d85565b610a96565b610685576040517f08c379a000000000000000000000000000000000000000000000000000000000815260040161067c90612843565b60405180910390fd5b80600460146101000a81548160ff0219169083151502179055507f09712b3452a5348a0328397d58ce3c6cdc382ad233b3c04924a1f5683fa92574816040516106ce919061272d565b60405180910390a150565b6000806000838152602001908152602001600020600201549050919050565b600460009054906101000a900473ffffffffffffffffffffffffffffffffffffffff1681565b6107446000808481526020019081526020016000206002015461073f610d85565b610a96565b610799576040517f08c379a000000000000000000000000000000000000000000000000000000000815260040180806020018281038252602f815260200180612cc0602f913960400191505060405180910390fd5b6107a38282610d8d565b5050565b600360009054906101000a900473ffffffffffffffffffffffffffffffffffffffff1681565b6107d5610d85565b73ffffffffffffffffffffffffffffffffffffffff168173ffffffffffffffffffffffffffffffffffffffff1614610858576040517f08c379a000000000000000000000000000000000000000000000000000000000815260040180806020018281038252602f815260200180612d1f602f913960400191505060405180910390fd5b6108628282610e20565b5050565b60056020528060005260406000206000915090508060000154908060010160009054906101000a900463ffffffff16908060010160049054906101000a900463ffffffff16908060010160089054906101000a900463ffffffff169080600101600c9054906101000a900463ffffffff16905085565b600a81815481106108ec57600080fd5b90600052602060002090600402016000915090508060000160009054906101000a900473ffffffffffffffffffffffffffffffffffffffff16908060010160009054906101000a900473ffffffffffffffffffffffffffffffffffffffff16908060020154908060030154905084565b600260009054906101000a900473ffffffffffffffffffffffffffffffffffffffff1681565b60086020528060005260406000206000915054906101000a900460ff1681565b600e5481565b600b5481565b600c60009054906101000a900473ffffffffffffffffffffffffffffffffffffffff1681565b600460149054906101000a900460ff16610a23576040517f08c379a0000000000000000000000000000000000000000000000000000000008152600401610a1a90612883565b60405180910390fd5b610a2c81610eb3565b610a3c610a37610d85565b611352565b50565b600160009054906101000a900473ffffffffffffffffffffffffffffffffffffffff1681565b6000610a8e8260008086815260200190815260200160002060000161151e90919063ffffffff16565b905092915050565b6000610abf8260008086815260200190815260200160002060000161153890919063ffffffff16565b905092915050565b60075481565b600f6020528160005260406000206020528060005260406000206000915091509054906101000a900460ff1681565b6000801b81565b6000600460149054906101000a900460ff16610b54576040517f08c379a0000000000000000000000000000000000000000000000000000000008152600401610b4b90612883565b60405180910390fd5b610b857fce04d177cfe9f73a7157bda35b0add7251966ad70509ceaef76ad7d5e6c45042610b80610d85565b610a96565b610bc4576040517f08c379a0000000000000000000000000000000000000000000000000000000008152600401610bbb906128e3565b60405180910390fd5b6000610bd1858585611568565b9050809150509392505050565b6000610bfd600080848152602001908152602001600020600001611691565b9050919050565b610c2a60008084815260200190815260200160002060020154610c25610d85565b610a96565b610c7f576040517f08c379a0000000000000000000000000000000000000000000000000000000008152600401808060200182810382526030815260200180612cef6030913960400191505060405180910390fd5b610c898282610e20565b5050565b60096020528060005260406000206000915054906101000a900460ff1681565b600d5481565b610cc76000801b610cc2610d85565b610a96565b610d06576040517f08c379a0000000000000000000000000000000000000000000000000000000008152600401610cfd90612903565b60405180910390fd5b610d118383836116a6565b505050565b60068181548110610d2657600080fd5b906000526020600020016000915054906101000a900473ffffffffffffffffffffffffffffffffffffffff1681565b6000610d7d836000018373ffffffffffffffffffffffffffffffffffffffff1660001b611857565b905092915050565b600033905090565b610db481600080858152602001908152602001600020600001610d5590919063ffffffff16565b15610e1c57610dc1610d85565b73ffffffffffffffffffffffffffffffffffffffff168173ffffffffffffffffffffffffffffffffffffffff16837f2f8788117e7eff1d82e926ec794901d17c78024a50270940304540a733656f0d60405160405180910390a45b5050565b610e47816000808581526020019081526020016000206000016118c790919063ffffffff16565b15610eaf57610e54610d85565b73ffffffffffffffffffffffffffffffffffffffff168173ffffffffffffffffffffffffffffffffffffffff16837ff6391f5c32d9c69d2a47ea670b442974b53935d1edc7fd64eb21e047a839171b60405160405180910390a45b5050565b80604051602001610ec390612943565b6040516020818303038152906040528051906020012081604051602001610eea9190612748565b6040516020818303038152906040528051906020012014158015610f5b57506000604051602001610f1b9190612808565b6040516020818303038152906040528051906020012081604051602001610f429190612748565b6040516020818303038152906040528051906020012014155b610f9a576040517f08c379a0000000000000000000000000000000000000000000000000000000008152600401610f9190612863565b60405180910390fd5b60096000610fa6610d85565b73ffffffffffffffffffffffffffffffffffffffff1673ffffffffffffffffffffffffffffffffffffffff16815260200190815260200160002060009054906101000a900460ff161561102e576040517f08c379a0000000000000000000000000000000000000000000000000000000008152600401611025906128c3565b60405180910390fd5b816008600082815260200190815260200160002060009054906101000a900460ff1615611090576040517f08c379a0000000000000000000000000000000000000000000000000000000008152600401611087906128a3565b60405180910390fd5b6040518060a00160405280848152602001600063ffffffff168152602001600063ffffffff168152602001600063ffffffff168152602001600063ffffffff16815250600560006110df610d85565b73ffffffffffffffffffffffffffffffffffffffff1673ffffffffffffffffffffffffffffffffffffffff1681526020019081526020016000206000820151816000015560208201518160010160006101000a81548163ffffffff021916908363ffffffff16021790555060408201518160010160046101000a81548163ffffffff021916908363ffffffff16021790555060608201518160010160086101000a81548163ffffffff021916908363ffffffff160217905550608082015181600101600c6101000a81548163ffffffff021916908363ffffffff16021790555090505060066111cc610d85565b9080600181540180825580915050600190039060005260206000200160009091909190916101000a81548173ffffffffffffffffffffffffffffffffffffffff021916908373ffffffffffffffffffffffffffffffffffffffff16021790555060016008600085815260200190815260200160002060006101000a81548160ff021916908315150217905550600160096000611266610d85565b73ffffffffffffffffffffffffffffffffffffffff1673ffffffffffffffffffffffffffffffffffffffff16815260200190815260200160002060006101000a81548160ff0219169083151502179055506006805490506007819055506112f47fce04d177cfe9f73a7157bda35b0add7251966ad70509ceaef76ad7d5e6c450426112ef610d85565b6118f7565b6112fc610d85565b73ffffffffffffffffffffffffffffffffffffffff167fb15dfd21b68df9009b3cf0c00f71adb58432149afacbb5e885e3cece431e95ff84600754604051611345929190612763565b60405180910390a2505050565b6000600460009054906101000a900473ffffffffffffffffffffffffffffffffffffffff16905060008173ffffffffffffffffffffffffffffffffffffffff166370a08231306040518263ffffffff1660e01b81526004016113b49190612656565b60206040518083038186803b1580156113cc57600080fd5b505afa1580156113e0573d6000803e3d6000fd5b505050506040513d601f19601f820116820180604052508101906114049190612019565b9050600e5481101561144b576040517f08c379a000000000000000000000000000000000000000000000000000000000815260040161144290612823565b60405180910390fd5b8173ffffffffffffffffffffffffffffffffffffffff1663a9059cbb84600e546040518363ffffffff1660e01b8152600401611488929190612704565b602060405180830381600087803b1580156114a257600080fd5b505af11580156114b6573d6000803e3d6000fd5b505050506040513d601f19601f820116820180604052508101906114da9190611e33565b611519576040517f08c379a000000000000000000000000000000000000000000000000000000000815260040161151090612963565b60405180910390fd5b505050565b600061152d8360000183611905565b60001c905092915050565b6000611560836000018373ffffffffffffffffffffffffffffffffffffffff1660001b611988565b905092915050565b600080600260009054906101000a900473ffffffffffffffffffffffffffffffffffffffff16905060008173ffffffffffffffffffffffffffffffffffffffff1663af3ca0936115b6610d85565b8888886040518563ffffffff1660e01b81526004016115d89493929190612671565b602060405180830381600087803b1580156115f257600080fd5b505af1158015611606573d6000803e3d6000fd5b505050506040513d601f19601f8201168201806040525081019061162a9190612019565b9050611634610d85565b73ffffffffffffffffffffffffffffffffffffffff167f62be5f3bdc2d869fa9c0f72d60d1efc5baa37ba376c364bd58557e952b3fcf87876000015160405161167d9190612748565b60405180910390a280925050509392505050565b600061169f826000016119ab565b9050919050565b60648160ff1611156116ed576040517f08c379a00000000000000000000000000000000000000000000000000000000081526004016116e490612923565b60405180910390fd5b600081606403905081600f600086600c81111561170657fe5b600c81111561171157fe5b8152602001908152602001600020600085600c81111561172d57fe5b600c81111561173857fe5b815260200190815260200160002060006101000a81548160ff021916908360ff16021790555083600c81111561176a57fe5b7f184ca1b6e59081f312c2ab1e90a1a442486d2324c3be4ebe8f4253f63082f6e8848460405161179b9291906127df565b60405180910390a280600f600085600c8111156117b457fe5b600c8111156117bf57fe5b8152602001908152602001600020600086600c8111156117db57fe5b600c8111156117e657fe5b815260200190815260200160002060006101000a81548160ff021916908360ff16021790555082600c81111561181857fe5b7f184ca1b6e59081f312c2ab1e90a1a442486d2324c3be4ebe8f4253f63082f6e885836040516118499291906127df565b60405180910390a250505050565b60006118638383611988565b6118bc5782600001829080600181540180825580915050600190039060005260206000200160009091909190915055826000018054905083600101600084815260200190815260200160002081905550600190506118c1565b600090505b92915050565b60006118ef836000018373ffffffffffffffffffffffffffffffffffffffff1660001b6119bc565b905092915050565b6119018282610d8d565b5050565b600081836000018054905011611966576040517f08c379a0000000000000000000000000000000000000000000000000000000008152600401808060200182810382526022815260200180612c9e6022913960400191505060405180910390fd5b82600001828154811061197557fe5b9060005260206000200154905092915050565b600080836001016000848152602001908152602001600020541415905092915050565b600081600001805490509050919050565b60008083600101600084815260200190815260200160002054905060008114611a985760006001820390506000600186600001805490500390506000866000018281548110611a0757fe5b9060005260206000200154905080876000018481548110611a2457fe5b9060005260206000200181905550600183018760010160008381526020019081526020016000208190555086600001805480611a5c57fe5b60019003818190600052602060002001600090559055866001016000878152602001908152602001600020600090556001945050505050611a9e565b60009150505b92915050565b600081359050611ab381612bd5565b92915050565b600081359050611ac881612bec565b92915050565b600081519050611add81612bec565b92915050565b600081359050611af281612c03565b92915050565b600081359050611b0781612c1a565b92915050565b600081359050611b1c81612c31565b92915050565b600082601f830112611b3357600080fd5b8135611b46611b41826129ea565b6129b9565b91508082526020830160208301858383011115611b6257600080fd5b611b6d838284612b6c565b50505092915050565b60006101008284031215611b8957600080fd5b611b946101006129b9565b90506000611ba484828501611b0d565b6000830152506020611bb884828501611b0d565b6020830152506040611bcc84828501611dcc565b6040830152506060611be084828501611dcc565b6060830152506080611bf484828501611dcc565b60808301525060a0611c0884828501611dcc565b60a08301525060c0611c1c84828501611dcc565b60c08301525060e0611c3084828501611dcc565b60e08301525092915050565b600060a08284031215611c4e57600080fd5b611c5860a06129b9565b90506000611c6884828501611af8565b6000830152506020611c7c84828501611ae3565b602083015250604082013567ffffffffffffffff811115611c9c57600080fd5b611ca884828501611b22565b6040830152506060611cbc84828501611da2565b6060830152506080611cd084828501611dcc565b60808301525092915050565b600060c08284031215611cee57600080fd5b611cf860c06129b9565b90506000611d0884828501611d8d565b6000830152506020611d1c84828501611d8d565b6020830152506040611d3084828501611d8d565b6040830152506060611d4484828501611d78565b6060830152506080611d5884828501611d78565b60808301525060a0611d6c84828501611dcc565b60a08301525092915050565b600081359050611d8781612c41565b92915050565b600081359050611d9c81612c58565b92915050565b600081359050611db181612c6f565b92915050565b600081519050611dc681612c6f565b92915050565b600081359050611ddb81612c86565b92915050565b600060208284031215611df357600080fd5b6000611e0184828501611aa4565b91505092915050565b600060208284031215611e1c57600080fd5b6000611e2a84828501611ab9565b91505092915050565b600060208284031215611e4557600080fd5b6000611e5384828501611ace565b91505092915050565b600060208284031215611e6e57600080fd5b6000611e7c84828501611af8565b91505092915050565b60008060408385031215611e9857600080fd5b6000611ea685828601611af8565b9250506020611eb785828601611aa4565b9150509250929050565b60008060408385031215611ed457600080fd5b6000611ee285828601611af8565b9250506020611ef385828601611da2565b9150509250929050565b60008060408385031215611f1057600080fd5b6000611f1e85828601611b0d565b9250506020611f2f85828601611b0d565b9150509250929050565b600080600060608486031215611f4e57600080fd5b6000611f5c86828701611b0d565b9350506020611f6d86828701611b0d565b9250506040611f7e86828701611dcc565b9150509250925092565b60008060006101e08486031215611f9e57600080fd5b600084013567ffffffffffffffff811115611fb857600080fd5b611fc486828701611c3c565b9350506020611fd586828701611cdc565b92505060e0611fe686828701611b76565b9150509250925092565b60006020828403121561200257600080fd5b600061201084828501611da2565b91505092915050565b60006020828403121561202b57600080fd5b600061203984828501611db7565b91505092915050565b61204b81612b12565b82525050565b61205a81612a47565b82525050565b61206981612a59565b82525050565b61207881612a65565b82525050565b61208781612a91565b82525050565b61209681612a91565b82525050565b6120a581612b24565b82525050565b6120b481612b24565b82525050565b6120c381612b36565b82525050565b60006120d482612a1a565b6120de8185612a25565b93506120ee818560208601612b7b565b6120f781612bb0565b840191505092915050565b600061210f602c83612a36565b91507f4e6f7420656e6f7567682062616c616e6365206f6e20457468657265616c476160008301527f6d6520636f6e74726163742100000000000000000000000000000000000000006020830152604082019050919050565b6000612175603083612a36565b91507f616374697661746544656163746976617465436f6e74726163743a206d75737460008301527f20686176652061646d696e20726f6c65000000000000000000000000000000006020830152604082019050919050565b60006121db601883612a36565b91507f456d70747920737472696e67206e6f7420616c6c6f77656400000000000000006000830152602082019050919050565b600061221b601483612a36565b91507f436f6e747261637420697320696e6163746976650000000000000000000000006000830152602082019050919050565b600061225b601c83612a36565b91507f4e69636b6e616d65206e616d6520616c726561647920657869737473000000006000830152602082019050919050565b600061229b601c83612a36565b91507f506c6179657220697320616c72656164792072656769737465726564000000006000830152602082019050919050565b60006122db602683612a36565b91507f6372656174654368617261637465723a206d757374206861766520706c61796560008301527f7220726f6c6500000000000000000000000000000000000000000000000000006020830152604082019050919050565b6000612341603083612a36565b91507f61737369676e50726f626162696c6974794f6657696e6e696e673a206d75737460008301527f20686176652061646d696e20726f6c65000000000000000000000000000000006020830152604082019050919050565b60006123a7602583612a36565b91507f50726f626162696c697479206d757374206265206265747765656e203020616e60008301527f64203130300000000000000000000000000000000000000000000000000000006020830152604082019050919050565b600061240d600083612a36565b9150600082019050919050565b6000612427601883612a36565b91507f4572726f72207472616e73666572696e6720746f6b656e7300000000000000006000830152602082019050919050565b61010082016000820151612471600085018261209c565b506020820151612484602085018261209c565b5060408201516124976040850182612638565b5060608201516124aa6060850182612638565b5060808201516124bd6080850182612638565b5060a08201516124d060a0850182612638565b5060c08201516124e360c0850182612638565b5060e08201516124f660e0850182612638565b50505050565b600060a083016000830151612514600086018261207e565b506020830151612527602086018261206f565b506040830151848203604086015261253f82826120c9565b9150506060830151612554606086018261260b565b5060808301516125676080860182612638565b508091505092915050565b60c08201600082015161258860008501826125fc565b50602082015161259b60208501826125fc565b5060408201516125ae60408501826125fc565b5060608201516125c160608501826125ed565b5060808201516125d460808501826125ed565b5060a08201516125e760a0850182612638565b50505050565b6125f681612aae565b82525050565b61260581612adc565b82525050565b61261481612aeb565b82525050565b61262381612aeb565b82525050565b61263281612af5565b82525050565b61264181612b05565b82525050565b61265081612b05565b82525050565b600060208201905061266b6000830184612051565b92915050565b6000610200820190506126876000830187612042565b818103602083015261269981866124fc565b90506126a86040830185612572565b6126b661010083018461245a565b95945050505050565b60006080820190506126d46000830187612051565b6126e16020830186612051565b6126ee604083018561261a565b6126fb606083018461261a565b95945050505050565b60006040820190506127196000830185612051565b612726602083018461261a565b9392505050565b60006020820190506127426000830184612060565b92915050565b600060208201905061275d600083018461208d565b92915050565b6000604082019050612778600083018561208d565b612785602083018461261a565b9392505050565b600060a0820190506127a1600083018861208d565b6127ae6020830187612629565b6127bb6040830186612629565b6127c86060830185612629565b6127d56080830184612629565b9695505050505050565b60006040820190506127f460008301856120ab565b6128016020830184612647565b9392505050565b600060208201905061281d60008301846120ba565b92915050565b6000602082019050818103600083015261283c81612102565b9050919050565b6000602082019050818103600083015261285c81612168565b9050919050565b6000602082019050818103600083015261287c816121ce565b9050919050565b6000602082019050818103600083015261289c8161220e565b9050919050565b600060208201905081810360008301526128bc8161224e565b9050919050565b600060208201905081810360008301526128dc8161228e565b9050919050565b600060208201905081810360008301526128fc816122ce565b9050919050565b6000602082019050818103600083015261291c81612334565b9050919050565b6000602082019050818103600083015261293c8161239a565b9050919050565b6000602082019050818103600083015261295c81612400565b9050919050565b6000602082019050818103600083015261297c8161241a565b9050919050565b6000602082019050612998600083018461261a565b92915050565b60006020820190506129b36000830184612647565b92915050565b6000604051905081810181811067ffffffffffffffff821117156129e0576129df612bae565b5b8060405250919050565b600067ffffffffffffffff821115612a0557612a04612bae565b5b601f19601f8301169050602081019050919050565b600081519050919050565b600082825260208201905092915050565b600082825260208201905092915050565b6000612a5282612abc565b9050919050565b60008115159050919050565b60007fffffffffffffffffffffffffffffffffffffffffffffffff000000000000000082169050919050565b6000819050919050565b6000819050612aa982612bc1565b919050565b600061ffff82169050919050565b600073ffffffffffffffffffffffffffffffffffffffff82169050919050565b600062ffffff82169050919050565b6000819050919050565b600063ffffffff82169050919050565b600060ff82169050919050565b6000612b1d82612b48565b9050919050565b6000612b2f82612a9b565b9050919050565b6000612b4182612b05565b9050919050565b6000612b5382612b5a565b9050919050565b6000612b6582612abc565b9050919050565b82818337600083830152505050565b60005b83811015612b99578082015181840152602081019050612b7e565b83811115612ba8576000848401525b50505050565bfe5b6000601f19601f8301169050919050565b600d8110612bd257612bd1612bae565b5b50565b612bde81612a47565b8114612be957600080fd5b50565b612bf581612a59565b8114612c0057600080fd5b50565b612c0c81612a65565b8114612c1757600080fd5b50565b612c2381612a91565b8114612c2e57600080fd5b50565b600d8110612c3e57600080fd5b50565b612c4a81612aae565b8114612c5557600080fd5b50565b612c6181612adc565b8114612c6c57600080fd5b50565b612c7881612aeb565b8114612c8357600080fd5b50565b612c8f81612b05565b8114612c9a57600080fd5b5056fe456e756d657261626c655365743a20696e646578206f7574206f6620626f756e6473416363657373436f6e74726f6c3a2073656e646572206d75737420626520616e2061646d696e20746f206772616e74416363657373436f6e74726f6c3a2073656e646572206d75737420626520616e2061646d696e20746f207265766f6b65416363657373436f6e74726f6c3a2063616e206f6e6c792072656e6f756e636520726f6c657320666f722073656c66a2646970667358221220e47a79e1ff718e365a60c721d2cd38b5312125904bfd7ed74747fa6a2fe1a6e464736f6c63430007050033",
  "immutableReferences": {},
  "source": "// SPDX-License-Identifier: MIT\r\npragma solidity 0.7.5;\r\npragma abicoder v2;\r\n\r\nimport '@openzeppelin/contracts/access/AccessControl.sol';\r\nimport \"@openzeppelin/contracts/utils/Context.sol\";\r\nimport '@openzeppelin/contracts/math/SafeMath.sol';\r\nimport './SafeMath8.sol';\r\nimport './SafeMath16.sol';\r\nimport './SafeMath24.sol';\r\nimport './SafeMath32.sol';\r\nimport './IEtherealBase.sol';\r\nimport './IEtherealCharacter.sol';\r\nimport './IBEP20.sol';\r\n\r\ncontract EtherealGame is Context, AccessControl, IEtherealBase\r\n{\r\n  using SafeMath for uint256;\r\n  using SafeMath8 for uint8;\r\n  using SafeMath16 for uint16;\r\n  using SafeMath24 for uint24;\r\n  using SafeMath32 for uint32;\r\n\r\n  struct Player {\r\n    bytes32 nickname;\r\n    uint32 wins;\r\n    uint32 loss;\r\n    uint32 tie;\r\n    uint32 gaveup;\r\n  }\r\n\r\n  struct Fight {\r\n    address player1;\r\n    address player2;\r\n    uint256 player1CharacterId;\r\n    uint256 player2CharacterId;\r\n  }\r\n  \r\n  // Player role to improve access control\r\n  bytes32 public constant PLAYER_ROLE = keccak256(\"PLAYER_ROLE\");\r\n\r\n  // Addresses of other contracts\r\n  address public planetContract;\r\n  address public characterContract;\r\n  address public weaponsContract;\r\n  address public kopernikTokenContract;\r\n\r\n  // Contract status\r\n  bool public active;\r\n  // Table of players\r\n  mapping(address => Player) public playerData;\r\n  address[] public players;\r\n  uint256 public numPlayers;\r\n  mapping(bytes32 => bool) public playerNicknameExists;\r\n  mapping(address => bool) public playerIsRegistered;\r\n  \r\n  // Table of fights\r\n  Fight[] public fights;\r\n  uint256 public numFights;\r\n  // Statistics\r\n  address public topPlayer;\r\n  uint256 public topFighter;\r\n\r\n  // Settings\r\n  uint256 public initialTokens;\r\n\r\n  /*\r\n  * @dev Check if bytes32 is empty\r\n  */\r\n  modifier isNotEmptyBytes32(bytes32 _s)\r\n  {\r\n    require(\r\n      (keccak256(abi.encode(_s)) != keccak256(abi.encode(\"\"))) &&\r\n      (keccak256(abi.encode(_s)) != keccak256(abi.encode(0x00))),\r\n      \"Empty string not allowed\"\r\n    );\r\n    _;\r\n  }\r\n\r\n\r\n\t/*\r\n\t*\t@dev Check if contract is active\r\n\t*/\r\n\tmodifier isContractActive {\r\n\t\trequire( active, \"Contract is inactive\" );\r\n\t\t_;\r\n\t}\r\n\r\n  /*\r\n  * @dev Check if contract is active\r\n  */\r\n  modifier isNotRegistered() {\r\n    require(!playerIsRegistered[_msgSender()], \"Player is already registered\");\r\n    _;\r\n  }\r\n\r\n  /*\r\n  * @dev Check if planet name is available or if is already used\r\n  */\r\n  modifier isPlayerNicknameAvailable(bytes32 _name) {\r\n    require(\r\n      !playerNicknameExists[_name],\r\n      \"Nickname name already exists\"\r\n    );\r\n    _;\r\n  }\r\n\r\n\r\n  /*\r\n  * @dev Log contract status update\r\n  */\r\n  event ContractStatusUpdate(bool newStatus);\r\n  event LibContractAddressUpdate(address newAddress, bytes32 contractName);\r\n  event ProbabilityOfWinningUpdate(ElementOfNature indexed _me, ElementOfNature _enemy, uint8 _prob);\r\n  event NewPlayerRegistered(address indexed player, bytes32 name, uint256 totalPlayers);\r\n  event NewCharacterMinted(address indexed player, bytes32 name);\r\n\t\r\n  /*\r\n  * @dev Set default admin role to owner\r\n  */\r\n  constructor(\r\n    address _planetAddress,\r\n    address _characterAddress,\r\n    address _weaponAddress,\r\n    address _tokenAddress,\r\n    uint256 _initialTokens\r\n  ) {\r\n    _setupRole(DEFAULT_ADMIN_ROLE, _msgSender());\r\n    _setPlanetContractAddress(_planetAddress);\r\n    _setCharacterContractAddress(_characterAddress);\r\n    _setWeaponContractAddress(_weaponAddress);\r\n    _setKopernikTokenContractAddress(_tokenAddress);\r\n    initialTokens = _initialTokens;\r\n    active = true;\r\n  }\r\n\r\n  /*\r\n  *  @Update planet contract address\r\n  */\r\n  function _setPlanetContractAddress(address _contract)\r\n    private\r\n  {\r\n    planetContract = _contract;\r\n    emit LibContractAddressUpdate(_contract, 'planet');\r\n  }\r\n\r\n  /*\r\n  *  @Update character contract address\r\n  */\r\n  function _setCharacterContractAddress(address _contract)\r\n    private\r\n  {\r\n    characterContract = _contract;\r\n    emit LibContractAddressUpdate(_contract, 'character');\r\n  }\r\n\r\n  /*\r\n  *  @Update weapon contract address\r\n  */\r\n  function _setWeaponContractAddress(address _contract)\r\n    private\r\n  {\r\n    weaponsContract = _contract;\r\n    emit LibContractAddressUpdate(_contract, 'weapon');\r\n  }\r\n\r\n  /*\r\n  *  @Update token contract address\r\n  */\r\n  function _setKopernikTokenContractAddress(address _contract)\r\n    private\r\n  {\r\n    kopernikTokenContract = _contract;\r\n    emit LibContractAddressUpdate(_contract, 'kopernik');\r\n  }\r\n\r\n  /*\r\n  *  @dev Register a new player\r\n  */\r\n  function _registerPlayer(bytes32 _name)\r\n    private\r\n    isNotEmptyBytes32(_name)\r\n    isNotRegistered\r\n    isPlayerNicknameAvailable(_name)\r\n  {\r\n    playerData[_msgSender()] = Player(_name, 0, 0, 0, 0);\r\n    players.push(_msgSender());\r\n    playerNicknameExists[_name] = true;\r\n    playerIsRegistered[_msgSender()] = true;\r\n    numPlayers = players.length;\r\n    _setupRole(PLAYER_ROLE, _msgSender());\r\n    emit NewPlayerRegistered(_msgSender(), _name, numPlayers);\r\n  }\r\n\r\n  /*\r\n  * @dev Send initial tokens\r\n  */\r\n  function _sendInitialTokensToPlayer(address _to)\r\n    private\r\n  {\r\n    IBEP20 KopernikToken = IBEP20(kopernikTokenContract);\r\n    uint256 etherealBalance = KopernikToken.balanceOf(address(this));\r\n    // Check contract balance\r\n    if (etherealBalance < initialTokens) {\r\n      revert(\"Not enough balance on EtherealGame contract!\");\r\n    }\r\n    if (!KopernikToken.transfer(_to, initialTokens)) {\r\n      revert(\"Error transfering tokens\");\r\n    }\r\n  }\r\n\r\n  /*\r\n  * @dev Create a new character\r\n  *\r\n  * CharacterBaseMetadata {\r\n  *    bytes32 name;\r\n  *    bytes24 birthdate;\r\n  *    string description;\r\n  *    uint256 planetId;\r\n  *    uint8 genre;\r\n  *  }\r\n  *\r\n  */\r\n  function _createCharacter(\r\n    // BaseMetadata\r\n    CharacterBaseMetadata memory extraBaseMetaData,\r\n    // PhysicalMetadata\r\n    CharacterPhysicalMetadata memory extraPhysicalMetaData,\r\n    // AttributesMetadata\r\n    CharacterAttributesMetadata memory extraAbilitiesMetaData\r\n  )\r\n    private\r\n    returns (uint256)\r\n  {\r\n    IEtherealCharacter CharacterContract = IEtherealCharacter(characterContract);\r\n    uint256 characterId = CharacterContract.mint(\r\n      _msgSender(),\r\n      extraBaseMetaData,\r\n      extraPhysicalMetaData,\r\n      extraAbilitiesMetaData\r\n    );\r\n    emit NewCharacterMinted(_msgSender(), extraBaseMetaData.name);\r\n    return characterId;\r\n  }\r\n\r\n  \r\n  mapping(ElementOfNature => mapping(ElementOfNature => uint8)) public probabilityOfWinningAgainstElem;\r\n\r\n  /*\r\n  * @dev Assign/update probability of my _element defeating _enemy\r\n  */\r\n  function _assignProbabilityOfWinning(\r\n    ElementOfNature _me,\r\n    ElementOfNature _enemy,\r\n    uint8 _probWin\r\n  )\r\n    private\r\n  {\r\n    require (_probWin <= 100, \"Probability must be between 0 and 100\");\r\n    uint8 probLoss = 100 - _probWin;\r\n    probabilityOfWinningAgainstElem[_me][_enemy] = _probWin;\r\n    emit ProbabilityOfWinningUpdate(_me, _enemy, _probWin);\r\n    probabilityOfWinningAgainstElem[_enemy][_me] = probLoss;\r\n    emit ProbabilityOfWinningUpdate(_enemy, _me, probLoss);\r\n  }\r\n\r\n  /*\r\n  * @dev Create a new player and send initial tokens\r\n  */\r\n  function registerPlayer(bytes32 _name)\r\n    public\r\n    isContractActive\r\n  {\r\n    _registerPlayer(_name);\r\n    _sendInitialTokensToPlayer(_msgSender());\r\n  }\r\n\r\n  /*\r\n  * @dev Create a new character\r\n  */\r\n  function createCharacter(\r\n    // BaseMetadata\r\n    CharacterBaseMetadata memory extraBaseMetaData,\r\n    // PhysicalMetadata\r\n    CharacterPhysicalMetadata memory extraPhysicalMetaData,\r\n    // AttributesMetadata\r\n    CharacterAttributesMetadata memory extraAbilitiesMetaData\r\n  )\r\n    public\r\n    isContractActive\r\n    returns(uint256)\r\n  {\r\n    require(hasRole(PLAYER_ROLE, _msgSender()), \"createCharacter: must have player role\");\r\n\r\n    uint256 characterId = _createCharacter(\r\n      extraBaseMetaData,\r\n      extraPhysicalMetaData,\r\n      extraAbilitiesMetaData\r\n    );\r\n    return characterId;\r\n  }\r\n\r\n  /*\r\n  * @dev Assign/update probability of my _element defeating _enemy\r\n  */\r\n  function assignProbabilityOfWinning(\r\n    ElementOfNature _me,\r\n    ElementOfNature _enemy,\r\n    uint8 _probWin\r\n  )\r\n    external\r\n  {\r\n    require(hasRole(DEFAULT_ADMIN_ROLE, _msgSender()), \"assignProbabilityOfWinning: must have admin role\");\r\n    _assignProbabilityOfWinning(_me, _enemy, _probWin);\r\n  }\r\n\r\n  /*\r\n  * @dev Update contract status\r\n  */\r\n  function activateDeactivateContract(bool _active)\r\n    external\r\n  {\r\n    require(hasRole(DEFAULT_ADMIN_ROLE, _msgSender()), \"activateDeactivateContract: must have admin role\");\r\n\r\n    active = _active;\r\n    emit ContractStatusUpdate(_active);\r\n  }\r\n\r\n\r\n\r\n}",
  "sourcePath": "C:/xampp/htdocs/ethereal-bnb/truffle-files/contracts/EtherealGame.sol",
  "compiler": {
    "name": "solc",
    "version": "0.7.5+commit.eb77ed08.Emscripten.clang"
  },
  "schemaVersion": "3.3.3",
  "updatedAt": "2021-02-16T04:43:59.757Z",
  "devdoc": {
    "kind": "dev",
    "methods": {
      "getRoleAdmin(bytes32)": {
        "details": "Returns the admin role that controls `role`. See {grantRole} and {revokeRole}. To change a role's admin, use {_setRoleAdmin}."
      },
      "getRoleMember(bytes32,uint256)": {
        "details": "Returns one of the accounts that have `role`. `index` must be a value between 0 and {getRoleMemberCount}, non-inclusive. Role bearers are not sorted in any particular way, and their ordering may change at any point. WARNING: When using {getRoleMember} and {getRoleMemberCount}, make sure you perform all queries on the same block. See the following https://forum.openzeppelin.com/t/iterating-over-elements-on-enumerableset-in-openzeppelin-contracts/2296[forum post] for more information."
      },
      "getRoleMemberCount(bytes32)": {
        "details": "Returns the number of accounts that have `role`. Can be used together with {getRoleMember} to enumerate all bearers of a role."
      },
      "grantRole(bytes32,address)": {
        "details": "Grants `role` to `account`. If `account` had not been already granted `role`, emits a {RoleGranted} event. Requirements: - the caller must have ``role``'s admin role."
      },
      "hasRole(bytes32,address)": {
        "details": "Returns `true` if `account` has been granted `role`."
      },
      "renounceRole(bytes32,address)": {
        "details": "Revokes `role` from the calling account. Roles are often managed via {grantRole} and {revokeRole}: this function's purpose is to provide a mechanism for accounts to lose their privileges if they are compromised (such as when a trusted device is misplaced). If the calling account had been granted `role`, emits a {RoleRevoked} event. Requirements: - the caller must be `account`."
      },
      "revokeRole(bytes32,address)": {
        "details": "Revokes `role` from `account`. If `account` had been granted `role`, emits a {RoleRevoked} event. Requirements: - the caller must have ``role``'s admin role."
      }
    },
    "version": 1
  },
  "userdoc": {
    "kind": "user",
    "methods": {},
    "version": 1
  }
}