{
  "contractName": "EtherealGame",
  "abi": [
    {
      "inputs": [
        {
          "internalType": "address",
          "name": "_planetAddress",
          "type": "address"
        },
        {
          "internalType": "address",
          "name": "_characterAddress",
          "type": "address"
        },
        {
          "internalType": "address",
          "name": "_weaponAddress",
          "type": "address"
        },
        {
          "internalType": "address",
          "name": "_tokenAddress",
          "type": "address"
        },
        {
          "internalType": "uint256",
          "name": "_initialTokens",
          "type": "uint256"
        }
      ],
      "stateMutability": "nonpayable",
      "type": "constructor"
    },
    {
      "anonymous": false,
      "inputs": [
        {
          "indexed": false,
          "internalType": "bool",
          "name": "newStatus",
          "type": "bool"
        }
      ],
      "name": "ContractStatusUpdate",
      "type": "event"
    },
    {
      "anonymous": false,
      "inputs": [
        {
          "indexed": false,
          "internalType": "address",
          "name": "newAddress",
          "type": "address"
        },
        {
          "indexed": false,
          "internalType": "bytes32",
          "name": "contractName",
          "type": "bytes32"
        }
      ],
      "name": "LibContractAddressUpdate",
      "type": "event"
    },
    {
      "anonymous": false,
      "inputs": [
        {
          "indexed": true,
          "internalType": "address",
          "name": "player",
          "type": "address"
        },
        {
          "indexed": false,
          "internalType": "bytes32",
          "name": "name",
          "type": "bytes32"
        }
      ],
      "name": "NewCharacterMinted",
      "type": "event"
    },
    {
      "anonymous": false,
      "inputs": [
        {
          "indexed": true,
          "internalType": "address",
          "name": "player1",
          "type": "address"
        },
        {
          "indexed": true,
          "internalType": "address",
          "name": "player2",
          "type": "address"
        },
        {
          "indexed": false,
          "internalType": "uint256",
          "name": "id",
          "type": "uint256"
        }
      ],
      "name": "NewFightRequest",
      "type": "event"
    },
    {
      "anonymous": false,
      "inputs": [
        {
          "indexed": true,
          "internalType": "address",
          "name": "player1",
          "type": "address"
        },
        {
          "indexed": true,
          "internalType": "address",
          "name": "player2",
          "type": "address"
        }
      ],
      "name": "NewFightRequestAccepted",
      "type": "event"
    },
    {
      "anonymous": false,
      "inputs": [
        {
          "indexed": true,
          "internalType": "address",
          "name": "player",
          "type": "address"
        },
        {
          "indexed": false,
          "internalType": "bytes32",
          "name": "name",
          "type": "bytes32"
        },
        {
          "indexed": false,
          "internalType": "uint256",
          "name": "totalPlayers",
          "type": "uint256"
        }
      ],
      "name": "NewPlayerRegistered",
      "type": "event"
    },
    {
      "anonymous": false,
      "inputs": [
        {
          "indexed": true,
          "internalType": "enum IEtherealBase.ElementOfNature",
          "name": "_me",
          "type": "uint8"
        },
        {
          "indexed": false,
          "internalType": "enum IEtherealBase.ElementOfNature",
          "name": "_enemy",
          "type": "uint8"
        },
        {
          "indexed": false,
          "internalType": "uint8",
          "name": "_prob",
          "type": "uint8"
        }
      ],
      "name": "ProbabilityOfWinningUpdate",
      "type": "event"
    },
    {
      "anonymous": false,
      "inputs": [
        {
          "indexed": true,
          "internalType": "bytes32",
          "name": "role",
          "type": "bytes32"
        },
        {
          "indexed": true,
          "internalType": "bytes32",
          "name": "previousAdminRole",
          "type": "bytes32"
        },
        {
          "indexed": true,
          "internalType": "bytes32",
          "name": "newAdminRole",
          "type": "bytes32"
        }
      ],
      "name": "RoleAdminChanged",
      "type": "event"
    },
    {
      "anonymous": false,
      "inputs": [
        {
          "indexed": true,
          "internalType": "bytes32",
          "name": "role",
          "type": "bytes32"
        },
        {
          "indexed": true,
          "internalType": "address",
          "name": "account",
          "type": "address"
        },
        {
          "indexed": true,
          "internalType": "address",
          "name": "sender",
          "type": "address"
        }
      ],
      "name": "RoleGranted",
      "type": "event"
    },
    {
      "anonymous": false,
      "inputs": [
        {
          "indexed": true,
          "internalType": "bytes32",
          "name": "role",
          "type": "bytes32"
        },
        {
          "indexed": true,
          "internalType": "address",
          "name": "account",
          "type": "address"
        },
        {
          "indexed": true,
          "internalType": "address",
          "name": "sender",
          "type": "address"
        }
      ],
      "name": "RoleRevoked",
      "type": "event"
    },
    {
      "inputs": [],
      "name": "DEFAULT_ADMIN_ROLE",
      "outputs": [
        {
          "internalType": "bytes32",
          "name": "",
          "type": "bytes32"
        }
      ],
      "stateMutability": "view",
      "type": "function"
    },
    {
      "inputs": [],
      "name": "PLAYER_ROLE",
      "outputs": [
        {
          "internalType": "bytes32",
          "name": "",
          "type": "bytes32"
        }
      ],
      "stateMutability": "view",
      "type": "function"
    },
    {
      "inputs": [],
      "name": "active",
      "outputs": [
        {
          "internalType": "bool",
          "name": "",
          "type": "bool"
        }
      ],
      "stateMutability": "view",
      "type": "function"
    },
    {
      "inputs": [],
      "name": "characterContract",
      "outputs": [
        {
          "internalType": "address",
          "name": "",
          "type": "address"
        }
      ],
      "stateMutability": "view",
      "type": "function"
    },
    {
      "inputs": [
        {
          "internalType": "address",
          "name": "",
          "type": "address"
        },
        {
          "internalType": "uint256",
          "name": "",
          "type": "uint256"
        }
      ],
      "name": "fightRequests",
      "outputs": [
        {
          "internalType": "address",
          "name": "contender",
          "type": "address"
        },
        {
          "internalType": "uint256",
          "name": "contenderCharacterId",
          "type": "uint256"
        },
        {
          "internalType": "uint256",
          "name": "myCharacterId",
          "type": "uint256"
        },
        {
          "internalType": "bool",
          "name": "accepted",
          "type": "bool"
        },
        {
          "internalType": "bool",
          "name": "rejected",
          "type": "bool"
        },
        {
          "internalType": "bool",
          "name": "pending",
          "type": "bool"
        },
        {
          "internalType": "bool",
          "name": "win",
          "type": "bool"
        },
        {
          "internalType": "bool",
          "name": "loss",
          "type": "bool"
        },
        {
          "internalType": "uint256",
          "name": "expirationDate",
          "type": "uint256"
        }
      ],
      "stateMutability": "view",
      "type": "function"
    },
    {
      "inputs": [
        {
          "internalType": "bytes32",
          "name": "role",
          "type": "bytes32"
        }
      ],
      "name": "getRoleAdmin",
      "outputs": [
        {
          "internalType": "bytes32",
          "name": "",
          "type": "bytes32"
        }
      ],
      "stateMutability": "view",
      "type": "function"
    },
    {
      "inputs": [
        {
          "internalType": "bytes32",
          "name": "role",
          "type": "bytes32"
        },
        {
          "internalType": "uint256",
          "name": "index",
          "type": "uint256"
        }
      ],
      "name": "getRoleMember",
      "outputs": [
        {
          "internalType": "address",
          "name": "",
          "type": "address"
        }
      ],
      "stateMutability": "view",
      "type": "function"
    },
    {
      "inputs": [
        {
          "internalType": "bytes32",
          "name": "role",
          "type": "bytes32"
        }
      ],
      "name": "getRoleMemberCount",
      "outputs": [
        {
          "internalType": "uint256",
          "name": "",
          "type": "uint256"
        }
      ],
      "stateMutability": "view",
      "type": "function"
    },
    {
      "inputs": [
        {
          "internalType": "bytes32",
          "name": "role",
          "type": "bytes32"
        },
        {
          "internalType": "address",
          "name": "account",
          "type": "address"
        }
      ],
      "name": "grantRole",
      "outputs": [],
      "stateMutability": "nonpayable",
      "type": "function"
    },
    {
      "inputs": [
        {
          "internalType": "bytes32",
          "name": "role",
          "type": "bytes32"
        },
        {
          "internalType": "address",
          "name": "account",
          "type": "address"
        }
      ],
      "name": "hasRole",
      "outputs": [
        {
          "internalType": "bool",
          "name": "",
          "type": "bool"
        }
      ],
      "stateMutability": "view",
      "type": "function"
    },
    {
      "inputs": [],
      "name": "initialTokens",
      "outputs": [
        {
          "internalType": "uint256",
          "name": "",
          "type": "uint256"
        }
      ],
      "stateMutability": "view",
      "type": "function"
    },
    {
      "inputs": [],
      "name": "kopernikTokenContract",
      "outputs": [
        {
          "internalType": "address",
          "name": "",
          "type": "address"
        }
      ],
      "stateMutability": "view",
      "type": "function"
    },
    {
      "inputs": [],
      "name": "numPlayers",
      "outputs": [
        {
          "internalType": "uint256",
          "name": "",
          "type": "uint256"
        }
      ],
      "stateMutability": "view",
      "type": "function"
    },
    {
      "inputs": [],
      "name": "planetContract",
      "outputs": [
        {
          "internalType": "address",
          "name": "",
          "type": "address"
        }
      ],
      "stateMutability": "view",
      "type": "function"
    },
    {
      "inputs": [
        {
          "internalType": "address",
          "name": "",
          "type": "address"
        }
      ],
      "name": "playerData",
      "outputs": [
        {
          "internalType": "bytes32",
          "name": "nickname",
          "type": "bytes32"
        },
        {
          "internalType": "uint32",
          "name": "wins",
          "type": "uint32"
        },
        {
          "internalType": "uint32",
          "name": "loss",
          "type": "uint32"
        },
        {
          "internalType": "uint32",
          "name": "tie",
          "type": "uint32"
        },
        {
          "internalType": "uint32",
          "name": "gaveup",
          "type": "uint32"
        }
      ],
      "stateMutability": "view",
      "type": "function"
    },
    {
      "inputs": [
        {
          "internalType": "address",
          "name": "",
          "type": "address"
        }
      ],
      "name": "playerIsRegistered",
      "outputs": [
        {
          "internalType": "bool",
          "name": "",
          "type": "bool"
        }
      ],
      "stateMutability": "view",
      "type": "function"
    },
    {
      "inputs": [
        {
          "internalType": "bytes32",
          "name": "",
          "type": "bytes32"
        }
      ],
      "name": "playerNicknameExists",
      "outputs": [
        {
          "internalType": "bool",
          "name": "",
          "type": "bool"
        }
      ],
      "stateMutability": "view",
      "type": "function"
    },
    {
      "inputs": [
        {
          "internalType": "uint256",
          "name": "",
          "type": "uint256"
        }
      ],
      "name": "players",
      "outputs": [
        {
          "internalType": "address",
          "name": "",
          "type": "address"
        }
      ],
      "stateMutability": "view",
      "type": "function"
    },
    {
      "inputs": [
        {
          "internalType": "enum IEtherealBase.ElementOfNature",
          "name": "",
          "type": "uint8"
        },
        {
          "internalType": "enum IEtherealBase.ElementOfNature",
          "name": "",
          "type": "uint8"
        }
      ],
      "name": "probabilityOfWinningAgainstElem",
      "outputs": [
        {
          "internalType": "uint8",
          "name": "",
          "type": "uint8"
        }
      ],
      "stateMutability": "view",
      "type": "function"
    },
    {
      "inputs": [
        {
          "internalType": "bytes32",
          "name": "role",
          "type": "bytes32"
        },
        {
          "internalType": "address",
          "name": "account",
          "type": "address"
        }
      ],
      "name": "renounceRole",
      "outputs": [],
      "stateMutability": "nonpayable",
      "type": "function"
    },
    {
      "inputs": [
        {
          "internalType": "bytes32",
          "name": "role",
          "type": "bytes32"
        },
        {
          "internalType": "address",
          "name": "account",
          "type": "address"
        }
      ],
      "name": "revokeRole",
      "outputs": [],
      "stateMutability": "nonpayable",
      "type": "function"
    },
    {
      "inputs": [],
      "name": "topFighter",
      "outputs": [
        {
          "internalType": "uint256",
          "name": "",
          "type": "uint256"
        }
      ],
      "stateMutability": "view",
      "type": "function"
    },
    {
      "inputs": [],
      "name": "topPlayer",
      "outputs": [
        {
          "internalType": "address",
          "name": "",
          "type": "address"
        }
      ],
      "stateMutability": "view",
      "type": "function"
    },
    {
      "inputs": [
        {
          "internalType": "address",
          "name": "",
          "type": "address"
        }
      ],
      "name": "totalFightRequests",
      "outputs": [
        {
          "internalType": "uint256",
          "name": "",
          "type": "uint256"
        }
      ],
      "stateMutability": "view",
      "type": "function"
    },
    {
      "inputs": [],
      "name": "weaponsContract",
      "outputs": [
        {
          "internalType": "address",
          "name": "",
          "type": "address"
        }
      ],
      "stateMutability": "view",
      "type": "function"
    },
    {
      "inputs": [
        {
          "internalType": "bytes32",
          "name": "_name",
          "type": "bytes32"
        }
      ],
      "name": "registerPlayer",
      "outputs": [],
      "stateMutability": "nonpayable",
      "type": "function"
    },
    {
      "inputs": [
        {
          "components": [
            {
              "internalType": "bytes32",
              "name": "name",
              "type": "bytes32"
            },
            {
              "internalType": "bytes24",
              "name": "birthdate",
              "type": "bytes24"
            },
            {
              "internalType": "string",
              "name": "description",
              "type": "string"
            },
            {
              "internalType": "uint256",
              "name": "planetId",
              "type": "uint256"
            },
            {
              "internalType": "uint8",
              "name": "genre",
              "type": "uint8"
            }
          ],
          "internalType": "struct IEtherealBase.CharacterBaseMetadata",
          "name": "extraBaseMetaData",
          "type": "tuple"
        },
        {
          "components": [
            {
              "internalType": "uint24",
              "name": "skintone",
              "type": "uint24"
            },
            {
              "internalType": "uint24",
              "name": "haircolor",
              "type": "uint24"
            },
            {
              "internalType": "uint24",
              "name": "eyescolor",
              "type": "uint24"
            },
            {
              "internalType": "uint16",
              "name": "weight",
              "type": "uint16"
            },
            {
              "internalType": "uint16",
              "name": "height",
              "type": "uint16"
            },
            {
              "internalType": "uint8",
              "name": "bodyType",
              "type": "uint8"
            }
          ],
          "internalType": "struct IEtherealBase.CharacterPhysicalMetadata",
          "name": "extraPhysicalMetaData",
          "type": "tuple"
        },
        {
          "components": [
            {
              "internalType": "enum IEtherealBase.ElementOfNature",
              "name": "primaryElement",
              "type": "uint8"
            },
            {
              "internalType": "enum IEtherealBase.ElementOfNature",
              "name": "secondaryElement",
              "type": "uint8"
            },
            {
              "internalType": "uint8",
              "name": "life",
              "type": "uint8"
            },
            {
              "internalType": "uint8",
              "name": "armor",
              "type": "uint8"
            },
            {
              "internalType": "uint8",
              "name": "strength",
              "type": "uint8"
            },
            {
              "internalType": "uint8",
              "name": "speed",
              "type": "uint8"
            },
            {
              "internalType": "uint8",
              "name": "luck",
              "type": "uint8"
            },
            {
              "internalType": "uint8",
              "name": "spirit",
              "type": "uint8"
            }
          ],
          "internalType": "struct IEtherealBase.CharacterAttributesMetadata",
          "name": "extraAbilitiesMetaData",
          "type": "tuple"
        }
      ],
      "name": "createCharacter",
      "outputs": [
        {
          "internalType": "uint256",
          "name": "",
          "type": "uint256"
        }
      ],
      "stateMutability": "nonpayable",
      "type": "function"
    },
    {
      "inputs": [
        {
          "internalType": "address",
          "name": "_contender",
          "type": "address"
        },
        {
          "internalType": "uint256",
          "name": "_characterId",
          "type": "uint256"
        }
      ],
      "name": "requestFight",
      "outputs": [
        {
          "internalType": "uint256",
          "name": "",
          "type": "uint256"
        }
      ],
      "stateMutability": "nonpayable",
      "type": "function"
    },
    {
      "inputs": [
        {
          "internalType": "enum IEtherealBase.ElementOfNature",
          "name": "_me",
          "type": "uint8"
        },
        {
          "internalType": "enum IEtherealBase.ElementOfNature",
          "name": "_enemy",
          "type": "uint8"
        },
        {
          "internalType": "uint8",
          "name": "_probWin",
          "type": "uint8"
        }
      ],
      "name": "assignProbabilityOfWinning",
      "outputs": [],
      "stateMutability": "nonpayable",
      "type": "function"
    },
    {
      "inputs": [
        {
          "internalType": "bool",
          "name": "_active",
          "type": "bool"
        }
      ],
      "name": "activateDeactivateContract",
      "outputs": [],
      "stateMutability": "nonpayable",
      "type": "function"
    }
  ],
  "bytecode": "0x60806040523480156200001157600080fd5b5060405162003db438038062003db4833981810160405281019062000037919062000484565b6200005b6000801b6200004f620000cc60201b60201c565b620000d460201b60201c565b6200006c85620000ea60201b60201c565b6200007d846200016760201b60201c565b6200008e83620001e460201b60201c565b6200009f826200026160201b60201c565b80600f819055506001600460146101000a81548160ff0219169083151502179055505050505050620006cd565b600033905090565b620000e68282620002de60201b60201c565b5050565b80600160006101000a81548173ffffffffffffffffffffffffffffffffffffffff021916908373ffffffffffffffffffffffffffffffffffffffff1602179055507fc02dd078a5d63c2645d0da4b3173f425d353dafebbb14064059edbd4244a31bf816040516200015c919062000630565b60405180910390a150565b80600260006101000a81548173ffffffffffffffffffffffffffffffffffffffff021916908373ffffffffffffffffffffffffffffffffffffffff1602179055507fc02dd078a5d63c2645d0da4b3173f425d353dafebbb14064059edbd4244a31bf81604051620001d99190620005af565b60405180910390a150565b80600360006101000a81548173ffffffffffffffffffffffffffffffffffffffff021916908373ffffffffffffffffffffffffffffffffffffffff1602179055507fc02dd078a5d63c2645d0da4b3173f425d353dafebbb14064059edbd4244a31bf81604051620002569190620005da565b60405180910390a150565b80600460006101000a81548173ffffffffffffffffffffffffffffffffffffffff021916908373ffffffffffffffffffffffffffffffffffffffff1602179055507fc02dd078a5d63c2645d0da4b3173f425d353dafebbb14064059edbd4244a31bf81604051620002d3919062000605565b60405180910390a150565b6200030c816000808581526020019081526020016000206000016200038160201b62000ede1790919060201c565b156200037d5762000322620000cc60201b60201c565b73ffffffffffffffffffffffffffffffffffffffff168173ffffffffffffffffffffffffffffffffffffffff16837f2f8788117e7eff1d82e926ec794901d17c78024a50270940304540a733656f0d60405160405180910390a45b5050565b6000620003b1836000018373ffffffffffffffffffffffffffffffffffffffff1660001b620003b960201b60201c565b905092915050565b6000620003cd83836200043360201b60201c565b620004285782600001829080600181540180825580915050600190039060005260206000200160009091909190915055826000018054905083600101600084815260200190815260200160002081905550600190506200042d565b600090505b92915050565b600080836001016000848152602001908152602001600020541415905092915050565b600081519050620004678162000699565b92915050565b6000815190506200047e81620006b3565b92915050565b600080600080600060a086880312156200049d57600080fd5b6000620004ad8882890162000456565b9550506020620004c08882890162000456565b9450506040620004d38882890162000456565b9350506060620004e68882890162000456565b9250506080620004f9888289016200046d565b9150509295509295909350565b62000511816200065b565b82525050565b7f6368617261637465720000000000000000000000000000000000000000000000815250565b7f776561706f6e0000000000000000000000000000000000000000000000000000815250565b7f6b6f7065726e696b000000000000000000000000000000000000000000000000815250565b7f706c616e65740000000000000000000000000000000000000000000000000000815250565b6000604082019050620005c6600083018462000506565b620005d46020830162000517565b92915050565b6000604082019050620005f1600083018462000506565b620005ff602083016200053d565b92915050565b60006040820190506200061c600083018462000506565b6200062a6020830162000563565b92915050565b600060408201905062000647600083018462000506565b620006556020830162000589565b92915050565b600062000668826200066f565b9050919050565b600073ffffffffffffffffffffffffffffffffffffffff82169050919050565b6000819050919050565b620006a4816200065b565b8114620006b057600080fd5b50565b620006be816200068f565b8114620006ca57600080fd5b50565b6136d780620006dd6000396000f3fe608060405234801561001057600080fd5b50600436106101da5760003560e01c80638f089c1711610104578063be353a50116100a2578063d5cfee3e11610071578063d5cfee3e146105b3578063daee4ec8146105e3578063e18e32dc14610601578063f71d96cb1461061d576101da565b8063be353a5014610507578063ca15c87314610537578063d2facacc14610567578063d547741f14610597576101da565b806397b2f556116100de57806397b2f5561461046b5780639ccd14b914610489578063a217fddf146104b9578063a84d7833146104d7576101da565b80638f089c17146103ed5780639010d07c1461040b57806391d148541461043b576101da565b80633505c67d1161017c5780634810c35b1161014b5780634810c35b1461036557806350bfeadc146103955780636ebe71f8146103b35780638996e7dc146103d1576101da565b80633505c67d146102d957806336568abe146102f7578063424aeded1461031357806343b60f7414610347576101da565b8063248a9ca3116101b8578063248a9ca3146102375780632a02d1fd146102675780632f2ff15d14610285578063309e5a5f146102a1576101da565b806302fb0c5e146101df57806316c30ebc146101fd57806321bbf14c1461021b575b600080fd5b6101e761064d565b6040516101f49190613021565b60405180910390f35b610205610660565b604051610212919061303c565b60405180910390f35b61023560048036038101906102309190612581565b610684565b005b610251600480360381019061024c91906125d3565b61072b565b60405161025e919061303c565b60405180910390f35b61026f61074a565b60405161027c9190612ed9565b60405180910390f35b61029f600480360381019061029a91906125fc565b610770565b005b6102bb60048036038101906102b69190612545565b6107f9565b6040516102d099989796959493929190612f94565b60405180910390f35b6102e16108c5565b6040516102ee9190612ed9565b60405180910390f35b610311600480360381019061030c91906125fc565b6108eb565b005b61032d600480360381019061032891906124f3565b610984565b60405161033e959493929190613080565b60405180910390f35b61034f6109fa565b60405161035c9190612ed9565b60405180910390f35b61037f600480360381019061037a91906125d3565b610a20565b60405161038c9190613021565b60405180910390f35b61039d610a40565b6040516103aa91906132d7565b60405180910390f35b6103bb610a46565b6040516103c89190612ed9565b60405180910390f35b6103eb60048036038101906103e691906125d3565b610a6c565b005b6103f5610ad7565b6040516104029190612ed9565b60405180910390f35b61042560048036038101906104209190612638565b610afd565b6040516104329190612ed9565b60405180910390f35b610455600480360381019061045091906125fc565b610b2e565b6040516104629190613021565b60405180910390f35b610473610b5f565b60405161048091906132d7565b60405180910390f35b6104a3600480360381019061049e9190612674565b610b65565b6040516104b091906132f2565b60405180910390f35b6104c1610b94565b6040516104ce919061303c565b60405180910390f35b6104f160048036038101906104ec91906126ff565b610b9b565b6040516104fe91906132d7565b60405180910390f35b610521600480360381019061051c91906124f3565b610c76565b60405161052e91906132d7565b60405180910390f35b610551600480360381019061054c91906125d3565b610c8e565b60405161055e91906132d7565b60405180910390f35b610581600480360381019061057c9190612545565b610cb4565b60405161058e91906132d7565b60405180910390f35b6105b160048036038101906105ac91906125fc565b610d8d565b005b6105cd60048036038101906105c891906124f3565b610e16565b6040516105da9190613021565b60405180910390f35b6105eb610e36565b6040516105f891906132d7565b60405180910390f35b61061b600480360381019061061691906126b0565b610e3c565b005b61063760048036038101906106329190612767565b610e9f565b6040516106449190612ed9565b60405180910390f35b600460149054906101000a900460ff1681565b7fce04d177cfe9f73a7157bda35b0add7251966ad70509ceaef76ad7d5e6c4504281565b6106986000801b610693610f0e565b610b2e565b6106d7576040517f08c379a00000000000000000000000000000000000000000000000000000000081526004016106ce90613137565b60405180910390fd5b80600460146101000a81548160ff0219169083151502179055507f09712b3452a5348a0328397d58ce3c6cdc382ad233b3c04924a1f5683fa92574816040516107209190613021565b60405180910390a150565b6000806000838152602001908152602001600020600201549050919050565b600460009054906101000a900473ffffffffffffffffffffffffffffffffffffffff1681565b61079660008084815260200190815260200160002060020154610791610f0e565b610b2e565b6107eb576040517f08c379a000000000000000000000000000000000000000000000000000000000815260040180806020018281038252602f815260200180613614602f913960400191505060405180910390fd5b6107f58282610f16565b5050565b600a602052816000526040600020818154811061081557600080fd5b9060005260206000209060050201600091509150508060000160009054906101000a900473ffffffffffffffffffffffffffffffffffffffff16908060010154908060020154908060030160009054906101000a900460ff16908060030160019054906101000a900460ff16908060030160029054906101000a900460ff16908060030160039054906101000a900460ff16908060030160049054906101000a900460ff16908060040154905089565b600360009054906101000a900473ffffffffffffffffffffffffffffffffffffffff1681565b6108f3610f0e565b73ffffffffffffffffffffffffffffffffffffffff168173ffffffffffffffffffffffffffffffffffffffff1614610976576040517f08c379a000000000000000000000000000000000000000000000000000000000815260040180806020018281038252602f815260200180613673602f913960400191505060405180910390fd5b6109808282610fa9565b5050565b60056020528060005260406000206000915090508060000154908060010160009054906101000a900463ffffffff16908060010160049054906101000a900463ffffffff16908060010160089054906101000a900463ffffffff169080600101600c9054906101000a900463ffffffff16905085565b600260009054906101000a900473ffffffffffffffffffffffffffffffffffffffff1681565b60086020528060005260406000206000915054906101000a900460ff1681565b600f5481565b600d60009054906101000a900473ffffffffffffffffffffffffffffffffffffffff1681565b600460149054906101000a900460ff16610abb576040517f08c379a0000000000000000000000000000000000000000000000000000000008152600401610ab290613177565b60405180910390fd5b610ac48161103c565b610ad4610acf610f0e565b6114db565b50565b600160009054906101000a900473ffffffffffffffffffffffffffffffffffffffff1681565b6000610b26826000808681526020019081526020016000206000016116a790919063ffffffff16565b905092915050565b6000610b57826000808681526020019081526020016000206000016116c190919063ffffffff16565b905092915050565b60075481565b600c6020528160005260406000206020528060005260406000206000915091509054906101000a900460ff1681565b6000801b81565b6000600460149054906101000a900460ff16610bec576040517f08c379a0000000000000000000000000000000000000000000000000000000008152600401610be390613177565b60405180910390fd5b610c1d7fce04d177cfe9f73a7157bda35b0add7251966ad70509ceaef76ad7d5e6c45042610c18610f0e565b610b2e565b610c5c576040517f08c379a0000000000000000000000000000000000000000000000000000000008152600401610c5390613217565b60405180910390fd5b6000610c698585856116f1565b9050809150509392505050565b600b6020528060005260406000206000915090505481565b6000610cad60008084815260200190815260200160002060000161181a565b9050919050565b6000600460149054906101000a900460ff16610d05576040517f08c379a0000000000000000000000000000000000000000000000000000000008152600401610cfc90613177565b60405180910390fd5b610d367fce04d177cfe9f73a7157bda35b0add7251966ad70509ceaef76ad7d5e6c45042610d31610f0e565b610b2e565b610d75576040517f08c379a0000000000000000000000000000000000000000000000000000000008152600401610d6c906131d7565b60405180910390fd5b6000610d81848461182f565b90508091505092915050565b610db360008084815260200190815260200160002060020154610dae610f0e565b610b2e565b610e08576040517f08c379a00000000000000000000000000000000000000000000000000000000081526004018080602001828103825260308152602001806136436030913960400191505060405180910390fd5b610e128282610fa9565b5050565b60096020528060005260406000206000915054906101000a900460ff1681565b600e5481565b610e506000801b610e4b610f0e565b610b2e565b610e8f576040517f08c379a0000000000000000000000000000000000000000000000000000000008152600401610e8690613237565b60405180910390fd5b610e9a838383611da3565b505050565b60068181548110610eaf57600080fd5b906000526020600020016000915054906101000a900473ffffffffffffffffffffffffffffffffffffffff1681565b6000610f06836000018373ffffffffffffffffffffffffffffffffffffffff1660001b611f54565b905092915050565b600033905090565b610f3d81600080858152602001908152602001600020600001610ede90919063ffffffff16565b15610fa557610f4a610f0e565b73ffffffffffffffffffffffffffffffffffffffff168173ffffffffffffffffffffffffffffffffffffffff16837f2f8788117e7eff1d82e926ec794901d17c78024a50270940304540a733656f0d60405160405180910390a45b5050565b610fd081600080858152602001908152602001600020600001611fc490919063ffffffff16565b1561103857610fdd610f0e565b73ffffffffffffffffffffffffffffffffffffffff168173ffffffffffffffffffffffffffffffffffffffff16837ff6391f5c32d9c69d2a47ea670b442974b53935d1edc7fd64eb21e047a839171b60405160405180910390a45b5050565b8060405160200161104c90613277565b6040516020818303038152906040528051906020012081604051602001611073919061303c565b60405160208183030381529060405280519060200120141580156110e4575060006040516020016110a491906130fc565b60405160208183030381529060405280519060200120816040516020016110cb919061303c565b6040516020818303038152906040528051906020012014155b611123576040517f08c379a000000000000000000000000000000000000000000000000000000000815260040161111a90613157565b60405180910390fd5b6009600061112f610f0e565b73ffffffffffffffffffffffffffffffffffffffff1673ffffffffffffffffffffffffffffffffffffffff16815260200190815260200160002060009054906101000a900460ff16156111b7576040517f08c379a00000000000000000000000000000000000000000000000000000000081526004016111ae906131b7565b60405180910390fd5b816008600082815260200190815260200160002060009054906101000a900460ff1615611219576040517f08c379a000000000000000000000000000000000000000000000000000000000815260040161121090613197565b60405180910390fd5b6040518060a00160405280848152602001600063ffffffff168152602001600063ffffffff168152602001600063ffffffff168152602001600063ffffffff1681525060056000611268610f0e565b73ffffffffffffffffffffffffffffffffffffffff1673ffffffffffffffffffffffffffffffffffffffff1681526020019081526020016000206000820151816000015560208201518160010160006101000a81548163ffffffff021916908363ffffffff16021790555060408201518160010160046101000a81548163ffffffff021916908363ffffffff16021790555060608201518160010160086101000a81548163ffffffff021916908363ffffffff160217905550608082015181600101600c6101000a81548163ffffffff021916908363ffffffff1602179055509050506006611355610f0e565b9080600181540180825580915050600190039060005260206000200160009091909190916101000a81548173ffffffffffffffffffffffffffffffffffffffff021916908373ffffffffffffffffffffffffffffffffffffffff16021790555060016008600085815260200190815260200160002060006101000a81548160ff0219169083151502179055506001600960006113ef610f0e565b73ffffffffffffffffffffffffffffffffffffffff1673ffffffffffffffffffffffffffffffffffffffff16815260200190815260200160002060006101000a81548160ff02191690831515021790555060068054905060078190555061147d7fce04d177cfe9f73a7157bda35b0add7251966ad70509ceaef76ad7d5e6c45042611478610f0e565b611ff4565b611485610f0e565b73ffffffffffffffffffffffffffffffffffffffff167fb15dfd21b68df9009b3cf0c00f71adb58432149afacbb5e885e3cece431e95ff846007546040516114ce929190613057565b60405180910390a2505050565b6000600460009054906101000a900473ffffffffffffffffffffffffffffffffffffffff16905060008173ffffffffffffffffffffffffffffffffffffffff166370a08231306040518263ffffffff1660e01b815260040161153d9190612ed9565b60206040518083038186803b15801561155557600080fd5b505afa158015611569573d6000803e3d6000fd5b505050506040513d601f19601f8201168201806040525081019061158d9190612790565b9050600f548110156115d4576040517f08c379a00000000000000000000000000000000000000000000000000000000081526004016115cb90613117565b60405180910390fd5b8173ffffffffffffffffffffffffffffffffffffffff1663a9059cbb84600f546040518363ffffffff1660e01b8152600401611611929190612f6b565b602060405180830381600087803b15801561162b57600080fd5b505af115801561163f573d6000803e3d6000fd5b505050506040513d601f19601f8201168201806040525081019061166391906125aa565b6116a2576040517f08c379a0000000000000000000000000000000000000000000000000000000008152600401611699906132b7565b60405180910390fd5b505050565b60006116b68360000183612002565b60001c905092915050565b60006116e9836000018373ffffffffffffffffffffffffffffffffffffffff1660001b612085565b905092915050565b600080600260009054906101000a900473ffffffffffffffffffffffffffffffffffffffff16905060008173ffffffffffffffffffffffffffffffffffffffff1663af3ca09361173f610f0e565b8888886040518563ffffffff1660e01b81526004016117619493929190612f1d565b602060405180830381600087803b15801561177b57600080fd5b505af115801561178f573d6000803e3d6000fd5b505050506040513d601f19601f820116820180604052508101906117b39190612790565b90506117bd610f0e565b73ffffffffffffffffffffffffffffffffffffffff167f62be5f3bdc2d869fa9c0f72d60d1efc5baa37ba376c364bd58557e952b3fcf878760000151604051611806919061303c565b60405180910390a280925050509392505050565b6000611828826000016120a8565b9050919050565b60006001600460009054906101000a900473ffffffffffffffffffffffffffffffffffffffff1673ffffffffffffffffffffffffffffffffffffffff1663dd62ed3e611879610f0e565b306040518363ffffffff1660e01b8152600401611897929190612ef4565b60206040518083038186803b1580156118af57600080fd5b505afa1580156118c3573d6000803e3d6000fd5b505050506040513d601f19601f820116820180604052508101906118e79190612790565b1015611928576040517f08c379a000000000000000000000000000000000000000000000000000000000815260040161191f90613297565b60405180910390fd5b611930610f0e565b73ffffffffffffffffffffffffffffffffffffffff16600260009054906101000a900473ffffffffffffffffffffffffffffffffffffffff1673ffffffffffffffffffffffffffffffffffffffff16636352211e846040518263ffffffff1660e01b81526004016119a191906132d7565b602060405180830381600087803b1580156119bb57600080fd5b505af11580156119cf573d6000803e3d6000fd5b505050506040513d601f19601f820116820180604052508101906119f3919061251c565b73ffffffffffffffffffffffffffffffffffffffff1614611a49576040517f08c379a0000000000000000000000000000000000000000000000000000000008152600401611a40906131f7565b60405180910390fd5b600a60008473ffffffffffffffffffffffffffffffffffffffff1673ffffffffffffffffffffffffffffffffffffffff168152602001908152602001600020604051806101200160405280611a9c610f0e565b73ffffffffffffffffffffffffffffffffffffffff168152602001848152602001600081526020016000151581526020016000151581526020016001151581526020016000151581526020016000151581526020016103844201815250908060018154018082558091505060019003906000526020600020906005020160009091909190915060008201518160000160006101000a81548173ffffffffffffffffffffffffffffffffffffffff021916908373ffffffffffffffffffffffffffffffffffffffff160217905550602082015181600101556040820151816002015560608201518160030160006101000a81548160ff02191690831515021790555060808201518160030160016101000a81548160ff02191690831515021790555060a08201518160030160026101000a81548160ff02191690831515021790555060c08201518160030160036101000a81548160ff02191690831515021790555060e08201518160030160046101000a81548160ff02191690831515021790555061010082015181600401555050600a60008473ffffffffffffffffffffffffffffffffffffffff1673ffffffffffffffffffffffffffffffffffffffff16815260200190815260200160002080549050600b60008573ffffffffffffffffffffffffffffffffffffffff1673ffffffffffffffffffffffffffffffffffffffff168152602001908152602001600020819055508273ffffffffffffffffffffffffffffffffffffffff16611ccf610f0e565b73ffffffffffffffffffffffffffffffffffffffff167f9666d22455f262a428885a8577a540aa86f9d8697637c663bd39379ce76341dd600b60008773ffffffffffffffffffffffffffffffffffffffff1673ffffffffffffffffffffffffffffffffffffffff16815260200190815260200160002054604051611d5391906132d7565b60405180910390a3600b60008473ffffffffffffffffffffffffffffffffffffffff1673ffffffffffffffffffffffffffffffffffffffff16815260200190815260200160002054905092915050565b60648160ff161115611dea576040517f08c379a0000000000000000000000000000000000000000000000000000000008152600401611de190613257565b60405180910390fd5b600081606403905081600c600086600c811115611e0357fe5b600c811115611e0e57fe5b8152602001908152602001600020600085600c811115611e2a57fe5b600c811115611e3557fe5b815260200190815260200160002060006101000a81548160ff021916908360ff16021790555083600c811115611e6757fe5b7f184ca1b6e59081f312c2ab1e90a1a442486d2324c3be4ebe8f4253f63082f6e88484604051611e989291906130d3565b60405180910390a280600c600085600c811115611eb157fe5b600c811115611ebc57fe5b8152602001908152602001600020600086600c811115611ed857fe5b600c811115611ee357fe5b815260200190815260200160002060006101000a81548160ff021916908360ff16021790555082600c811115611f1557fe5b7f184ca1b6e59081f312c2ab1e90a1a442486d2324c3be4ebe8f4253f63082f6e88583604051611f469291906130d3565b60405180910390a250505050565b6000611f608383612085565b611fb9578260000182908060018154018082558091505060019003906000526020600020016000909190919091505582600001805490508360010160008481526020019081526020016000208190555060019050611fbe565b600090505b92915050565b6000611fec836000018373ffffffffffffffffffffffffffffffffffffffff1660001b6120b9565b905092915050565b611ffe8282610f16565b5050565b600081836000018054905011612063576040517f08c379a00000000000000000000000000000000000000000000000000000000081526004018080602001828103825260228152602001806135f26022913960400191505060405180910390fd5b82600001828154811061207257fe5b9060005260206000200154905092915050565b600080836001016000848152602001908152602001600020541415905092915050565b600081600001805490509050919050565b60008083600101600084815260200190815260200160002054905060008114612195576000600182039050600060018660000180549050039050600086600001828154811061210457fe5b906000526020600020015490508087600001848154811061212157fe5b906000526020600020018190555060018301876001016000838152602001908152602001600020819055508660000180548061215957fe5b6001900381819060005260206000200160009055905586600101600087815260200190815260200160002060009055600194505050505061219b565b60009150505b92915050565b6000813590506121b081613529565b92915050565b6000815190506121c581613529565b92915050565b6000813590506121da81613540565b92915050565b6000815190506121ef81613540565b92915050565b60008135905061220481613557565b92915050565b6000813590506122198161356e565b92915050565b60008135905061222e81613585565b92915050565b600082601f83011261224557600080fd5b81356122586122538261333e565b61330d565b9150808252602083016020830185838301111561227457600080fd5b61227f8382846134c0565b50505092915050565b6000610100828403121561229b57600080fd5b6122a661010061330d565b905060006122b68482850161221f565b60008301525060206122ca8482850161221f565b60208301525060406122de848285016124de565b60408301525060606122f2848285016124de565b6060830152506080612306848285016124de565b60808301525060a061231a848285016124de565b60a08301525060c061232e848285016124de565b60c08301525060e0612342848285016124de565b60e08301525092915050565b600060a0828403121561236057600080fd5b61236a60a061330d565b9050600061237a8482850161220a565b600083015250602061238e848285016121f5565b602083015250604082013567ffffffffffffffff8111156123ae57600080fd5b6123ba84828501612234565b60408301525060606123ce848285016124b4565b60608301525060806123e2848285016124de565b60808301525092915050565b600060c0828403121561240057600080fd5b61240a60c061330d565b9050600061241a8482850161249f565b600083015250602061242e8482850161249f565b60208301525060406124428482850161249f565b60408301525060606124568482850161248a565b606083015250608061246a8482850161248a565b60808301525060a061247e848285016124de565b60a08301525092915050565b60008135905061249981613595565b92915050565b6000813590506124ae816135ac565b92915050565b6000813590506124c3816135c3565b92915050565b6000815190506124d8816135c3565b92915050565b6000813590506124ed816135da565b92915050565b60006020828403121561250557600080fd5b6000612513848285016121a1565b91505092915050565b60006020828403121561252e57600080fd5b600061253c848285016121b6565b91505092915050565b6000806040838503121561255857600080fd5b6000612566858286016121a1565b9250506020612577858286016124b4565b9150509250929050565b60006020828403121561259357600080fd5b60006125a1848285016121cb565b91505092915050565b6000602082840312156125bc57600080fd5b60006125ca848285016121e0565b91505092915050565b6000602082840312156125e557600080fd5b60006125f38482850161220a565b91505092915050565b6000806040838503121561260f57600080fd5b600061261d8582860161220a565b925050602061262e858286016121a1565b9150509250929050565b6000806040838503121561264b57600080fd5b60006126598582860161220a565b925050602061266a858286016124b4565b9150509250929050565b6000806040838503121561268757600080fd5b60006126958582860161221f565b92505060206126a68582860161221f565b9150509250929050565b6000806000606084860312156126c557600080fd5b60006126d38682870161221f565b93505060206126e48682870161221f565b92505060406126f5868287016124de565b9150509250925092565b60008060006101e0848603121561271557600080fd5b600084013567ffffffffffffffff81111561272f57600080fd5b61273b8682870161234e565b935050602061274c868287016123ee565b92505060e061275d86828701612288565b9150509250925092565b60006020828403121561277957600080fd5b6000612787848285016124b4565b91505092915050565b6000602082840312156127a257600080fd5b60006127b0848285016124c9565b91505092915050565b6127c281613466565b82525050565b6127d18161339b565b82525050565b6127e0816133ad565b82525050565b6127ef816133b9565b82525050565b6127fe816133e5565b82525050565b61280d816133e5565b82525050565b61281c81613478565b82525050565b61282b81613478565b82525050565b61283a8161348a565b82525050565b600061284b8261336e565b6128558185613379565b93506128658185602086016134cf565b61286e81613504565b840191505092915050565b6000612886602c8361338a565b91507f4e6f7420656e6f7567682062616c616e6365206f6e20457468657265616c476160008301527f6d6520636f6e74726163742100000000000000000000000000000000000000006020830152604082019050919050565b60006128ec60308361338a565b91507f616374697661746544656163746976617465436f6e74726163743a206d75737460008301527f20686176652061646d696e20726f6c65000000000000000000000000000000006020830152604082019050919050565b600061295260188361338a565b91507f456d70747920737472696e67206e6f7420616c6c6f77656400000000000000006000830152602082019050919050565b600061299260148361338a565b91507f436f6e747261637420697320696e6163746976650000000000000000000000006000830152602082019050919050565b60006129d2601c8361338a565b91507f4e69636b6e616d65206e616d6520616c726561647920657869737473000000006000830152602082019050919050565b6000612a12601c8361338a565b91507f506c6179657220697320616c72656164792072656769737465726564000000006000830152602082019050919050565b6000612a5260238361338a565b91507f7265717565737446696768743a206d757374206861766520706c61796572207260008301527f6f6c6500000000000000000000000000000000000000000000000000000000006020830152604082019050919050565b6000612ab860288361338a565b91507f53656e646572206973206e6f7420746865206f776e6572206f6620746865206360008301527f68617261637465720000000000000000000000000000000000000000000000006020830152604082019050919050565b6000612b1e60268361338a565b91507f6372656174654368617261637465723a206d757374206861766520706c61796560008301527f7220726f6c6500000000000000000000000000000000000000000000000000006020830152604082019050919050565b6000612b8460308361338a565b91507f61737369676e50726f626162696c6974794f6657696e6e696e673a206d75737460008301527f20686176652061646d696e20726f6c65000000000000000000000000000000006020830152604082019050919050565b6000612bea60258361338a565b91507f50726f626162696c697479206d757374206265206265747765656e203020616e60008301527f64203130300000000000000000000000000000000000000000000000000000006020830152604082019050919050565b6000612c5060008361338a565b9150600082019050919050565b6000612c6a60208361338a565b91507f4e6f7420656e6f75676820746f6b656e7320616c6c6f77656420746f207573656000830152602082019050919050565b6000612caa60188361338a565b91507f4572726f72207472616e73666572696e6720746f6b656e7300000000000000006000830152602082019050919050565b61010082016000820151612cf46000850182612813565b506020820151612d076020850182612813565b506040820151612d1a6040850182612ebb565b506060820151612d2d6060850182612ebb565b506080820151612d406080850182612ebb565b5060a0820151612d5360a0850182612ebb565b5060c0820151612d6660c0850182612ebb565b5060e0820151612d7960e0850182612ebb565b50505050565b600060a083016000830151612d9760008601826127f5565b506020830151612daa60208601826127e6565b5060408301518482036040860152612dc28282612840565b9150506060830151612dd76060860182612e8e565b506080830151612dea6080860182612ebb565b508091505092915050565b60c082016000820151612e0b6000850182612e7f565b506020820151612e1e6020850182612e7f565b506040820151612e316040850182612e7f565b506060820151612e446060850182612e70565b506080820151612e576080850182612e70565b5060a0820151612e6a60a0850182612ebb565b50505050565b612e7981613402565b82525050565b612e8881613430565b82525050565b612e978161343f565b82525050565b612ea68161343f565b82525050565b612eb581613449565b82525050565b612ec481613459565b82525050565b612ed381613459565b82525050565b6000602082019050612eee60008301846127c8565b92915050565b6000604082019050612f0960008301856127b9565b612f1660208301846127c8565b9392505050565b600061020082019050612f3360008301876127b9565b8181036020830152612f458186612d7f565b9050612f546040830185612df5565b612f62610100830184612cdd565b95945050505050565b6000604082019050612f8060008301856127c8565b612f8d6020830184612e9d565b9392505050565b600061012082019050612faa600083018c6127c8565b612fb7602083018b612e9d565b612fc4604083018a612e9d565b612fd160608301896127d7565b612fde60808301886127d7565b612feb60a08301876127d7565b612ff860c08301866127d7565b61300560e08301856127d7565b613013610100830184612e9d565b9a9950505050505050505050565b600060208201905061303660008301846127d7565b92915050565b60006020820190506130516000830184612804565b92915050565b600060408201905061306c6000830185612804565b6130796020830184612e9d565b9392505050565b600060a0820190506130956000830188612804565b6130a26020830187612eac565b6130af6040830186612eac565b6130bc6060830185612eac565b6130c96080830184612eac565b9695505050505050565b60006040820190506130e86000830185612822565b6130f56020830184612eca565b9392505050565b60006020820190506131116000830184612831565b92915050565b6000602082019050818103600083015261313081612879565b9050919050565b60006020820190508181036000830152613150816128df565b9050919050565b6000602082019050818103600083015261317081612945565b9050919050565b6000602082019050818103600083015261319081612985565b9050919050565b600060208201905081810360008301526131b0816129c5565b9050919050565b600060208201905081810360008301526131d081612a05565b9050919050565b600060208201905081810360008301526131f081612a45565b9050919050565b6000602082019050818103600083015261321081612aab565b9050919050565b6000602082019050818103600083015261323081612b11565b9050919050565b6000602082019050818103600083015261325081612b77565b9050919050565b6000602082019050818103600083015261327081612bdd565b9050919050565b6000602082019050818103600083015261329081612c43565b9050919050565b600060208201905081810360008301526132b081612c5d565b9050919050565b600060208201905081810360008301526132d081612c9d565b9050919050565b60006020820190506132ec6000830184612e9d565b92915050565b60006020820190506133076000830184612eca565b92915050565b6000604051905081810181811067ffffffffffffffff8211171561333457613333613502565b5b8060405250919050565b600067ffffffffffffffff82111561335957613358613502565b5b601f19601f8301169050602081019050919050565b600081519050919050565b600082825260208201905092915050565b600082825260208201905092915050565b60006133a682613410565b9050919050565b60008115159050919050565b60007fffffffffffffffffffffffffffffffffffffffffffffffff000000000000000082169050919050565b6000819050919050565b60008190506133fd82613515565b919050565b600061ffff82169050919050565b600073ffffffffffffffffffffffffffffffffffffffff82169050919050565b600062ffffff82169050919050565b6000819050919050565b600063ffffffff82169050919050565b600060ff82169050919050565b60006134718261349c565b9050919050565b6000613483826133ef565b9050919050565b600061349582613459565b9050919050565b60006134a7826134ae565b9050919050565b60006134b982613410565b9050919050565b82818337600083830152505050565b60005b838110156134ed5780820151818401526020810190506134d2565b838111156134fc576000848401525b50505050565bfe5b6000601f19601f8301169050919050565b600d811061352657613525613502565b5b50565b6135328161339b565b811461353d57600080fd5b50565b613549816133ad565b811461355457600080fd5b50565b613560816133b9565b811461356b57600080fd5b50565b613577816133e5565b811461358257600080fd5b50565b600d811061359257600080fd5b50565b61359e81613402565b81146135a957600080fd5b50565b6135b581613430565b81146135c057600080fd5b50565b6135cc8161343f565b81146135d757600080fd5b50565b6135e381613459565b81146135ee57600080fd5b5056fe456e756d657261626c655365743a20696e646578206f7574206f6620626f756e6473416363657373436f6e74726f6c3a2073656e646572206d75737420626520616e2061646d696e20746f206772616e74416363657373436f6e74726f6c3a2073656e646572206d75737420626520616e2061646d696e20746f207265766f6b65416363657373436f6e74726f6c3a2063616e206f6e6c792072656e6f756e636520726f6c657320666f722073656c66a2646970667358221220663cf36bcbf824f1800c699aaa3e72e444921439a63f714bad10feddcfd78a6164736f6c63430007050033",
  "immutableReferences": {},
  "source": "// SPDX-License-Identifier: MIT\r\npragma solidity 0.7.5;\r\npragma abicoder v2;\r\n\r\nimport '@openzeppelin/contracts/access/AccessControl.sol';\r\nimport \"@openzeppelin/contracts/utils/Context.sol\";\r\nimport '@openzeppelin/contracts/math/SafeMath.sol';\r\nimport './SafeMath8.sol';\r\nimport './SafeMath16.sol';\r\nimport './SafeMath24.sol';\r\nimport './SafeMath32.sol';\r\nimport './IEtherealBase.sol';\r\nimport './IEtherealCharacter.sol';\r\nimport './IBEP20.sol';\r\n\r\ncontract EtherealGame is Context, AccessControl, IEtherealBase\r\n{\r\n  using SafeMath for uint256;\r\n  using SafeMath8 for uint8;\r\n  using SafeMath16 for uint16;\r\n  using SafeMath24 for uint24;\r\n  using SafeMath32 for uint32;\r\n\r\n  struct Player {\r\n    bytes32 nickname;\r\n    uint32 wins;\r\n    uint32 loss;\r\n    uint32 tie;\r\n    uint32 gaveup;\r\n  }\r\n\r\n  struct Fight {\r\n    address player1;\r\n    address player2;\r\n    uint256 player1CharacterId;\r\n    uint256 player2CharacterId;\r\n  }\r\n\r\n  struct FightRequest {\r\n    address contender;\r\n    uint256 contenderCharacterId;\r\n    uint256 myCharacterId;\r\n    bool accepted;\r\n    bool rejected;\r\n    bool pending;\r\n    bool win;\r\n    bool loss;\r\n    uint256 expirationDate;\r\n  }\r\n  \r\n  // Player role to improve access control\r\n  bytes32 public constant PLAYER_ROLE = keccak256(\"PLAYER_ROLE\");\r\n\r\n  // Addresses of other contracts\r\n  address public planetContract;\r\n  address public characterContract;\r\n  address public weaponsContract;\r\n  address public kopernikTokenContract;\r\n\r\n  // Contract status\r\n  bool public active;\r\n  // Table of players\r\n  mapping(address => Player) public playerData;\r\n  address[] public players;\r\n  uint256 public numPlayers;\r\n  mapping(bytes32 => bool) public playerNicknameExists;\r\n  mapping(address => bool) public playerIsRegistered;\r\n  \r\n  // Table of fight requests\r\n  mapping(address => FightRequest[]) public fightRequests;\r\n  mapping(address => uint256) public totalFightRequests;\r\n\r\n  // Table for Elements of nature probs\r\n  mapping(ElementOfNature => mapping(ElementOfNature => uint8)) public probabilityOfWinningAgainstElem;\r\n\r\n  // Statistics\r\n  address public topPlayer;\r\n  uint256 public topFighter;\r\n\r\n  // Settings\r\n  uint256 public initialTokens;\r\n\r\n  /*\r\n  * @dev Check if bytes32 is empty\r\n  */\r\n  modifier isNotEmptyBytes32(bytes32 _s)\r\n  {\r\n    require(\r\n      (keccak256(abi.encode(_s)) != keccak256(abi.encode(\"\"))) &&\r\n      (keccak256(abi.encode(_s)) != keccak256(abi.encode(0x00))),\r\n      \"Empty string not allowed\"\r\n    );\r\n    _;\r\n  }\r\n\r\n\r\n\t/*\r\n\t*\t@dev Check if contract is active\r\n\t*/\r\n\tmodifier isContractActive {\r\n\t\trequire( active, \"Contract is inactive\" );\r\n\t\t_;\r\n\t}\r\n\r\n  /*\r\n  * @dev Check if contract is active\r\n  */\r\n  modifier isNotRegistered() {\r\n    require(!playerIsRegistered[_msgSender()], \"Player is already registered\");\r\n    _;\r\n  }\r\n\r\n  /*\r\n  * @dev Check if planet name is available or if is already used\r\n  */\r\n  modifier isPlayerNicknameAvailable(bytes32 _name) {\r\n    require(\r\n      !playerNicknameExists[_name],\r\n      \"Nickname name already exists\"\r\n    );\r\n    _;\r\n  }\r\n\r\n\r\n  /*\r\n  * @dev Log contract status update\r\n  */\r\n  event ContractStatusUpdate(bool newStatus);\r\n  event LibContractAddressUpdate(address newAddress, bytes32 contractName);\r\n  event ProbabilityOfWinningUpdate(ElementOfNature indexed _me, ElementOfNature _enemy, uint8 _prob);\r\n  event NewPlayerRegistered(address indexed player, bytes32 name, uint256 totalPlayers);\r\n  event NewCharacterMinted(address indexed player, bytes32 name);\r\n  event NewFightRequest(address indexed player1, address indexed player2, uint256 id);\r\n  event NewFightRequestAccepted(address indexed player1, address indexed player2);\r\n\r\n  /*\r\n  * @dev Set default admin role to owner\r\n  */\r\n  constructor(\r\n    address _planetAddress,\r\n    address _characterAddress,\r\n    address _weaponAddress,\r\n    address _tokenAddress,\r\n    uint256 _initialTokens\r\n  ) {\r\n    _setupRole(DEFAULT_ADMIN_ROLE, _msgSender());\r\n    _setPlanetContractAddress(_planetAddress);\r\n    _setCharacterContractAddress(_characterAddress);\r\n    _setWeaponContractAddress(_weaponAddress);\r\n    _setKopernikTokenContractAddress(_tokenAddress);\r\n    initialTokens = _initialTokens;\r\n    active = true;\r\n  }\r\n\r\n  /*\r\n  *  @Update planet contract address\r\n  */\r\n  function _setPlanetContractAddress(address _contract)\r\n    private\r\n  {\r\n    planetContract = _contract;\r\n    emit LibContractAddressUpdate(_contract, 'planet');\r\n  }\r\n\r\n  /*\r\n  *  @Update character contract address\r\n  */\r\n  function _setCharacterContractAddress(address _contract)\r\n    private\r\n  {\r\n    characterContract = _contract;\r\n    emit LibContractAddressUpdate(_contract, 'character');\r\n  }\r\n\r\n  /*\r\n  *  @Update weapon contract address\r\n  */\r\n  function _setWeaponContractAddress(address _contract)\r\n    private\r\n  {\r\n    weaponsContract = _contract;\r\n    emit LibContractAddressUpdate(_contract, 'weapon');\r\n  }\r\n\r\n  /*\r\n  *  @Update token contract address\r\n  */\r\n  function _setKopernikTokenContractAddress(address _contract)\r\n    private\r\n  {\r\n    kopernikTokenContract = _contract;\r\n    emit LibContractAddressUpdate(_contract, 'kopernik');\r\n  }\r\n\r\n  /*\r\n  *  @dev Register a new player\r\n  */\r\n  function _registerPlayer(bytes32 _name)\r\n    private\r\n    isNotEmptyBytes32(_name)\r\n    isNotRegistered\r\n    isPlayerNicknameAvailable(_name)\r\n  {\r\n    playerData[_msgSender()] = Player(_name, 0, 0, 0, 0);\r\n    players.push(_msgSender());\r\n    playerNicknameExists[_name] = true;\r\n    playerIsRegistered[_msgSender()] = true;\r\n    numPlayers = players.length;\r\n    _setupRole(PLAYER_ROLE, _msgSender());\r\n    emit NewPlayerRegistered(_msgSender(), _name, numPlayers);\r\n  }\r\n\r\n  /*\r\n  * @dev Send initial tokens\r\n  */\r\n  function _sendInitialTokensToPlayer(address _to)\r\n    private\r\n  {\r\n    IBEP20 KopernikToken = IBEP20(kopernikTokenContract);\r\n    uint256 etherealBalance = KopernikToken.balanceOf(address(this));\r\n    // Check contract balance\r\n    if (etherealBalance < initialTokens) {\r\n      revert(\"Not enough balance on EtherealGame contract!\");\r\n    }\r\n    if (!KopernikToken.transfer(_to, initialTokens)) {\r\n      revert(\"Error transfering tokens\");\r\n    }\r\n  }\r\n\r\n  /*\r\n  * @dev Create a new character\r\n  *\r\n  * CharacterBaseMetadata {\r\n  *    bytes32 name;\r\n  *    bytes24 birthdate;\r\n  *    string description;\r\n  *    uint256 planetId;\r\n  *    uint8 genre;\r\n  *  }\r\n  *\r\n  */\r\n  function _createCharacter(\r\n    // BaseMetadata\r\n    CharacterBaseMetadata memory extraBaseMetaData,\r\n    // PhysicalMetadata\r\n    CharacterPhysicalMetadata memory extraPhysicalMetaData,\r\n    // AttributesMetadata\r\n    CharacterAttributesMetadata memory extraAbilitiesMetaData\r\n  )\r\n    private\r\n    returns (uint256)\r\n  {\r\n    IEtherealCharacter CharacterContract = IEtherealCharacter(characterContract);\r\n    uint256 characterId = CharacterContract.mint(\r\n      _msgSender(),\r\n      extraBaseMetaData,\r\n      extraPhysicalMetaData,\r\n      extraAbilitiesMetaData\r\n    );\r\n    emit NewCharacterMinted(_msgSender(), extraBaseMetaData.name);\r\n    return characterId;\r\n  }\r\n\r\n  \r\n\r\n  /*\r\n  * @dev Assign/update probability of my _element defeating _enemy\r\n  */\r\n  function _assignProbabilityOfWinning(\r\n    ElementOfNature _me,\r\n    ElementOfNature _enemy,\r\n    uint8 _probWin\r\n  )\r\n    private\r\n  {\r\n    require (_probWin <= 100, \"Probability must be between 0 and 100\");\r\n    uint8 probLoss = 100 - _probWin;\r\n    probabilityOfWinningAgainstElem[_me][_enemy] = _probWin;\r\n    emit ProbabilityOfWinningUpdate(_me, _enemy, _probWin);\r\n    probabilityOfWinningAgainstElem[_enemy][_me] = probLoss;\r\n    emit ProbabilityOfWinningUpdate(_enemy, _me, probLoss);\r\n  }\r\n\r\n  /*\r\n  * @dev Request fight\r\n  */\r\n  function _requestFight(address _contender, uint256 _characterId)\r\n    private\r\n    returns(uint256)\r\n  {\r\n    require(\r\n      IBEP20(kopernikTokenContract).allowance(\r\n        _msgSender(), address(this)\r\n      ) >= 1, \"Not enough tokens allowed to use\"\r\n    );\r\n    require(\r\n      IEtherealCharacter(characterContract).ownerOf(_characterId) == _msgSender(),\r\n      \"Sender is not the owner of the character\"\r\n    );\r\n\r\n    // Initialize as true only the \"pending\" flag\r\n    fightRequests[_contender].push(FightRequest(\r\n        _msgSender(), _characterId, 0, false, false, true, false, false,\r\n        block.timestamp + 15 minutes\r\n      ));\r\n    totalFightRequests[_contender] = fightRequests[_contender].length;\r\n    NewFightRequest(_msgSender(), _contender, totalFightRequests[_contender]);\r\n    return totalFightRequests[_contender];\r\n  }\r\n\r\n  /*\r\n  * @dev Accept fight\r\n  */\r\n  function _acceptFight(uint256 _fightRequestId, uint256 _myCharacterId)\r\n    private\r\n  {\r\n    require(\r\n      _fightRequestId < totalFightRequests[_msgSender()],\r\n      \"Fight index beyond array elements\"\r\n    );\r\n    require(\r\n      fightRequests[_msgSender()][_fightRequestId].expirationDate < block.timestamp,\r\n      \"Invitation has expired!\"\r\n    );\r\n    require(\r\n      fightRequests[_msgSender()][_fightRequestId].pending,\r\n      \"Invitation was already acceted/rejected\"\r\n    );\r\n    require(\r\n      IBEP20(kopernikTokenContract).allowance(\r\n        _msgSender(), address(this)\r\n      ) >= 1, \"Not enough tokens allowed to use\"\r\n    );\r\n    require(\r\n      IBEP20(kopernikTokenContract).allowance(\r\n        fightRequests[_msgSender()][_fightRequestId].contender, address(this)\r\n      ) >= 1, \"Not enough tokens allowed to use\"\r\n    );\r\n    require(\r\n      IEtherealCharacter(characterContract).ownerOf(_myCharacterId) == _msgSender(),\r\n      \"Sender is not the owner of the character\"\r\n    );\r\n\r\n    // Update status of Fight Request log\r\n    fightRequests[_msgSender()][_fightRequestId].accepted = true;\r\n    fightRequests[_msgSender()][_fightRequestId].pending = false;\r\n    fightRequests[_msgSender()][_fightRequestId].myCharacterId = _myCharacterId;\r\n    NewFightRequestAccepted(\r\n      _msgSender(), \r\n      fightRequests[_msgSender()][_fightRequestId].contender\r\n    );\r\n\r\n    // FIGHT\r\n    uint256 winner;\r\n    uint8 prob;\r\n    (winner, prob) = _fight(_myCharacterId, fightRequests[_msgSender()][_fightRequestId].contenderCharacterId);\r\n\r\n    // IF PLAYER 1 WINS (IF I WIN)\r\n    if (winner == _myCharacterId) {\r\n\r\n    } else {\r\n\r\n    }\r\n  }\r\n\r\n\r\n  /*\r\n  * @dev FIGHT!\r\n  *   returns winner\r\n  */\r\n  function _fight(\r\n    uint256 _character1Id,\r\n    uint256 _character2Id\r\n  )\r\n    private\r\n    view\r\n    returns(uint256, uint8)\r\n  {\r\n    CharacterAttributesMetadata memory _ch1 = IEtherealCharacter(characterContract).characterAttributesMetadata(_character1Id);\r\n    ElementOfNature p1_primaryElement = _ch1.primaryElement;\r\n    ElementOfNature p1_secondaryElement = _ch1.secondaryElement;\r\n    uint8 p1_life = _ch1.life;\r\n    uint8 p1_armor = _ch1.armor;\r\n    uint8 p1_strength = _ch1.strength;\r\n    uint8 p1_speed = _ch1.speed;\r\n    uint8 p1_luck = _ch1.luck;\r\n    uint8 p1_spirit = _ch1.spirit;\r\n\r\n    CharacterAttributesMetadata memory _ch2 = IEtherealCharacter(characterContract).characterAttributesMetadata(_character2Id);\r\n    ElementOfNature p2_primaryElement = _ch2.primaryElement;\r\n    ElementOfNature p2_secondaryElement = _ch2.secondaryElement;\r\n    uint8 p2_life = _ch2.life;\r\n    uint8 p2_armor = _ch2.armor;\r\n    uint8 p2_strength = _ch2.strength;\r\n    uint8 p2_speed = _ch2.speed;\r\n    uint8 p2_luck = _ch2.luck;\r\n    uint8 p2_spirit = _ch2.spirit;\r\n\r\n    uint8 probPrimaryElem1 = probabilityOfWinningAgainstElem[p1_primaryElement][p2_primaryElement];\r\n    uint8 probPrimaryElem2 = probabilityOfWinningAgainstElem[p1_primaryElement][p2_secondaryElement];\r\n    \r\n    uint8 probSecondaryElem1 = probabilityOfWinningAgainstElem[p1_secondaryElement][p2_primaryElement];\r\n    uint8 probSecondaryElem2 = probabilityOfWinningAgainstElem[p1_secondaryElement][p2_secondaryElement];\r\n    \r\n    uint8 probFinalElements = (\r\n      probPrimaryElem1.add(probPrimaryElem2).add(probSecondaryElem1).add(probSecondaryElem2)\r\n    ).div(4);\r\n\r\n    uint8 probLife = p1_life > p2_life ? 100 : 0;\r\n    uint8 probArmor = p1_armor > p2_armor ? 100 : 0;\r\n    uint8 probStrength = p1_strength > p2_strength ? 100 : 0;\r\n    uint8 probSpeed = p1_speed > p2_speed ? 100 : 0;\r\n    uint8 probLuck = p1_luck > p2_luck ? 100 : 0;\r\n    uint8 probSpirit = p1_spirit > p2_spirit ? 100 : 0;\r\n    uint8 probFinal = (\r\n      probLife.add(probArmor).add(probStrength).add(probSpeed).add(probLuck).add(probSpirit)\r\n    ).div(6);\r\n\r\n    uint256 winner = 0;\r\n    probFinal = probFinal % 100;\r\n\r\n    if (probFinal >= 49 && probFinal <= 51) {\r\n      winner = 0;\r\n    } else if (probFinal > 51) {\r\n      winner = _character1Id;\r\n    } else {\r\n      winner = _character2Id;\r\n    }\r\n\r\n    return (winner, probFinal);\r\n  }\r\n\r\n\r\n  /*\r\n  * @dev Create a new player and send initial tokens\r\n  */\r\n  function registerPlayer(bytes32 _name)\r\n    public\r\n    isContractActive\r\n  {\r\n    _registerPlayer(_name);\r\n    _sendInitialTokensToPlayer(_msgSender());\r\n  }\r\n\r\n  /*\r\n  * @dev Create a new character\r\n  */\r\n  function createCharacter(\r\n    // BaseMetadata\r\n    CharacterBaseMetadata memory extraBaseMetaData,\r\n    // PhysicalMetadata\r\n    CharacterPhysicalMetadata memory extraPhysicalMetaData,\r\n    // AttributesMetadata\r\n    CharacterAttributesMetadata memory extraAbilitiesMetaData\r\n  )\r\n    public\r\n    isContractActive\r\n    returns(uint256)\r\n  {\r\n    require(hasRole(PLAYER_ROLE, _msgSender()), \"createCharacter: must have player role\");\r\n\r\n    uint256 characterId = _createCharacter(\r\n      extraBaseMetaData,\r\n      extraPhysicalMetaData,\r\n      extraAbilitiesMetaData\r\n    );\r\n    return characterId;\r\n  }\r\n\r\n  /*\r\n  * @dev Request a fight\r\n  */\r\n  function requestFight(\r\n    address _contender,\r\n    uint256 _characterId\r\n  )\r\n    public\r\n    isContractActive\r\n    returns(uint256)\r\n  {\r\n    require(hasRole(PLAYER_ROLE, _msgSender()), \"requestFight: must have player role\");\r\n    uint256 fightId = _requestFight(_contender, _characterId);\r\n    return fightId;\r\n  }\r\n\r\n  /*\r\n  * @dev Assign/update probability of my _element defeating _enemy\r\n  */\r\n  function assignProbabilityOfWinning(\r\n    ElementOfNature _me,\r\n    ElementOfNature _enemy,\r\n    uint8 _probWin\r\n  )\r\n    external\r\n  {\r\n    require(hasRole(DEFAULT_ADMIN_ROLE, _msgSender()), \"assignProbabilityOfWinning: must have admin role\");\r\n    _assignProbabilityOfWinning(_me, _enemy, _probWin);\r\n  }\r\n\r\n  /*\r\n  * @dev Update contract status\r\n  */\r\n  function activateDeactivateContract(bool _active)\r\n    external\r\n  {\r\n    require(hasRole(DEFAULT_ADMIN_ROLE, _msgSender()), \"activateDeactivateContract: must have admin role\");\r\n\r\n    active = _active;\r\n    emit ContractStatusUpdate(_active);\r\n  }\r\n\r\n\r\n\r\n}",
  "sourcePath": "C:/xampp/htdocs/ethereal-bnb/truffle-files/contracts/EtherealGame.sol",
  "compiler": {
    "name": "solc",
    "version": "0.7.5+commit.eb77ed08.Emscripten.clang"
  },
  "schemaVersion": "3.3.3",
  "updatedAt": "2021-02-16T08:06:43.422Z",
  "devdoc": {
    "kind": "dev",
    "methods": {
      "getRoleAdmin(bytes32)": {
        "details": "Returns the admin role that controls `role`. See {grantRole} and {revokeRole}. To change a role's admin, use {_setRoleAdmin}."
      },
      "getRoleMember(bytes32,uint256)": {
        "details": "Returns one of the accounts that have `role`. `index` must be a value between 0 and {getRoleMemberCount}, non-inclusive. Role bearers are not sorted in any particular way, and their ordering may change at any point. WARNING: When using {getRoleMember} and {getRoleMemberCount}, make sure you perform all queries on the same block. See the following https://forum.openzeppelin.com/t/iterating-over-elements-on-enumerableset-in-openzeppelin-contracts/2296[forum post] for more information."
      },
      "getRoleMemberCount(bytes32)": {
        "details": "Returns the number of accounts that have `role`. Can be used together with {getRoleMember} to enumerate all bearers of a role."
      },
      "grantRole(bytes32,address)": {
        "details": "Grants `role` to `account`. If `account` had not been already granted `role`, emits a {RoleGranted} event. Requirements: - the caller must have ``role``'s admin role."
      },
      "hasRole(bytes32,address)": {
        "details": "Returns `true` if `account` has been granted `role`."
      },
      "renounceRole(bytes32,address)": {
        "details": "Revokes `role` from the calling account. Roles are often managed via {grantRole} and {revokeRole}: this function's purpose is to provide a mechanism for accounts to lose their privileges if they are compromised (such as when a trusted device is misplaced). If the calling account had been granted `role`, emits a {RoleRevoked} event. Requirements: - the caller must be `account`."
      },
      "revokeRole(bytes32,address)": {
        "details": "Revokes `role` from `account`. If `account` had been granted `role`, emits a {RoleRevoked} event. Requirements: - the caller must have ``role``'s admin role."
      }
    },
    "version": 1
  },
  "userdoc": {
    "kind": "user",
    "methods": {},
    "version": 1
  }
}