{
  "contractName": "EtherealGame",
  "abi": [
    {
      "inputs": [],
      "name": "characterContract",
      "outputs": [
        {
          "internalType": "address",
          "name": "",
          "type": "address"
        }
      ],
      "stateMutability": "view",
      "type": "function"
    },
    {
      "inputs": [],
      "name": "planetContract",
      "outputs": [
        {
          "internalType": "address",
          "name": "",
          "type": "address"
        }
      ],
      "stateMutability": "view",
      "type": "function"
    }
  ],
  "bytecode": "0x608060405234801561001057600080fd5b5061011d806100206000396000f3fe6080604052348015600f57600080fd5b506004361060325760003560e01c806343b60f741460375780638f089c17146069575b600080fd5b603d609b565b604051808273ffffffffffffffffffffffffffffffffffffffff16815260200191505060405180910390f35b606f60c1565b604051808273ffffffffffffffffffffffffffffffffffffffff16815260200191505060405180910390f35b600360009054906101000a900473ffffffffffffffffffffffffffffffffffffffff1681565b600260009054906101000a900473ffffffffffffffffffffffffffffffffffffffff168156fea2646970667358221220e1868961c659c97a35b1840b2adec5ad0c187f81f59cf1ebb82e34d21a7241b564736f6c63430007050033",
  "immutableReferences": {},
  "source": "// SPDX-License-Identifier: MIT\r\npragma solidity 0.7.5;\r\nimport '@openzeppelin/contracts/access/Ownable.sol';\r\n\r\ncontract EtherealGame\r\n{\r\n\t// Contract status\r\n\tbool private active;\r\n\taddress[] players;\r\n\taddress public planetContract;\r\n\taddress public characterContract;\r\n\r\n\t/*\r\n\t*\tContract must be active in order to work :)\r\n\t*/\r\n\tmodifier contractMustBeActive() {\r\n\t\trequire(active, 'Contract is inactive');\r\n\t\t_;\r\n\t}\r\n\r\n\t\r\n\r\n\r\n\r\n}",
  "sourcePath": "c:/xampp/htdocs/ethereal-bnb/truffle-files/contracts/EtherealGame.sol",
  "compiler": {
    "name": "solc",
    "version": "0.7.5+commit.eb77ed08.Emscripten.clang"
  },
  "schemaVersion": "3.3.3",
  "updatedAt": "2021-02-14T06:59:20.313Z",
  "devdoc": {
    "kind": "dev",
    "methods": {},
    "version": 1
  },
  "userdoc": {
    "kind": "user",
    "methods": {},
    "version": 1
  }
}