{
  "contractName": "EtherealCharacter",
  "abi": [
    {
      "inputs": [
        {
          "internalType": "string",
          "name": "name",
          "type": "string"
        },
        {
          "internalType": "string",
          "name": "symbol",
          "type": "string"
        },
        {
          "internalType": "string",
          "name": "baseURI",
          "type": "string"
        }
      ],
      "stateMutability": "nonpayable",
      "type": "constructor"
    },
    {
      "anonymous": false,
      "inputs": [
        {
          "indexed": true,
          "internalType": "address",
          "name": "owner",
          "type": "address"
        },
        {
          "indexed": true,
          "internalType": "address",
          "name": "approved",
          "type": "address"
        },
        {
          "indexed": true,
          "internalType": "uint256",
          "name": "tokenId",
          "type": "uint256"
        }
      ],
      "name": "Approval",
      "type": "event"
    },
    {
      "anonymous": false,
      "inputs": [
        {
          "indexed": true,
          "internalType": "address",
          "name": "owner",
          "type": "address"
        },
        {
          "indexed": true,
          "internalType": "address",
          "name": "operator",
          "type": "address"
        },
        {
          "indexed": false,
          "internalType": "bool",
          "name": "approved",
          "type": "bool"
        }
      ],
      "name": "ApprovalForAll",
      "type": "event"
    },
    {
      "anonymous": false,
      "inputs": [
        {
          "indexed": false,
          "internalType": "string",
          "name": "_baseURI",
          "type": "string"
        }
      ],
      "name": "NewBaseURI",
      "type": "event"
    },
    {
      "anonymous": false,
      "inputs": [
        {
          "indexed": false,
          "internalType": "address",
          "name": "account",
          "type": "address"
        }
      ],
      "name": "Paused",
      "type": "event"
    },
    {
      "anonymous": false,
      "inputs": [
        {
          "indexed": true,
          "internalType": "bytes32",
          "name": "role",
          "type": "bytes32"
        },
        {
          "indexed": true,
          "internalType": "bytes32",
          "name": "previousAdminRole",
          "type": "bytes32"
        },
        {
          "indexed": true,
          "internalType": "bytes32",
          "name": "newAdminRole",
          "type": "bytes32"
        }
      ],
      "name": "RoleAdminChanged",
      "type": "event"
    },
    {
      "anonymous": false,
      "inputs": [
        {
          "indexed": true,
          "internalType": "bytes32",
          "name": "role",
          "type": "bytes32"
        },
        {
          "indexed": true,
          "internalType": "address",
          "name": "account",
          "type": "address"
        },
        {
          "indexed": true,
          "internalType": "address",
          "name": "sender",
          "type": "address"
        }
      ],
      "name": "RoleGranted",
      "type": "event"
    },
    {
      "anonymous": false,
      "inputs": [
        {
          "indexed": true,
          "internalType": "bytes32",
          "name": "role",
          "type": "bytes32"
        },
        {
          "indexed": true,
          "internalType": "address",
          "name": "account",
          "type": "address"
        },
        {
          "indexed": true,
          "internalType": "address",
          "name": "sender",
          "type": "address"
        }
      ],
      "name": "RoleRevoked",
      "type": "event"
    },
    {
      "anonymous": false,
      "inputs": [
        {
          "indexed": true,
          "internalType": "address",
          "name": "from",
          "type": "address"
        },
        {
          "indexed": true,
          "internalType": "address",
          "name": "to",
          "type": "address"
        },
        {
          "indexed": true,
          "internalType": "uint256",
          "name": "tokenId",
          "type": "uint256"
        }
      ],
      "name": "Transfer",
      "type": "event"
    },
    {
      "anonymous": false,
      "inputs": [
        {
          "indexed": false,
          "internalType": "address",
          "name": "account",
          "type": "address"
        }
      ],
      "name": "Unpaused",
      "type": "event"
    },
    {
      "inputs": [],
      "name": "DEFAULT_ADMIN_ROLE",
      "outputs": [
        {
          "internalType": "bytes32",
          "name": "",
          "type": "bytes32"
        }
      ],
      "stateMutability": "view",
      "type": "function"
    },
    {
      "inputs": [],
      "name": "MINTER_ROLE",
      "outputs": [
        {
          "internalType": "bytes32",
          "name": "",
          "type": "bytes32"
        }
      ],
      "stateMutability": "view",
      "type": "function"
    },
    {
      "inputs": [],
      "name": "PAUSER_ROLE",
      "outputs": [
        {
          "internalType": "bytes32",
          "name": "",
          "type": "bytes32"
        }
      ],
      "stateMutability": "view",
      "type": "function"
    },
    {
      "inputs": [
        {
          "internalType": "address",
          "name": "to",
          "type": "address"
        },
        {
          "internalType": "uint256",
          "name": "tokenId",
          "type": "uint256"
        }
      ],
      "name": "approve",
      "outputs": [],
      "stateMutability": "nonpayable",
      "type": "function"
    },
    {
      "inputs": [
        {
          "internalType": "address",
          "name": "owner",
          "type": "address"
        }
      ],
      "name": "balanceOf",
      "outputs": [
        {
          "internalType": "uint256",
          "name": "",
          "type": "uint256"
        }
      ],
      "stateMutability": "view",
      "type": "function"
    },
    {
      "inputs": [],
      "name": "baseURI",
      "outputs": [
        {
          "internalType": "string",
          "name": "",
          "type": "string"
        }
      ],
      "stateMutability": "view",
      "type": "function"
    },
    {
      "inputs": [
        {
          "internalType": "uint256",
          "name": "",
          "type": "uint256"
        }
      ],
      "name": "characterAbilitiesMetadata",
      "outputs": [
        {
          "internalType": "enum EtherealCharacter.ElementOfNature",
          "name": "primaryElement",
          "type": "uint8"
        },
        {
          "internalType": "enum EtherealCharacter.ElementOfNature",
          "name": "secondaryElement",
          "type": "uint8"
        },
        {
          "internalType": "uint8",
          "name": "speed",
          "type": "uint8"
        },
        {
          "internalType": "uint8",
          "name": "stamina",
          "type": "uint8"
        },
        {
          "internalType": "uint8",
          "name": "life",
          "type": "uint8"
        },
        {
          "internalType": "uint8",
          "name": "strength",
          "type": "uint8"
        },
        {
          "internalType": "uint8",
          "name": "luck",
          "type": "uint8"
        },
        {
          "internalType": "uint8",
          "name": "spirit",
          "type": "uint8"
        }
      ],
      "stateMutability": "view",
      "type": "function"
    },
    {
      "inputs": [
        {
          "internalType": "uint256",
          "name": "",
          "type": "uint256"
        }
      ],
      "name": "characterBaseMetadata",
      "outputs": [
        {
          "internalType": "bytes32",
          "name": "name",
          "type": "bytes32"
        },
        {
          "internalType": "bytes24",
          "name": "birthdate",
          "type": "bytes24"
        },
        {
          "internalType": "string",
          "name": "description",
          "type": "string"
        },
        {
          "internalType": "uint256",
          "name": "planetId",
          "type": "uint256"
        },
        {
          "internalType": "uint24",
          "name": "skintone",
          "type": "uint24"
        },
        {
          "internalType": "uint24",
          "name": "haircolor",
          "type": "uint24"
        },
        {
          "internalType": "uint24",
          "name": "eyescolor",
          "type": "uint24"
        },
        {
          "internalType": "uint16",
          "name": "weight",
          "type": "uint16"
        },
        {
          "internalType": "uint16",
          "name": "height",
          "type": "uint16"
        },
        {
          "internalType": "uint8",
          "name": "genre",
          "type": "uint8"
        }
      ],
      "stateMutability": "view",
      "type": "function"
    },
    {
      "inputs": [
        {
          "internalType": "bytes32",
          "name": "",
          "type": "bytes32"
        }
      ],
      "name": "characterNameExists",
      "outputs": [
        {
          "internalType": "bool",
          "name": "",
          "type": "bool"
        }
      ],
      "stateMutability": "view",
      "type": "function"
    },
    {
      "inputs": [
        {
          "internalType": "uint256",
          "name": "",
          "type": "uint256"
        }
      ],
      "name": "characterPhysicalMetadata",
      "outputs": [
        {
          "internalType": "uint24",
          "name": "skintone",
          "type": "uint24"
        },
        {
          "internalType": "uint24",
          "name": "haircolor",
          "type": "uint24"
        },
        {
          "internalType": "uint24",
          "name": "eyescolor",
          "type": "uint24"
        },
        {
          "internalType": "uint16",
          "name": "weight",
          "type": "uint16"
        },
        {
          "internalType": "uint16",
          "name": "height",
          "type": "uint16"
        },
        {
          "internalType": "uint8",
          "name": "genre",
          "type": "uint8"
        }
      ],
      "stateMutability": "view",
      "type": "function"
    },
    {
      "inputs": [
        {
          "internalType": "uint256",
          "name": "tokenId",
          "type": "uint256"
        }
      ],
      "name": "getApproved",
      "outputs": [
        {
          "internalType": "address",
          "name": "",
          "type": "address"
        }
      ],
      "stateMutability": "view",
      "type": "function"
    },
    {
      "inputs": [
        {
          "internalType": "bytes32",
          "name": "role",
          "type": "bytes32"
        }
      ],
      "name": "getRoleAdmin",
      "outputs": [
        {
          "internalType": "bytes32",
          "name": "",
          "type": "bytes32"
        }
      ],
      "stateMutability": "view",
      "type": "function"
    },
    {
      "inputs": [
        {
          "internalType": "bytes32",
          "name": "role",
          "type": "bytes32"
        },
        {
          "internalType": "uint256",
          "name": "index",
          "type": "uint256"
        }
      ],
      "name": "getRoleMember",
      "outputs": [
        {
          "internalType": "address",
          "name": "",
          "type": "address"
        }
      ],
      "stateMutability": "view",
      "type": "function"
    },
    {
      "inputs": [
        {
          "internalType": "bytes32",
          "name": "role",
          "type": "bytes32"
        }
      ],
      "name": "getRoleMemberCount",
      "outputs": [
        {
          "internalType": "uint256",
          "name": "",
          "type": "uint256"
        }
      ],
      "stateMutability": "view",
      "type": "function"
    },
    {
      "inputs": [
        {
          "internalType": "bytes32",
          "name": "role",
          "type": "bytes32"
        },
        {
          "internalType": "address",
          "name": "account",
          "type": "address"
        }
      ],
      "name": "grantRole",
      "outputs": [],
      "stateMutability": "nonpayable",
      "type": "function"
    },
    {
      "inputs": [
        {
          "internalType": "bytes32",
          "name": "role",
          "type": "bytes32"
        },
        {
          "internalType": "address",
          "name": "account",
          "type": "address"
        }
      ],
      "name": "hasRole",
      "outputs": [
        {
          "internalType": "bool",
          "name": "",
          "type": "bool"
        }
      ],
      "stateMutability": "view",
      "type": "function"
    },
    {
      "inputs": [
        {
          "internalType": "address",
          "name": "owner",
          "type": "address"
        },
        {
          "internalType": "address",
          "name": "operator",
          "type": "address"
        }
      ],
      "name": "isApprovedForAll",
      "outputs": [
        {
          "internalType": "bool",
          "name": "",
          "type": "bool"
        }
      ],
      "stateMutability": "view",
      "type": "function"
    },
    {
      "inputs": [],
      "name": "name",
      "outputs": [
        {
          "internalType": "string",
          "name": "",
          "type": "string"
        }
      ],
      "stateMutability": "view",
      "type": "function"
    },
    {
      "inputs": [
        {
          "internalType": "uint256",
          "name": "tokenId",
          "type": "uint256"
        }
      ],
      "name": "ownerOf",
      "outputs": [
        {
          "internalType": "address",
          "name": "",
          "type": "address"
        }
      ],
      "stateMutability": "view",
      "type": "function"
    },
    {
      "inputs": [],
      "name": "paused",
      "outputs": [
        {
          "internalType": "bool",
          "name": "",
          "type": "bool"
        }
      ],
      "stateMutability": "view",
      "type": "function"
    },
    {
      "inputs": [
        {
          "internalType": "bytes32",
          "name": "role",
          "type": "bytes32"
        },
        {
          "internalType": "address",
          "name": "account",
          "type": "address"
        }
      ],
      "name": "renounceRole",
      "outputs": [],
      "stateMutability": "nonpayable",
      "type": "function"
    },
    {
      "inputs": [
        {
          "internalType": "bytes32",
          "name": "role",
          "type": "bytes32"
        },
        {
          "internalType": "address",
          "name": "account",
          "type": "address"
        }
      ],
      "name": "revokeRole",
      "outputs": [],
      "stateMutability": "nonpayable",
      "type": "function"
    },
    {
      "inputs": [
        {
          "internalType": "address",
          "name": "from",
          "type": "address"
        },
        {
          "internalType": "address",
          "name": "to",
          "type": "address"
        },
        {
          "internalType": "uint256",
          "name": "tokenId",
          "type": "uint256"
        }
      ],
      "name": "safeTransferFrom",
      "outputs": [],
      "stateMutability": "nonpayable",
      "type": "function"
    },
    {
      "inputs": [
        {
          "internalType": "address",
          "name": "from",
          "type": "address"
        },
        {
          "internalType": "address",
          "name": "to",
          "type": "address"
        },
        {
          "internalType": "uint256",
          "name": "tokenId",
          "type": "uint256"
        },
        {
          "internalType": "bytes",
          "name": "_data",
          "type": "bytes"
        }
      ],
      "name": "safeTransferFrom",
      "outputs": [],
      "stateMutability": "nonpayable",
      "type": "function"
    },
    {
      "inputs": [
        {
          "internalType": "address",
          "name": "operator",
          "type": "address"
        },
        {
          "internalType": "bool",
          "name": "approved",
          "type": "bool"
        }
      ],
      "name": "setApprovalForAll",
      "outputs": [],
      "stateMutability": "nonpayable",
      "type": "function"
    },
    {
      "inputs": [
        {
          "internalType": "bytes4",
          "name": "interfaceId",
          "type": "bytes4"
        }
      ],
      "name": "supportsInterface",
      "outputs": [
        {
          "internalType": "bool",
          "name": "",
          "type": "bool"
        }
      ],
      "stateMutability": "view",
      "type": "function"
    },
    {
      "inputs": [],
      "name": "symbol",
      "outputs": [
        {
          "internalType": "string",
          "name": "",
          "type": "string"
        }
      ],
      "stateMutability": "view",
      "type": "function"
    },
    {
      "inputs": [
        {
          "internalType": "uint256",
          "name": "index",
          "type": "uint256"
        }
      ],
      "name": "tokenByIndex",
      "outputs": [
        {
          "internalType": "uint256",
          "name": "",
          "type": "uint256"
        }
      ],
      "stateMutability": "view",
      "type": "function"
    },
    {
      "inputs": [
        {
          "internalType": "address",
          "name": "owner",
          "type": "address"
        },
        {
          "internalType": "uint256",
          "name": "index",
          "type": "uint256"
        }
      ],
      "name": "tokenOfOwnerByIndex",
      "outputs": [
        {
          "internalType": "uint256",
          "name": "",
          "type": "uint256"
        }
      ],
      "stateMutability": "view",
      "type": "function"
    },
    {
      "inputs": [
        {
          "internalType": "uint256",
          "name": "tokenId",
          "type": "uint256"
        }
      ],
      "name": "tokenURI",
      "outputs": [
        {
          "internalType": "string",
          "name": "",
          "type": "string"
        }
      ],
      "stateMutability": "view",
      "type": "function"
    },
    {
      "inputs": [],
      "name": "totalSupply",
      "outputs": [
        {
          "internalType": "uint256",
          "name": "",
          "type": "uint256"
        }
      ],
      "stateMutability": "view",
      "type": "function"
    },
    {
      "inputs": [
        {
          "internalType": "address",
          "name": "from",
          "type": "address"
        },
        {
          "internalType": "address",
          "name": "to",
          "type": "address"
        },
        {
          "internalType": "uint256",
          "name": "tokenId",
          "type": "uint256"
        }
      ],
      "name": "transferFrom",
      "outputs": [],
      "stateMutability": "nonpayable",
      "type": "function"
    },
    {
      "inputs": [
        {
          "internalType": "string",
          "name": "_baseURI",
          "type": "string"
        }
      ],
      "name": "setBaseURI",
      "outputs": [],
      "stateMutability": "nonpayable",
      "type": "function"
    },
    {
      "inputs": [
        {
          "internalType": "address",
          "name": "to",
          "type": "address"
        },
        {
          "components": [
            {
              "internalType": "bytes32",
              "name": "name",
              "type": "bytes32"
            },
            {
              "internalType": "bytes24",
              "name": "birthdate",
              "type": "bytes24"
            },
            {
              "internalType": "string",
              "name": "description",
              "type": "string"
            },
            {
              "internalType": "uint256",
              "name": "planetId",
              "type": "uint256"
            },
            {
              "internalType": "uint24",
              "name": "skintone",
              "type": "uint24"
            },
            {
              "internalType": "uint24",
              "name": "haircolor",
              "type": "uint24"
            },
            {
              "internalType": "uint24",
              "name": "eyescolor",
              "type": "uint24"
            },
            {
              "internalType": "uint16",
              "name": "weight",
              "type": "uint16"
            },
            {
              "internalType": "uint16",
              "name": "height",
              "type": "uint16"
            },
            {
              "internalType": "uint8",
              "name": "genre",
              "type": "uint8"
            }
          ],
          "internalType": "struct EtherealCharacter.CharacterBaseMetadata",
          "name": "extraBaseMetaData",
          "type": "tuple"
        },
        {
          "components": [
            {
              "internalType": "uint24",
              "name": "skintone",
              "type": "uint24"
            },
            {
              "internalType": "uint24",
              "name": "haircolor",
              "type": "uint24"
            },
            {
              "internalType": "uint24",
              "name": "eyescolor",
              "type": "uint24"
            },
            {
              "internalType": "uint16",
              "name": "weight",
              "type": "uint16"
            },
            {
              "internalType": "uint16",
              "name": "height",
              "type": "uint16"
            },
            {
              "internalType": "uint8",
              "name": "genre",
              "type": "uint8"
            }
          ],
          "internalType": "struct EtherealCharacter.CharacterPhysicalMetadata",
          "name": "extraPhysicalMetaData",
          "type": "tuple"
        },
        {
          "components": [
            {
              "internalType": "enum EtherealCharacter.ElementOfNature",
              "name": "primaryElement",
              "type": "uint8"
            },
            {
              "internalType": "enum EtherealCharacter.ElementOfNature",
              "name": "secondaryElement",
              "type": "uint8"
            },
            {
              "internalType": "uint8",
              "name": "speed",
              "type": "uint8"
            },
            {
              "internalType": "uint8",
              "name": "stamina",
              "type": "uint8"
            },
            {
              "internalType": "uint8",
              "name": "life",
              "type": "uint8"
            },
            {
              "internalType": "uint8",
              "name": "strength",
              "type": "uint8"
            },
            {
              "internalType": "uint8",
              "name": "luck",
              "type": "uint8"
            },
            {
              "internalType": "uint8",
              "name": "spirit",
              "type": "uint8"
            }
          ],
          "internalType": "struct EtherealCharacter.CharacterAbilitiesMetadata",
          "name": "extraAbilitiesMetaData",
          "type": "tuple"
        }
      ],
      "name": "mint",
      "outputs": [
        {
          "internalType": "uint256",
          "name": "",
          "type": "uint256"
        }
      ],
      "stateMutability": "nonpayable",
      "type": "function"
    },
    {
      "inputs": [
        {
          "internalType": "uint256",
          "name": "tokenId",
          "type": "uint256"
        }
      ],
      "name": "burn",
      "outputs": [],
      "stateMutability": "nonpayable",
      "type": "function"
    },
    {
      "inputs": [],
      "name": "pause",
      "outputs": [],
      "stateMutability": "nonpayable",
      "type": "function"
    },
    {
      "inputs": [],
      "name": "unpause",
      "outputs": [],
      "stateMutability": "nonpayable",
      "type": "function"
    }
  ],
  "bytecode": "0x60806040523480156200001157600080fd5b506040516200588a3803806200588a833981810160405281019062000037919062000575565b8282620000516301ffc9a760e01b620001a860201b60201c565b81600790805190602001906200006992919062000463565b5080600890805190602001906200008292919062000463565b506200009b6380ac58cd60e01b620001a860201b60201c565b620000b3635b5e139f60e01b620001a860201b60201c565b620000cb63780e9d6360e01b620001a860201b60201c565b50506000600b60006101000a81548160ff0219169083151502179055506200010c6000801b62000100620002b160201b60201c565b620002b960201b60201c565b6200014d7f9f2df0fed2c77648de5860a4cc508cd0818c85b8b8a1ab4ceeef8d981c8956a662000141620002b160201b60201c565b620002b960201b60201c565b6200018e7f65d7a28e3265b37a6474929f336521b332c1681b933f6cb9f3376673440d862a62000182620002b160201b60201c565b620002b960201b60201c565b6200019f81620002cf60201b60201c565b505050620006b5565b63ffffffff60e01b817bffffffffffffffffffffffffffffffffffffffffffffffffffffffff1916141562000245576040517f08c379a000000000000000000000000000000000000000000000000000000000815260040180806020018281038252601c8152602001807f4552433136353a20696e76616c696420696e746572666163652069640000000081525060200191505060405180910390fd5b6001806000837bffffffffffffffffffffffffffffffffffffffffffffffffffffffff19167bffffffffffffffffffffffffffffffffffffffffffffffffffffffff1916815260200190815260200160002060006101000a81548160ff02191690831515021790555050565b600033905090565b620002cb8282620002eb60201b60201c565b5050565b80600a9080519060200190620002e792919062000463565b5050565b62000319816000808581526020019081526020016000206000016200038e60201b620022a01790919060201c565b156200038a576200032f620002b160201b60201c565b73ffffffffffffffffffffffffffffffffffffffff168173ffffffffffffffffffffffffffffffffffffffff16837f2f8788117e7eff1d82e926ec794901d17c78024a50270940304540a733656f0d60405160405180910390a45b5050565b6000620003be836000018373ffffffffffffffffffffffffffffffffffffffff1660001b620003c660201b60201c565b905092915050565b6000620003da83836200044060201b60201c565b620004355782600001829080600181540180825580915050600190039060005260206000200160009091909190915055826000018054905083600101600084815260200190815260200160002081905550600190506200043a565b600090505b92915050565b600080836001016000848152602001908152602001600020541415905092915050565b828054600181600116156101000203166002900490600052602060002090601f0160209004810192826200049b5760008555620004e7565b82601f10620004b657805160ff1916838001178555620004e7565b82800160010185558215620004e7579182015b82811115620004e6578251825591602001919060010190620004c9565b5b509050620004f69190620004fa565b5090565b5b8082111562000515576000816000905550600101620004fb565b5090565b600082601f8301126200052b57600080fd5b8151620005426200053c826200064a565b62000616565b915080825260208301602083018583830111156200055f57600080fd5b6200056c8382846200067d565b50505092915050565b6000806000606084860312156200058b57600080fd5b600084015167ffffffffffffffff811115620005a657600080fd5b620005b48682870162000519565b935050602084015167ffffffffffffffff811115620005d257600080fd5b620005e08682870162000519565b925050604084015167ffffffffffffffff811115620005fe57600080fd5b6200060c8682870162000519565b9150509250925092565b6000604051905081810181811067ffffffffffffffff8211171562000640576200063f620006b3565b5b8060405250919050565b600067ffffffffffffffff821115620006685762000667620006b3565b5b601f19601f8301169050602081019050919050565b60005b838110156200069d57808201518184015260208101905062000680565b83811115620006ad576000848401525b50505050565bfe5b6151c580620006c56000396000f3fe608060405234801561001057600080fd5b50600436106102275760003560e01c80635c975abb11610130578063a22cb465116100b8578063d547741f1161007c578063d547741f146106be578063e63ab1e9146106da578063e985e9c5146106f8578063ebaf308814610728578063eeff53f01461075857610227565b8063a22cb46514610608578063b88d4fde14610624578063c87b56dd14610640578063ca15c87314610670578063d5391393146106a057610227565b80638456cb59116100ff5780638456cb59146105625780639010d07c1461056c57806391d148541461059c57806395d89b41146105cc578063a217fddf146105ea57610227565b80635c975abb146104c65780636352211e146104e45780636c0360eb1461051457806370a082311461053257610227565b80632f745c59116101b357806342966c681161018257806342966c68146103f55780634e39cafc146104115780634f6ccce71461044a57806351b0333e1461047a57806355f804b3146104aa57610227565b80632f745c591461038357806336568abe146103b35780633f4ba83a146103cf57806342842e0e146103d957610227565b806318160ddd116101fa57806318160ddd146102c657806322b46d75146102e457806323b872dd1461031b578063248a9ca3146103375780632f2ff15d1461036757610227565b806301ffc9a71461022c57806306fdde031461025c578063081812fc1461027a578063095ea7b3146102aa575b600080fd5b610246600480360381019061024191906143f2565b61078d565b6040516102539190614879565b60405180910390f35b6102646107f5565b60405161027191906149eb565b60405180910390f35b610294600480360381019061028f919061445c565b610897565b6040516102a1919061485e565b60405180910390f35b6102c460048036038101906102bf9190614315565b610932565b005b6102ce610a76565b6040516102db9190614b6e565b60405180910390f35b6102fe60048036038101906102f9919061445c565b610a87565b604051610312989796959493929190614952565b60405180910390f35b61033560048036038101906103309190614192565b610b37565b005b610351600480360381019061034c9190614351565b610bad565b60405161035e9190614894565b60405180910390f35b610381600480360381019061037c919061437a565b610bcc565b005b61039d60048036038101906103989190614315565b610c55565b6040516103aa9190614b6e565b60405180910390f35b6103cd60048036038101906103c8919061437a565b610cb0565b005b6103d7610d49565b005b6103f360048036038101906103ee9190614192565b610dc3565b005b61040f600480360381019061040a919061445c565b610de3565b005b61042b6004803603810190610426919061445c565b6110ab565b6040516104419a999897969594939291906148af565b60405180910390f35b610464600480360381019061045f919061445c565b6111fa565b6040516104719190614b6e565b60405180910390f35b610494600480360381019061048f9190614298565b61121d565b6040516104a19190614b6e565b60405180910390f35b6104c460048036038101906104bf919061441b565b611784565b005b6104ce61181a565b6040516104db9190614879565b60405180910390f35b6104fe60048036038101906104f9919061445c565b611831565b60405161050b919061485e565b60405180910390f35b61051c611868565b60405161052991906149eb565b60405180910390f35b61054c6004803603810190610547919061412d565b61190a565b6040516105599190614b6e565b60405180910390f35b61056a6119df565b005b610586600480360381019061058191906143b6565b611a59565b604051610593919061485e565b60405180910390f35b6105b660048036038101906105b1919061437a565b611a8a565b6040516105c39190614879565b60405180910390f35b6105d4611abb565b6040516105e191906149eb565b60405180910390f35b6105f2611b5d565b6040516105ff9190614894565b60405180910390f35b610622600480360381019061061d919061425c565b611b64565b005b61063e600480360381019061063991906141e1565b611d1a565b005b61065a6004803603810190610655919061445c565b611d92565b60405161066791906149eb565b60405180910390f35b61068a60048036038101906106859190614351565b612063565b6040516106979190614b6e565b60405180910390f35b6106a8612089565b6040516106b59190614894565b60405180910390f35b6106d860048036038101906106d3919061437a565b6120ad565b005b6106e2612136565b6040516106ef9190614894565b60405180910390f35b610712600480360381019061070d9190614156565b61215a565b60405161071f9190614879565b60405180910390f35b610742600480360381019061073d9190614351565b6121ee565b60405161074f9190614879565b60405180910390f35b610772600480360381019061076d919061445c565b61220e565b60405161078496959493929190614b0d565b60405180910390f35b600060016000837bffffffffffffffffffffffffffffffffffffffffffffffffffffffff19167bffffffffffffffffffffffffffffffffffffffffffffffffffffffff1916815260200190815260200160002060009054906101000a900460ff169050919050565b606060078054600181600116156101000203166002900480601f01602080910402602001604051908101604052809291908181526020018280546001816001161561010002031660029004801561088d5780601f106108625761010080835404028352916020019161088d565b820191906000526020600020905b81548152906001019060200180831161087057829003601f168201915b5050505050905090565b60006108a2826122d0565b6108f7576040517f08c379a000000000000000000000000000000000000000000000000000000000815260040180806020018281038252602c81526020018061508b602c913960400191505060405180910390fd5b6005600083815260200190815260200160002060009054906101000a900473ffffffffffffffffffffffffffffffffffffffff169050919050565b600061093d82611831565b90508073ffffffffffffffffffffffffffffffffffffffff168373ffffffffffffffffffffffffffffffffffffffff1614156109c4576040517f08c379a000000000000000000000000000000000000000000000000000000000815260040180806020018281038252602181526020018061510f6021913960400191505060405180910390fd5b8073ffffffffffffffffffffffffffffffffffffffff166109e36122ed565b73ffffffffffffffffffffffffffffffffffffffff161480610a125750610a1181610a0c6122ed565b61215a565b5b610a67576040517f08c379a0000000000000000000000000000000000000000000000000000000008152600401808060200182810382526038815260200180614fde6038913960400191505060405180910390fd5b610a7183836122f5565b505050565b6000610a8260036123ae565b905090565b600f6020528060005260406000206000915090508060000160009054906101000a900460ff16908060000160019054906101000a900460ff16908060000160029054906101000a900460ff16908060000160039054906101000a900460ff16908060000160049054906101000a900460ff16908060000160059054906101000a900460ff16908060000160069054906101000a900460ff16908060000160079054906101000a900460ff16905088565b610b48610b426122ed565b826123c3565b610b9d576040517f08c379a00000000000000000000000000000000000000000000000000000000081526004018080602001828103825260318152602001806151306031913960400191505060405180910390fd5b610ba88383836124b7565b505050565b6000806000838152602001908152602001600020600201549050919050565b610bf260008084815260200190815260200160002060020154610bed6122ed565b611a8a565b610c47576040517f08c379a000000000000000000000000000000000000000000000000000000000815260040180806020018281038252602f815260200180614ed7602f913960400191505060405180910390fd5b610c5182826126fa565b5050565b6000610ca882600260008673ffffffffffffffffffffffffffffffffffffffff1673ffffffffffffffffffffffffffffffffffffffff16815260200190815260200160002061278d90919063ffffffff16565b905092915050565b610cb86122ed565b73ffffffffffffffffffffffffffffffffffffffff168173ffffffffffffffffffffffffffffffffffffffff1614610d3b576040517f08c379a000000000000000000000000000000000000000000000000000000000815260040180806020018281038252602f815260200180615161602f913960400191505060405180910390fd5b610d4582826127a7565b5050565b610d7a7f65d7a28e3265b37a6474929f336521b332c1681b933f6cb9f3376673440d862a610d756122ed565b611a8a565b610db9576040517f08c379a0000000000000000000000000000000000000000000000000000000008152600401610db090614aed565b60405180910390fd5b610dc161283a565b565b610dde83838360405180602001604052806000815250611d1a565b505050565b610df4610dee6122ed565b826123c3565b610e33576040517f08c379a0000000000000000000000000000000000000000000000000000000008152600401610e2a90614acd565b60405180910390fd5b610e3c81612925565b6000600d60008381526020019081526020016000206000015490506010600082815260200190815260200160002060006101000a81549060ff0219169055600d60008381526020019081526020016000206000808201600090556001820160006101000a81549077ffffffffffffffffffffffffffffffffffffffffffffffff0219169055600282016000610ed19190613c54565b60038201600090556004820160006101000a81549062ffffff02191690556004820160036101000a81549062ffffff02191690556004820160066101000a81549062ffffff02191690556004820160096101000a81549061ffff021916905560048201600b6101000a81549061ffff021916905560048201600d6101000a81549060ff02191690555050600f6000838152602001908152602001600020600080820160006101000a81549060ff02191690556000820160016101000a81549060ff02191690556000820160026101000a81549060ff02191690556000820160036101000a81549060ff02191690556000820160046101000a81549060ff02191690556000820160056101000a81549060ff02191690556000820160066101000a81549060ff02191690556000820160076101000a81549060ff02191690555050600e6000838152602001908152602001600020600080820160006101000a81549062ffffff02191690556000820160036101000a81549062ffffff02191690556000820160066101000a81549062ffffff02191690556000820160096101000a81549061ffff021916905560008201600b6101000a81549061ffff021916905560008201600d6101000a81549060ff021916905550505050565b600d6020528060005260406000206000915090508060000154908060010160009054906101000a900460401b90806002018054600181600116156101000203166002900480601f0160208091040260200160405190810160405280929190818152602001828054600181600116156101000203166002900480156111705780601f1061114557610100808354040283529160200191611170565b820191906000526020600020905b81548152906001019060200180831161115357829003601f168201915b5050505050908060030154908060040160009054906101000a900462ffffff16908060040160039054906101000a900462ffffff16908060040160069054906101000a900462ffffff16908060040160099054906101000a900461ffff169080600401600b9054906101000a900461ffff169080600401600d9054906101000a900460ff1690508a565b600080611211836003612a5f90919063ffffffff16565b50905080915050919050565b60006112507f9f2df0fed2c77648de5860a4cc508cd0818c85b8b8a1ab4ceeef8d981c8956a661124b6122ed565b611a8a565b61128f576040517f08c379a000000000000000000000000000000000000000000000000000000000815260040161128690614a6d565b60405180910390fd5b60405160200161129e90614aad565b6040516020818303038152906040528051906020012084600001516040516020016112c99190614894565b604051602081830303815290604052805190602001201415801561133e575060006040516020016112fa91906149d0565b6040516020818303038152906040528051906020012084600001516040516020016113259190614894565b6040516020818303038152906040528051906020012014155b61137d576040517f08c379a000000000000000000000000000000000000000000000000000000000815260040161137490614a0d565b60405180910390fd5b601060008560000151815260200190815260200160002060009054906101000a900460ff16156113e2576040517f08c379a00000000000000000000000000000000000000000000000000000000081526004016113d990614a8d565b60405180910390fd5b60006113ee600c612a8b565b90506113fa8682612a99565b611404600c612ab7565b84600d60008381526020019081526020016000206000820151816000015560208201518160010160006101000a81548177ffffffffffffffffffffffffffffffffffffffffffffffff021916908360401c02179055506040820151816002019080519060200190611476929190613c9c565b506060820151816003015560808201518160040160006101000a81548162ffffff021916908362ffffff16021790555060a08201518160040160036101000a81548162ffffff021916908362ffffff16021790555060c08201518160040160066101000a81548162ffffff021916908362ffffff16021790555060e08201518160040160096101000a81548161ffff021916908361ffff16021790555061010082015181600401600b6101000a81548161ffff021916908361ffff16021790555061012082015181600401600d6101000a81548160ff021916908360ff16021790555090505083600e600083815260200190815260200160002060008201518160000160006101000a81548162ffffff021916908362ffffff16021790555060208201518160000160036101000a81548162ffffff021916908362ffffff16021790555060408201518160000160066101000a81548162ffffff021916908362ffffff16021790555060608201518160000160096101000a81548161ffff021916908361ffff160217905550608082015181600001600b6101000a81548161ffff021916908361ffff16021790555060a082015181600001600d6101000a81548160ff021916908360ff16021790555090505082600f600083815260200190815260200160002060008201518160000160006101000a81548160ff0219169083600c81111561168157fe5b021790555060208201518160000160016101000a81548160ff0219169083600c8111156116aa57fe5b021790555060408201518160000160026101000a81548160ff021916908360ff16021790555060608201518160000160036101000a81548160ff021916908360ff16021790555060808201518160000160046101000a81548160ff021916908360ff16021790555060a08201518160000160056101000a81548160ff021916908360ff16021790555060c08201518160000160066101000a81548160ff021916908360ff16021790555060e08201518160000160076101000a81548160ff021916908360ff16021790555090505080915050949350505050565b6117986000801b6117936122ed565b611a8a565b6117d7576040517f08c379a00000000000000000000000000000000000000000000000000000000081526004016117ce90614a4d565b60405180910390fd5b6117e081612acd565b7f325d37e8fb549c86966f09bc3e6f62eb3afa93b255d6e3234338001f3d80bd868160405161180f91906149eb565b60405180910390a150565b6000600b60009054906101000a900460ff16905090565b600061186182604051806060016040528060298152602001615040602991396003612ae79092919063ffffffff16565b9050919050565b6060600a8054600181600116156101000203166002900480601f0160208091040260200160405190810160405280929190818152602001828054600181600116156101000203166002900480156119005780601f106118d557610100808354040283529160200191611900565b820191906000526020600020905b8154815290600101906020018083116118e357829003601f168201915b5050505050905090565b60008073ffffffffffffffffffffffffffffffffffffffff168273ffffffffffffffffffffffffffffffffffffffff161415611991576040517f08c379a000000000000000000000000000000000000000000000000000000000815260040180806020018281038252602a815260200180615016602a913960400191505060405180910390fd5b6119d8600260008473ffffffffffffffffffffffffffffffffffffffff1673ffffffffffffffffffffffffffffffffffffffff168152602001908152602001600020612b06565b9050919050565b611a107f65d7a28e3265b37a6474929f336521b332c1681b933f6cb9f3376673440d862a611a0b6122ed565b611a8a565b611a4f576040517f08c379a0000000000000000000000000000000000000000000000000000000008152600401611a4690614a2d565b60405180910390fd5b611a57612b1b565b565b6000611a8282600080868152602001908152602001600020600001612c0790919063ffffffff16565b905092915050565b6000611ab382600080868152602001908152602001600020600001612c2190919063ffffffff16565b905092915050565b606060088054600181600116156101000203166002900480601f016020809104026020016040519081016040528092919081815260200182805460018160011615610100020316600290048015611b535780601f10611b2857610100808354040283529160200191611b53565b820191906000526020600020905b815481529060010190602001808311611b3657829003601f168201915b5050505050905090565b6000801b81565b611b6c6122ed565b73ffffffffffffffffffffffffffffffffffffffff168273ffffffffffffffffffffffffffffffffffffffff161415611c0d576040517f08c379a00000000000000000000000000000000000000000000000000000000081526004018080602001828103825260198152602001807f4552433732313a20617070726f766520746f2063616c6c65720000000000000081525060200191505060405180910390fd5b8060066000611c1a6122ed565b73ffffffffffffffffffffffffffffffffffffffff1673ffffffffffffffffffffffffffffffffffffffff16815260200190815260200160002060008473ffffffffffffffffffffffffffffffffffffffff1673ffffffffffffffffffffffffffffffffffffffff16815260200190815260200160002060006101000a81548160ff0219169083151502179055508173ffffffffffffffffffffffffffffffffffffffff16611cc76122ed565b73ffffffffffffffffffffffffffffffffffffffff167f17307eab39ab6107e8899845ad3d59bd9653f200f220920489ca2b5937696c318360405180821515815260200191505060405180910390a35050565b611d2b611d256122ed565b836123c3565b611d80576040517f08c379a00000000000000000000000000000000000000000000000000000000081526004018080602001828103825260318152602001806151306031913960400191505060405180910390fd5b611d8c84848484612c51565b50505050565b6060611d9d826122d0565b611df2576040517f08c379a000000000000000000000000000000000000000000000000000000000815260040180806020018281038252602f8152602001806150e0602f913960400191505060405180910390fd5b6060600960008481526020019081526020016000208054600181600116156101000203166002900480601f016020809104026020016040519081016040528092919081815260200182805460018160011615610100020316600290048015611e9b5780601f10611e7057610100808354040283529160200191611e9b565b820191906000526020600020905b815481529060010190602001808311611e7e57829003601f168201915b505050505090506060611eac611868565b9050600081511415611ec257819250505061205e565b600082511115611f935780826040516020018083805190602001908083835b60208310611f045780518252602082019150602081019050602083039250611ee1565b6001836020036101000a03801982511681845116808217855250505050505090500182805190602001908083835b60208310611f555780518252602082019150602081019050602083039250611f32565b6001836020036101000a038019825116818451168082178552505050505050905001925050506040516020818303038152906040529250505061205e565b80611f9d85612cc3565b6040516020018083805190602001908083835b60208310611fd35780518252602082019150602081019050602083039250611fb0565b6001836020036101000a03801982511681845116808217855250505050505090500182805190602001908083835b602083106120245780518252602082019150602081019050602083039250612001565b6001836020036101000a03801982511681845116808217855250505050505090500192505050604051602081830303815290604052925050505b919050565b6000612082600080848152602001908152602001600020600001612e0a565b9050919050565b7f9f2df0fed2c77648de5860a4cc508cd0818c85b8b8a1ab4ceeef8d981c8956a681565b6120d3600080848152602001908152602001600020600201546120ce6122ed565b611a8a565b612128576040517f08c379a0000000000000000000000000000000000000000000000000000000008152600401808060200182810382526030815260200180614fae6030913960400191505060405180910390fd5b61213282826127a7565b5050565b7f65d7a28e3265b37a6474929f336521b332c1681b933f6cb9f3376673440d862a81565b6000600660008473ffffffffffffffffffffffffffffffffffffffff1673ffffffffffffffffffffffffffffffffffffffff16815260200190815260200160002060008373ffffffffffffffffffffffffffffffffffffffff1673ffffffffffffffffffffffffffffffffffffffff16815260200190815260200160002060009054906101000a900460ff16905092915050565b60106020528060005260406000206000915054906101000a900460ff1681565b600e6020528060005260406000206000915090508060000160009054906101000a900462ffffff16908060000160039054906101000a900462ffffff16908060000160069054906101000a900462ffffff16908060000160099054906101000a900461ffff169080600001600b9054906101000a900461ffff169080600001600d9054906101000a900460ff16905086565b60006122c8836000018373ffffffffffffffffffffffffffffffffffffffff1660001b612e1f565b905092915050565b60006122e6826003612e8f90919063ffffffff16565b9050919050565b600033905090565b816005600083815260200190815260200160002060006101000a81548173ffffffffffffffffffffffffffffffffffffffff021916908373ffffffffffffffffffffffffffffffffffffffff160217905550808273ffffffffffffffffffffffffffffffffffffffff1661236883611831565b73ffffffffffffffffffffffffffffffffffffffff167f8c5be1e5ebec7d5bd14f71427d1e84f3dd0314c0f7b2291e5b200ac8c7c3b92560405160405180910390a45050565b60006123bc82600001612ea9565b9050919050565b60006123ce826122d0565b612423576040517f08c379a000000000000000000000000000000000000000000000000000000000815260040180806020018281038252602c815260200180614f82602c913960400191505060405180910390fd5b600061242e83611831565b90508073ffffffffffffffffffffffffffffffffffffffff168473ffffffffffffffffffffffffffffffffffffffff16148061249d57508373ffffffffffffffffffffffffffffffffffffffff1661248584610897565b73ffffffffffffffffffffffffffffffffffffffff16145b806124ae57506124ad818561215a565b5b91505092915050565b8273ffffffffffffffffffffffffffffffffffffffff166124d782611831565b73ffffffffffffffffffffffffffffffffffffffff1614612543576040517f08c379a00000000000000000000000000000000000000000000000000000000081526004018080602001828103825260298152602001806150b76029913960400191505060405180910390fd5b600073ffffffffffffffffffffffffffffffffffffffff168273ffffffffffffffffffffffffffffffffffffffff1614156125c9576040517f08c379a0000000000000000000000000000000000000000000000000000000008152600401808060200182810382526024815260200180614f386024913960400191505060405180910390fd5b6125d4838383612eba565b6125df6000826122f5565b61263081600260008673ffffffffffffffffffffffffffffffffffffffff1673ffffffffffffffffffffffffffffffffffffffff168152602001908152602001600020612eca90919063ffffffff16565b5061268281600260008573ffffffffffffffffffffffffffffffffffffffff1673ffffffffffffffffffffffffffffffffffffffff168152602001908152602001600020612ee490919063ffffffff16565b5061269981836003612efe9092919063ffffffff16565b50808273ffffffffffffffffffffffffffffffffffffffff168473ffffffffffffffffffffffffffffffffffffffff167fddf252ad1be2c89b69c2b068fc378daa952ba7f163c4a11628f55a4df523b3ef60405160405180910390a4505050565b612721816000808581526020019081526020016000206000016122a090919063ffffffff16565b156127895761272e6122ed565b73ffffffffffffffffffffffffffffffffffffffff168173ffffffffffffffffffffffffffffffffffffffff16837f2f8788117e7eff1d82e926ec794901d17c78024a50270940304540a733656f0d60405160405180910390a45b5050565b600061279c8360000183612f33565b60001c905092915050565b6127ce81600080858152602001908152602001600020600001612fb690919063ffffffff16565b15612836576127db6122ed565b73ffffffffffffffffffffffffffffffffffffffff168173ffffffffffffffffffffffffffffffffffffffff16837ff6391f5c32d9c69d2a47ea670b442974b53935d1edc7fd64eb21e047a839171b60405160405180910390a45b5050565b61284261181a565b6128b4576040517f08c379a00000000000000000000000000000000000000000000000000000000081526004018080602001828103825260148152602001807f5061757361626c653a206e6f742070617573656400000000000000000000000081525060200191505060405180910390fd5b6000600b60006101000a81548160ff0219169083151502179055507f5db9ee0a495bf2e6ff9c91a7834c1ba4fdd244a5e8aa4e537bd38aeae4b073aa6128f86122ed565b604051808273ffffffffffffffffffffffffffffffffffffffff16815260200191505060405180910390a1565b600061293082611831565b905061293e81600084612eba565b6129496000836122f5565b60006009600084815260200190815260200160002080546001816001161561010002031660029004905014612998576009600083815260200190815260200160002060006129979190613c54565b5b6129e982600260008473ffffffffffffffffffffffffffffffffffffffff1673ffffffffffffffffffffffffffffffffffffffff168152602001908152602001600020612eca90919063ffffffff16565b506129fe826003612fe690919063ffffffff16565b5081600073ffffffffffffffffffffffffffffffffffffffff168273ffffffffffffffffffffffffffffffffffffffff167fddf252ad1be2c89b69c2b068fc378daa952ba7f163c4a11628f55a4df523b3ef60405160405180910390a45050565b600080600080612a728660000186613000565b915091508160001c8160001c9350935050509250929050565b600081600001549050919050565b612ab3828260405180602001604052806000815250613099565b5050565b6001816000016000828254019250508190555050565b80600a9080519060200190612ae3929190613c9c565b5050565b6000612afa846000018460001b8461310a565b60001c90509392505050565b6000612b1482600001613200565b9050919050565b612b2361181a565b15612b96576040517f08c379a00000000000000000000000000000000000000000000000000000000081526004018080602001828103825260108152602001807f5061757361626c653a207061757365640000000000000000000000000000000081525060200191505060405180910390fd5b6001600b60006101000a81548160ff0219169083151502179055507f62e78cea01bee320cd4e420270b5ea74000d11b0c9f74754ebdbfc544b05a258612bda6122ed565b604051808273ffffffffffffffffffffffffffffffffffffffff16815260200191505060405180910390a1565b6000612c168360000183612f33565b60001c905092915050565b6000612c49836000018373ffffffffffffffffffffffffffffffffffffffff1660001b613211565b905092915050565b612c5c8484846124b7565b612c6884848484613234565b612cbd576040517f08c379a0000000000000000000000000000000000000000000000000000000008152600401808060200182810382526032815260200180614f066032913960400191505060405180910390fd5b50505050565b60606000821415612d0b576040518060400160405280600181526020017f30000000000000000000000000000000000000000000000000000000000000008152509050612e05565b600082905060005b60008214612d35578080600101915050600a8281612d2d57fe5b049150612d13565b60608167ffffffffffffffff81118015612d4e57600080fd5b506040519080825280601f01601f191660200182016040528015612d815781602001600182028036833780820191505090505b50905060006001830390508593505b60008414612dfd57600a8481612da257fe5b0660300160f81b82828060019003935081518110612dbc57fe5b60200101907effffffffffffffffffffffffffffffffffffffffffffffffffffffffffffff1916908160001a905350600a8481612df557fe5b049350612d90565b819450505050505b919050565b6000612e1882600001613200565b9050919050565b6000612e2b8383613211565b612e84578260000182908060018154018082558091505060019003906000526020600020016000909190919091505582600001805490508360010160008481526020019081526020016000208190555060019050612e89565b600090505b92915050565b6000612ea1836000018360001b61344d565b905092915050565b600081600001805490509050919050565b612ec5838383613470565b505050565b6000612edc836000018360001b6134de565b905092915050565b6000612ef6836000018360001b612e1f565b905092915050565b6000612f2a846000018460001b8473ffffffffffffffffffffffffffffffffffffffff1660001b6135c6565b90509392505050565b600081836000018054905011612f94576040517f08c379a0000000000000000000000000000000000000000000000000000000008152600401808060200182810382526022815260200180614e8a6022913960400191505060405180910390fd5b826000018281548110612fa357fe5b9060005260206000200154905092915050565b6000612fde836000018373ffffffffffffffffffffffffffffffffffffffff1660001b6134de565b905092915050565b6000612ff8836000018360001b6136a2565b905092915050565b60008082846000018054905011613062576040517f08c379a00000000000000000000000000000000000000000000000000000000081526004018080602001828103825260228152602001806150696022913960400191505060405180910390fd5b600084600001848154811061307357fe5b906000526020600020906002020190508060000154816001015492509250509250929050565b6130a383836137bb565b6130b06000848484613234565b613105576040517f08c379a0000000000000000000000000000000000000000000000000000000008152600401808060200182810382526032815260200180614f066032913960400191505060405180910390fd5b505050565b600080846001016000858152602001908152602001600020549050600081141583906131d1576040517f08c379a00000000000000000000000000000000000000000000000000000000081526004018080602001828103825283818151815260200191508051906020019080838360005b8381101561319657808201518184015260208101905061317b565b50505050905090810190601f1680156131c35780820380516001836020036101000a031916815260200191505b509250505060405180910390fd5b508460000160018203815481106131e457fe5b9060005260206000209060020201600101549150509392505050565b600081600001805490509050919050565b600080836001016000848152602001908152602001600020541415905092915050565b60006132558473ffffffffffffffffffffffffffffffffffffffff166139af565b6132625760019050613445565b60606133cc63150b7a0260e01b6132776122ed565b888787604051602401808573ffffffffffffffffffffffffffffffffffffffff1681526020018473ffffffffffffffffffffffffffffffffffffffff16815260200183815260200180602001828103825283818151815260200191508051906020019080838360005b838110156132fb5780820151818401526020810190506132e0565b50505050905090810190601f1680156133285780820380516001836020036101000a031916815260200191505b5095505050505050604051602081830303815290604052907bffffffffffffffffffffffffffffffffffffffffffffffffffffffff19166020820180517bffffffffffffffffffffffffffffffffffffffffffffffffffffffff8381831617835250505050604051806060016040528060328152602001614f06603291398773ffffffffffffffffffffffffffffffffffffffff166139c29092919063ffffffff16565b905060008180602001905160208110156133e557600080fd5b8101908080519060200190929190505050905063150b7a0260e01b7bffffffffffffffffffffffffffffffffffffffffffffffffffffffff1916817bffffffffffffffffffffffffffffffffffffffffffffffffffffffff191614925050505b949350505050565b600080836001016000848152602001908152602001600020541415905092915050565b61347b8383836139da565b61348361181a565b156134d9576040517f08c379a000000000000000000000000000000000000000000000000000000000815260040180806020018281038252602b815260200180614eac602b913960400191505060405180910390fd5b505050565b600080836001016000848152602001908152602001600020549050600081146135ba576000600182039050600060018660000180549050039050600086600001828154811061352957fe5b906000526020600020015490508087600001848154811061354657fe5b906000526020600020018190555060018301876001016000838152602001908152602001600020819055508660000180548061357e57fe5b600190038181906000526020600020016000905590558660010160008781526020019081526020016000206000905560019450505050506135c0565b60009150505b92915050565b600080846001016000858152602001908152602001600020549050600081141561366d5784600001604051806040016040528086815260200185815250908060018154018082558091505060019003906000526020600020906002020160009091909190915060008201518160000155602082015181600101555050846000018054905085600101600086815260200190815260200160002081905550600191505061369b565b8285600001600183038154811061368057fe5b90600052602060002090600202016001018190555060009150505b9392505050565b600080836001016000848152602001908152602001600020549050600081146137af57600060018203905060006001866000018054905003905060008660000182815481106136ed57fe5b906000526020600020906002020190508087600001848154811061370d57fe5b906000526020600020906002020160008201548160000155600182015481600101559050506001830187600101600083600001548152602001908152602001600020819055508660000180548061376057fe5b60019003818190600052602060002090600202016000808201600090556001820160009055505090558660010160008781526020019081526020016000206000905560019450505050506137b5565b60009150505b92915050565b600073ffffffffffffffffffffffffffffffffffffffff168273ffffffffffffffffffffffffffffffffffffffff16141561385e576040517f08c379a00000000000000000000000000000000000000000000000000000000081526004018080602001828103825260208152602001807f4552433732313a206d696e7420746f20746865207a65726f206164647265737381525060200191505060405180910390fd5b613867816122d0565b156138da576040517f08c379a000000000000000000000000000000000000000000000000000000000815260040180806020018281038252601c8152602001807f4552433732313a20746f6b656e20616c7265616479206d696e7465640000000081525060200191505060405180910390fd5b6138e660008383612eba565b61393781600260008573ffffffffffffffffffffffffffffffffffffffff1673ffffffffffffffffffffffffffffffffffffffff168152602001908152602001600020612ee490919063ffffffff16565b5061394e81836003612efe9092919063ffffffff16565b50808273ffffffffffffffffffffffffffffffffffffffff16600073ffffffffffffffffffffffffffffffffffffffff167fddf252ad1be2c89b69c2b068fc378daa952ba7f163c4a11628f55a4df523b3ef60405160405180910390a45050565b600080823b905060008111915050919050565b60606139d184846000856139df565b90509392505050565b505050565b606082471015613a3a576040517f08c379a0000000000000000000000000000000000000000000000000000000008152600401808060200182810382526026815260200180614f5c6026913960400191505060405180910390fd5b613a43856139af565b613ab5576040517f08c379a000000000000000000000000000000000000000000000000000000000815260040180806020018281038252601d8152602001807f416464726573733a2063616c6c20746f206e6f6e2d636f6e747261637400000081525060200191505060405180910390fd5b600060608673ffffffffffffffffffffffffffffffffffffffff1685876040518082805190602001908083835b60208310613b055780518252602082019150602081019050602083039250613ae2565b6001836020036101000a03801982511681845116808217855250505050505090500191505060006040518083038185875af1925050503d8060008114613b67576040519150601f19603f3d011682016040523d82523d6000602084013e613b6c565b606091505b5091509150613b7c828286613b88565b92505050949350505050565b60608315613b9857829050613c4d565b600083511115613bab5782518084602001fd5b816040517f08c379a00000000000000000000000000000000000000000000000000000000081526004018080602001828103825283818151815260200191508051906020019080838360005b83811015613c12578082015181840152602081019050613bf7565b50505050905090810190601f168015613c3f5780820380516001836020036101000a031916815260200191505b509250505060405180910390fd5b9392505050565b50805460018160011615610100020316600290046000825580601f10613c7a5750613c99565b601f016020900490600052602060002090810190613c989190613d2a565b5b50565b828054600181600116156101000203166002900490600052602060002090601f016020900481019282613cd25760008555613d19565b82601f10613ceb57805160ff1916838001178555613d19565b82800160010185558215613d19579182015b82811115613d18578251825591602001919060010190613cfd565b5b509050613d269190613d2a565b5090565b5b80821115613d43576000816000905550600101613d2b565b5090565b600081359050613d5681614daa565b92915050565b600081359050613d6b81614dc1565b92915050565b600081359050613d8081614dd8565b92915050565b600081359050613d9581614def565b92915050565b600081359050613daa81614e06565b92915050565b600082601f830112613dc157600080fd5b8135613dd4613dcf82614bba565b614b89565b91508082526020830160208301858383011115613df057600080fd5b613dfb838284614d41565b50505092915050565b600081359050613e1381614e1d565b92915050565b600082601f830112613e2a57600080fd5b8135613e3d613e3882614bea565b614b89565b91508082526020830160208301858383011115613e5957600080fd5b613e64838284614d41565b50505092915050565b60006101008284031215613e8057600080fd5b613e8b610100614b89565b90506000613e9b84828501613e04565b6000830152506020613eaf84828501613e04565b6020830152506040613ec384828501614118565b6040830152506060613ed784828501614118565b6060830152506080613eeb84828501614118565b60808301525060a0613eff84828501614118565b60a08301525060c0613f1384828501614118565b60c08301525060e0613f2784828501614118565b60e08301525092915050565b60006101408284031215613f4657600080fd5b613f51610140614b89565b90506000613f6184828501613d86565b6000830152506020613f7584828501613d71565b602083015250604082013567ffffffffffffffff811115613f9557600080fd5b613fa184828501613e19565b6040830152506060613fb584828501614103565b6060830152506080613fc9848285016140ee565b60808301525060a0613fdd848285016140ee565b60a08301525060c0613ff1848285016140ee565b60c08301525060e0614005848285016140d9565b60e08301525061010061401a848285016140d9565b6101008301525061012061403084828501614118565b6101208301525092915050565b600060c0828403121561404f57600080fd5b61405960c0614b89565b90506000614069848285016140ee565b600083015250602061407d848285016140ee565b6020830152506040614091848285016140ee565b60408301525060606140a5848285016140d9565b60608301525060806140b9848285016140d9565b60808301525060a06140cd84828501614118565b60a08301525092915050565b6000813590506140e881614e2d565b92915050565b6000813590506140fd81614e44565b92915050565b60008135905061411281614e5b565b92915050565b60008135905061412781614e72565b92915050565b60006020828403121561413f57600080fd5b600061414d84828501613d47565b91505092915050565b6000806040838503121561416957600080fd5b600061417785828601613d47565b925050602061418885828601613d47565b9150509250929050565b6000806000606084860312156141a757600080fd5b60006141b586828701613d47565b93505060206141c686828701613d47565b92505060406141d786828701614103565b9150509250925092565b600080600080608085870312156141f757600080fd5b600061420587828801613d47565b945050602061421687828801613d47565b935050604061422787828801614103565b925050606085013567ffffffffffffffff81111561424457600080fd5b61425087828801613db0565b91505092959194509250565b6000806040838503121561426f57600080fd5b600061427d85828601613d47565b925050602061428e85828601613d5c565b9150509250929050565b60008060008061020085870312156142af57600080fd5b60006142bd87828801613d47565b945050602085013567ffffffffffffffff8111156142da57600080fd5b6142e687828801613f33565b93505060406142f78782880161403d565b92505061010061430987828801613e6d565b91505092959194509250565b6000806040838503121561432857600080fd5b600061433685828601613d47565b925050602061434785828601614103565b9150509250929050565b60006020828403121561436357600080fd5b600061437184828501613d86565b91505092915050565b6000806040838503121561438d57600080fd5b600061439b85828601613d86565b92505060206143ac85828601613d47565b9150509250929050565b600080604083850312156143c957600080fd5b60006143d785828601613d86565b92505060206143e885828601614103565b9150509250929050565b60006020828403121561440457600080fd5b600061441284828501613d9b565b91505092915050565b60006020828403121561442d57600080fd5b600082013567ffffffffffffffff81111561444757600080fd5b61445384828501613e19565b91505092915050565b60006020828403121561446e57600080fd5b600061447c84828501614103565b91505092915050565b61448e81614c36565b82525050565b61449d81614c48565b82525050565b6144ac81614c54565b82525050565b6144bb81614c80565b82525050565b6144ca81614d1d565b82525050565b6144d981614d2f565b82525050565b60006144ea82614c1a565b6144f48185614c25565b9350614504818560208601614d50565b61450d81614d85565b840191505092915050565b6000614525603583614c25565b91507f457468657265616c4368617261637465723a20636861726163746572206e616d60008301527f652073686f756c64206e6f7420626520656d70747900000000000000000000006020830152604082019050919050565b600061458b603e83614c25565b91507f4552433732315072657365744d696e7465725061757365724175746f49643a2060008301527f6d75737420686176652070617573657220726f6c6520746f20706175736500006020830152604082019050919050565b60006145f1603583614c25565b91507f457468657265616c4368617261637465723a206d75737420686176652061646d60008301527f696e20726f6c6520746f207365744261736555524900000000000000000000006020830152604082019050919050565b6000614657603083614c25565b91507f457468657265616c4368617261637465723a206d7573742068617665206d696e60008301527f74657220726f6c6520746f206d696e74000000000000000000000000000000006020830152604082019050919050565b60006146bd604c83614c25565b91507f457468657265616c4368617261637465723a206e616d6520616c72656164792060008301527f74616b656e20627920616e6f746865722075736572203a292043686f6f73652060208301527f616e6f74686572206f6e652100000000000000000000000000000000000000006040830152606082019050919050565b6000614749600083614c25565b9150600082019050919050565b6000614763603083614c25565b91507f4552433732314275726e61626c653a2063616c6c6572206973206e6f74206f7760008301527f6e6572206e6f7220617070726f766564000000000000000000000000000000006020830152604082019050919050565b60006147c9604083614c25565b91507f4552433732315072657365744d696e7465725061757365724175746f49643a2060008301527f6d75737420686176652070617573657220726f6c6520746f20756e70617573656020830152604082019050919050565b61482b81614cc9565b82525050565b61483a81614cf7565b82525050565b61484981614d06565b82525050565b61485881614d10565b82525050565b60006020820190506148736000830184614485565b92915050565b600060208201905061488e6000830184614494565b92915050565b60006020820190506148a960008301846144b2565b92915050565b6000610140820190506148c5600083018d6144b2565b6148d2602083018c6144a3565b81810360408301526148e4818b6144df565b90506148f3606083018a614840565b6149006080830189614831565b61490d60a0830188614831565b61491a60c0830187614831565b61492760e0830186614822565b614935610100830185614822565b61494361012083018461484f565b9b9a5050505050505050505050565b600061010082019050614968600083018b6144c1565b614975602083018a6144c1565b614982604083018961484f565b61498f606083018861484f565b61499c608083018761484f565b6149a960a083018661484f565b6149b660c083018561484f565b6149c360e083018461484f565b9998505050505050505050565b60006020820190506149e560008301846144d0565b92915050565b60006020820190508181036000830152614a0581846144df565b905092915050565b60006020820190508181036000830152614a2681614518565b9050919050565b60006020820190508181036000830152614a468161457e565b9050919050565b60006020820190508181036000830152614a66816145e4565b9050919050565b60006020820190508181036000830152614a868161464a565b9050919050565b60006020820190508181036000830152614aa6816146b0565b9050919050565b60006020820190508181036000830152614ac68161473c565b9050919050565b60006020820190508181036000830152614ae681614756565b9050919050565b60006020820190508181036000830152614b06816147bc565b9050919050565b600060c082019050614b226000830189614831565b614b2f6020830188614831565b614b3c6040830187614831565b614b496060830186614822565b614b566080830185614822565b614b6360a083018461484f565b979650505050505050565b6000602082019050614b836000830184614840565b92915050565b6000604051905081810181811067ffffffffffffffff82111715614bb057614baf614d83565b5b8060405250919050565b600067ffffffffffffffff821115614bd557614bd4614d83565b5b601f19601f8301169050602081019050919050565b600067ffffffffffffffff821115614c0557614c04614d83565b5b601f19601f8301169050602081019050919050565b600081519050919050565b600082825260208201905092915050565b6000614c4182614cd7565b9050919050565b60008115159050919050565b60007fffffffffffffffffffffffffffffffffffffffffffffffff000000000000000082169050919050565b6000819050919050565b60007fffffffff0000000000000000000000000000000000000000000000000000000082169050919050565b6000819050614cc482614d96565b919050565b600061ffff82169050919050565b600073ffffffffffffffffffffffffffffffffffffffff82169050919050565b600062ffffff82169050919050565b6000819050919050565b600060ff82169050919050565b6000614d2882614cb6565b9050919050565b6000614d3a82614d10565b9050919050565b82818337600083830152505050565b60005b83811015614d6e578082015181840152602081019050614d53565b83811115614d7d576000848401525b50505050565bfe5b6000601f19601f8301169050919050565b600d8110614da757614da6614d83565b5b50565b614db381614c36565b8114614dbe57600080fd5b50565b614dca81614c48565b8114614dd557600080fd5b50565b614de181614c54565b8114614dec57600080fd5b50565b614df881614c80565b8114614e0357600080fd5b50565b614e0f81614c8a565b8114614e1a57600080fd5b50565b600d8110614e2a57600080fd5b50565b614e3681614cc9565b8114614e4157600080fd5b50565b614e4d81614cf7565b8114614e5857600080fd5b50565b614e6481614d06565b8114614e6f57600080fd5b50565b614e7b81614d10565b8114614e8657600080fd5b5056fe456e756d657261626c655365743a20696e646578206f7574206f6620626f756e64734552433732315061757361626c653a20746f6b656e207472616e73666572207768696c6520706175736564416363657373436f6e74726f6c3a2073656e646572206d75737420626520616e2061646d696e20746f206772616e744552433732313a207472616e7366657220746f206e6f6e20455243373231526563656976657220696d706c656d656e7465724552433732313a207472616e7366657220746f20746865207a65726f2061646472657373416464726573733a20696e73756666696369656e742062616c616e636520666f722063616c6c4552433732313a206f70657261746f7220717565727920666f72206e6f6e6578697374656e7420746f6b656e416363657373436f6e74726f6c3a2073656e646572206d75737420626520616e2061646d696e20746f207265766f6b654552433732313a20617070726f76652063616c6c6572206973206e6f74206f776e6572206e6f7220617070726f76656420666f7220616c6c4552433732313a2062616c616e636520717565727920666f7220746865207a65726f20616464726573734552433732313a206f776e657220717565727920666f72206e6f6e6578697374656e7420746f6b656e456e756d657261626c654d61703a20696e646578206f7574206f6620626f756e64734552433732313a20617070726f76656420717565727920666f72206e6f6e6578697374656e7420746f6b656e4552433732313a207472616e73666572206f6620746f6b656e2074686174206973206e6f74206f776e4552433732314d657461646174613a2055524920717565727920666f72206e6f6e6578697374656e7420746f6b656e4552433732313a20617070726f76616c20746f2063757272656e74206f776e65724552433732313a207472616e736665722063616c6c6572206973206e6f74206f776e6572206e6f7220617070726f766564416363657373436f6e74726f6c3a2063616e206f6e6c792072656e6f756e636520726f6c657320666f722073656c66a264697066735822122012082723f08125453973d1c58bc13e8eccd41d23e5ec7fcf5e56e87cd6ae55f564736f6c63430007050033",
  "immutableReferences": {},
  "source": "// SPDX-License-Identifier: MIT\r\npragma solidity 0.7.5;\r\npragma abicoder v2;\r\n\r\nimport \"@openzeppelin/contracts/access/AccessControl.sol\";\r\nimport \"@openzeppelin/contracts/utils/Context.sol\";\r\nimport \"@openzeppelin/contracts/utils/Counters.sol\";\r\nimport \"@openzeppelin/contracts/token/ERC721/ERC721.sol\";\r\nimport \"@openzeppelin/contracts/token/ERC721/ERC721Burnable.sol\";\r\nimport \"@openzeppelin/contracts/token/ERC721/ERC721Pausable.sol\";\r\n\r\n/**\r\n * @dev {ERC721} token, including:\r\n *\r\n *  - ability for holders to burn (destroy) their tokens\r\n *  - a minter role that allows for token minting (creation)\r\n *  - a pauser role that allows to stop all token transfers\r\n *  - token ID and URI autogeneration\r\n *  - includes extra properties to store important metadata\r\n *\r\n * This contract uses {AccessControl} to lock permissioned functions using the\r\n * different roles - head to its documentation for details.\r\n *\r\n * The account that deploys the contract will be granted the minter and pauser\r\n * roles, as well as the default admin role, which will let it grant both minter\r\n * and pauser roles to other accounts.\r\n */\r\ncontract EtherealCharacter is Context, AccessControl, ERC721Burnable, ERC721Pausable {\r\n    using Counters for Counters.Counter;\r\n\r\n    bytes32 public constant MINTER_ROLE = keccak256(\"MINTER_ROLE\");\r\n    bytes32 public constant PAUSER_ROLE = keccak256(\"PAUSER_ROLE\");\r\n\r\n    Counters.Counter private _tokenIdTracker;\r\n\r\n    enum ElementOfNature {\r\n      // Elements of nature\r\n      Air, Water, Earth, Fire,\r\n      // Spiritual elements\r\n      Aether,\r\n      // Machine elements\r\n      ElectroMetal,\r\n      // Special elements\r\n      Ice,\r\n      Thunder, \r\n      Psychic,\r\n      Ghost,\r\n      DinoPower,\r\n      Poison,\r\n      // Ultra elements\r\n      DivinaMagicae\r\n    }\r\n\r\n    /**\r\n    * @dev Character extra metadata\r\n    */\r\n    \r\n    struct CharacterBaseMetadata {\r\n      bytes32 name;\r\n      bytes24 birthdate;\r\n      string description;\r\n      uint256 planetId;\r\n      uint24 skintone;\r\n      uint24 haircolor;\r\n      uint24 eyescolor;\r\n      uint16 weight;\r\n      uint16 height;\r\n      uint8 genre;\r\n    }\r\n\r\n    struct CharacterPhysicalMetadata {\r\n      uint24 skintone;\r\n      uint24 haircolor;\r\n      uint24 eyescolor;\r\n      uint16 weight;\r\n      uint16 height;\r\n      uint8 genre;\r\n    }\r\n\r\n    struct CharacterAbilitiesMetadata {\r\n      ElementOfNature primaryElement;\r\n      ElementOfNature secondaryElement;\r\n      uint8 speed;\r\n      uint8 stamina;\r\n      uint8 life;\r\n      uint8 strength;\r\n      uint8 luck;\r\n      uint8 spirit;\r\n    }\r\n\r\n   \r\n    /**\r\n    * @dev Character extra metadata tables\r\n    */\r\n    mapping(uint256 => CharacterBaseMetadata) public characterBaseMetadata;\r\n    mapping(uint256 => CharacterPhysicalMetadata) public characterPhysicalMetadata;\r\n    mapping(uint256 => CharacterAbilitiesMetadata) public characterAbilitiesMetadata;\r\n    mapping(bytes32 => bool) public characterNameExists;\r\n    \r\n    /**\r\n     * @dev Emitted when `tokenId` token is transferred from `from` to `to`.\r\n     */\r\n    event NewBaseURI(string _baseURI);\r\n\r\n    /**\r\n     * @dev Grants `DEFAULT_ADMIN_ROLE`, `MINTER_ROLE` and `PAUSER_ROLE` to the\r\n     * account that deploys the contract.\r\n     *\r\n     * Token URIs will be autogenerated based on `baseURI` and their token IDs.\r\n     * See {ERC721-tokenURI}.\r\n     */\r\n    constructor(string memory name, string memory symbol, string memory baseURI) ERC721(name, symbol) {\r\n        _setupRole(DEFAULT_ADMIN_ROLE, _msgSender());\r\n\r\n        _setupRole(MINTER_ROLE, _msgSender());\r\n        _setupRole(PAUSER_ROLE, _msgSender());\r\n\r\n        _setBaseURI(baseURI);\r\n    }\r\n\r\n    \r\n    /**\r\n     * @dev External function to set the base URI for all token IDs. \r\n     */\r\n    function setBaseURI(string memory _baseURI) external {\r\n      require(\r\n        hasRole(DEFAULT_ADMIN_ROLE, _msgSender()),\r\n        \"EtherealCharacter: must have admin role to setBaseURI\"\r\n      );\r\n      _setBaseURI(_baseURI);\r\n      emit NewBaseURI(_baseURI);\r\n    }\r\n\r\n    /**\r\n     * @dev Creates a new token for `to`. Its token ID will be automatically\r\n     * assigned (and available on the emitted {IERC721-Transfer} event), and the token\r\n     * URI autogenerated based on the base URI passed at construction.\r\n     *\r\n     * See {ERC721-_mint}.\r\n     *\r\n     * Requirements:\r\n     *\r\n     * - the caller must have the `MINTER_ROLE`.\r\n     */\r\n    function mint(\r\n      address to,\r\n      CharacterBaseMetadata memory extraBaseMetaData,\r\n      CharacterPhysicalMetadata memory extraPhysicalMetaData,\r\n      CharacterAbilitiesMetadata memory extraAbilitiesMetaData\r\n    )\r\n        public\r\n        returns (uint256)\r\n    {\r\n        require(hasRole(MINTER_ROLE, _msgSender()), \"EtherealCharacter: must have minter role to mint\");\r\n        require(\r\n          keccak256(abi.encode(extraBaseMetaData.name)) != keccak256(abi.encode(\"\")) &&\r\n          keccak256(abi.encode(extraBaseMetaData.name)) != keccak256(abi.encode(0x00)),\r\n          \"EtherealCharacter: character name should not be empty\"\r\n        );\r\n        require(\r\n          !characterNameExists[extraBaseMetaData.name],\r\n          \"EtherealCharacter: name already taken by another user :) Choose another one!\"\r\n        );\r\n\r\n        // We cannot just use balanceOf to create the new tokenId because tokens\r\n        // can be burned (destroyed), so we need a separate counter.\r\n        uint256 currentTokenId = _tokenIdTracker.current();\r\n        _safeMint(to, currentTokenId);\r\n        _tokenIdTracker.increment();\r\n        characterBaseMetadata[currentTokenId] = extraBaseMetaData;\r\n        characterPhysicalMetadata[currentTokenId] = extraPhysicalMetaData;\r\n        characterAbilitiesMetadata[currentTokenId] = extraAbilitiesMetaData;\r\n        return currentTokenId;\r\n    }\r\n\r\n    /**\r\n     * @dev Burns `tokenId`. See {ERC721-_burn}.\r\n     *\r\n     * Requirements:\r\n     *\r\n     * - The caller must own `tokenId` or be an approved operator.\r\n     */\r\n    function burn(uint256 tokenId) public override {\r\n        //solhint-disable-next-line max-line-length\r\n        require(_isApprovedOrOwner(_msgSender(), tokenId), \"ERC721Burnable: caller is not owner nor approved\");\r\n        _burn(tokenId);\r\n        bytes32 tmpChrName = characterBaseMetadata[tokenId].name;\r\n        delete characterNameExists[tmpChrName];\r\n        delete characterBaseMetadata[tokenId];\r\n        delete characterAbilitiesMetadata[tokenId];\r\n        delete characterPhysicalMetadata[tokenId];\r\n    }\r\n\r\n    /**\r\n     * @dev Pauses all token transfers.\r\n     *\r\n     * See {ERC721Pausable} and {Pausable-_pause}.\r\n     *\r\n     * Requirements:\r\n     *\r\n     * - the caller must have the `PAUSER_ROLE`.\r\n     */\r\n    function pause() public virtual {\r\n        require(hasRole(PAUSER_ROLE, _msgSender()), \"ERC721PresetMinterPauserAutoId: must have pauser role to pause\");\r\n        _pause();\r\n    }\r\n\r\n    /**\r\n     * @dev Unpauses all token transfers.\r\n     *\r\n     * See {ERC721Pausable} and {Pausable-_unpause}.\r\n     *\r\n     * Requirements:\r\n     *\r\n     * - the caller must have the `PAUSER_ROLE`.\r\n     */\r\n    function unpause() public virtual {\r\n        require(hasRole(PAUSER_ROLE, _msgSender()), \"ERC721PresetMinterPauserAutoId: must have pauser role to unpause\");\r\n        _unpause();\r\n    }\r\n\r\n    function _beforeTokenTransfer(address from, address to, uint256 tokenId) internal virtual override(ERC721, ERC721Pausable) {\r\n        super._beforeTokenTransfer(from, to, tokenId);\r\n    }\r\n}",
  "sourcePath": "c:/xampp/htdocs/ethereal-bnb/truffle-files/contracts/EtherealCharacter.sol",
  "compiler": {
    "name": "solc",
    "version": "0.7.5+commit.eb77ed08.Emscripten.clang"
  },
  "schemaVersion": "3.3.3",
  "updatedAt": "2021-02-14T07:25:08.543Z",
  "devdoc": {
    "details": "{ERC721} token, including:  - ability for holders to burn (destroy) their tokens  - a minter role that allows for token minting (creation)  - a pauser role that allows to stop all token transfers  - token ID and URI autogeneration  - includes extra properties to store important metadata This contract uses {AccessControl} to lock permissioned functions using the different roles - head to its documentation for details. The account that deploys the contract will be granted the minter and pauser roles, as well as the default admin role, which will let it grant both minter and pauser roles to other accounts.",
    "events": {
      "NewBaseURI(string)": {
        "details": "Emitted when `tokenId` token is transferred from `from` to `to`."
      }
    },
    "kind": "dev",
    "methods": {
      "approve(address,uint256)": {
        "details": "See {IERC721-approve}."
      },
      "balanceOf(address)": {
        "details": "See {IERC721-balanceOf}."
      },
      "baseURI()": {
        "details": "Returns the base URI set via {_setBaseURI}. This will be automatically added as a prefix in {tokenURI} to each token's URI, or to the token ID if no specific URI is set for that token ID."
      },
      "burn(uint256)": {
        "details": "Burns `tokenId`. See {ERC721-_burn}. Requirements: - The caller must own `tokenId` or be an approved operator."
      },
      "constructor": {
        "details": "Grants `DEFAULT_ADMIN_ROLE`, `MINTER_ROLE` and `PAUSER_ROLE` to the account that deploys the contract. Token URIs will be autogenerated based on `baseURI` and their token IDs. See {ERC721-tokenURI}."
      },
      "getApproved(uint256)": {
        "details": "See {IERC721-getApproved}."
      },
      "getRoleAdmin(bytes32)": {
        "details": "Returns the admin role that controls `role`. See {grantRole} and {revokeRole}. To change a role's admin, use {_setRoleAdmin}."
      },
      "getRoleMember(bytes32,uint256)": {
        "details": "Returns one of the accounts that have `role`. `index` must be a value between 0 and {getRoleMemberCount}, non-inclusive. Role bearers are not sorted in any particular way, and their ordering may change at any point. WARNING: When using {getRoleMember} and {getRoleMemberCount}, make sure you perform all queries on the same block. See the following https://forum.openzeppelin.com/t/iterating-over-elements-on-enumerableset-in-openzeppelin-contracts/2296[forum post] for more information."
      },
      "getRoleMemberCount(bytes32)": {
        "details": "Returns the number of accounts that have `role`. Can be used together with {getRoleMember} to enumerate all bearers of a role."
      },
      "grantRole(bytes32,address)": {
        "details": "Grants `role` to `account`. If `account` had not been already granted `role`, emits a {RoleGranted} event. Requirements: - the caller must have ``role``'s admin role."
      },
      "hasRole(bytes32,address)": {
        "details": "Returns `true` if `account` has been granted `role`."
      },
      "isApprovedForAll(address,address)": {
        "details": "See {IERC721-isApprovedForAll}."
      },
      "mint(address,(bytes32,bytes24,string,uint256,uint24,uint24,uint24,uint16,uint16,uint8),(uint24,uint24,uint24,uint16,uint16,uint8),(uint8,uint8,uint8,uint8,uint8,uint8,uint8,uint8))": {
        "details": "Creates a new token for `to`. Its token ID will be automatically assigned (and available on the emitted {IERC721-Transfer} event), and the token URI autogenerated based on the base URI passed at construction. See {ERC721-_mint}. Requirements: - the caller must have the `MINTER_ROLE`."
      },
      "name()": {
        "details": "See {IERC721Metadata-name}."
      },
      "ownerOf(uint256)": {
        "details": "See {IERC721-ownerOf}."
      },
      "pause()": {
        "details": "Pauses all token transfers. See {ERC721Pausable} and {Pausable-_pause}. Requirements: - the caller must have the `PAUSER_ROLE`."
      },
      "paused()": {
        "details": "Returns true if the contract is paused, and false otherwise."
      },
      "renounceRole(bytes32,address)": {
        "details": "Revokes `role` from the calling account. Roles are often managed via {grantRole} and {revokeRole}: this function's purpose is to provide a mechanism for accounts to lose their privileges if they are compromised (such as when a trusted device is misplaced). If the calling account had been granted `role`, emits a {RoleRevoked} event. Requirements: - the caller must be `account`."
      },
      "revokeRole(bytes32,address)": {
        "details": "Revokes `role` from `account`. If `account` had been granted `role`, emits a {RoleRevoked} event. Requirements: - the caller must have ``role``'s admin role."
      },
      "safeTransferFrom(address,address,uint256)": {
        "details": "See {IERC721-safeTransferFrom}."
      },
      "safeTransferFrom(address,address,uint256,bytes)": {
        "details": "See {IERC721-safeTransferFrom}."
      },
      "setApprovalForAll(address,bool)": {
        "details": "See {IERC721-setApprovalForAll}."
      },
      "setBaseURI(string)": {
        "details": "External function to set the base URI for all token IDs. "
      },
      "supportsInterface(bytes4)": {
        "details": "See {IERC165-supportsInterface}. Time complexity O(1), guaranteed to always use less than 30 000 gas."
      },
      "symbol()": {
        "details": "See {IERC721Metadata-symbol}."
      },
      "tokenByIndex(uint256)": {
        "details": "See {IERC721Enumerable-tokenByIndex}."
      },
      "tokenOfOwnerByIndex(address,uint256)": {
        "details": "See {IERC721Enumerable-tokenOfOwnerByIndex}."
      },
      "tokenURI(uint256)": {
        "details": "See {IERC721Metadata-tokenURI}."
      },
      "totalSupply()": {
        "details": "See {IERC721Enumerable-totalSupply}."
      },
      "transferFrom(address,address,uint256)": {
        "details": "See {IERC721-transferFrom}."
      },
      "unpause()": {
        "details": "Unpauses all token transfers. See {ERC721Pausable} and {Pausable-_unpause}. Requirements: - the caller must have the `PAUSER_ROLE`."
      }
    },
    "stateVariables": {
      "characterBaseMetadata": {
        "details": "Character extra metadata tables"
      }
    },
    "version": 1
  },
  "userdoc": {
    "kind": "user",
    "methods": {},
    "version": 1
  }
}