{
  "contractName": "EtherealPlanet",
  "abi": [
    {
      "inputs": [],
      "stateMutability": "nonpayable",
      "type": "constructor"
    },
    {
      "anonymous": false,
      "inputs": [
        {
          "indexed": false,
          "internalType": "bool",
          "name": "newStatus",
          "type": "bool"
        }
      ],
      "name": "ContractStatusUpdated",
      "type": "event"
    },
    {
      "anonymous": false,
      "inputs": [
        {
          "indexed": false,
          "internalType": "uint256",
          "name": "planetId",
          "type": "uint256"
        },
        {
          "indexed": false,
          "internalType": "bytes32",
          "name": "name",
          "type": "bytes32"
        }
      ],
      "name": "NewPlanetCreated",
      "type": "event"
    },
    {
      "anonymous": false,
      "inputs": [
        {
          "indexed": false,
          "internalType": "uint256",
          "name": "planetId",
          "type": "uint256"
        },
        {
          "indexed": false,
          "internalType": "bool",
          "name": "newStatus",
          "type": "bool"
        }
      ],
      "name": "PlanetStatusUpdated",
      "type": "event"
    },
    {
      "anonymous": false,
      "inputs": [
        {
          "indexed": true,
          "internalType": "bytes32",
          "name": "role",
          "type": "bytes32"
        },
        {
          "indexed": true,
          "internalType": "bytes32",
          "name": "previousAdminRole",
          "type": "bytes32"
        },
        {
          "indexed": true,
          "internalType": "bytes32",
          "name": "newAdminRole",
          "type": "bytes32"
        }
      ],
      "name": "RoleAdminChanged",
      "type": "event"
    },
    {
      "anonymous": false,
      "inputs": [
        {
          "indexed": true,
          "internalType": "bytes32",
          "name": "role",
          "type": "bytes32"
        },
        {
          "indexed": true,
          "internalType": "address",
          "name": "account",
          "type": "address"
        },
        {
          "indexed": true,
          "internalType": "address",
          "name": "sender",
          "type": "address"
        }
      ],
      "name": "RoleGranted",
      "type": "event"
    },
    {
      "anonymous": false,
      "inputs": [
        {
          "indexed": true,
          "internalType": "bytes32",
          "name": "role",
          "type": "bytes32"
        },
        {
          "indexed": true,
          "internalType": "address",
          "name": "account",
          "type": "address"
        },
        {
          "indexed": true,
          "internalType": "address",
          "name": "sender",
          "type": "address"
        }
      ],
      "name": "RoleRevoked",
      "type": "event"
    },
    {
      "inputs": [],
      "name": "DEFAULT_ADMIN_ROLE",
      "outputs": [
        {
          "internalType": "bytes32",
          "name": "",
          "type": "bytes32"
        }
      ],
      "stateMutability": "view",
      "type": "function"
    },
    {
      "inputs": [],
      "name": "active",
      "outputs": [
        {
          "internalType": "bool",
          "name": "",
          "type": "bool"
        }
      ],
      "stateMutability": "view",
      "type": "function"
    },
    {
      "inputs": [
        {
          "internalType": "bytes32",
          "name": "role",
          "type": "bytes32"
        }
      ],
      "name": "getRoleAdmin",
      "outputs": [
        {
          "internalType": "bytes32",
          "name": "",
          "type": "bytes32"
        }
      ],
      "stateMutability": "view",
      "type": "function"
    },
    {
      "inputs": [
        {
          "internalType": "bytes32",
          "name": "role",
          "type": "bytes32"
        },
        {
          "internalType": "uint256",
          "name": "index",
          "type": "uint256"
        }
      ],
      "name": "getRoleMember",
      "outputs": [
        {
          "internalType": "address",
          "name": "",
          "type": "address"
        }
      ],
      "stateMutability": "view",
      "type": "function"
    },
    {
      "inputs": [
        {
          "internalType": "bytes32",
          "name": "role",
          "type": "bytes32"
        }
      ],
      "name": "getRoleMemberCount",
      "outputs": [
        {
          "internalType": "uint256",
          "name": "",
          "type": "uint256"
        }
      ],
      "stateMutability": "view",
      "type": "function"
    },
    {
      "inputs": [
        {
          "internalType": "bytes32",
          "name": "role",
          "type": "bytes32"
        },
        {
          "internalType": "address",
          "name": "account",
          "type": "address"
        }
      ],
      "name": "grantRole",
      "outputs": [],
      "stateMutability": "nonpayable",
      "type": "function"
    },
    {
      "inputs": [
        {
          "internalType": "bytes32",
          "name": "role",
          "type": "bytes32"
        },
        {
          "internalType": "address",
          "name": "account",
          "type": "address"
        }
      ],
      "name": "hasRole",
      "outputs": [
        {
          "internalType": "bool",
          "name": "",
          "type": "bool"
        }
      ],
      "stateMutability": "view",
      "type": "function"
    },
    {
      "inputs": [
        {
          "internalType": "bytes32",
          "name": "",
          "type": "bytes32"
        }
      ],
      "name": "planetNameExists",
      "outputs": [
        {
          "internalType": "bool",
          "name": "",
          "type": "bool"
        }
      ],
      "stateMutability": "view",
      "type": "function"
    },
    {
      "inputs": [
        {
          "internalType": "uint256",
          "name": "",
          "type": "uint256"
        }
      ],
      "name": "planets",
      "outputs": [
        {
          "internalType": "bytes32",
          "name": "name",
          "type": "bytes32"
        },
        {
          "internalType": "string",
          "name": "description",
          "type": "string"
        },
        {
          "internalType": "uint256",
          "name": "population",
          "type": "uint256"
        },
        {
          "internalType": "bool",
          "name": "active",
          "type": "bool"
        }
      ],
      "stateMutability": "view",
      "type": "function"
    },
    {
      "inputs": [
        {
          "internalType": "bytes32",
          "name": "role",
          "type": "bytes32"
        },
        {
          "internalType": "address",
          "name": "account",
          "type": "address"
        }
      ],
      "name": "renounceRole",
      "outputs": [],
      "stateMutability": "nonpayable",
      "type": "function"
    },
    {
      "inputs": [
        {
          "internalType": "bytes32",
          "name": "role",
          "type": "bytes32"
        },
        {
          "internalType": "address",
          "name": "account",
          "type": "address"
        }
      ],
      "name": "revokeRole",
      "outputs": [],
      "stateMutability": "nonpayable",
      "type": "function"
    },
    {
      "inputs": [],
      "name": "totalInactivePlanets",
      "outputs": [
        {
          "internalType": "uint256",
          "name": "",
          "type": "uint256"
        }
      ],
      "stateMutability": "view",
      "type": "function"
    },
    {
      "inputs": [],
      "name": "totalNumPlanets",
      "outputs": [
        {
          "internalType": "uint256",
          "name": "",
          "type": "uint256"
        }
      ],
      "stateMutability": "view",
      "type": "function"
    },
    {
      "inputs": [
        {
          "internalType": "bytes32",
          "name": "_name",
          "type": "bytes32"
        },
        {
          "internalType": "string",
          "name": "_description",
          "type": "string"
        }
      ],
      "name": "createPlanet",
      "outputs": [
        {
          "internalType": "uint256",
          "name": "id",
          "type": "uint256"
        }
      ],
      "stateMutability": "nonpayable",
      "type": "function"
    },
    {
      "inputs": [
        {
          "internalType": "uint256",
          "name": "_planetId",
          "type": "uint256"
        },
        {
          "internalType": "bool",
          "name": "_active",
          "type": "bool"
        }
      ],
      "name": "activateDeactivatePlanet",
      "outputs": [],
      "stateMutability": "nonpayable",
      "type": "function"
    },
    {
      "inputs": [
        {
          "internalType": "bool",
          "name": "_active",
          "type": "bool"
        }
      ],
      "name": "activateDeactivateContract",
      "outputs": [],
      "stateMutability": "nonpayable",
      "type": "function"
    },
    {
      "inputs": [],
      "name": "getNumActivePlanets",
      "outputs": [
        {
          "internalType": "uint256",
          "name": "",
          "type": "uint256"
        }
      ],
      "stateMutability": "view",
      "type": "function"
    },
    {
      "inputs": [],
      "name": "getPlanets",
      "outputs": [
        {
          "internalType": "uint256[]",
          "name": "",
          "type": "uint256[]"
        }
      ],
      "stateMutability": "view",
      "type": "function"
    },
    {
      "inputs": [],
      "name": "getInactivePlanets",
      "outputs": [
        {
          "internalType": "uint256[]",
          "name": "",
          "type": "uint256[]"
        }
      ],
      "stateMutability": "view",
      "type": "function"
    }
  ],
  "bytecode": "0x60806040523480156200001157600080fd5b50620000276000801b336200002d60201b60201c565b620001c3565b6200003f82826200004360201b60201c565b5050565b6200007181600080858152602001908152602001600020600001620000e660201b620015591790919060201c565b15620000e257620000876200011e60201b60201c565b73ffffffffffffffffffffffffffffffffffffffff168173ffffffffffffffffffffffffffffffffffffffff16837f2f8788117e7eff1d82e926ec794901d17c78024a50270940304540a733656f0d60405160405180910390a45b5050565b600062000116836000018373ffffffffffffffffffffffffffffffffffffffff1660001b6200012660201b60201c565b905092915050565b600033905090565b60006200013a8383620001a060201b60201c565b620001955782600001829080600181540180825580915050600190039060005260206000200160009091909190915055826000018054905083600101600084815260200190815260200160002081905550600190506200019a565b600090505b92915050565b600080836001016000848152602001908152602001600020541415905092915050565b611c7180620001d36000396000f3fe608060405234801561001057600080fd5b50600436106101205760003560e01c806364f54717116100ad578063ca15c87311610071578063ca15c8731461050e578063d547741f14610550578063d64a626e1461059e578063e581e0b6146105bc578063f32bb4231461069557610120565b806364f54717146103ee5780639010d07c1461040c57806391d148541461046e578063a217fddf146104d2578063b0fc900b146104f057610120565b806326c1e750116100f457806326c1e750146101f1578063292438c7146102af5780632f2ff15d146102f357806336568abe1461034157806340d893091461038f57610120565b8062912bd01461012557806302fb0c5e1461015f57806321bbf14c1461017f578063248a9ca3146101af575b600080fd5b61015d6004803603604081101561013b57600080fd5b81019080803590602001909291908035151590602001909291905050506106f4565b005b61016761093f565b60405180821515815260200191505060405180910390f35b6101ad6004803603602081101561019557600080fd5b81019080803515159060200190929190505050610952565b005b6101db600480360360208110156101c557600080fd5b8101908080359060200190929190505050610a11565b6040518082815260200191505060405180910390f35b61021d6004803603602081101561020757600080fd5b8101908080359060200190929190505050610a30565b60405180858152602001806020018481526020018315158152602001828103825285818151815260200191508051906020019080838360005b83811015610271578082015181840152602081019050610256565b50505050905090810190601f16801561029e5780820380516001836020036101000a031916815260200191505b509550505050505060405180910390f35b6102db600480360360208110156102c557600080fd5b8101908080359060200190929190505050610b05565b60405180821515815260200191505060405180910390f35b61033f6004803603604081101561030957600080fd5b8101908080359060200190929190803573ffffffffffffffffffffffffffffffffffffffff169060200190929190505050610b25565b005b61038d6004803603604081101561035757600080fd5b8101908080359060200190929190803573ffffffffffffffffffffffffffffffffffffffff169060200190929190505050610bae565b005b610397610c47565b6040518080602001828103825283818151815260200191508051906020019060200280838360005b838110156103da5780820151818401526020810190506103bf565b505050509050019250505060405180910390f35b6103f6610dc3565b6040518082815260200191505060405180910390f35b6104426004803603604081101561042257600080fd5b810190808035906020019092919080359060200190929190505050610dc9565b604051808273ffffffffffffffffffffffffffffffffffffffff16815260200191505060405180910390f35b6104ba6004803603604081101561048457600080fd5b8101908080359060200190929190803573ffffffffffffffffffffffffffffffffffffffff169060200190929190505050610dfa565b60405180821515815260200191505060405180910390f35b6104da610e2b565b6040518082815260200191505060405180910390f35b6104f8610e32565b6040518082815260200191505060405180910390f35b61053a6004803603602081101561052457600080fd5b8101908080359060200190929190505050610e38565b6040518082815260200191505060405180910390f35b61059c6004803603604081101561056657600080fd5b8101908080359060200190929190803573ffffffffffffffffffffffffffffffffffffffff169060200190929190505050610e5e565b005b6105a6610ee7565b6040518082815260200191505060405180910390f35b61067f600480360360408110156105d257600080fd5b8101908080359060200190929190803590602001906401000000008111156105f957600080fd5b82018360208201111561060b57600080fd5b8035906020019184600183028401116401000000008311171561062d57600080fd5b91908080601f016020809104026020016040519081016040528093929190818152602001838380828437600081840152601f19601f820116905080830192505050505050509192919290505050610f8d565b6040518082815260200191505060405180910390f35b61069d61135d565b6040518080602001828103825283818151815260200191508051906020019060200280838360005b838110156106e05780820151818401526020810190506106c5565b505050509050019250505060405180910390f35b600560009054906101000a900460ff16610776576040517f08c379a00000000000000000000000000000000000000000000000000000000081526004018080602001828103825260148152602001807f436f6e747261637420697320696e61637469766500000000000000000000000081525060200191505060405180910390fd5b61078a6000801b610785611589565b610dfa565b6107df576040517f08c379a000000000000000000000000000000000000000000000000000000000815260040180806020018281038252602e815260200180611bdf602e913960400191505060405180910390fd5b600260006001600085815260200190815260200160002060000154815260200190815260200160002060009054906101000a900460ff16610888576040517f08c379a00000000000000000000000000000000000000000000000000000000081526004018080602001828103825260148152602001807f506c616e657420646f65736e277420657869737400000000000000000000000081525060200191505060405180910390fd5b806001600084815260200190815260200160002060030160006101000a81548160ff02191690831515021790555080156108dd576108d2600160045461159190919063ffffffff16565b6004819055506108fa565b6108f3600160045461161490919063ffffffff16565b6004819055505b7f7d364863130b2db985ca067bf7ffe3eae1d3e9d99f41b292e0965ea5c3ca8d0182826040518083815260200182151581526020019250505060405180910390a15050565b600560009054906101000a900460ff1681565b6109666000801b610961611589565b610dfa565b6109bb576040517f08c379a0000000000000000000000000000000000000000000000000000000008152600401808060200182810382526030815260200180611b7f6030913960400191505060405180910390fd5b80600560006101000a81548160ff0219169083151502179055507f89cb8aeac390e3fc9016dc87a4ed02fbbb63c5adafcbb03db9b6227a14fe589d8160405180821515815260200191505060405180910390a150565b6000806000838152602001908152602001600020600201549050919050565b6001602052806000526040600020600091509050806000015490806001018054600181600116156101000203166002900480601f016020809104026020016040519081016040528092919081815260200182805460018160011615610100020316600290048015610ae25780601f10610ab757610100808354040283529160200191610ae2565b820191906000526020600020905b815481529060010190602001808311610ac557829003601f168201915b5050505050908060020154908060030160009054906101000a900460ff16905084565b60026020528060005260406000206000915054906101000a900460ff1681565b610b4b60008084815260200190815260200160002060020154610b46611589565b610dfa565b610ba0576040517f08c379a000000000000000000000000000000000000000000000000000000000815260040180806020018281038252602f815260200180611b2e602f913960400191505060405180910390fd5b610baa828261169c565b5050565b610bb6611589565b73ffffffffffffffffffffffffffffffffffffffff168173ffffffffffffffffffffffffffffffffffffffff1614610c39576040517f08c379a000000000000000000000000000000000000000000000000000000000815260040180806020018281038252602f815260200180611c0d602f913960400191505060405180910390fd5b610c43828261172f565b5050565b6060600560009054906101000a900460ff16610ccb576040517f08c379a00000000000000000000000000000000000000000000000000000000081526004018080602001828103825260148152602001807f436f6e747261637420697320696e61637469766500000000000000000000000081525060200191505060405180910390fd5b606060045467ffffffffffffffff81118015610ce657600080fd5b50604051908082528060200260200182016040528015610d155781602001602082028036833780820191505090505b5090506000805b600354811015610dba576001600082815260200190815260200160002060030160009054906101000a900460ff168015610d57575060045482105b15610d905780838381518110610d6957fe5b602002602001018181525050610d8960018361161490919063ffffffff16565b9150610d9f565b6004548210610d9e57610dba565b5b610db360018261161490919063ffffffff16565b9050610d1c565b50819250505090565b60045481565b6000610df2826000808681526020019081526020016000206000016117c290919063ffffffff16565b905092915050565b6000610e23826000808681526020019081526020016000206000016117dc90919063ffffffff16565b905092915050565b6000801b81565b60035481565b6000610e5760008084815260200190815260200160002060000161180c565b9050919050565b610e8460008084815260200190815260200160002060020154610e7f611589565b610dfa565b610ed9576040517f08c379a0000000000000000000000000000000000000000000000000000000008152600401808060200182810382526030815260200180611baf6030913960400191505060405180910390fd5b610ee3828261172f565b5050565b6000600560009054906101000a900460ff16610f6b576040517f08c379a00000000000000000000000000000000000000000000000000000000081526004018080602001828103825260148152602001807f436f6e747261637420697320696e61637469766500000000000000000000000081525060200191505060405180910390fd5b6000610f8460045460035461159190919063ffffffff16565b90508091505090565b6000600560009054906101000a900460ff16611011576040517f08c379a00000000000000000000000000000000000000000000000000000000081526004018080602001828103825260148152602001807f436f6e747261637420697320696e61637469766500000000000000000000000081525060200191505060405180910390fd5b82604051602001808060200182810382526000815260200160200191505060405160208183030381529060405280519060200120816040516020018082815260200191505060405160208183030381529060405280519060200120141580156110c757506000604051602001808281526020019150506040516020818303038152906040528051906020012081604051602001808281526020019150506040516020818303038152906040528051906020012014155b611139576040517f08c379a00000000000000000000000000000000000000000000000000000000081526004018080602001828103825260188152602001807f456d70747920737472696e67206e6f7420616c6c6f776564000000000000000081525060200191505060405180910390fd5b836002600082815260200190815260200160002060009054906101000a900460ff16156111ce576040517f08c379a000000000000000000000000000000000000000000000000000000000815260040180806020018281038252601a8152602001807f506c616e6574206e616d6520616c72656164792065786973747300000000000081525060200191505060405180910390fd5b6111e26000801b6111dd611589565b610dfa565b611237576040517f08c379a0000000000000000000000000000000000000000000000000000000008152600401808060200182810382526022815260200180611b5d6022913960400191505060405180910390fd5b61124d600160035461161490919063ffffffff16565b6003819055506000600354905060405180608001604052808781526020018681526020016000815260200160011515815250600160008381526020019081526020016000206000820151816000015560208201518160010190805190602001906112b8929190611a60565b506040820151816002015560608201518160030160006101000a81548160ff02191690831515021790555090505060016002600088815260200190815260200160002060006101000a81548160ff0219169083151502179055507f77173fe9730b8c94d6e2099a799c4891fb0142645f3e139e87aa71c5f014979a8187604051808381526020018281526020019250505060405180910390a180935050505092915050565b6060600560009054906101000a900460ff166113e1576040517f08c379a00000000000000000000000000000000000000000000000000000000081526004018080602001828103825260148152602001807f436f6e747261637420697320696e61637469766500000000000000000000000081525060200191505060405180910390fd5b60003073ffffffffffffffffffffffffffffffffffffffff1663d64a626e6040518163ffffffff1660e01b815260040160206040518083038186803b15801561142957600080fd5b505afa15801561143d573d6000803e3d6000fd5b505050506040513d602081101561145357600080fd5b8101908080519060200190929190505050905060608167ffffffffffffffff8111801561147f57600080fd5b506040519080825280602002602001820160405280156114ae5781602001602082028036833780820191505090505b5090506000805b60035481101561154f576001600082815260200190815260200160002060030160009054906101000a900460ff1680156114ee57508382105b15611527578083838151811061150057fe5b60200260200101818152505061152060018361161490919063ffffffff16565b9150611534565b8382106115335761154f565b5b61154860018261161490919063ffffffff16565b90506114b5565b5081935050505090565b6000611581836000018373ffffffffffffffffffffffffffffffffffffffff1660001b611821565b905092915050565b600033905090565b600082821115611609576040517f08c379a000000000000000000000000000000000000000000000000000000000815260040180806020018281038252601e8152602001807f536166654d6174683a207375627472616374696f6e206f766572666c6f77000081525060200191505060405180910390fd5b818303905092915050565b600080828401905083811015611692576040517f08c379a000000000000000000000000000000000000000000000000000000000815260040180806020018281038252601b8152602001807f536166654d6174683a206164646974696f6e206f766572666c6f77000000000081525060200191505060405180910390fd5b8091505092915050565b6116c38160008085815260200190815260200160002060000161155990919063ffffffff16565b1561172b576116d0611589565b73ffffffffffffffffffffffffffffffffffffffff168173ffffffffffffffffffffffffffffffffffffffff16837f2f8788117e7eff1d82e926ec794901d17c78024a50270940304540a733656f0d60405160405180910390a45b5050565b6117568160008085815260200190815260200160002060000161189190919063ffffffff16565b156117be57611763611589565b73ffffffffffffffffffffffffffffffffffffffff168173ffffffffffffffffffffffffffffffffffffffff16837ff6391f5c32d9c69d2a47ea670b442974b53935d1edc7fd64eb21e047a839171b60405160405180910390a45b5050565b60006117d183600001836118c1565b60001c905092915050565b6000611804836000018373ffffffffffffffffffffffffffffffffffffffff1660001b611944565b905092915050565b600061181a82600001611967565b9050919050565b600061182d8383611944565b61188657826000018290806001815401808255809150506001900390600052602060002001600090919091909150558260000180549050836001016000848152602001908152602001600020819055506001905061188b565b600090505b92915050565b60006118b9836000018373ffffffffffffffffffffffffffffffffffffffff1660001b611978565b905092915050565b600081836000018054905011611922576040517f08c379a0000000000000000000000000000000000000000000000000000000008152600401808060200182810382526022815260200180611b0c6022913960400191505060405180910390fd5b82600001828154811061193157fe5b9060005260206000200154905092915050565b600080836001016000848152602001908152602001600020541415905092915050565b600081600001805490509050919050565b60008083600101600084815260200190815260200160002054905060008114611a5457600060018203905060006001866000018054905003905060008660000182815481106119c357fe5b90600052602060002001549050808760000184815481106119e057fe5b9060005260206000200181905550600183018760010160008381526020019081526020016000208190555086600001805480611a1857fe5b60019003818190600052602060002001600090559055866001016000878152602001908152602001600020600090556001945050505050611a5a565b60009150505b92915050565b828054600181600116156101000203166002900490600052602060002090601f016020900481019282611a965760008555611add565b82601f10611aaf57805160ff1916838001178555611add565b82800160010185558215611add579182015b82811115611adc578251825591602001919060010190611ac1565b5b509050611aea9190611aee565b5090565b5b80821115611b07576000816000905550600101611aef565b509056fe456e756d657261626c655365743a20696e646578206f7574206f6620626f756e6473416363657373436f6e74726f6c3a2073656e646572206d75737420626520616e2061646d696e20746f206772616e74637265617465506c616e65743a206d75737420686176652061646d696e20726f6c65616374697661746544656163746976617465436f6e74726163743a206d75737420686176652061646d696e20726f6c65416363657373436f6e74726f6c3a2073656e646572206d75737420626520616e2061646d696e20746f207265766f6b65616374697661746544656163746976617465506c616e65743a206d75737420686176652061646d696e20726f6c65416363657373436f6e74726f6c3a2063616e206f6e6c792072656e6f756e636520726f6c657320666f722073656c66a2646970667358221220b78588cf2ec030f4d5ced6a4adf6b96a26ca1636dc297e80aa15e3216dcaa9d064736f6c63430007050033",
  "immutableReferences": {},
  "source": "// SPDX-License-Identifier: MIT\r\npragma solidity 0.7.5;\r\nimport '@openzeppelin/contracts/access/AccessControl.sol';\r\nimport '@openzeppelin/contracts/math/SafeMath.sol';\r\n\r\n/*\r\n* @title Create new planets for the Ethereal universe\r\n*/\r\ncontract EtherealPlanet is AccessControl\r\n{\r\n\tusing SafeMath for uint256;\r\n\tstruct Planet {\r\n\t\tbytes32 name;\r\n\t\tstring description;\r\n\t\tuint256 population;\r\n\t\tbool active;\r\n\t}\r\n\r\n\tconstructor() {\r\n\t\t_setupRole(DEFAULT_ADMIN_ROLE, msg.sender);\r\n\t}\r\n\r\n\t// Planet's info\r\n\tmapping(uint256 => Planet) public planets;\r\n\t// Table to store if planet's name alreay exists\r\n\tmapping(bytes32 => bool) public planetNameExists;\r\n\r\n\t// Total number of planets\r\n\tuint256 public totalNumPlanets;\r\n\t// Total number of inactive planets\r\n\tuint256 public totalInactivePlanets;\r\n\t// Contract status\r\n\tbool public active;\r\n\r\n\t/*\r\n\t*\t@dev Check if bytes32 is empty\r\n\t*/\r\n\tmodifier isNotEmptyBytes32(bytes32 _s)\r\n\t{\r\n\t\trequire(\r\n\t\t\t(keccak256(abi.encode(_s)) != keccak256(abi.encode(\"\"))) &&\r\n\t\t\t(keccak256(abi.encode(_s)) != keccak256(abi.encode(0x00))),\r\n\t\t\t\"Empty string not allowed\"\r\n\t\t);\r\n\t\t_;\r\n\t}\r\n\r\n\t/*\r\n\t*\t@dev Check if planet name is available or if is already used\r\n\t*/\r\n\tmodifier isPlanetNameAvailable(bytes32 _name) {\r\n\t\trequire(\r\n\t\t\t!planetNameExists[_name],\r\n\t\t\t\"Planet name already exists\"\r\n\t\t);\r\n\t\t_;\r\n\t}\r\n\r\n\t/*\r\n\t*\t@dev Check if planet is active\r\n\t*/\r\n\tmodifier isPlanetActive(uint256 _planetId) {\r\n\t\trequire( planets[_planetId].active, \"Planet is inactive\" );\r\n\t\t_;\r\n\t}\r\n\r\n\t/*\r\n\t*\t@dev Check if contract is active\r\n\t*/\r\n\tmodifier isContractActive {\r\n\t\trequire( active, \"Contract is inactive\" );\r\n\t\t_;\r\n\t}\r\n\r\n\t/*\r\n\t* @dev Log new planet creation\r\n\t*/\r\n\tevent NewPlanetCreated(uint256 planetId, bytes32 name);\r\n\t/*\r\n\t* @dev Log planet status update\r\n\t*/\r\n\tevent PlanetStatusUpdated(uint256 planetId, bool newStatus);\r\n\t/*\r\n\t* @dev Log contract status update\r\n\t*/\r\n\tevent ContractStatusUpdated(bool newStatus);\r\n\r\n\r\n\t/*\r\n\t*\t@notice Create a new planet\r\n\t*/\r\n\tfunction createPlanet(\r\n\t\tbytes32 _name,\r\n\t\tstring memory _description\r\n\t) \r\n\t\texternal\r\n\t\tisContractActive\r\n\t\tisNotEmptyBytes32(_name)\r\n\t\tisPlanetNameAvailable(_name)\r\n\t\treturns (uint id)\r\n\t{\r\n\t\trequire(hasRole(DEFAULT_ADMIN_ROLE, _msgSender()), \"createPlanet: must have admin role\");\r\n\t\ttotalNumPlanets = totalNumPlanets.add(1);\r\n\t\tuint256 planetId = totalNumPlanets;\r\n\t\tplanets[planetId] = Planet(_name, _description, 0, true);\r\n\t\tplanetNameExists[_name] = true;\r\n\t\temit NewPlanetCreated(planetId, _name);\r\n\t\treturn planetId;\r\n\t}\r\n\r\n\t/*\r\n\t*\t@notice Update planet status\r\n\t*/\r\n\tfunction activateDeactivatePlanet(uint256 _planetId, bool _active)\r\n\t\texternal\r\n\t\tisContractActive\r\n\t{\r\n\t\trequire(hasRole(DEFAULT_ADMIN_ROLE, _msgSender()), \"activateDeactivatePlanet: must have admin role\");\r\n\t\t// Planet must exist\r\n\t\trequire(\r\n\t\t\tplanetNameExists[planets[_planetId].name],\r\n\t\t\t\"Planet doesn't exist\"\r\n\t\t);\r\n\r\n\t\tplanets[_planetId].active = _active;\r\n\t\tif (_active) {\r\n\t\t\ttotalInactivePlanets = totalInactivePlanets.sub(1);\r\n\t\t} else {\r\n\t\t\ttotalInactivePlanets = totalInactivePlanets.add(1);\r\n\t\t}\r\n\t\temit PlanetStatusUpdated(_planetId, _active);\r\n\t}\r\n\r\n\t/*\r\n\t*\t@notice Update contract status\r\n\t*/\r\n\tfunction activateDeactivateContract(bool _active)\r\n\t\texternal\r\n\t{\r\n\t\trequire(hasRole(DEFAULT_ADMIN_ROLE, _msgSender()), \"activateDeactivateContract: must have admin role\");\r\n\r\n\t\tactive = _active;\r\n\t\temit ContractStatusUpdated(_active);\r\n\t}\r\n\r\n\t/*\r\n\t* @notice Returns the number of active planets\r\n\t*/\r\n\tfunction getNumActivePlanets()\r\n\t\texternal\r\n\t\tview\r\n\t\tisContractActive\r\n\t\treturns (uint256)\r\n\t{\r\n\t\tuint256 total = totalNumPlanets.sub(totalInactivePlanets);\r\n\t\treturn total;\r\n\t}\r\n\r\n\t/*\r\n\t* @notice Returns the list of active planets\r\n\t*/\r\n\tfunction getPlanets()\r\n\t\texternal\r\n\t\tview\r\n\t\tisContractActive\r\n\t\treturns (uint256[] memory)\r\n\t{\r\n\t\tuint256 totalActive = this.getNumActivePlanets();\r\n\t\tuint256[] memory planetList = new uint256[](totalActive);\r\n\t\tuint256 counter = 0;\r\n\r\n\t\tfor (uint256 i = 0; i < totalNumPlanets; i = i.add(1)) {\r\n\t\t\tif (planets[i].active && counter < totalActive) {\r\n\t\t\t\tplanetList[counter] = i;\r\n\t\t\t\tcounter = counter.add(1);\r\n\t\t\t} else if (counter >= totalActive) {\r\n\t\t\t\tbreak;\r\n\t\t\t}\r\n\t\t}\r\n\r\n\t\treturn planetList;\r\n\t}\r\n\r\n\t/*\r\n\t* @notice Returns the list of inactive planets\r\n\t*/\r\n\tfunction getInactivePlanets()\r\n\t\texternal\r\n\t\tview\r\n\t\tisContractActive\r\n\t\treturns (uint256[] memory)\r\n\t{\r\n\t\tuint256[] memory planetList = new uint256[](totalInactivePlanets);\r\n\t\tuint256 counter = 0;\r\n\r\n\t\tfor (uint256 i = 0; i < totalNumPlanets; i = i.add(1)) {\r\n\t\t\tif (planets[i].active && counter < totalInactivePlanets) {\r\n\t\t\t\tplanetList[counter] = i;\r\n\t\t\t\tcounter = counter.add(1);\r\n\t\t\t} else if (counter >= totalInactivePlanets) {\r\n\t\t\t\tbreak;\r\n\t\t\t}\r\n\t\t}\r\n\r\n\t\treturn planetList;\r\n\t}\r\n\r\n\r\n}\r\n",
  "sourcePath": "c:/xampp/htdocs/ethereal-bnb/truffle-files/contracts/EtherealPlanet.sol",
  "compiler": {
    "name": "solc",
    "version": "0.7.5+commit.eb77ed08.Emscripten.clang"
  },
  "schemaVersion": "3.3.3",
  "updatedAt": "2021-02-14T06:59:20.315Z",
  "devdoc": {
    "kind": "dev",
    "methods": {
      "getRoleAdmin(bytes32)": {
        "details": "Returns the admin role that controls `role`. See {grantRole} and {revokeRole}. To change a role's admin, use {_setRoleAdmin}."
      },
      "getRoleMember(bytes32,uint256)": {
        "details": "Returns one of the accounts that have `role`. `index` must be a value between 0 and {getRoleMemberCount}, non-inclusive. Role bearers are not sorted in any particular way, and their ordering may change at any point. WARNING: When using {getRoleMember} and {getRoleMemberCount}, make sure you perform all queries on the same block. See the following https://forum.openzeppelin.com/t/iterating-over-elements-on-enumerableset-in-openzeppelin-contracts/2296[forum post] for more information."
      },
      "getRoleMemberCount(bytes32)": {
        "details": "Returns the number of accounts that have `role`. Can be used together with {getRoleMember} to enumerate all bearers of a role."
      },
      "grantRole(bytes32,address)": {
        "details": "Grants `role` to `account`. If `account` had not been already granted `role`, emits a {RoleGranted} event. Requirements: - the caller must have ``role``'s admin role."
      },
      "hasRole(bytes32,address)": {
        "details": "Returns `true` if `account` has been granted `role`."
      },
      "renounceRole(bytes32,address)": {
        "details": "Revokes `role` from the calling account. Roles are often managed via {grantRole} and {revokeRole}: this function's purpose is to provide a mechanism for accounts to lose their privileges if they are compromised (such as when a trusted device is misplaced). If the calling account had been granted `role`, emits a {RoleRevoked} event. Requirements: - the caller must be `account`."
      },
      "revokeRole(bytes32,address)": {
        "details": "Revokes `role` from `account`. If `account` had been granted `role`, emits a {RoleRevoked} event. Requirements: - the caller must have ``role``'s admin role."
      }
    },
    "version": 1
  },
  "userdoc": {
    "kind": "user",
    "methods": {},
    "version": 1
  }
}