{
  "contractName": "EtherealGame",
  "abi": [
    {
      "inputs": [
        {
          "internalType": "address",
          "name": "_planetAddress",
          "type": "address"
        },
        {
          "internalType": "address",
          "name": "_characterAddress",
          "type": "address"
        },
        {
          "internalType": "address",
          "name": "_weaponAddress",
          "type": "address"
        },
        {
          "internalType": "address",
          "name": "_tokenAddress",
          "type": "address"
        },
        {
          "internalType": "uint256",
          "name": "_initialTokens",
          "type": "uint256"
        }
      ],
      "stateMutability": "nonpayable",
      "type": "constructor"
    },
    {
      "anonymous": false,
      "inputs": [
        {
          "indexed": false,
          "internalType": "bool",
          "name": "newStatus",
          "type": "bool"
        }
      ],
      "name": "ContractStatusUpdate",
      "type": "event"
    },
    {
      "anonymous": false,
      "inputs": [
        {
          "indexed": false,
          "internalType": "address",
          "name": "newAddress",
          "type": "address"
        },
        {
          "indexed": false,
          "internalType": "bytes32",
          "name": "contractName",
          "type": "bytes32"
        }
      ],
      "name": "LibContractAddressUpdate",
      "type": "event"
    },
    {
      "anonymous": false,
      "inputs": [
        {
          "indexed": true,
          "internalType": "address",
          "name": "player",
          "type": "address"
        },
        {
          "indexed": false,
          "internalType": "bytes32",
          "name": "name",
          "type": "bytes32"
        }
      ],
      "name": "NewCharacterMinted",
      "type": "event"
    },
    {
      "anonymous": false,
      "inputs": [
        {
          "indexed": true,
          "internalType": "address",
          "name": "player1",
          "type": "address"
        },
        {
          "indexed": true,
          "internalType": "address",
          "name": "player2",
          "type": "address"
        },
        {
          "indexed": false,
          "internalType": "uint256",
          "name": "id",
          "type": "uint256"
        }
      ],
      "name": "NewFightRequest",
      "type": "event"
    },
    {
      "anonymous": false,
      "inputs": [
        {
          "indexed": true,
          "internalType": "address",
          "name": "player1",
          "type": "address"
        },
        {
          "indexed": true,
          "internalType": "address",
          "name": "player2",
          "type": "address"
        }
      ],
      "name": "NewFightRequestAccepted",
      "type": "event"
    },
    {
      "anonymous": false,
      "inputs": [
        {
          "indexed": true,
          "internalType": "address",
          "name": "player",
          "type": "address"
        },
        {
          "indexed": false,
          "internalType": "bytes32",
          "name": "name",
          "type": "bytes32"
        },
        {
          "indexed": false,
          "internalType": "uint256",
          "name": "totalPlayers",
          "type": "uint256"
        }
      ],
      "name": "NewPlayerRegistered",
      "type": "event"
    },
    {
      "anonymous": false,
      "inputs": [
        {
          "indexed": true,
          "internalType": "enum IEtherealBase.ElementOfNature",
          "name": "_me",
          "type": "uint8"
        },
        {
          "indexed": false,
          "internalType": "enum IEtherealBase.ElementOfNature",
          "name": "_enemy",
          "type": "uint8"
        },
        {
          "indexed": false,
          "internalType": "uint8",
          "name": "_prob",
          "type": "uint8"
        }
      ],
      "name": "ProbabilityOfWinningUpdate",
      "type": "event"
    },
    {
      "anonymous": false,
      "inputs": [
        {
          "indexed": true,
          "internalType": "bytes32",
          "name": "role",
          "type": "bytes32"
        },
        {
          "indexed": true,
          "internalType": "bytes32",
          "name": "previousAdminRole",
          "type": "bytes32"
        },
        {
          "indexed": true,
          "internalType": "bytes32",
          "name": "newAdminRole",
          "type": "bytes32"
        }
      ],
      "name": "RoleAdminChanged",
      "type": "event"
    },
    {
      "anonymous": false,
      "inputs": [
        {
          "indexed": true,
          "internalType": "bytes32",
          "name": "role",
          "type": "bytes32"
        },
        {
          "indexed": true,
          "internalType": "address",
          "name": "account",
          "type": "address"
        },
        {
          "indexed": true,
          "internalType": "address",
          "name": "sender",
          "type": "address"
        }
      ],
      "name": "RoleGranted",
      "type": "event"
    },
    {
      "anonymous": false,
      "inputs": [
        {
          "indexed": true,
          "internalType": "bytes32",
          "name": "role",
          "type": "bytes32"
        },
        {
          "indexed": true,
          "internalType": "address",
          "name": "account",
          "type": "address"
        },
        {
          "indexed": true,
          "internalType": "address",
          "name": "sender",
          "type": "address"
        }
      ],
      "name": "RoleRevoked",
      "type": "event"
    },
    {
      "inputs": [],
      "name": "DEFAULT_ADMIN_ROLE",
      "outputs": [
        {
          "internalType": "bytes32",
          "name": "",
          "type": "bytes32"
        }
      ],
      "stateMutability": "view",
      "type": "function"
    },
    {
      "inputs": [],
      "name": "PLAYER_ROLE",
      "outputs": [
        {
          "internalType": "bytes32",
          "name": "",
          "type": "bytes32"
        }
      ],
      "stateMutability": "view",
      "type": "function"
    },
    {
      "inputs": [],
      "name": "active",
      "outputs": [
        {
          "internalType": "bool",
          "name": "",
          "type": "bool"
        }
      ],
      "stateMutability": "view",
      "type": "function"
    },
    {
      "inputs": [],
      "name": "characterContract",
      "outputs": [
        {
          "internalType": "address",
          "name": "",
          "type": "address"
        }
      ],
      "stateMutability": "view",
      "type": "function"
    },
    {
      "inputs": [
        {
          "internalType": "address",
          "name": "",
          "type": "address"
        },
        {
          "internalType": "uint256",
          "name": "",
          "type": "uint256"
        }
      ],
      "name": "fightRequests",
      "outputs": [
        {
          "internalType": "address",
          "name": "contender",
          "type": "address"
        },
        {
          "internalType": "uint256",
          "name": "contenderCharacterId",
          "type": "uint256"
        },
        {
          "internalType": "uint256",
          "name": "myCharacterId",
          "type": "uint256"
        },
        {
          "internalType": "bool",
          "name": "accepted",
          "type": "bool"
        },
        {
          "internalType": "bool",
          "name": "rejected",
          "type": "bool"
        },
        {
          "internalType": "bool",
          "name": "pending",
          "type": "bool"
        },
        {
          "internalType": "bool",
          "name": "win",
          "type": "bool"
        },
        {
          "internalType": "bool",
          "name": "loss",
          "type": "bool"
        },
        {
          "internalType": "bool",
          "name": "tie",
          "type": "bool"
        },
        {
          "internalType": "uint256",
          "name": "expirationDate",
          "type": "uint256"
        }
      ],
      "stateMutability": "view",
      "type": "function"
    },
    {
      "inputs": [
        {
          "internalType": "bytes32",
          "name": "role",
          "type": "bytes32"
        }
      ],
      "name": "getRoleAdmin",
      "outputs": [
        {
          "internalType": "bytes32",
          "name": "",
          "type": "bytes32"
        }
      ],
      "stateMutability": "view",
      "type": "function"
    },
    {
      "inputs": [
        {
          "internalType": "bytes32",
          "name": "role",
          "type": "bytes32"
        },
        {
          "internalType": "uint256",
          "name": "index",
          "type": "uint256"
        }
      ],
      "name": "getRoleMember",
      "outputs": [
        {
          "internalType": "address",
          "name": "",
          "type": "address"
        }
      ],
      "stateMutability": "view",
      "type": "function"
    },
    {
      "inputs": [
        {
          "internalType": "bytes32",
          "name": "role",
          "type": "bytes32"
        }
      ],
      "name": "getRoleMemberCount",
      "outputs": [
        {
          "internalType": "uint256",
          "name": "",
          "type": "uint256"
        }
      ],
      "stateMutability": "view",
      "type": "function"
    },
    {
      "inputs": [
        {
          "internalType": "bytes32",
          "name": "role",
          "type": "bytes32"
        },
        {
          "internalType": "address",
          "name": "account",
          "type": "address"
        }
      ],
      "name": "grantRole",
      "outputs": [],
      "stateMutability": "nonpayable",
      "type": "function"
    },
    {
      "inputs": [
        {
          "internalType": "bytes32",
          "name": "role",
          "type": "bytes32"
        },
        {
          "internalType": "address",
          "name": "account",
          "type": "address"
        }
      ],
      "name": "hasRole",
      "outputs": [
        {
          "internalType": "bool",
          "name": "",
          "type": "bool"
        }
      ],
      "stateMutability": "view",
      "type": "function"
    },
    {
      "inputs": [],
      "name": "initialTokens",
      "outputs": [
        {
          "internalType": "uint256",
          "name": "",
          "type": "uint256"
        }
      ],
      "stateMutability": "view",
      "type": "function"
    },
    {
      "inputs": [],
      "name": "kopernikTokenContract",
      "outputs": [
        {
          "internalType": "address",
          "name": "",
          "type": "address"
        }
      ],
      "stateMutability": "view",
      "type": "function"
    },
    {
      "inputs": [],
      "name": "numPlayers",
      "outputs": [
        {
          "internalType": "uint256",
          "name": "",
          "type": "uint256"
        }
      ],
      "stateMutability": "view",
      "type": "function"
    },
    {
      "inputs": [],
      "name": "planetContract",
      "outputs": [
        {
          "internalType": "address",
          "name": "",
          "type": "address"
        }
      ],
      "stateMutability": "view",
      "type": "function"
    },
    {
      "inputs": [
        {
          "internalType": "address",
          "name": "",
          "type": "address"
        }
      ],
      "name": "playerData",
      "outputs": [
        {
          "internalType": "bytes32",
          "name": "nickname",
          "type": "bytes32"
        },
        {
          "internalType": "uint32",
          "name": "wins",
          "type": "uint32"
        },
        {
          "internalType": "uint32",
          "name": "loss",
          "type": "uint32"
        },
        {
          "internalType": "uint32",
          "name": "tie",
          "type": "uint32"
        },
        {
          "internalType": "uint32",
          "name": "gaveup",
          "type": "uint32"
        }
      ],
      "stateMutability": "view",
      "type": "function"
    },
    {
      "inputs": [
        {
          "internalType": "address",
          "name": "",
          "type": "address"
        }
      ],
      "name": "playerIsRegistered",
      "outputs": [
        {
          "internalType": "bool",
          "name": "",
          "type": "bool"
        }
      ],
      "stateMutability": "view",
      "type": "function"
    },
    {
      "inputs": [
        {
          "internalType": "bytes32",
          "name": "",
          "type": "bytes32"
        }
      ],
      "name": "playerNicknameExists",
      "outputs": [
        {
          "internalType": "bool",
          "name": "",
          "type": "bool"
        }
      ],
      "stateMutability": "view",
      "type": "function"
    },
    {
      "inputs": [
        {
          "internalType": "uint256",
          "name": "",
          "type": "uint256"
        }
      ],
      "name": "players",
      "outputs": [
        {
          "internalType": "address",
          "name": "",
          "type": "address"
        }
      ],
      "stateMutability": "view",
      "type": "function"
    },
    {
      "inputs": [
        {
          "internalType": "enum IEtherealBase.ElementOfNature",
          "name": "",
          "type": "uint8"
        },
        {
          "internalType": "enum IEtherealBase.ElementOfNature",
          "name": "",
          "type": "uint8"
        }
      ],
      "name": "probabilityOfWinningAgainstElem",
      "outputs": [
        {
          "internalType": "uint8",
          "name": "",
          "type": "uint8"
        }
      ],
      "stateMutability": "view",
      "type": "function"
    },
    {
      "inputs": [
        {
          "internalType": "bytes32",
          "name": "role",
          "type": "bytes32"
        },
        {
          "internalType": "address",
          "name": "account",
          "type": "address"
        }
      ],
      "name": "renounceRole",
      "outputs": [],
      "stateMutability": "nonpayable",
      "type": "function"
    },
    {
      "inputs": [
        {
          "internalType": "bytes32",
          "name": "role",
          "type": "bytes32"
        },
        {
          "internalType": "address",
          "name": "account",
          "type": "address"
        }
      ],
      "name": "revokeRole",
      "outputs": [],
      "stateMutability": "nonpayable",
      "type": "function"
    },
    {
      "inputs": [],
      "name": "topFighter",
      "outputs": [
        {
          "internalType": "uint256",
          "name": "",
          "type": "uint256"
        }
      ],
      "stateMutability": "view",
      "type": "function"
    },
    {
      "inputs": [],
      "name": "topPlayer",
      "outputs": [
        {
          "internalType": "address",
          "name": "",
          "type": "address"
        }
      ],
      "stateMutability": "view",
      "type": "function"
    },
    {
      "inputs": [
        {
          "internalType": "address",
          "name": "",
          "type": "address"
        }
      ],
      "name": "totalFightRequests",
      "outputs": [
        {
          "internalType": "uint256",
          "name": "",
          "type": "uint256"
        }
      ],
      "stateMutability": "view",
      "type": "function"
    },
    {
      "inputs": [],
      "name": "weaponsContract",
      "outputs": [
        {
          "internalType": "address",
          "name": "",
          "type": "address"
        }
      ],
      "stateMutability": "view",
      "type": "function"
    },
    {
      "inputs": [
        {
          "internalType": "bytes32",
          "name": "_name",
          "type": "bytes32"
        }
      ],
      "name": "registerPlayer",
      "outputs": [],
      "stateMutability": "nonpayable",
      "type": "function"
    },
    {
      "inputs": [
        {
          "components": [
            {
              "internalType": "bytes32",
              "name": "name",
              "type": "bytes32"
            },
            {
              "internalType": "bytes24",
              "name": "birthdate",
              "type": "bytes24"
            },
            {
              "internalType": "string",
              "name": "description",
              "type": "string"
            },
            {
              "internalType": "uint256",
              "name": "planetId",
              "type": "uint256"
            },
            {
              "internalType": "uint8",
              "name": "genre",
              "type": "uint8"
            }
          ],
          "internalType": "struct IEtherealBase.CharacterBaseMetadata",
          "name": "extraBaseMetaData",
          "type": "tuple"
        },
        {
          "components": [
            {
              "internalType": "uint24",
              "name": "skintone",
              "type": "uint24"
            },
            {
              "internalType": "uint24",
              "name": "haircolor",
              "type": "uint24"
            },
            {
              "internalType": "uint24",
              "name": "eyescolor",
              "type": "uint24"
            },
            {
              "internalType": "uint16",
              "name": "weight",
              "type": "uint16"
            },
            {
              "internalType": "uint16",
              "name": "height",
              "type": "uint16"
            },
            {
              "internalType": "uint8",
              "name": "bodyType",
              "type": "uint8"
            }
          ],
          "internalType": "struct IEtherealBase.CharacterPhysicalMetadata",
          "name": "extraPhysicalMetaData",
          "type": "tuple"
        },
        {
          "components": [
            {
              "internalType": "enum IEtherealBase.ElementOfNature",
              "name": "primaryElement",
              "type": "uint8"
            },
            {
              "internalType": "enum IEtherealBase.ElementOfNature",
              "name": "secondaryElement",
              "type": "uint8"
            },
            {
              "internalType": "uint8",
              "name": "life",
              "type": "uint8"
            },
            {
              "internalType": "uint8",
              "name": "armor",
              "type": "uint8"
            },
            {
              "internalType": "uint8",
              "name": "strength",
              "type": "uint8"
            },
            {
              "internalType": "uint8",
              "name": "speed",
              "type": "uint8"
            },
            {
              "internalType": "uint8",
              "name": "luck",
              "type": "uint8"
            },
            {
              "internalType": "uint8",
              "name": "spirit",
              "type": "uint8"
            },
            {
              "internalType": "uint8",
              "name": "level",
              "type": "uint8"
            },
            {
              "internalType": "uint8",
              "name": "extraSkillsPoints",
              "type": "uint8"
            }
          ],
          "internalType": "struct IEtherealBase.CharacterAttributesMetadata",
          "name": "extraAbilitiesMetaData",
          "type": "tuple"
        }
      ],
      "name": "createCharacter",
      "outputs": [
        {
          "internalType": "uint256",
          "name": "",
          "type": "uint256"
        }
      ],
      "stateMutability": "nonpayable",
      "type": "function"
    },
    {
      "inputs": [
        {
          "internalType": "address",
          "name": "_contender",
          "type": "address"
        },
        {
          "internalType": "uint256",
          "name": "_characterId",
          "type": "uint256"
        }
      ],
      "name": "requestFight",
      "outputs": [
        {
          "internalType": "uint256",
          "name": "",
          "type": "uint256"
        }
      ],
      "stateMutability": "nonpayable",
      "type": "function"
    },
    {
      "inputs": [
        {
          "internalType": "uint256",
          "name": "_fightRequestId",
          "type": "uint256"
        },
        {
          "internalType": "uint256",
          "name": "_myCharacterId",
          "type": "uint256"
        }
      ],
      "name": "acceptFight",
      "outputs": [
        {
          "internalType": "uint256",
          "name": "",
          "type": "uint256"
        },
        {
          "internalType": "uint8",
          "name": "",
          "type": "uint8"
        }
      ],
      "stateMutability": "nonpayable",
      "type": "function"
    },
    {
      "inputs": [
        {
          "internalType": "enum IEtherealBase.ElementOfNature",
          "name": "_me",
          "type": "uint8"
        },
        {
          "internalType": "enum IEtherealBase.ElementOfNature",
          "name": "_enemy",
          "type": "uint8"
        },
        {
          "internalType": "uint8",
          "name": "_probWin",
          "type": "uint8"
        }
      ],
      "name": "assignProbabilityOfWinning",
      "outputs": [],
      "stateMutability": "nonpayable",
      "type": "function"
    },
    {
      "inputs": [
        {
          "internalType": "bool",
          "name": "_active",
          "type": "bool"
        }
      ],
      "name": "activateDeactivateContract",
      "outputs": [],
      "stateMutability": "nonpayable",
      "type": "function"
    }
  ],
  "bytecode": "0x60806040523480156200001157600080fd5b5060405162005ebc38038062005ebc833981810160405281019062000037919062000484565b6200005b6000801b6200004f620000cc60201b60201c565b620000d460201b60201c565b6200006c85620000ea60201b60201c565b6200007d846200016760201b60201c565b6200008e83620001e460201b60201c565b6200009f826200026160201b60201c565b80600f819055506001600460146101000a81548160ff0219169083151502179055505050505050620006cd565b600033905090565b620000e68282620002de60201b60201c565b5050565b80600160006101000a81548173ffffffffffffffffffffffffffffffffffffffff021916908373ffffffffffffffffffffffffffffffffffffffff1602179055507fc02dd078a5d63c2645d0da4b3173f425d353dafebbb14064059edbd4244a31bf816040516200015c919062000630565b60405180910390a150565b80600260006101000a81548173ffffffffffffffffffffffffffffffffffffffff021916908373ffffffffffffffffffffffffffffffffffffffff1602179055507fc02dd078a5d63c2645d0da4b3173f425d353dafebbb14064059edbd4244a31bf81604051620001d99190620005af565b60405180910390a150565b80600360006101000a81548173ffffffffffffffffffffffffffffffffffffffff021916908373ffffffffffffffffffffffffffffffffffffffff1602179055507fc02dd078a5d63c2645d0da4b3173f425d353dafebbb14064059edbd4244a31bf81604051620002569190620005da565b60405180910390a150565b80600460006101000a81548173ffffffffffffffffffffffffffffffffffffffff021916908373ffffffffffffffffffffffffffffffffffffffff1602179055507fc02dd078a5d63c2645d0da4b3173f425d353dafebbb14064059edbd4244a31bf81604051620002d3919062000605565b60405180910390a150565b6200030c816000808581526020019081526020016000206000016200038160201b620017001790919060201c565b156200037d5762000322620000cc60201b60201c565b73ffffffffffffffffffffffffffffffffffffffff168173ffffffffffffffffffffffffffffffffffffffff16837f2f8788117e7eff1d82e926ec794901d17c78024a50270940304540a733656f0d60405160405180910390a45b5050565b6000620003b1836000018373ffffffffffffffffffffffffffffffffffffffff1660001b620003b960201b60201c565b905092915050565b6000620003cd83836200043360201b60201c565b620004285782600001829080600181540180825580915050600190039060005260206000200160009091909190915055826000018054905083600101600084815260200190815260200160002081905550600190506200042d565b600090505b92915050565b600080836001016000848152602001908152602001600020541415905092915050565b600081519050620004678162000699565b92915050565b6000815190506200047e81620006b3565b92915050565b600080600080600060a086880312156200049d57600080fd5b6000620004ad8882890162000456565b9550506020620004c08882890162000456565b9450506040620004d38882890162000456565b9350506060620004e68882890162000456565b9250506080620004f9888289016200046d565b9150509295509295909350565b62000511816200065b565b82525050565b7f6368617261637465720000000000000000000000000000000000000000000000815250565b7f776561706f6e0000000000000000000000000000000000000000000000000000815250565b7f6b6f7065726e696b000000000000000000000000000000000000000000000000815250565b7f706c616e65740000000000000000000000000000000000000000000000000000815250565b6000604082019050620005c6600083018462000506565b620005d46020830162000517565b92915050565b6000604082019050620005f1600083018462000506565b620005ff602083016200053d565b92915050565b60006040820190506200061c600083018462000506565b6200062a6020830162000563565b92915050565b600060408201905062000647600083018462000506565b620006556020830162000589565b92915050565b600062000668826200066f565b9050919050565b600073ffffffffffffffffffffffffffffffffffffffff82169050919050565b6000819050919050565b620006a4816200065b565b8114620006b057600080fd5b50565b620006be816200068f565b8114620006ca57600080fd5b50565b6157df80620006dd6000396000f3fe608060405234801561001057600080fd5b50600436106101e55760003560e01c80638996e7dc1161010f578063ca15c873116100a2578063daee4ec811610071578063daee4ec8146105ef578063dd9054931461060d578063e18e32dc1461063e578063f71d96cb1461065a576101e5565b8063ca15c87314610543578063d2facacc14610573578063d547741f146105a3578063d5cfee3e146105bf576101e5565b806397b2f556116100de57806397b2f556146104a75780639ccd14b9146104c5578063a217fddf146104f5578063be353a5014610513576101e5565b80638996e7dc1461040d5780638f089c17146104295780639010d07c1461044757806391d1485414610477576101e5565b80633505c67d116101875780634810c35b116101565780634810c35b1461037157806350bfeadc146103a157806367dcb2c3146103bf5780636ebe71f8146103ef576101e5565b80633505c67d146102e557806336568abe14610303578063424aeded1461031f57806343b60f7414610353576101e5565b8063248a9ca3116101c3578063248a9ca3146102425780632a02d1fd146102725780632f2ff15d14610290578063309e5a5f146102ac576101e5565b806302fb0c5e146101ea57806316c30ebc1461020857806321bbf14c14610226575b600080fd5b6101f261068a565b6040516101ff9190614fb7565b60405180910390f35b61021061069d565b60405161021d9190614fd2565b60405180910390f35b610240600480360381019061023b91906141b3565b6106c1565b005b61025c60048036038101906102579190614205565b610768565b6040516102699190614fd2565b60405180910390f35b61027a610787565b6040516102879190614dc9565b60405180910390f35b6102aa60048036038101906102a5919061422e565b6107ad565b005b6102c660048036038101906102c19190614177565b610836565b6040516102dc9a99989796959493929190614f1b565b60405180910390f35b6102ed610915565b6040516102fa9190614dc9565b60405180910390f35b61031d6004803603810190610318919061422e565b61093b565b005b61033960048036038101906103349190614125565b6109d4565b60405161034a959493929190615016565b60405180910390f35b61035b610a4a565b6040516103689190614dc9565b60405180910390f35b61038b60048036038101906103869190614205565b610a70565b6040516103989190614fb7565b60405180910390f35b6103a9610a90565b6040516103b6919061530d565b60405180910390f35b6103d960048036038101906103d4919061435b565b610a96565b6040516103e6919061530d565b60405180910390f35b6103f7610b71565b6040516104049190614dc9565b60405180910390f35b61042760048036038101906104229190614205565b610b97565b005b610431610c02565b60405161043e9190614dc9565b60405180910390f35b610461600480360381019061045c919061426a565b610c28565b60405161046e9190614dc9565b60405180910390f35b610491600480360381019061048c919061422e565b610c59565b60405161049e9190614fb7565b60405180910390f35b6104af610c8a565b6040516104bc919061530d565b60405180910390f35b6104df60048036038101906104da91906142a6565b610c90565b6040516104ec91906153a3565b60405180910390f35b6104fd610cbf565b60405161050a9190614fd2565b60405180910390f35b61052d60048036038101906105289190614125565b610cc6565b60405161053a919061530d565b60405180910390f35b61055d60048036038101906105589190614205565b610cde565b60405161056a919061530d565b60405180910390f35b61058d60048036038101906105889190614177565b610d04565b60405161059a919061530d565b60405180910390f35b6105bd60048036038101906105b8919061422e565b610ddd565b005b6105d960048036038101906105d49190614125565b610e66565b6040516105e69190614fb7565b60405180910390f35b6105f7610e86565b604051610604919061530d565b60405180910390f35b61062760048036038101906106229190614415565b610e8c565b60405161063592919061537a565b60405180910390f35b610658600480360381019061065391906142e2565b61165e565b005b610674600480360381019061066f91906143c3565b6116c1565b6040516106819190614dc9565b60405180910390f35b600460149054906101000a900460ff1681565b7fce04d177cfe9f73a7157bda35b0add7251966ad70509ceaef76ad7d5e6c4504281565b6106d56000801b6106d0611730565b610c59565b610714576040517f08c379a000000000000000000000000000000000000000000000000000000000815260040161070b9061510d565b60405180910390fd5b80600460146101000a81548160ff0219169083151502179055507f09712b3452a5348a0328397d58ce3c6cdc382ad233b3c04924a1f5683fa925748160405161075d9190614fb7565b60405180910390a150565b6000806000838152602001908152602001600020600201549050919050565b600460009054906101000a900473ffffffffffffffffffffffffffffffffffffffff1681565b6107d3600080848152602001908152602001600020600201546107ce611730565b610c59565b610828576040517f08c379a000000000000000000000000000000000000000000000000000000000815260040180806020018281038252602f8152602001806156fb602f913960400191505060405180910390fd5b6108328282611738565b5050565b600a602052816000526040600020818154811061085257600080fd5b9060005260206000209060050201600091509150508060000160009054906101000a900473ffffffffffffffffffffffffffffffffffffffff16908060010154908060020154908060030160009054906101000a900460ff16908060030160019054906101000a900460ff16908060030160029054906101000a900460ff16908060030160039054906101000a900460ff16908060030160049054906101000a900460ff16908060030160059054906101000a900460ff1690806004015490508a565b600360009054906101000a900473ffffffffffffffffffffffffffffffffffffffff1681565b610943611730565b73ffffffffffffffffffffffffffffffffffffffff168173ffffffffffffffffffffffffffffffffffffffff16146109c6576040517f08c379a000000000000000000000000000000000000000000000000000000000815260040180806020018281038252602f81526020018061577b602f913960400191505060405180910390fd5b6109d082826117cb565b5050565b60056020528060005260406000206000915090508060000154908060010160009054906101000a900463ffffffff16908060010160049054906101000a900463ffffffff16908060010160089054906101000a900463ffffffff169080600101600c9054906101000a900463ffffffff16905085565b600260009054906101000a900473ffffffffffffffffffffffffffffffffffffffff1681565b60086020528060005260406000206000915054906101000a900460ff1681565b600f5481565b6000600460149054906101000a900460ff16610ae7576040517f08c379a0000000000000000000000000000000000000000000000000000000008152600401610ade9061514d565b60405180910390fd5b610b187fce04d177cfe9f73a7157bda35b0add7251966ad70509ceaef76ad7d5e6c45042610b13611730565b610c59565b610b57576040517f08c379a0000000000000000000000000000000000000000000000000000000008152600401610b4e906151ed565b60405180910390fd5b6000610b6485858561185e565b9050809150509392505050565b600d60009054906101000a900473ffffffffffffffffffffffffffffffffffffffff1681565b600460149054906101000a900460ff16610be6576040517f08c379a0000000000000000000000000000000000000000000000000000000008152600401610bdd9061514d565b60405180910390fd5b610bef81611a01565b610bff610bfa611730565b611ea0565b50565b600160009054906101000a900473ffffffffffffffffffffffffffffffffffffffff1681565b6000610c518260008086815260200190815260200160002060000161206c90919063ffffffff16565b905092915050565b6000610c828260008086815260200190815260200160002060000161208690919063ffffffff16565b905092915050565b60075481565b600c6020528160005260406000206020528060005260406000206000915091509054906101000a900460ff1681565b6000801b81565b600b6020528060005260406000206000915090505481565b6000610cfd6000808481526020019081526020016000206000016120b6565b9050919050565b6000600460149054906101000a900460ff16610d55576040517f08c379a0000000000000000000000000000000000000000000000000000000008152600401610d4c9061514d565b60405180910390fd5b610d867fce04d177cfe9f73a7157bda35b0add7251966ad70509ceaef76ad7d5e6c45042610d81611730565b610c59565b610dc5576040517f08c379a0000000000000000000000000000000000000000000000000000000008152600401610dbc906151ad565b60405180910390fd5b6000610dd184846120cb565b90508091505092915050565b610e0360008084815260200190815260200160002060020154610dfe611730565b610c59565b610e58576040517f08c379a000000000000000000000000000000000000000000000000000000000815260040180806020018281038252603081526020018061572a6030913960400191505060405180910390fd5b610e6282826117cb565b5050565b60096020528060005260406000206000915054906101000a900460ff1681565b600e5481565b600080600460149054906101000a900460ff16610ede576040517f08c379a0000000000000000000000000000000000000000000000000000000008152600401610ed59061514d565b60405180910390fd5b610f0f7fce04d177cfe9f73a7157bda35b0add7251966ad70509ceaef76ad7d5e6c45042610f0a611730565b610c59565b610f4e576040517f08c379a0000000000000000000000000000000000000000000000000000000008152600401610f459061528d565b60405180910390fd5b6000610f5a8585612669565b90506000806000610f69613c0a565b600260009054906101000a900473ffffffffffffffffffffffffffffffffffffffff1673ffffffffffffffffffffffffffffffffffffffff1663e1d65d7f896040518263ffffffff1660e01b8152600401610fc4919061530d565b6101406040518083038186803b158015610fdd57600080fd5b505afa158015610ff1573d6000803e3d6000fd5b505050506040513d601f19601f820116820180604052508101906110159190614331565b905061101f613c0a565b600260009054906101000a900473ffffffffffffffffffffffffffffffffffffffff1673ffffffffffffffffffffffffffffffffffffffff1663e1d65d7f876040518263ffffffff1660e01b815260040161107a919061530d565b6101406040518083038186803b15801561109357600080fd5b505afa1580156110a7573d6000803e3d6000fd5b505050506040513d601f19601f820116820180604052508101906110cb9190614331565b90506110d982828b89612e7b565b80955081965050508885141561135757600260009054906101000a900473ffffffffffffffffffffffffffffffffffffffff1673ffffffffffffffffffffffffffffffffffffffff1663de072a1c8a60066040518363ffffffff1660e01b8152600401611147929190615351565b602060405180830381600087803b15801561116157600080fd5b505af1158015611175573d6000803e3d6000fd5b505050506040513d601f19601f820116820180604052508101906111999190614451565b92506001600a60006111a9611730565b73ffffffffffffffffffffffffffffffffffffffff1673ffffffffffffffffffffffffffffffffffffffff1681526020019081526020016000208b815481106111ee57fe5b906000526020600020906005020160030160036101000a81548160ff021916908315150217905550600460009054906101000a900473ffffffffffffffffffffffffffffffffffffffff1673ffffffffffffffffffffffffffffffffffffffff166323b872dd600a6000611260611730565b73ffffffffffffffffffffffffffffffffffffffff1673ffffffffffffffffffffffffffffffffffffffff1681526020019081526020016000208c815481106112a557fe5b906000526020600020906005020160000160009054906101000a900473ffffffffffffffffffffffffffffffffffffffff166112df611730565b60646040518463ffffffff1660e01b81526004016112ff93929190614ebb565b602060405180830381600087803b15801561131957600080fd5b505af115801561132d573d6000803e3d6000fd5b505050506040513d601f19601f8201168201806040525081019061135191906141dc565b5061164b565b60008514156113e0576001600a600061136e611730565b73ffffffffffffffffffffffffffffffffffffffff1673ffffffffffffffffffffffffffffffffffffffff1681526020019081526020016000208b815481106113b357fe5b906000526020600020906005020160030160056101000a81548160ff02191690831515021790555061164a565b600260009054906101000a900473ffffffffffffffffffffffffffffffffffffffff1673ffffffffffffffffffffffffffffffffffffffff1663de072a1c8760046040518363ffffffff1660e01b815260040161143e929190615328565b602060405180830381600087803b15801561145857600080fd5b505af115801561146c573d6000803e3d6000fd5b505050506040513d601f19601f820116820180604052508101906114909190614451565b92506001600a60006114a0611730565b73ffffffffffffffffffffffffffffffffffffffff1673ffffffffffffffffffffffffffffffffffffffff1681526020019081526020016000208b815481106114e557fe5b906000526020600020906005020160030160046101000a81548160ff021916908315150217905550600460009054906101000a900473ffffffffffffffffffffffffffffffffffffffff1673ffffffffffffffffffffffffffffffffffffffff166323b872dd611553611730565b600a600061155f611730565b73ffffffffffffffffffffffffffffffffffffffff1673ffffffffffffffffffffffffffffffffffffffff1681526020019081526020016000208d815481106115a457fe5b906000526020600020906005020160000160009054906101000a900473ffffffffffffffffffffffffffffffffffffffff1660646040518463ffffffff1660e01b81526004016115f693929190614e0d565b602060405180830381600087803b15801561161057600080fd5b505af1158015611624573d6000803e3d6000fd5b505050506040513d601f19601f8201168201806040525081019061164891906141dc565b505b5b8483975097505050505050509250929050565b6116726000801b61166d611730565b610c59565b6116b1576040517f08c379a00000000000000000000000000000000000000000000000000000000081526004016116a89061520d565b60405180910390fd5b6116bc83838361311b565b505050565b600681815481106116d157600080fd5b906000526020600020016000915054906101000a900473ffffffffffffffffffffffffffffffffffffffff1681565b6000611728836000018373ffffffffffffffffffffffffffffffffffffffff1660001b6132cc565b905092915050565b600033905090565b61175f8160008085815260200190815260200160002060000161170090919063ffffffff16565b156117c75761176c611730565b73ffffffffffffffffffffffffffffffffffffffff168173ffffffffffffffffffffffffffffffffffffffff16837f2f8788117e7eff1d82e926ec794901d17c78024a50270940304540a733656f0d60405160405180910390a45b5050565b6117f28160008085815260200190815260200160002060000161333c90919063ffffffff16565b1561185a576117ff611730565b73ffffffffffffffffffffffffffffffffffffffff168173ffffffffffffffffffffffffffffffffffffffff16837ff6391f5c32d9c69d2a47ea670b442974b53935d1edc7fd64eb21e047a839171b60405160405180910390a45b5050565b6000600a61186b8361336c565b63ffffffff16146118b1576040517f08c379a00000000000000000000000000000000000000000000000000000000081526004016118a8906150cd565b60405180910390fd5b600182610100019060ff16908160ff1681525050600082610120019060ff16908160ff16815250506000600260009054906101000a900473ffffffffffffffffffffffffffffffffffffffff16905060008173ffffffffffffffffffffffffffffffffffffffff1663d8f7af39611926611730565b8888886040518563ffffffff1660e01b81526004016119489493929190614e44565b602060405180830381600087803b15801561196257600080fd5b505af1158015611976573d6000803e3d6000fd5b505050506040513d601f19601f8201168201806040525081019061199a91906143ec565b90506119a4611730565b73ffffffffffffffffffffffffffffffffffffffff167f62be5f3bdc2d869fa9c0f72d60d1efc5baa37ba376c364bd58557e952b3fcf8787600001516040516119ed9190614fd2565b60405180910390a280925050509392505050565b80604051602001611a119061524d565b6040516020818303038152906040528051906020012081604051602001611a389190614fd2565b6040516020818303038152906040528051906020012014158015611aa957506000604051602001611a699190615092565b6040516020818303038152906040528051906020012081604051602001611a909190614fd2565b6040516020818303038152906040528051906020012014155b611ae8576040517f08c379a0000000000000000000000000000000000000000000000000000000008152600401611adf9061512d565b60405180910390fd5b60096000611af4611730565b73ffffffffffffffffffffffffffffffffffffffff1673ffffffffffffffffffffffffffffffffffffffff16815260200190815260200160002060009054906101000a900460ff1615611b7c576040517f08c379a0000000000000000000000000000000000000000000000000000000008152600401611b739061518d565b60405180910390fd5b816008600082815260200190815260200160002060009054906101000a900460ff1615611bde576040517f08c379a0000000000000000000000000000000000000000000000000000000008152600401611bd59061516d565b60405180910390fd5b6040518060a00160405280848152602001600063ffffffff168152602001600063ffffffff168152602001600063ffffffff168152602001600063ffffffff1681525060056000611c2d611730565b73ffffffffffffffffffffffffffffffffffffffff1673ffffffffffffffffffffffffffffffffffffffff1681526020019081526020016000206000820151816000015560208201518160010160006101000a81548163ffffffff021916908363ffffffff16021790555060408201518160010160046101000a81548163ffffffff021916908363ffffffff16021790555060608201518160010160086101000a81548163ffffffff021916908363ffffffff160217905550608082015181600101600c6101000a81548163ffffffff021916908363ffffffff1602179055509050506006611d1a611730565b9080600181540180825580915050600190039060005260206000200160009091909190916101000a81548173ffffffffffffffffffffffffffffffffffffffff021916908373ffffffffffffffffffffffffffffffffffffffff16021790555060016008600085815260200190815260200160002060006101000a81548160ff021916908315150217905550600160096000611db4611730565b73ffffffffffffffffffffffffffffffffffffffff1673ffffffffffffffffffffffffffffffffffffffff16815260200190815260200160002060006101000a81548160ff021916908315150217905550600680549050600781905550611e427fce04d177cfe9f73a7157bda35b0add7251966ad70509ceaef76ad7d5e6c45042611e3d611730565b613408565b611e4a611730565b73ffffffffffffffffffffffffffffffffffffffff167fb15dfd21b68df9009b3cf0c00f71adb58432149afacbb5e885e3cece431e95ff84600754604051611e93929190614fed565b60405180910390a2505050565b6000600460009054906101000a900473ffffffffffffffffffffffffffffffffffffffff16905060008173ffffffffffffffffffffffffffffffffffffffff166370a08231306040518263ffffffff1660e01b8152600401611f029190614dc9565b60206040518083038186803b158015611f1a57600080fd5b505afa158015611f2e573d6000803e3d6000fd5b505050506040513d601f19601f82011682018060405250810190611f5291906143ec565b9050600f54811015611f99576040517f08c379a0000000000000000000000000000000000000000000000000000000008152600401611f90906150ed565b60405180910390fd5b8173ffffffffffffffffffffffffffffffffffffffff1663a9059cbb84600f546040518363ffffffff1660e01b8152600401611fd6929190614ef2565b602060405180830381600087803b158015611ff057600080fd5b505af1158015612004573d6000803e3d6000fd5b505050506040513d601f19601f8201168201806040525081019061202891906141dc565b612067576040517f08c379a000000000000000000000000000000000000000000000000000000000815260040161205e906152ed565b60405180910390fd5b505050565b600061207b8360000183613416565b60001c905092915050565b60006120ae836000018373ffffffffffffffffffffffffffffffffffffffff1660001b613499565b905092915050565b60006120c4826000016134bc565b9050919050565b60006001600460009054906101000a900473ffffffffffffffffffffffffffffffffffffffff1673ffffffffffffffffffffffffffffffffffffffff1663dd62ed3e612115611730565b306040518363ffffffff1660e01b8152600401612133929190614de4565b60206040518083038186803b15801561214b57600080fd5b505afa15801561215f573d6000803e3d6000fd5b505050506040513d601f19601f8201168201806040525081019061218391906143ec565b10156121c4576040517f08c379a00000000000000000000000000000000000000000000000000000000081526004016121bb9061526d565b60405180910390fd5b6121cc611730565b73ffffffffffffffffffffffffffffffffffffffff16600260009054906101000a900473ffffffffffffffffffffffffffffffffffffffff1673ffffffffffffffffffffffffffffffffffffffff16636352211e846040518263ffffffff1660e01b815260040161223d919061530d565b602060405180830381600087803b15801561225757600080fd5b505af115801561226b573d6000803e3d6000fd5b505050506040513d601f19601f8201168201806040525081019061228f919061414e565b73ffffffffffffffffffffffffffffffffffffffff16146122e5576040517f08c379a00000000000000000000000000000000000000000000000000000000081526004016122dc906151cd565b60405180910390fd5b600a60008473ffffffffffffffffffffffffffffffffffffffff1673ffffffffffffffffffffffffffffffffffffffff168152602001908152602001600020604051806101400160405280612338611730565b73ffffffffffffffffffffffffffffffffffffffff168152602001848152602001600081526020016000151581526020016000151581526020016001151581526020016000151581526020016000151581526020016000151581526020016103844201815250908060018154018082558091505060019003906000526020600020906005020160009091909190915060008201518160000160006101000a81548173ffffffffffffffffffffffffffffffffffffffff021916908373ffffffffffffffffffffffffffffffffffffffff160217905550602082015181600101556040820151816002015560608201518160030160006101000a81548160ff02191690831515021790555060808201518160030160016101000a81548160ff02191690831515021790555060a08201518160030160026101000a81548160ff02191690831515021790555060c08201518160030160036101000a81548160ff02191690831515021790555060e08201518160030160046101000a81548160ff0219169083151502179055506101008201518160030160056101000a81548160ff02191690831515021790555061012082015181600401555050600a60008473ffffffffffffffffffffffffffffffffffffffff1673ffffffffffffffffffffffffffffffffffffffff16815260200190815260200160002080549050600b60008573ffffffffffffffffffffffffffffffffffffffff1673ffffffffffffffffffffffffffffffffffffffff168152602001908152602001600020819055508273ffffffffffffffffffffffffffffffffffffffff16612595611730565b73ffffffffffffffffffffffffffffffffffffffff167f9666d22455f262a428885a8577a540aa86f9d8697637c663bd39379ce76341dd600b60008773ffffffffffffffffffffffffffffffffffffffff1673ffffffffffffffffffffffffffffffffffffffff16815260200190815260200160002054604051612619919061530d565b60405180910390a3600b60008473ffffffffffffffffffffffffffffffffffffffff1673ffffffffffffffffffffffffffffffffffffffff16815260200190815260200160002054905092915050565b6000600b6000612677611730565b73ffffffffffffffffffffffffffffffffffffffff1673ffffffffffffffffffffffffffffffffffffffff1681526020019081526020016000205483106126f3576040517f08c379a00000000000000000000000000000000000000000000000000000000081526004016126ea906152cd565b60405180910390fd5b42600a6000612700611730565b73ffffffffffffffffffffffffffffffffffffffff1673ffffffffffffffffffffffffffffffffffffffff168152602001908152602001600020848154811061274557fe5b90600052602060002090600502016004015410612797576040517f08c379a000000000000000000000000000000000000000000000000000000000815260040161278e906150ad565b60405180910390fd5b600a60006127a3611730565b73ffffffffffffffffffffffffffffffffffffffff1673ffffffffffffffffffffffffffffffffffffffff16815260200190815260200160002083815481106127e857fe5b906000526020600020906005020160030160029054906101000a900460ff16612846576040517f08c379a000000000000000000000000000000000000000000000000000000000815260040161283d906152ad565b60405180910390fd5b6001600460009054906101000a900473ffffffffffffffffffffffffffffffffffffffff1673ffffffffffffffffffffffffffffffffffffffff1663dd62ed3e61288e611730565b306040518363ffffffff1660e01b81526004016128ac929190614de4565b60206040518083038186803b1580156128c457600080fd5b505afa1580156128d8573d6000803e3d6000fd5b505050506040513d601f19601f820116820180604052508101906128fc91906143ec565b101561293d576040517f08c379a00000000000000000000000000000000000000000000000000000000081526004016129349061526d565b60405180910390fd5b6064600460009054906101000a900473ffffffffffffffffffffffffffffffffffffffff1673ffffffffffffffffffffffffffffffffffffffff1663dd62ed3e600a6000612989611730565b73ffffffffffffffffffffffffffffffffffffffff1673ffffffffffffffffffffffffffffffffffffffff16815260200190815260200160002086815481106129ce57fe5b906000526020600020906005020160000160009054906101000a900473ffffffffffffffffffffffffffffffffffffffff16306040518363ffffffff1660e01b8152600401612a1e929190614e92565b60206040518083038186803b158015612a3657600080fd5b505afa158015612a4a573d6000803e3d6000fd5b505050506040513d601f19601f82011682018060405250810190612a6e91906143ec565b1015612aaf576040517f08c379a0000000000000000000000000000000000000000000000000000000008152600401612aa69061526d565b60405180910390fd5b612ab7611730565b73ffffffffffffffffffffffffffffffffffffffff16600260009054906101000a900473ffffffffffffffffffffffffffffffffffffffff1673ffffffffffffffffffffffffffffffffffffffff16636352211e846040518263ffffffff1660e01b8152600401612b28919061530d565b602060405180830381600087803b158015612b4257600080fd5b505af1158015612b56573d6000803e3d6000fd5b505050506040513d601f19601f82011682018060405250810190612b7a919061414e565b73ffffffffffffffffffffffffffffffffffffffff1614612bd0576040517f08c379a0000000000000000000000000000000000000000000000000000000008152600401612bc7906151cd565b60405180910390fd5b6001600a6000612bde611730565b73ffffffffffffffffffffffffffffffffffffffff1673ffffffffffffffffffffffffffffffffffffffff1681526020019081526020016000208481548110612c2357fe5b906000526020600020906005020160030160006101000a81548160ff0219169083151502179055506000600a6000612c59611730565b73ffffffffffffffffffffffffffffffffffffffff1673ffffffffffffffffffffffffffffffffffffffff1681526020019081526020016000208481548110612c9e57fe5b906000526020600020906005020160030160026101000a81548160ff02191690831515021790555081600a6000612cd3611730565b73ffffffffffffffffffffffffffffffffffffffff1673ffffffffffffffffffffffffffffffffffffffff1681526020019081526020016000208481548110612d1857fe5b906000526020600020906005020160020181905550600a6000612d39611730565b73ffffffffffffffffffffffffffffffffffffffff1673ffffffffffffffffffffffffffffffffffffffff1681526020019081526020016000208381548110612d7e57fe5b906000526020600020906005020160000160009054906101000a900473ffffffffffffffffffffffffffffffffffffffff1673ffffffffffffffffffffffffffffffffffffffff16612dce611730565b73ffffffffffffffffffffffffffffffffffffffff167fe2babda772122669377c29315efa3fb1f9823e70da2a8b2e7cbb28d00230c38560405160405180910390a3600a6000612e1c611730565b73ffffffffffffffffffffffffffffffffffffffff1673ffffffffffffffffffffffffffffffffffffffff1681526020019081526020016000208381548110612e6157fe5b906000526020600020906005020160010154905092915050565b6000806000600c60008860000151600c811115612e9457fe5b600c811115612e9f57fe5b815260200190815260200160002060008760000151600c811115612ebf57fe5b600c811115612eca57fe5b815260200190815260200160002060009054906101000a900460ff1660ff1690506000600c60008960000151600c811115612f0157fe5b600c811115612f0c57fe5b815260200190815260200160002060008860200151600c811115612f2c57fe5b600c811115612f3757fe5b815260200190815260200160002060009054906101000a900460ff1660ff1690506000600c60008a60200151600c811115612f6e57fe5b600c811115612f7957fe5b815260200190815260200160002060008960000151600c811115612f9957fe5b600c811115612fa457fe5b815260200190815260200160002060009054906101000a900460ff1660ff1690506000600c60008b60200151600c811115612fdb57fe5b600c811115612fe657fe5b815260200190815260200160002060008a60200151600c81111561300657fe5b600c81111561301157fe5b815260200190815260200160002060009054906101000a900460ff1660ff169050600061303e8b8b6134cd565b9050613084600361307286613060898661ffff1661384190919063ffffffff16565b61ffff1661384190919063ffffffff16565b61ffff166138d190919063ffffffff16565b90506130ca60036130b8846130a6878661ffff1661384190919063ffffffff16565b61ffff1661384190919063ffffffff16565b61ffff166138d190919063ffffffff16565b9050603c8161ffff16106130e8578881965096505050505050613112565b60328161ffff161015613105578781965096505050505050613112565b6000819650965050505050505b94509492505050565b60648160ff161115613162576040517f08c379a00000000000000000000000000000000000000000000000000000000081526004016131599061522d565b60405180910390fd5b600081606403905081600c600086600c81111561317b57fe5b600c81111561318657fe5b8152602001908152602001600020600085600c8111156131a257fe5b600c8111156131ad57fe5b815260200190815260200160002060006101000a81548160ff021916908360ff16021790555083600c8111156131df57fe5b7f184ca1b6e59081f312c2ab1e90a1a442486d2324c3be4ebe8f4253f63082f6e88484604051613210929190615069565b60405180910390a280600c600085600c81111561322957fe5b600c81111561323457fe5b8152602001908152602001600020600086600c81111561325057fe5b600c81111561325b57fe5b815260200190815260200160002060006101000a81548160ff021916908360ff16021790555082600c81111561328d57fe5b7f184ca1b6e59081f312c2ab1e90a1a442486d2324c3be4ebe8f4253f63082f6e885836040516132be929190615069565b60405180910390a250505050565b60006132d88383613499565b613331578260000182908060018154018082558091505060019003906000526020600020016000909190919091505582600001805490508360010160008481526020019081526020016000208190555060019050613336565b600090505b92915050565b6000613364836000018373ffffffffffffffffffffffffffffffffffffffff1660001b613966565b905092915050565b6000806133a66133908460800151856060015160ff16613a4e90919063ffffffff16565b846040015160ff16613a4e90919063ffffffff16565b60ff1690506133fd6133e56133cf8560e001518660c0015160ff16613a4e90919063ffffffff16565b8560a0015160ff16613a4e90919063ffffffff16565b60ff168263ffffffff16613adc90919063ffffffff16565b905080915050919050565b6134128282611738565b5050565b600081836000018054905011613477576040517f08c379a00000000000000000000000000000000000000000000000000000000081526004018080602001828103825260228152602001806156d96022913960400191505060405180910390fd5b82600001828154811061348657fe5b9060005260206000200154905092915050565b600080836001016000848152602001908152602001600020541415905092915050565b600081600001805490509050919050565b6000806135296134f8846040015160ff16866040015160ff1661ffff1661384190919063ffffffff16565b6135176064876040015160ff1661ffff16613b7090919063ffffffff16565b61ffff166138d190919063ffffffff16565b90506000613586613555856060015160ff16876060015160ff1661ffff1661384190919063ffffffff16565b6135746064886060015160ff1661ffff16613b7090919063ffffffff16565b61ffff166138d190919063ffffffff16565b905060006135e36135b2866080015160ff16886080015160ff1661ffff1661384190919063ffffffff16565b6135d16064896080015160ff1661ffff16613b7090919063ffffffff16565b61ffff166138d190919063ffffffff16565b9050600061364061360f8760a0015160ff168960a0015160ff1661ffff1661384190919063ffffffff16565b61362e60648a60a0015160ff1661ffff16613b7090919063ffffffff16565b61ffff166138d190919063ffffffff16565b9050600061369d61366c8860c0015160ff168a60c0015160ff1661ffff1661384190919063ffffffff16565b61368b60648b60c0015160ff1661ffff16613b7090919063ffffffff16565b61ffff166138d190919063ffffffff16565b905060006136fa6136c98960e0015160ff168b60e0015160ff1661ffff1661384190919063ffffffff16565b6136e860648c60e0015160ff1661ffff16613b7090919063ffffffff16565b61ffff166138d190919063ffffffff16565b9050600061375a6137288a610100015160ff168c610100015160ff1661ffff1661384190919063ffffffff16565b61374860648d610100015160ff1661ffff16613b7090919063ffffffff16565b61ffff166138d190919063ffffffff16565b905060006137a260036137908861377e8b8d61ffff1661384190919063ffffffff16565b61ffff1661384190919063ffffffff16565b61ffff166138d190919063ffffffff16565b90506137e860036137d6866137c4898661ffff1661384190919063ffffffff16565b61ffff1661384190919063ffffffff16565b61ffff166138d190919063ffffffff16565b905061382e600361381c8461380a878661ffff1661384190919063ffffffff16565b61ffff1661384190919063ffffffff16565b61ffff166138d190919063ffffffff16565b9050809850505050505050505092915050565b60008082840190508361ffff168161ffff1610156138c7576040517f08c379a000000000000000000000000000000000000000000000000000000000815260040180806020018281038252601b8152602001807f536166654d6174683a206164646974696f6e206f766572666c6f77000000000081525060200191505060405180910390fd5b8091505092915050565b6000808261ffff161161394c576040517f08c379a000000000000000000000000000000000000000000000000000000000815260040180806020018281038252601a8152602001807f536166654d6174683a206469766973696f6e206279207a65726f00000000000081525060200191505060405180910390fd5b8161ffff168361ffff168161395d57fe5b04905092915050565b60008083600101600084815260200190815260200160002054905060008114613a4257600060018203905060006001866000018054905003905060008660000182815481106139b157fe5b90600052602060002001549050808760000184815481106139ce57fe5b9060005260206000200181905550600183018760010160008381526020019081526020016000208190555086600001805480613a0657fe5b60019003818190600052602060002001600090559055866001016000878152602001908152602001600020600090556001945050505050613a48565b60009150505b92915050565b60008082840190508360ff168160ff161015613ad2576040517f08c379a000000000000000000000000000000000000000000000000000000000815260040180806020018281038252601b8152602001807f536166654d6174683a206164646974696f6e206f766572666c6f77000000000081525060200191505060405180910390fd5b8091505092915050565b60008082840190508363ffffffff168163ffffffff161015613b66576040517f08c379a000000000000000000000000000000000000000000000000000000000815260040180806020018281038252601b8152602001807f536166654d6174683a206164646974696f6e206f766572666c6f77000000000081525060200191505060405180910390fd5b8091505092915050565b6000808361ffff161415613b875760009050613c04565b600082840290508261ffff168461ffff168261ffff1681613ba457fe5b0461ffff1614613bff576040517f08c379a000000000000000000000000000000000000000000000000000000000815260040180806020018281038252602181526020018061575a6021913960400191505060405180910390fd5b809150505b92915050565b6040518061014001604052806000600c811115613c2357fe5b81526020016000600c811115613c3557fe5b8152602001600060ff168152602001600060ff168152602001600060ff168152602001600060ff168152602001600060ff168152602001600060ff168152602001600060ff168152602001600060ff1681525090565b600081359050613c9a81615610565b92915050565b600081519050613caf81615610565b92915050565b600081359050613cc481615627565b92915050565b600081519050613cd981615627565b92915050565b600081359050613cee8161563e565b92915050565b600081359050613d0381615655565b92915050565b600081359050613d188161566c565b92915050565b600081519050613d2d8161566c565b92915050565b600082601f830112613d4457600080fd5b8135613d57613d52826153ef565b6153be565b91508082526020830160208301858383011115613d7357600080fd5b613d7e8382846155a7565b50505092915050565b60006101408284031215613d9a57600080fd5b613da56101406153be565b90506000613db584828501613d09565b6000830152506020613dc984828501613d09565b6020830152506040613ddd848285016140fb565b6040830152506060613df1848285016140fb565b6060830152506080613e05848285016140fb565b60808301525060a0613e19848285016140fb565b60a08301525060c0613e2d848285016140fb565b60c08301525060e0613e41848285016140fb565b60e083015250610100613e56848285016140fb565b61010083015250610120613e6c848285016140fb565b6101208301525092915050565b60006101408284031215613e8c57600080fd5b613e976101406153be565b90506000613ea784828501613d1e565b6000830152506020613ebb84828501613d1e565b6020830152506040613ecf84828501614110565b6040830152506060613ee384828501614110565b6060830152506080613ef784828501614110565b60808301525060a0613f0b84828501614110565b60a08301525060c0613f1f84828501614110565b60c08301525060e0613f3384828501614110565b60e083015250610100613f4884828501614110565b61010083015250610120613f5e84828501614110565b6101208301525092915050565b600060a08284031215613f7d57600080fd5b613f8760a06153be565b90506000613f9784828501613cf4565b6000830152506020613fab84828501613cdf565b602083015250604082013567ffffffffffffffff811115613fcb57600080fd5b613fd784828501613d33565b6040830152506060613feb848285016140d1565b6060830152506080613fff848285016140fb565b60808301525092915050565b600060c0828403121561401d57600080fd5b61402760c06153be565b90506000614037848285016140bc565b600083015250602061404b848285016140bc565b602083015250604061405f848285016140bc565b6040830152506060614073848285016140a7565b6060830152506080614087848285016140a7565b60808301525060a061409b848285016140fb565b60a08301525092915050565b6000813590506140b68161567c565b92915050565b6000813590506140cb81615693565b92915050565b6000813590506140e0816156aa565b92915050565b6000815190506140f5816156aa565b92915050565b60008135905061410a816156c1565b92915050565b60008151905061411f816156c1565b92915050565b60006020828403121561413757600080fd5b600061414584828501613c8b565b91505092915050565b60006020828403121561416057600080fd5b600061416e84828501613ca0565b91505092915050565b6000806040838503121561418a57600080fd5b600061419885828601613c8b565b92505060206141a9858286016140d1565b9150509250929050565b6000602082840312156141c557600080fd5b60006141d384828501613cb5565b91505092915050565b6000602082840312156141ee57600080fd5b60006141fc84828501613cca565b91505092915050565b60006020828403121561421757600080fd5b600061422584828501613cf4565b91505092915050565b6000806040838503121561424157600080fd5b600061424f85828601613cf4565b925050602061426085828601613c8b565b9150509250929050565b6000806040838503121561427d57600080fd5b600061428b85828601613cf4565b925050602061429c858286016140d1565b9150509250929050565b600080604083850312156142b957600080fd5b60006142c785828601613d09565b92505060206142d885828601613d09565b9150509250929050565b6000806000606084860312156142f757600080fd5b600061430586828701613d09565b935050602061431686828701613d09565b9250506040614327868287016140fb565b9150509250925092565b6000610140828403121561434457600080fd5b600061435284828501613e79565b91505092915050565b6000806000610220848603121561437157600080fd5b600084013567ffffffffffffffff81111561438b57600080fd5b61439786828701613f6b565b93505060206143a88682870161400b565b92505060e06143b986828701613d87565b9150509250925092565b6000602082840312156143d557600080fd5b60006143e3848285016140d1565b91505092915050565b6000602082840312156143fe57600080fd5b600061440c848285016140e6565b91505092915050565b6000806040838503121561442857600080fd5b6000614436858286016140d1565b9250506020614447858286016140d1565b9150509250929050565b60006020828403121561446357600080fd5b600061447184828501614110565b91505092915050565b61448381615517565b82525050565b6144928161544c565b82525050565b6144a18161545e565b82525050565b6144b08161546a565b82525050565b6144bf81615496565b82525050565b6144ce81615496565b82525050565b6144dd81615529565b82525050565b6144ec81615529565b82525050565b6144fb8161553b565b82525050565b61450a8161554d565b82525050565b6145198161555f565b82525050565b61452881615571565b82525050565b60006145398261541f565b614543818561542a565b93506145538185602086016155b6565b61455c816155eb565b840191505092915050565b600061457460178361543b565b91507f496e7669746174696f6e206861732065787069726564210000000000000000006000830152602082019050919050565b60006145b4602c8361543b565b91507f5468652073756d206f6620736b696c6c7320706f696e7473206d75737420626560008301527f20657175616c20746f20313000000000000000000000000000000000000000006020830152604082019050919050565b600061461a602c8361543b565b91507f4e6f7420656e6f7567682062616c616e6365206f6e20457468657265616c476160008301527f6d6520636f6e74726163742100000000000000000000000000000000000000006020830152604082019050919050565b600061468060308361543b565b91507f616374697661746544656163746976617465436f6e74726163743a206d75737460008301527f20686176652061646d696e20726f6c65000000000000000000000000000000006020830152604082019050919050565b60006146e660188361543b565b91507f456d70747920737472696e67206e6f7420616c6c6f77656400000000000000006000830152602082019050919050565b600061472660148361543b565b91507f436f6e747261637420697320696e6163746976650000000000000000000000006000830152602082019050919050565b6000614766601c8361543b565b91507f4e69636b6e616d65206e616d6520616c726561647920657869737473000000006000830152602082019050919050565b60006147a6601c8361543b565b91507f506c6179657220697320616c72656164792072656769737465726564000000006000830152602082019050919050565b60006147e660238361543b565b91507f7265717565737446696768743a206d757374206861766520706c61796572207260008301527f6f6c6500000000000000000000000000000000000000000000000000000000006020830152604082019050919050565b600061484c60288361543b565b91507f53656e646572206973206e6f7420746865206f776e6572206f6620746865206360008301527f68617261637465720000000000000000000000000000000000000000000000006020830152604082019050919050565b60006148b260268361543b565b91507f6372656174654368617261637465723a206d757374206861766520706c61796560008301527f7220726f6c6500000000000000000000000000000000000000000000000000006020830152604082019050919050565b600061491860308361543b565b91507f61737369676e50726f626162696c6974794f6657696e6e696e673a206d75737460008301527f20686176652061646d696e20726f6c65000000000000000000000000000000006020830152604082019050919050565b600061497e60258361543b565b91507f50726f626162696c697479206d757374206265206265747765656e203020616e60008301527f64203130300000000000000000000000000000000000000000000000000000006020830152604082019050919050565b60006149e460008361543b565b9150600082019050919050565b60006149fe60208361543b565b91507f4e6f7420656e6f75676820746f6b656e7320616c6c6f77656420746f207573656000830152602082019050919050565b6000614a3e60228361543b565b91507f61636365707446696768743a206d757374206861766520706c6179657220726f60008301527f6c650000000000000000000000000000000000000000000000000000000000006020830152604082019050919050565b6000614aa460278361543b565b91507f496e7669746174696f6e2077617320616c726561647920616363657465642f7260008301527f656a6563746564000000000000000000000000000000000000000000000000006020830152604082019050919050565b6000614b0a60218361543b565b91507f466967687420696e646578206265796f6e6420617272617920656c656d656e7460008301527f73000000000000000000000000000000000000000000000000000000000000006020830152604082019050919050565b6000614b7060188361543b565b91507f4572726f72207472616e73666572696e6720746f6b656e7300000000000000006000830152602082019050919050565b61014082016000820151614bba60008501826144d4565b506020820151614bcd60208501826144d4565b506040820151614be06040850182614dab565b506060820151614bf36060850182614dab565b506080820151614c066080850182614dab565b5060a0820151614c1960a0850182614dab565b5060c0820151614c2c60c0850182614dab565b5060e0820151614c3f60e0850182614dab565b50610100820151614c54610100850182614dab565b50610120820151614c69610120850182614dab565b50505050565b600060a083016000830151614c8760008601826144b6565b506020830151614c9a60208601826144a7565b5060408301518482036040860152614cb2828261452e565b9150506060830151614cc76060860182614d7e565b506080830151614cda6080860182614dab565b508091505092915050565b60c082016000820151614cfb6000850182614d6f565b506020820151614d0e6020850182614d6f565b506040820151614d216040850182614d6f565b506060820151614d346060850182614d60565b506080820151614d476080850182614d60565b5060a0820151614d5a60a0850182614dab565b50505050565b614d69816154b3565b82525050565b614d78816154e1565b82525050565b614d87816154f0565b82525050565b614d96816154f0565b82525050565b614da5816154fa565b82525050565b614db48161550a565b82525050565b614dc38161550a565b82525050565b6000602082019050614dde6000830184614489565b92915050565b6000604082019050614df9600083018561447a565b614e066020830184614489565b9392505050565b6000606082019050614e22600083018661447a565b614e2f6020830185614489565b614e3c6040830184614501565b949350505050565b600061024082019050614e5a600083018761447a565b8181036020830152614e6c8186614c6f565b9050614e7b6040830185614ce5565b614e89610100830184614ba3565b95945050505050565b6000604082019050614ea76000830185614489565b614eb46020830184614489565b9392505050565b6000606082019050614ed06000830186614489565b614edd602083018561447a565b614eea6040830184614501565b949350505050565b6000604082019050614f076000830185614489565b614f146020830184614d8d565b9392505050565b600061014082019050614f31600083018d614489565b614f3e602083018c614d8d565b614f4b604083018b614d8d565b614f58606083018a614498565b614f656080830189614498565b614f7260a0830188614498565b614f7f60c0830187614498565b614f8c60e0830186614498565b614f9a610100830185614498565b614fa8610120830184614d8d565b9b9a5050505050505050505050565b6000602082019050614fcc6000830184614498565b92915050565b6000602082019050614fe760008301846144c5565b92915050565b600060408201905061500260008301856144c5565b61500f6020830184614d8d565b9392505050565b600060a08201905061502b60008301886144c5565b6150386020830187614d9c565b6150456040830186614d9c565b6150526060830185614d9c565b61505f6080830184614d9c565b9695505050505050565b600060408201905061507e60008301856144e3565b61508b6020830184614dba565b9392505050565b60006020820190506150a760008301846144f2565b92915050565b600060208201905081810360008301526150c681614567565b9050919050565b600060208201905081810360008301526150e6816145a7565b9050919050565b600060208201905081810360008301526151068161460d565b9050919050565b6000602082019050818103600083015261512681614673565b9050919050565b60006020820190508181036000830152615146816146d9565b9050919050565b6000602082019050818103600083015261516681614719565b9050919050565b6000602082019050818103600083015261518681614759565b9050919050565b600060208201905081810360008301526151a681614799565b9050919050565b600060208201905081810360008301526151c6816147d9565b9050919050565b600060208201905081810360008301526151e68161483f565b9050919050565b60006020820190508181036000830152615206816148a5565b9050919050565b600060208201905081810360008301526152268161490b565b9050919050565b6000602082019050818103600083015261524681614971565b9050919050565b60006020820190508181036000830152615266816149d7565b9050919050565b60006020820190508181036000830152615286816149f1565b9050919050565b600060208201905081810360008301526152a681614a31565b9050919050565b600060208201905081810360008301526152c681614a97565b9050919050565b600060208201905081810360008301526152e681614afd565b9050919050565b6000602082019050818103600083015261530681614b63565b9050919050565b60006020820190506153226000830184614d8d565b92915050565b600060408201905061533d6000830185614d8d565b61534a6020830184614510565b9392505050565b60006040820190506153666000830185614d8d565b615373602083018461451f565b9392505050565b600060408201905061538f6000830185614d8d565b61539c6020830184614dba565b9392505050565b60006020820190506153b86000830184614dba565b92915050565b6000604051905081810181811067ffffffffffffffff821117156153e5576153e46155e9565b5b8060405250919050565b600067ffffffffffffffff82111561540a576154096155e9565b5b601f19601f8301169050602081019050919050565b600081519050919050565b600082825260208201905092915050565b600082825260208201905092915050565b6000615457826154c1565b9050919050565b60008115159050919050565b60007fffffffffffffffffffffffffffffffffffffffffffffffff000000000000000082169050919050565b6000819050919050565b60008190506154ae826155fc565b919050565b600061ffff82169050919050565b600073ffffffffffffffffffffffffffffffffffffffff82169050919050565b600062ffffff82169050919050565b6000819050919050565b600063ffffffff82169050919050565b600060ff82169050919050565b600061552282615583565b9050919050565b6000615534826154a0565b9050919050565b60006155468261550a565b9050919050565b6000615558826154f0565b9050919050565b600061556a8261550a565b9050919050565b600061557c8261550a565b9050919050565b600061558e82615595565b9050919050565b60006155a0826154c1565b9050919050565b82818337600083830152505050565b60005b838110156155d45780820151818401526020810190506155b9565b838111156155e3576000848401525b50505050565bfe5b6000601f19601f8301169050919050565b600d811061560d5761560c6155e9565b5b50565b6156198161544c565b811461562457600080fd5b50565b6156308161545e565b811461563b57600080fd5b50565b6156478161546a565b811461565257600080fd5b50565b61565e81615496565b811461566957600080fd5b50565b600d811061567957600080fd5b50565b615685816154b3565b811461569057600080fd5b50565b61569c816154e1565b81146156a757600080fd5b50565b6156b3816154f0565b81146156be57600080fd5b50565b6156ca8161550a565b81146156d557600080fd5b5056fe456e756d657261626c655365743a20696e646578206f7574206f6620626f756e6473416363657373436f6e74726f6c3a2073656e646572206d75737420626520616e2061646d696e20746f206772616e74416363657373436f6e74726f6c3a2073656e646572206d75737420626520616e2061646d696e20746f207265766f6b65536166654d6174683a206d756c7469706c69636174696f6e206f766572666c6f77416363657373436f6e74726f6c3a2063616e206f6e6c792072656e6f756e636520726f6c657320666f722073656c66a26469706673582212203bbe87a2f6ac922e32afaa6481a41833d821e129f191d4164d8246156a8aecfc64736f6c63430007050033",
  "immutableReferences": {},
  "source": "// SPDX-License-Identifier: MIT\r\npragma solidity 0.7.5;\r\npragma abicoder v2;\r\n\r\nimport '@openzeppelin/contracts/access/AccessControl.sol';\r\nimport \"@openzeppelin/contracts/utils/Context.sol\";\r\nimport '@openzeppelin/contracts/math/SafeMath.sol';\r\nimport './SafeMath8.sol';\r\nimport './SafeMath16.sol';\r\nimport './SafeMath24.sol';\r\nimport './SafeMath32.sol';\r\nimport './IEtherealBase.sol';\r\nimport './IEtherealCharacter.sol';\r\nimport './IBEP20.sol';\r\n\r\ncontract EtherealGame is Context, AccessControl, IEtherealBase\r\n{\r\n  using SafeMath for uint256;\r\n  using SafeMath8 for uint8;\r\n  using SafeMath16 for uint16;\r\n  using SafeMath24 for uint24;\r\n  using SafeMath32 for uint32;\r\n\r\n  struct Player {\r\n    bytes32 nickname;\r\n    uint32 wins;\r\n    uint32 loss;\r\n    uint32 tie;\r\n    uint32 gaveup;\r\n  }\r\n\r\n  struct Fight {\r\n    address player1;\r\n    address player2;\r\n    uint256 player1CharacterId;\r\n    uint256 player2CharacterId;\r\n  }\r\n\r\n  struct FightRequest {\r\n    address contender;\r\n    uint256 contenderCharacterId;\r\n    uint256 myCharacterId;\r\n    bool accepted;\r\n    bool rejected;\r\n    bool pending;\r\n    bool win;\r\n    bool loss;\r\n    bool tie;\r\n    uint256 expirationDate;\r\n  }\r\n\r\n\r\n  \r\n  // Player role to improve access control\r\n  bytes32 public constant PLAYER_ROLE = keccak256(\"PLAYER_ROLE\");\r\n\r\n  // Addresses of other contracts\r\n  address public planetContract;\r\n  address public characterContract;\r\n  address public weaponsContract;\r\n  address public kopernikTokenContract;\r\n\r\n  // Contract status\r\n  bool public active;\r\n  // Table of players\r\n  mapping(address => Player) public playerData;\r\n  address[] public players;\r\n  uint256 public numPlayers;\r\n  mapping(bytes32 => bool) public playerNicknameExists;\r\n  mapping(address => bool) public playerIsRegistered;\r\n  \r\n  // Table of fight requests\r\n  mapping(address => FightRequest[]) public fightRequests;\r\n  mapping(address => uint256) public totalFightRequests;\r\n\r\n  // Table for Elements of nature probs\r\n  mapping(ElementOfNature => mapping(ElementOfNature => uint8)) public probabilityOfWinningAgainstElem;\r\n\r\n  // Statistics\r\n  address public topPlayer;\r\n  uint256 public topFighter;\r\n\r\n  // Settings\r\n  uint256 public initialTokens;\r\n\r\n  /*\r\n  * @dev Check if bytes32 is empty\r\n  */\r\n  modifier isNotEmptyBytes32(bytes32 _s)\r\n  {\r\n    require(\r\n      (keccak256(abi.encode(_s)) != keccak256(abi.encode(\"\"))) &&\r\n      (keccak256(abi.encode(_s)) != keccak256(abi.encode(0x00))),\r\n      \"Empty string not allowed\"\r\n    );\r\n    _;\r\n  }\r\n\r\n\r\n\t/*\r\n\t*\t@dev Check if contract is active\r\n\t*/\r\n\tmodifier isContractActive {\r\n\t\trequire( active, \"Contract is inactive\" );\r\n\t\t_;\r\n\t}\r\n\r\n  /*\r\n  * @dev Check if contract is active\r\n  */\r\n  modifier isNotRegistered() {\r\n    require(!playerIsRegistered[_msgSender()], \"Player is already registered\");\r\n    _;\r\n  }\r\n\r\n  /*\r\n  * @dev Check if planet name is available or if is already used\r\n  */\r\n  modifier isPlayerNicknameAvailable(bytes32 _name) {\r\n    require(\r\n      !playerNicknameExists[_name],\r\n      \"Nickname name already exists\"\r\n    );\r\n    _;\r\n  }\r\n\r\n\r\n  /*\r\n  * @dev Log contract status update\r\n  */\r\n  event ContractStatusUpdate(bool newStatus);\r\n  event LibContractAddressUpdate(address newAddress, bytes32 contractName);\r\n  event ProbabilityOfWinningUpdate(ElementOfNature indexed _me, ElementOfNature _enemy, uint8 _prob);\r\n  event NewPlayerRegistered(address indexed player, bytes32 name, uint256 totalPlayers);\r\n  event NewCharacterMinted(address indexed player, bytes32 name);\r\n  event NewFightRequest(address indexed player1, address indexed player2, uint256 id);\r\n  event NewFightRequestAccepted(address indexed player1, address indexed player2);\r\n\r\n  /*\r\n  * @dev Set default admin role to owner\r\n  */\r\n  constructor(\r\n    address _planetAddress,\r\n    address _characterAddress,\r\n    address _weaponAddress,\r\n    address _tokenAddress,\r\n    uint256 _initialTokens\r\n  ) {\r\n    _setupRole(DEFAULT_ADMIN_ROLE, _msgSender());\r\n    _setPlanetContractAddress(_planetAddress);\r\n    _setCharacterContractAddress(_characterAddress);\r\n    _setWeaponContractAddress(_weaponAddress);\r\n    _setKopernikTokenContractAddress(_tokenAddress);\r\n    initialTokens = _initialTokens;\r\n    active = true;\r\n  }\r\n\r\n  /*\r\n  *  @Update planet contract address\r\n  */\r\n  function _setPlanetContractAddress(address _contract)\r\n    private\r\n  {\r\n    planetContract = _contract;\r\n    emit LibContractAddressUpdate(_contract, 'planet');\r\n  }\r\n\r\n  /*\r\n  *  @Update character contract address\r\n  */\r\n  function _setCharacterContractAddress(address _contract)\r\n    private\r\n  {\r\n    characterContract = _contract;\r\n    emit LibContractAddressUpdate(_contract, 'character');\r\n  }\r\n\r\n  /*\r\n  *  @Update weapon contract address\r\n  */\r\n  function _setWeaponContractAddress(address _contract)\r\n    private\r\n  {\r\n    weaponsContract = _contract;\r\n    emit LibContractAddressUpdate(_contract, 'weapon');\r\n  }\r\n\r\n  /*\r\n  *  @Update token contract address\r\n  */\r\n  function _setKopernikTokenContractAddress(address _contract)\r\n    private\r\n  {\r\n    kopernikTokenContract = _contract;\r\n    emit LibContractAddressUpdate(_contract, 'kopernik');\r\n  }\r\n\r\n  /*\r\n  *  @dev Register a new player\r\n  */\r\n  function _registerPlayer(bytes32 _name)\r\n    private\r\n    isNotEmptyBytes32(_name)\r\n    isNotRegistered\r\n    isPlayerNicknameAvailable(_name)\r\n  {\r\n    playerData[_msgSender()] = Player(_name, 0, 0, 0, 0);\r\n    players.push(_msgSender());\r\n    playerNicknameExists[_name] = true;\r\n    playerIsRegistered[_msgSender()] = true;\r\n    numPlayers = players.length;\r\n    _setupRole(PLAYER_ROLE, _msgSender());\r\n    emit NewPlayerRegistered(_msgSender(), _name, numPlayers);\r\n  }\r\n\r\n  /*\r\n  * @dev Send initial tokens\r\n  */\r\n  function _sendInitialTokensToPlayer(address _to)\r\n    private\r\n  {\r\n    IBEP20 KopernikToken = IBEP20(kopernikTokenContract);\r\n    uint256 etherealBalance = KopernikToken.balanceOf(address(this));\r\n    // Check contract balance\r\n    if (etherealBalance < initialTokens) {\r\n      revert(\"Not enough balance on EtherealGame contract!\");\r\n    }\r\n    if (!KopernikToken.transfer(_to, initialTokens)) {\r\n      revert(\"Error transfering tokens\");\r\n    }\r\n  }\r\n\r\n  /*\r\n  * @dev Returns the Sum of skills points on Metadata object\r\n  */\r\n  function _sumSkillsPoints(CharacterAttributesMetadata memory extraAbilitiesMetaData)\r\n    private\r\n    pure\r\n    returns (uint32)\r\n  {\r\n    uint32 res = extraAbilitiesMetaData.life.add(\r\n      extraAbilitiesMetaData.armor.add(\r\n        extraAbilitiesMetaData.strength\r\n      )\r\n    );\r\n    res = res.add(\r\n      extraAbilitiesMetaData.speed.add(\r\n        extraAbilitiesMetaData.luck.add(\r\n          extraAbilitiesMetaData.spirit\r\n        )\r\n      )\r\n    );\r\n\r\n    return res;\r\n  }\r\n\r\n  /*\r\n  * @dev Create a new character\r\n  *\r\n  * - Only 10pts for skills (abilities) can be assigned on creation \r\n  */\r\n  function _createCharacter(\r\n    // BaseMetadata\r\n    CharacterBaseMetadata memory extraBaseMetaData,\r\n    // PhysicalMetadata\r\n    CharacterPhysicalMetadata memory extraPhysicalMetaData,\r\n    // AttributesMetadata\r\n    CharacterAttributesMetadata memory extraAbilitiesMetaData\r\n  )\r\n    private\r\n    returns (uint256)\r\n  {\r\n    require(_sumSkillsPoints(extraAbilitiesMetaData) == 10, \"The sum of skills points must be equal to 10\");\r\n    extraAbilitiesMetaData.level = 1;\r\n    extraAbilitiesMetaData.extraSkillsPoints = 0;\r\n\r\n    IEtherealCharacter CharacterContract = IEtherealCharacter(characterContract);\r\n    uint256 characterId = CharacterContract.mint(\r\n      _msgSender(),\r\n      extraBaseMetaData,\r\n      extraPhysicalMetaData,\r\n      extraAbilitiesMetaData\r\n    );\r\n    emit NewCharacterMinted(_msgSender(), extraBaseMetaData.name);\r\n    return characterId;\r\n  }\r\n\r\n  \r\n\r\n  /*\r\n  * @dev Assign/update probability of my _element defeating _enemy\r\n  */\r\n  function _assignProbabilityOfWinning(\r\n    ElementOfNature _me,\r\n    ElementOfNature _enemy,\r\n    uint8 _probWin\r\n  )\r\n    private\r\n  {\r\n    require (_probWin <= 100, \"Probability must be between 0 and 100\");\r\n    uint8 probLoss = 100 - _probWin;\r\n    probabilityOfWinningAgainstElem[_me][_enemy] = _probWin;\r\n    emit ProbabilityOfWinningUpdate(_me, _enemy, _probWin);\r\n    probabilityOfWinningAgainstElem[_enemy][_me] = probLoss;\r\n    emit ProbabilityOfWinningUpdate(_enemy, _me, probLoss);\r\n  }\r\n\r\n  /*\r\n  * @dev Request fight\r\n  */\r\n  function _requestFight(address _contender, uint256 _characterId)\r\n    private\r\n    returns(uint256)\r\n  {\r\n    require(\r\n      IBEP20(kopernikTokenContract).allowance(\r\n        _msgSender(), address(this)\r\n      ) >= 1, \"Not enough tokens allowed to use\"\r\n    );\r\n    require(\r\n      IEtherealCharacter(characterContract).ownerOf(_characterId) == _msgSender(),\r\n      \"Sender is not the owner of the character\"\r\n    );\r\n\r\n    // Initialize as true only the \"pending\" flag\r\n    fightRequests[_contender].push(FightRequest(\r\n        _msgSender(), _characterId, 0, false, false, true, false, false, false,\r\n        block.timestamp + 15 minutes\r\n      ));\r\n    totalFightRequests[_contender] = fightRequests[_contender].length;\r\n    NewFightRequest(_msgSender(), _contender, totalFightRequests[_contender]);\r\n    return totalFightRequests[_contender];\r\n  }\r\n\r\n  /*\r\n  * @dev Accept fight\r\n  * Returns contender Character Id\r\n  */\r\n  function _acceptFight(uint256 _fightRequestId, uint256 _myCharacterId)\r\n    private\r\n    returns (uint256)\r\n  {\r\n    require(\r\n      _fightRequestId < totalFightRequests[_msgSender()],\r\n      \"Fight index beyond array elements\"\r\n    );\r\n    require(\r\n      fightRequests[_msgSender()][_fightRequestId].expirationDate < block.timestamp,\r\n      \"Invitation has expired!\"\r\n    );\r\n    require(\r\n      fightRequests[_msgSender()][_fightRequestId].pending,\r\n      \"Invitation was already acceted/rejected\"\r\n    );\r\n    require(\r\n      IBEP20(kopernikTokenContract).allowance(\r\n        _msgSender(), address(this)\r\n      ) >= 1, \"Not enough tokens allowed to use\"\r\n    );\r\n    require(\r\n      IBEP20(kopernikTokenContract).allowance(\r\n        fightRequests[_msgSender()][_fightRequestId].contender, address(this)\r\n      ) >= 100, \"Not enough tokens allowed to use\"\r\n    );\r\n    require(\r\n      IEtherealCharacter(characterContract).ownerOf(_myCharacterId) == _msgSender(),\r\n      \"Sender is not the owner of the character\"\r\n    );\r\n\r\n    // Update status of Fight Request log\r\n    fightRequests[_msgSender()][_fightRequestId].accepted = true;\r\n    fightRequests[_msgSender()][_fightRequestId].pending = false;\r\n    fightRequests[_msgSender()][_fightRequestId].myCharacterId = _myCharacterId;\r\n    NewFightRequestAccepted(\r\n      _msgSender(), \r\n      fightRequests[_msgSender()][_fightRequestId].contender\r\n    );\r\n\r\n    return fightRequests[_msgSender()][_fightRequestId].contenderCharacterId;\r\n\r\n  }\r\n\r\n  /*\r\n  * @dev Probabilities of _ch1 winning against _ch2\r\n  */\r\n  function _probOfCh1DefeatingCh2(\r\n    CharacterAttributesMetadata memory _ch1,\r\n    CharacterAttributesMetadata memory _ch2\r\n  )\r\n    private\r\n    pure\r\n    returns(uint16)\r\n  {\r\n    uint16 probLife = (uint16(_ch1.life).mul(100)).div(uint16(_ch1.life).add(uint16(_ch2.life)));\r\n    uint16 probArmor = (uint16(_ch1.armor).mul(100)).div(uint16(_ch1.armor).add(uint16(_ch2.armor)));\r\n    uint16 probStrength = (uint16(_ch1.strength).mul(100)).div(uint16(_ch1.strength).add(uint16(_ch2.strength)));\r\n    uint16 probSpeed = (uint16(_ch1.speed).mul(100)).div(uint16(_ch1.speed).add(uint16(_ch2.speed)));\r\n    uint16 probLuck = (uint16(_ch1.luck).mul(100)).div(uint16(_ch1.luck).add(uint16(_ch2.luck)));\r\n    uint16 probSpirit = (uint16(_ch1.spirit).mul(100)).div(uint16(_ch1.spirit).add(uint16(_ch2.spirit)));\r\n    uint16 probLevel = (uint16(_ch1.level).mul(100)).div(uint16(_ch1.level).add(uint16(_ch2.level)));\r\n    // Sum all probabilities\r\n    uint16 probFinal = (\r\n      probLife.add(probArmor).add(probStrength)\r\n    ).div(3);\r\n    probFinal = (probFinal.add(probSpeed).add(probLuck)).div(3);\r\n    probFinal = (probFinal.add(probSpirit).add(probLevel)).div(3);\r\n\r\n    return probFinal;\r\n  }\r\n\r\n  /*\r\n  * @dev FIGHT!\r\n  *   returns winner\r\n  */\r\n  function _fight(\r\n    CharacterAttributesMetadata memory _ch1,\r\n    CharacterAttributesMetadata memory _ch2,\r\n    uint256 _myCharacterId,\r\n    uint256 _contenderId\r\n  )\r\n    private\r\n    view\r\n    returns(uint256, uint16)\r\n  {\r\n    // Get elements probs from table\r\n    uint16 probPrimaryElem1 = probabilityOfWinningAgainstElem[_ch1.primaryElement][_ch2.primaryElement];\r\n    uint16 probPrimaryElem2 = probabilityOfWinningAgainstElem[_ch1.primaryElement][_ch2.secondaryElement];\r\n    uint16 probSecondaryElem1 = probabilityOfWinningAgainstElem[_ch1.secondaryElement][_ch2.primaryElement];\r\n    uint16 probSecondaryElem2 = probabilityOfWinningAgainstElem[_ch1.secondaryElement][_ch2.secondaryElement];\r\n  \r\n    // Sum abilities probabilitites\r\n    uint16 probFinal = _probOfCh1DefeatingCh2(_ch1, _ch2);\r\n    \r\n    // Add probabilities from Elements of Nature\r\n    probFinal = (\r\n      probFinal.add(probPrimaryElem1).add(probPrimaryElem2)\r\n    ).div(3);\r\n    probFinal = (\r\n      probFinal.add(probSecondaryElem1).add(probSecondaryElem2)\r\n    ).div(3);\r\n\r\n    // Possible results\r\n    /*\r\n    * NOTE: Probably a PRNG would be more fun, but we need an Oracle!\r\n    */\r\n    if (probFinal >= 60) {\r\n      return (_myCharacterId, probFinal);\r\n    } else if (probFinal < 50) {\r\n      return (_contenderId, probFinal);\r\n    }\r\n\r\n    // Default (draw)\r\n    return (0, probFinal);\r\n  }\r\n\r\n\r\n  /*\r\n  * @dev Create a new player and send initial tokens\r\n  */\r\n  function registerPlayer(bytes32 _name)\r\n    public\r\n    isContractActive\r\n  {\r\n    _registerPlayer(_name);\r\n    _sendInitialTokensToPlayer(_msgSender());\r\n  }\r\n\r\n  /*\r\n  * @dev Create a new character\r\n  */\r\n  function createCharacter(\r\n    // BaseMetadata\r\n    CharacterBaseMetadata memory extraBaseMetaData,\r\n    // PhysicalMetadata\r\n    CharacterPhysicalMetadata memory extraPhysicalMetaData,\r\n    // AttributesMetadata\r\n    CharacterAttributesMetadata memory extraAbilitiesMetaData\r\n  )\r\n    public\r\n    isContractActive\r\n    returns(uint256)\r\n  {\r\n    require(hasRole(PLAYER_ROLE, _msgSender()), \"createCharacter: must have player role\");\r\n\r\n    uint256 characterId = _createCharacter(\r\n      extraBaseMetaData,\r\n      extraPhysicalMetaData,\r\n      extraAbilitiesMetaData\r\n    );\r\n    return characterId;\r\n  }\r\n\r\n  /*\r\n  * @dev Request a fight\r\n  */\r\n  function requestFight(\r\n    address _contender,\r\n    uint256 _characterId\r\n  )\r\n    public\r\n    isContractActive\r\n    returns(uint256)\r\n  {\r\n    require(hasRole(PLAYER_ROLE, _msgSender()), \"requestFight: must have player role\");\r\n    uint256 fightId = _requestFight(_contender, _characterId);\r\n    return fightId;\r\n  }\r\n\r\n  /*\r\n  * @dev Accept request and FIGHT!\r\n  * returns Winner\r\n  */\r\n  function acceptFight(\r\n    uint256 _fightRequestId, uint256 _myCharacterId\r\n  )\r\n    public\r\n    isContractActive\r\n    returns (uint256, uint8)\r\n  {\r\n    require(hasRole(PLAYER_ROLE, _msgSender()), \"acceptFight: must have player role\");\r\n    // ACCEPT FIGHT\r\n    uint256 _contenderCharacterId = _acceptFight(_fightRequestId, _myCharacterId);\r\n\r\n    // FIGHT\r\n    uint256 winner;\r\n    uint16 prob;\r\n    uint8 newLevel;\r\n    CharacterAttributesMetadata memory _ch1 = IEtherealCharacter(characterContract).characterAttributesMetadata(_myCharacterId);\r\n    CharacterAttributesMetadata memory _ch2 = IEtherealCharacter(characterContract).characterAttributesMetadata(_contenderCharacterId);\r\n    (winner, prob) = _fight(_ch1, _ch2, _myCharacterId, _contenderCharacterId);\r\n\r\n\r\n    // IF PLAYER 1 WINS (IF I WIN)\r\n    if (winner == _myCharacterId) {\r\n      // Upgrade Fight request status and winner\r\n      newLevel = IEtherealCharacter(characterContract).upgradeCharacter(_myCharacterId, 6);\r\n      fightRequests[_msgSender()][_fightRequestId].win = true;\r\n\r\n      // Send 1 KopernikToken to winner from loser\r\n      IBEP20(kopernikTokenContract).transferFrom(\r\n        //Sender\r\n        fightRequests[_msgSender()][_fightRequestId].contender,\r\n        // Recipient\r\n        _msgSender(),\r\n        // Amount\r\n        100  \r\n      );\r\n\r\n    } // TIE\r\n    else if(winner == 0) {\r\n      // Upgrade Fight request status\r\n      fightRequests[_msgSender()][_fightRequestId].tie = true;\r\n\r\n    } // ELSE PLAYER 2 WINS\r\n    else {\r\n      // Upgrade Fight request status and winner\r\n      newLevel = IEtherealCharacter(characterContract).upgradeCharacter(_contenderCharacterId, 4);\r\n      fightRequests[_msgSender()][_fightRequestId].loss = true;\r\n\r\n      // Send 1 KopernikToken to winner from loser\r\n      // Send 1 KopernikToken to winner from loser\r\n      IBEP20(kopernikTokenContract).transferFrom(\r\n        //Sender\r\n        _msgSender(),\r\n        // Recipient\r\n        fightRequests[_msgSender()][_fightRequestId].contender,\r\n        // Amount\r\n        100  \r\n      );\r\n    }\r\n\r\n    return (winner, newLevel);\r\n\r\n  }\r\n\r\n  /*\r\n  * @dev Assign/update probability of my _element defeating _enemy\r\n  */\r\n  function assignProbabilityOfWinning(\r\n    ElementOfNature _me,\r\n    ElementOfNature _enemy,\r\n    uint8 _probWin\r\n  )\r\n    external\r\n  {\r\n    require(hasRole(DEFAULT_ADMIN_ROLE, _msgSender()), \"assignProbabilityOfWinning: must have admin role\");\r\n    _assignProbabilityOfWinning(_me, _enemy, _probWin);\r\n  }\r\n\r\n  /*\r\n  * @dev Update contract status\r\n  */\r\n  function activateDeactivateContract(bool _active)\r\n    external\r\n  {\r\n    require(hasRole(DEFAULT_ADMIN_ROLE, _msgSender()), \"activateDeactivateContract: must have admin role\");\r\n\r\n    active = _active;\r\n    emit ContractStatusUpdate(_active);\r\n  }\r\n\r\n\r\n\r\n}",
  "sourcePath": "C:/xampp/htdocs/ethereal-bnb/truffle-files/contracts/EtherealGame.sol",
  "compiler": {
    "name": "solc",
    "version": "0.7.5+commit.eb77ed08.Emscripten.clang"
  },
  "schemaVersion": "3.3.3",
  "updatedAt": "2021-02-17T00:37:14.059Z",
  "devdoc": {
    "kind": "dev",
    "methods": {
      "getRoleAdmin(bytes32)": {
        "details": "Returns the admin role that controls `role`. See {grantRole} and {revokeRole}. To change a role's admin, use {_setRoleAdmin}."
      },
      "getRoleMember(bytes32,uint256)": {
        "details": "Returns one of the accounts that have `role`. `index` must be a value between 0 and {getRoleMemberCount}, non-inclusive. Role bearers are not sorted in any particular way, and their ordering may change at any point. WARNING: When using {getRoleMember} and {getRoleMemberCount}, make sure you perform all queries on the same block. See the following https://forum.openzeppelin.com/t/iterating-over-elements-on-enumerableset-in-openzeppelin-contracts/2296[forum post] for more information."
      },
      "getRoleMemberCount(bytes32)": {
        "details": "Returns the number of accounts that have `role`. Can be used together with {getRoleMember} to enumerate all bearers of a role."
      },
      "grantRole(bytes32,address)": {
        "details": "Grants `role` to `account`. If `account` had not been already granted `role`, emits a {RoleGranted} event. Requirements: - the caller must have ``role``'s admin role."
      },
      "hasRole(bytes32,address)": {
        "details": "Returns `true` if `account` has been granted `role`."
      },
      "renounceRole(bytes32,address)": {
        "details": "Revokes `role` from the calling account. Roles are often managed via {grantRole} and {revokeRole}: this function's purpose is to provide a mechanism for accounts to lose their privileges if they are compromised (such as when a trusted device is misplaced). If the calling account had been granted `role`, emits a {RoleRevoked} event. Requirements: - the caller must be `account`."
      },
      "revokeRole(bytes32,address)": {
        "details": "Revokes `role` from `account`. If `account` had been granted `role`, emits a {RoleRevoked} event. Requirements: - the caller must have ``role``'s admin role."
      }
    },
    "version": 1
  },
  "userdoc": {
    "kind": "user",
    "methods": {},
    "version": 1
  }
}