{
  "contractName": "EtherealGame",
  "abi": [
    {
      "inputs": [
        {
          "internalType": "address",
          "name": "_planetAddress",
          "type": "address"
        },
        {
          "internalType": "address",
          "name": "_characterAddress",
          "type": "address"
        },
        {
          "internalType": "address",
          "name": "_weaponAddress",
          "type": "address"
        },
        {
          "internalType": "address",
          "name": "_tokenAddress",
          "type": "address"
        },
        {
          "internalType": "uint256",
          "name": "_initialTokens",
          "type": "uint256"
        }
      ],
      "stateMutability": "nonpayable",
      "type": "constructor"
    },
    {
      "anonymous": false,
      "inputs": [
        {
          "indexed": false,
          "internalType": "bool",
          "name": "newStatus",
          "type": "bool"
        }
      ],
      "name": "ContractStatusUpdated",
      "type": "event"
    },
    {
      "anonymous": false,
      "inputs": [
        {
          "indexed": false,
          "internalType": "address",
          "name": "newAddress",
          "type": "address"
        },
        {
          "indexed": false,
          "internalType": "bytes32",
          "name": "contractName",
          "type": "bytes32"
        }
      ],
      "name": "LibContractAddressUpdated",
      "type": "event"
    },
    {
      "anonymous": false,
      "inputs": [
        {
          "indexed": true,
          "internalType": "bytes32",
          "name": "role",
          "type": "bytes32"
        },
        {
          "indexed": true,
          "internalType": "bytes32",
          "name": "previousAdminRole",
          "type": "bytes32"
        },
        {
          "indexed": true,
          "internalType": "bytes32",
          "name": "newAdminRole",
          "type": "bytes32"
        }
      ],
      "name": "RoleAdminChanged",
      "type": "event"
    },
    {
      "anonymous": false,
      "inputs": [
        {
          "indexed": true,
          "internalType": "bytes32",
          "name": "role",
          "type": "bytes32"
        },
        {
          "indexed": true,
          "internalType": "address",
          "name": "account",
          "type": "address"
        },
        {
          "indexed": true,
          "internalType": "address",
          "name": "sender",
          "type": "address"
        }
      ],
      "name": "RoleGranted",
      "type": "event"
    },
    {
      "anonymous": false,
      "inputs": [
        {
          "indexed": true,
          "internalType": "bytes32",
          "name": "role",
          "type": "bytes32"
        },
        {
          "indexed": true,
          "internalType": "address",
          "name": "account",
          "type": "address"
        },
        {
          "indexed": true,
          "internalType": "address",
          "name": "sender",
          "type": "address"
        }
      ],
      "name": "RoleRevoked",
      "type": "event"
    },
    {
      "inputs": [],
      "name": "DEFAULT_ADMIN_ROLE",
      "outputs": [
        {
          "internalType": "bytes32",
          "name": "",
          "type": "bytes32"
        }
      ],
      "stateMutability": "view",
      "type": "function",
      "constant": true
    },
    {
      "inputs": [],
      "name": "PLAYER_ROLE",
      "outputs": [
        {
          "internalType": "bytes32",
          "name": "",
          "type": "bytes32"
        }
      ],
      "stateMutability": "view",
      "type": "function",
      "constant": true
    },
    {
      "inputs": [],
      "name": "active",
      "outputs": [
        {
          "internalType": "bool",
          "name": "",
          "type": "bool"
        }
      ],
      "stateMutability": "view",
      "type": "function",
      "constant": true
    },
    {
      "inputs": [],
      "name": "characterContract",
      "outputs": [
        {
          "internalType": "address",
          "name": "",
          "type": "address"
        }
      ],
      "stateMutability": "view",
      "type": "function",
      "constant": true
    },
    {
      "inputs": [
        {
          "internalType": "uint256",
          "name": "",
          "type": "uint256"
        }
      ],
      "name": "fights",
      "outputs": [
        {
          "internalType": "address",
          "name": "player1",
          "type": "address"
        },
        {
          "internalType": "address",
          "name": "player2",
          "type": "address"
        },
        {
          "internalType": "uint256",
          "name": "player1CharacterId",
          "type": "uint256"
        },
        {
          "internalType": "uint256",
          "name": "player2CharacterId",
          "type": "uint256"
        }
      ],
      "stateMutability": "view",
      "type": "function",
      "constant": true
    },
    {
      "inputs": [
        {
          "internalType": "bytes32",
          "name": "role",
          "type": "bytes32"
        }
      ],
      "name": "getRoleAdmin",
      "outputs": [
        {
          "internalType": "bytes32",
          "name": "",
          "type": "bytes32"
        }
      ],
      "stateMutability": "view",
      "type": "function",
      "constant": true
    },
    {
      "inputs": [
        {
          "internalType": "bytes32",
          "name": "role",
          "type": "bytes32"
        },
        {
          "internalType": "uint256",
          "name": "index",
          "type": "uint256"
        }
      ],
      "name": "getRoleMember",
      "outputs": [
        {
          "internalType": "address",
          "name": "",
          "type": "address"
        }
      ],
      "stateMutability": "view",
      "type": "function",
      "constant": true
    },
    {
      "inputs": [
        {
          "internalType": "bytes32",
          "name": "role",
          "type": "bytes32"
        }
      ],
      "name": "getRoleMemberCount",
      "outputs": [
        {
          "internalType": "uint256",
          "name": "",
          "type": "uint256"
        }
      ],
      "stateMutability": "view",
      "type": "function",
      "constant": true
    },
    {
      "inputs": [
        {
          "internalType": "bytes32",
          "name": "role",
          "type": "bytes32"
        },
        {
          "internalType": "address",
          "name": "account",
          "type": "address"
        }
      ],
      "name": "grantRole",
      "outputs": [],
      "stateMutability": "nonpayable",
      "type": "function"
    },
    {
      "inputs": [
        {
          "internalType": "bytes32",
          "name": "role",
          "type": "bytes32"
        },
        {
          "internalType": "address",
          "name": "account",
          "type": "address"
        }
      ],
      "name": "hasRole",
      "outputs": [
        {
          "internalType": "bool",
          "name": "",
          "type": "bool"
        }
      ],
      "stateMutability": "view",
      "type": "function",
      "constant": true
    },
    {
      "inputs": [],
      "name": "initialTokens",
      "outputs": [
        {
          "internalType": "uint256",
          "name": "",
          "type": "uint256"
        }
      ],
      "stateMutability": "view",
      "type": "function",
      "constant": true
    },
    {
      "inputs": [],
      "name": "kopernikTokenContract",
      "outputs": [
        {
          "internalType": "address",
          "name": "",
          "type": "address"
        }
      ],
      "stateMutability": "view",
      "type": "function",
      "constant": true
    },
    {
      "inputs": [],
      "name": "numFights",
      "outputs": [
        {
          "internalType": "uint256",
          "name": "",
          "type": "uint256"
        }
      ],
      "stateMutability": "view",
      "type": "function",
      "constant": true
    },
    {
      "inputs": [],
      "name": "numPlayers",
      "outputs": [
        {
          "internalType": "uint256",
          "name": "",
          "type": "uint256"
        }
      ],
      "stateMutability": "view",
      "type": "function",
      "constant": true
    },
    {
      "inputs": [],
      "name": "planetContract",
      "outputs": [
        {
          "internalType": "address",
          "name": "",
          "type": "address"
        }
      ],
      "stateMutability": "view",
      "type": "function",
      "constant": true
    },
    {
      "inputs": [
        {
          "internalType": "address",
          "name": "",
          "type": "address"
        }
      ],
      "name": "playerData",
      "outputs": [
        {
          "internalType": "bytes32",
          "name": "nickname",
          "type": "bytes32"
        },
        {
          "internalType": "uint32",
          "name": "wins",
          "type": "uint32"
        },
        {
          "internalType": "uint32",
          "name": "loss",
          "type": "uint32"
        },
        {
          "internalType": "uint32",
          "name": "tie",
          "type": "uint32"
        },
        {
          "internalType": "uint32",
          "name": "gaveup",
          "type": "uint32"
        }
      ],
      "stateMutability": "view",
      "type": "function",
      "constant": true
    },
    {
      "inputs": [
        {
          "internalType": "address",
          "name": "",
          "type": "address"
        }
      ],
      "name": "playerIsRegistered",
      "outputs": [
        {
          "internalType": "bool",
          "name": "",
          "type": "bool"
        }
      ],
      "stateMutability": "view",
      "type": "function",
      "constant": true
    },
    {
      "inputs": [
        {
          "internalType": "bytes32",
          "name": "",
          "type": "bytes32"
        }
      ],
      "name": "playerNicknameExists",
      "outputs": [
        {
          "internalType": "bool",
          "name": "",
          "type": "bool"
        }
      ],
      "stateMutability": "view",
      "type": "function",
      "constant": true
    },
    {
      "inputs": [
        {
          "internalType": "uint256",
          "name": "",
          "type": "uint256"
        }
      ],
      "name": "players",
      "outputs": [
        {
          "internalType": "address",
          "name": "",
          "type": "address"
        }
      ],
      "stateMutability": "view",
      "type": "function",
      "constant": true
    },
    {
      "inputs": [
        {
          "internalType": "bytes32",
          "name": "role",
          "type": "bytes32"
        },
        {
          "internalType": "address",
          "name": "account",
          "type": "address"
        }
      ],
      "name": "renounceRole",
      "outputs": [],
      "stateMutability": "nonpayable",
      "type": "function"
    },
    {
      "inputs": [
        {
          "internalType": "bytes32",
          "name": "role",
          "type": "bytes32"
        },
        {
          "internalType": "address",
          "name": "account",
          "type": "address"
        }
      ],
      "name": "revokeRole",
      "outputs": [],
      "stateMutability": "nonpayable",
      "type": "function"
    },
    {
      "inputs": [],
      "name": "topFighter",
      "outputs": [
        {
          "internalType": "uint256",
          "name": "",
          "type": "uint256"
        }
      ],
      "stateMutability": "view",
      "type": "function",
      "constant": true
    },
    {
      "inputs": [],
      "name": "topPlayer",
      "outputs": [
        {
          "internalType": "address",
          "name": "",
          "type": "address"
        }
      ],
      "stateMutability": "view",
      "type": "function",
      "constant": true
    },
    {
      "inputs": [],
      "name": "weaponsContract",
      "outputs": [
        {
          "internalType": "address",
          "name": "",
          "type": "address"
        }
      ],
      "stateMutability": "view",
      "type": "function",
      "constant": true
    },
    {
      "inputs": [
        {
          "internalType": "bytes32",
          "name": "_name",
          "type": "bytes32"
        }
      ],
      "name": "registerPlayer",
      "outputs": [],
      "stateMutability": "nonpayable",
      "type": "function"
    },
    {
      "inputs": [
        {
          "internalType": "bytes32",
          "name": "_name",
          "type": "bytes32"
        }
      ],
      "name": "createCharacter",
      "outputs": [
        {
          "internalType": "uint256",
          "name": "",
          "type": "uint256"
        }
      ],
      "stateMutability": "nonpayable",
      "type": "function"
    },
    {
      "inputs": [
        {
          "internalType": "bool",
          "name": "_active",
          "type": "bool"
        }
      ],
      "name": "activateDeactivateContract",
      "outputs": [],
      "stateMutability": "nonpayable",
      "type": "function"
    }
  ],
  "bytecode": "0x60806040523480156200001157600080fd5b5060405162002dda38038062002dda833981810160405281019062000037919062000484565b6200005b6000801b6200004f620000cc60201b60201c565b620000d460201b60201c565b6200006c85620000ea60201b60201c565b6200007d846200016760201b60201c565b6200008e83620001e460201b60201c565b6200009f826200026160201b60201c565b80600e819055506001600460146101000a81548160ff0219169083151502179055505050505050620006cd565b600033905090565b620000e68282620002de60201b60201c565b5050565b80600160006101000a81548173ffffffffffffffffffffffffffffffffffffffff021916908373ffffffffffffffffffffffffffffffffffffffff1602179055507f22f1496e1f2404f2aab0e774166cc27191e29a358c32c4826d69d8a5f3f7cbe1816040516200015c919062000630565b60405180910390a150565b80600260006101000a81548173ffffffffffffffffffffffffffffffffffffffff021916908373ffffffffffffffffffffffffffffffffffffffff1602179055507f22f1496e1f2404f2aab0e774166cc27191e29a358c32c4826d69d8a5f3f7cbe181604051620001d99190620005af565b60405180910390a150565b80600360006101000a81548173ffffffffffffffffffffffffffffffffffffffff021916908373ffffffffffffffffffffffffffffffffffffffff1602179055507f22f1496e1f2404f2aab0e774166cc27191e29a358c32c4826d69d8a5f3f7cbe181604051620002569190620005da565b60405180910390a150565b80600460006101000a81548173ffffffffffffffffffffffffffffffffffffffff021916908373ffffffffffffffffffffffffffffffffffffffff1602179055507f22f1496e1f2404f2aab0e774166cc27191e29a358c32c4826d69d8a5f3f7cbe181604051620002d3919062000605565b60405180910390a150565b6200030c816000808581526020019081526020016000206000016200038160201b62000c4d1790919060201c565b156200037d5762000322620000cc60201b60201c565b73ffffffffffffffffffffffffffffffffffffffff168173ffffffffffffffffffffffffffffffffffffffff16837f2f8788117e7eff1d82e926ec794901d17c78024a50270940304540a733656f0d60405160405180910390a45b5050565b6000620003b1836000018373ffffffffffffffffffffffffffffffffffffffff1660001b620003b960201b60201c565b905092915050565b6000620003cd83836200043360201b60201c565b620004285782600001829080600181540180825580915050600190039060005260206000200160009091909190915055826000018054905083600101600084815260200190815260200160002081905550600190506200042d565b600090505b92915050565b600080836001016000848152602001908152602001600020541415905092915050565b600081519050620004678162000699565b92915050565b6000815190506200047e81620006b3565b92915050565b600080600080600060a086880312156200049d57600080fd5b6000620004ad8882890162000456565b9550506020620004c08882890162000456565b9450506040620004d38882890162000456565b9350506060620004e68882890162000456565b9250506080620004f9888289016200046d565b9150509295509295909350565b62000511816200065b565b82525050565b7f6368617261637465720000000000000000000000000000000000000000000000815250565b7f776561706f6e0000000000000000000000000000000000000000000000000000815250565b7f6b6f7065726e696b000000000000000000000000000000000000000000000000815250565b7f706c616e65740000000000000000000000000000000000000000000000000000815250565b6000604082019050620005c6600083018462000506565b620005d46020830162000517565b92915050565b6000604082019050620005f1600083018462000506565b620005ff602083016200053d565b92915050565b60006040820190506200061c600083018462000506565b6200062a6020830162000563565b92915050565b600060408201905062000647600083018462000506565b620006556020830162000589565b92915050565b600062000668826200066f565b9050919050565b600073ffffffffffffffffffffffffffffffffffffffff82169050919050565b6000819050919050565b620006a4816200065b565b8114620006b057600080fd5b50565b620006be816200068f565b8114620006ca57600080fd5b50565b6126fd80620006dd6000396000f3fe608060405234801561001057600080fd5b50600436106101a95760003560e01c806350bfeadc116100f957806397b2f55611610097578063d547741f11610071578063d547741f146104ef578063d5cfee3e1461050b578063daee4ec81461053b578063f71d96cb14610559576101a9565b806397b2f55614610483578063a217fddf146104a1578063ca15c873146104bf576101a9565b80638996e7dc116100d35780638996e7dc146103e95780638f089c17146104055780639010d07c1461042357806391d1485414610453576101a9565b806350bfeadc1461038f57806357a318c1146103ad5780636ebe71f8146103cb576101a9565b80633505c67d11610166578063424aeded11610140578063424aeded146102da5780634315e7231461030e57806343b60f74146103415780634810c35b1461035f576101a9565b80633505c67d1461027057806336568abe1461028e57806337133f64146102aa576101a9565b806302fb0c5e146101ae57806316c30ebc146101cc57806321bbf14c146101ea578063248a9ca3146102065780632a02d1fd146102365780632f2ff15d14610254575b600080fd5b6101b6610589565b6040516101c39190612230565b60405180910390f35b6101d461059c565b6040516101e1919061224b565b60405180910390f35b61020460048036038101906101ff9190611aea565b6105c0565b005b610220600480360381019061021b9190611b3c565b610667565b60405161022d919061224b565b60405180910390f35b61023e610686565b60405161024b9190612159565b60405180910390f35b61026e60048036038101906102699190611b65565b6106ac565b005b610278610735565b6040516102859190612159565b60405180910390f35b6102a860048036038101906102a39190611b65565b61075b565b005b6102c460048036038101906102bf9190611b3c565b6107f4565b6040516102d191906123f4565b60405180910390f35b6102f460048036038101906102ef9190611ac1565b6108cb565b604051610305959493929190612266565b60405180910390f35b61032860048036038101906103239190611bdd565b610941565b60405161033894939291906121c2565b60405180910390f35b6103496109c1565b6040516103569190612159565b60405180910390f35b61037960048036038101906103749190611b3c565b6109e7565b6040516103869190612230565b60405180910390f35b610397610a07565b6040516103a491906123f4565b60405180910390f35b6103b5610a0d565b6040516103c291906123f4565b60405180910390f35b6103d3610a13565b6040516103e09190612159565b60405180910390f35b61040360048036038101906103fe9190611b3c565b610a39565b005b61040d610aa4565b60405161041a9190612159565b60405180910390f35b61043d60048036038101906104389190611ba1565b610aca565b60405161044a9190612159565b60405180910390f35b61046d60048036038101906104689190611b65565b610afb565b60405161047a9190612230565b60405180910390f35b61048b610b2c565b60405161049891906123f4565b60405180910390f35b6104a9610b32565b6040516104b6919061224b565b60405180910390f35b6104d960048036038101906104d49190611b3c565b610b39565b6040516104e691906123f4565b60405180910390f35b61050960048036038101906105049190611b65565b610b5f565b005b61052560048036038101906105209190611ac1565b610be8565b6040516105329190612230565b60405180910390f35b610543610c08565b60405161055091906123f4565b60405180910390f35b610573600480360381019061056e9190611bdd565b610c0e565b6040516105809190612159565b60405180910390f35b600460149054906101000a900460ff1681565b7fce04d177cfe9f73a7157bda35b0add7251966ad70509ceaef76ad7d5e6c4504281565b6105d46000801b6105cf610c7d565b610afb565b610613576040517f08c379a000000000000000000000000000000000000000000000000000000000815260040161060a906122d4565b60405180910390fd5b80600460146101000a81548160ff0219169083151502179055507f89cb8aeac390e3fc9016dc87a4ed02fbbb63c5adafcbb03db9b6227a14fe589d8160405161065c9190612230565b60405180910390a150565b6000806000838152602001908152602001600020600201549050919050565b600460009054906101000a900473ffffffffffffffffffffffffffffffffffffffff1681565b6106d2600080848152602001908152602001600020600201546106cd610c7d565b610afb565b610727576040517f08c379a000000000000000000000000000000000000000000000000000000000815260040180806020018281038252602f81526020018061263a602f913960400191505060405180910390fd5b6107318282610c85565b5050565b600360009054906101000a900473ffffffffffffffffffffffffffffffffffffffff1681565b610763610c7d565b73ffffffffffffffffffffffffffffffffffffffff168173ffffffffffffffffffffffffffffffffffffffff16146107e6576040517f08c379a000000000000000000000000000000000000000000000000000000000815260040180806020018281038252602f815260200180612699602f913960400191505060405180910390fd5b6107f08282610d18565b5050565b6000600460149054906101000a900460ff16610845576040517f08c379a000000000000000000000000000000000000000000000000000000000815260040161083c90612334565b60405180910390fd5b6108767fce04d177cfe9f73a7157bda35b0add7251966ad70509ceaef76ad7d5e6c45042610871610c7d565b610afb565b6108b5576040517f08c379a00000000000000000000000000000000000000000000000000000000081526004016108ac90612314565b60405180910390fd5b60006108c083610dab565b905080915050919050565b60056020528060005260406000206000915090508060000154908060010160009054906101000a900463ffffffff16908060010160049054906101000a900463ffffffff16908060010160089054906101000a900463ffffffff169080600101600c9054906101000a900463ffffffff16905085565b600a818154811061095157600080fd5b90600052602060002090600402016000915090508060000160009054906101000a900473ffffffffffffffffffffffffffffffffffffffff16908060010160009054906101000a900473ffffffffffffffffffffffffffffffffffffffff16908060020154908060030154905084565b600260009054906101000a900473ffffffffffffffffffffffffffffffffffffffff1681565b60086020528060005260406000206000915054906101000a900460ff1681565b600e5481565b600b5481565b600c60009054906101000a900473ffffffffffffffffffffffffffffffffffffffff1681565b600460149054906101000a900460ff16610a88576040517f08c379a0000000000000000000000000000000000000000000000000000000008152600401610a7f90612334565b60405180910390fd5b610a9181611088565b610aa1610a9c610c7d565b6114ce565b50565b600160009054906101000a900473ffffffffffffffffffffffffffffffffffffffff1681565b6000610af38260008086815260200190815260200160002060000161169a90919063ffffffff16565b905092915050565b6000610b24826000808681526020019081526020016000206000016116b490919063ffffffff16565b905092915050565b60075481565b6000801b81565b6000610b586000808481526020019081526020016000206000016116e4565b9050919050565b610b8560008084815260200190815260200160002060020154610b80610c7d565b610afb565b610bda576040517f08c379a00000000000000000000000000000000000000000000000000000000081526004018080602001828103825260308152602001806126696030913960400191505060405180910390fd5b610be48282610d18565b5050565b60096020528060005260406000206000915054906101000a900460ff1681565b600d5481565b60068181548110610c1e57600080fd5b906000526020600020016000915054906101000a900473ffffffffffffffffffffffffffffffffffffffff1681565b6000610c75836000018373ffffffffffffffffffffffffffffffffffffffff1660001b6116f9565b905092915050565b600033905090565b610cac81600080858152602001908152602001600020600001610c4d90919063ffffffff16565b15610d1457610cb9610c7d565b73ffffffffffffffffffffffffffffffffffffffff168173ffffffffffffffffffffffffffffffffffffffff16837f2f8788117e7eff1d82e926ec794901d17c78024a50270940304540a733656f0d60405160405180910390a45b5050565b610d3f8160008085815260200190815260200160002060000161176990919063ffffffff16565b15610da757610d4c610c7d565b73ffffffffffffffffffffffffffffffffffffffff168173ffffffffffffffffffffffffffffffffffffffff16837ff6391f5c32d9c69d2a47ea670b442974b53935d1edc7fd64eb21e047a839171b60405160405180910390a45b5050565b600081604051602001610dbd906123b4565b6040516020818303038152906040528051906020012081604051602001610de4919061224b565b6040516020818303038152906040528051906020012014158015610e5557506000604051602001610e1591906122b9565b6040516020818303038152906040528051906020012081604051602001610e3c919061224b565b6040516020818303038152906040528051906020012014155b610e94576040517f08c379a0000000000000000000000000000000000000000000000000000000008152600401610e8b906122f4565b60405180910390fd5b600080600190506000600260009054906101000a900473ffffffffffffffffffffffffffffffffffffffff169050610eca611946565b6040518060a00160405280888152602001600067ffffffffffffffff1916815260200160405180602001604052806000815250815260200160018152602001600060ff168152509050610f1b611986565b6040518060c00160405280600162ffffff168152602001600162ffffff168152602001600162ffffff168152602001600161ffff168152602001600161ffff168152602001600160ff168152509050610f726119d6565b60405180610100016040528087600c811115610f8a57fe5b815260200186600c811115610f9b57fe5b8152602001600160ff168152602001600160ff168152602001600160ff168152602001600160ff168152602001600160ff168152602001600160ff16815250905060008473ffffffffffffffffffffffffffffffffffffffff1663af3ca093611002610c7d565b8686866040518563ffffffff1660e01b81526004016110249493929190612174565b602060405180830381600087803b15801561103e57600080fd5b505af1158015611052573d6000803e3d6000fd5b505050506040513d601f19601f820116820180604052508101906110769190611c06565b90508098505050505050505050919050565b80604051602001611098906123b4565b60405160208183030381529060405280519060200120816040516020016110bf919061224b565b6040516020818303038152906040528051906020012014158015611130575060006040516020016110f091906122b9565b6040516020818303038152906040528051906020012081604051602001611117919061224b565b6040516020818303038152906040528051906020012014155b61116f576040517f08c379a0000000000000000000000000000000000000000000000000000000008152600401611166906122f4565b60405180910390fd5b6009600061117b610c7d565b73ffffffffffffffffffffffffffffffffffffffff1673ffffffffffffffffffffffffffffffffffffffff16815260200190815260200160002060009054906101000a900460ff1615611203576040517f08c379a00000000000000000000000000000000000000000000000000000000081526004016111fa90612374565b60405180910390fd5b816008600082815260200190815260200160002060009054906101000a900460ff1615611265576040517f08c379a000000000000000000000000000000000000000000000000000000000815260040161125c90612354565b60405180910390fd5b6040518060a00160405280848152602001600063ffffffff168152602001600063ffffffff168152602001600063ffffffff168152602001600063ffffffff16815250600560006112b4610c7d565b73ffffffffffffffffffffffffffffffffffffffff1673ffffffffffffffffffffffffffffffffffffffff1681526020019081526020016000206000820151816000015560208201518160010160006101000a81548163ffffffff021916908363ffffffff16021790555060408201518160010160046101000a81548163ffffffff021916908363ffffffff16021790555060608201518160010160086101000a81548163ffffffff021916908363ffffffff160217905550608082015181600101600c6101000a81548163ffffffff021916908363ffffffff16021790555090505060066113a1610c7d565b9080600181540180825580915050600190039060005260206000200160009091909190916101000a81548173ffffffffffffffffffffffffffffffffffffffff021916908373ffffffffffffffffffffffffffffffffffffffff16021790555060016008600085815260200190815260200160002060006101000a81548160ff02191690831515021790555060016009600061143b610c7d565b73ffffffffffffffffffffffffffffffffffffffff1673ffffffffffffffffffffffffffffffffffffffff16815260200190815260200160002060006101000a81548160ff0219169083151502179055506006805490506007819055506114c97fce04d177cfe9f73a7157bda35b0add7251966ad70509ceaef76ad7d5e6c450426114c4610c7d565b611799565b505050565b6000600460009054906101000a900473ffffffffffffffffffffffffffffffffffffffff16905060008173ffffffffffffffffffffffffffffffffffffffff166370a08231306040518263ffffffff1660e01b81526004016115309190612159565b60206040518083038186803b15801561154857600080fd5b505afa15801561155c573d6000803e3d6000fd5b505050506040513d601f19601f820116820180604052508101906115809190611c06565b9050600e548110156115c7576040517f08c379a00000000000000000000000000000000000000000000000000000000081526004016115be90612394565b60405180910390fd5b8173ffffffffffffffffffffffffffffffffffffffff1663a9059cbb84600e546040518363ffffffff1660e01b8152600401611604929190612207565b602060405180830381600087803b15801561161e57600080fd5b505af1158015611632573d6000803e3d6000fd5b505050506040513d601f19601f820116820180604052508101906116569190611b13565b611695576040517f08c379a000000000000000000000000000000000000000000000000000000000815260040161168c906123d4565b60405180910390fd5b505050565b60006116a983600001836117a7565b60001c905092915050565b60006116dc836000018373ffffffffffffffffffffffffffffffffffffffff1660001b61182a565b905092915050565b60006116f28260000161184d565b9050919050565b6000611705838361182a565b61175e578260000182908060018154018082558091505060019003906000526020600020016000909190919091505582600001805490508360010160008481526020019081526020016000208190555060019050611763565b600090505b92915050565b6000611791836000018373ffffffffffffffffffffffffffffffffffffffff1660001b61185e565b905092915050565b6117a38282610c85565b5050565b600081836000018054905011611808576040517f08c379a00000000000000000000000000000000000000000000000000000000081526004018080602001828103825260228152602001806126186022913960400191505060405180910390fd5b82600001828154811061181757fe5b9060005260206000200154905092915050565b600080836001016000848152602001908152602001600020541415905092915050565b600081600001805490509050919050565b6000808360010160008481526020019081526020016000205490506000811461193a57600060018203905060006001866000018054905003905060008660000182815481106118a957fe5b90600052602060002001549050808760000184815481106118c657fe5b90600052602060002001819055506001830187600101600083815260200190815260200160002081905550866000018054806118fe57fe5b60019003818190600052602060002001600090559055866001016000878152602001908152602001600020600090556001945050505050611940565b60009150505b92915050565b6040518060a0016040528060008019168152602001600067ffffffffffffffff191681526020016060815260200160008152602001600060ff1681525090565b6040518060c00160405280600062ffffff168152602001600062ffffff168152602001600062ffffff168152602001600061ffff168152602001600061ffff168152602001600060ff1681525090565b6040518061010001604052806000600c8111156119ef57fe5b81526020016000600c811115611a0157fe5b8152602001600060ff168152602001600060ff168152602001600060ff168152602001600060ff168152602001600060ff168152602001600060ff1681525090565b600081359050611a52816125bb565b92915050565b600081359050611a67816125d2565b92915050565b600081519050611a7c816125d2565b92915050565b600081359050611a91816125e9565b92915050565b600081359050611aa681612600565b92915050565b600081519050611abb81612600565b92915050565b600060208284031215611ad357600080fd5b6000611ae184828501611a43565b91505092915050565b600060208284031215611afc57600080fd5b6000611b0a84828501611a58565b91505092915050565b600060208284031215611b2557600080fd5b6000611b3384828501611a6d565b91505092915050565b600060208284031215611b4e57600080fd5b6000611b5c84828501611a82565b91505092915050565b60008060408385031215611b7857600080fd5b6000611b8685828601611a82565b9250506020611b9785828601611a43565b9150509250929050565b60008060408385031215611bb457600080fd5b6000611bc285828601611a82565b9250506020611bd385828601611a97565b9150509250929050565b600060208284031215611bef57600080fd5b6000611bfd84828501611a97565b91505092915050565b600060208284031215611c1857600080fd5b6000611c2684828501611aac565b91505092915050565b611c3881612507565b82525050565b611c478161243c565b82525050565b611c568161244e565b82525050565b611c658161245a565b82525050565b611c7481612486565b82525050565b611c8381612486565b82525050565b611c9281612519565b82525050565b611ca18161252b565b82525050565b6000611cb28261240f565b611cbc818561241a565b9350611ccc818560208601612561565b611cd581612596565b840191505092915050565b6000611ced60308361242b565b91507f616374697661746544656163746976617465436f6e74726163743a206d75737460008301527f20686176652061646d696e20726f6c65000000000000000000000000000000006020830152604082019050919050565b6000611d5360188361242b565b91507f456d70747920737472696e67206e6f7420616c6c6f77656400000000000000006000830152602082019050919050565b6000611d9360318361242b565b91507f616374697661746544656163746976617465436f6e74726163743a206d75737460008301527f206861766520706c6179657220726f6c650000000000000000000000000000006020830152604082019050919050565b6000611df960148361242b565b91507f436f6e747261637420697320696e6163746976650000000000000000000000006000830152602082019050919050565b6000611e39601c8361242b565b91507f4e69636b6e616d65206e616d6520616c726561647920657869737473000000006000830152602082019050919050565b6000611e79601c8361242b565b91507f506c6179657220697320616c72656164792072656769737465726564000000006000830152602082019050919050565b6000611eb960278361242b565b91507f4e6f7420656e6f7567682062616c616e6365206f6e20457468657265616c206260008301527f616c616e636521000000000000000000000000000000000000000000000000006020830152604082019050919050565b6000611f1f60008361242b565b9150600082019050919050565b6000611f3960188361242b565b91507f4572726f72207472616e73666572696e6720746f6b656e7300000000000000006000830152602082019050919050565b61010082016000820151611f836000850182611c89565b506020820151611f966020850182611c89565b506040820151611fa9604085018261214a565b506060820151611fbc606085018261214a565b506080820151611fcf608085018261214a565b5060a0820151611fe260a085018261214a565b5060c0820151611ff560c085018261214a565b5060e082015161200860e085018261214a565b50505050565b600060a0830160008301516120266000860182611c6b565b5060208301516120396020860182611c5c565b50604083015184820360408601526120518282611ca7565b9150506060830151612066606086018261211d565b506080830151612079608086018261214a565b508091505092915050565b60c08201600082015161209a600085018261210e565b5060208201516120ad602085018261210e565b5060408201516120c0604085018261210e565b5060608201516120d360608501826120ff565b5060808201516120e660808501826120ff565b5060a08201516120f960a085018261214a565b50505050565b612108816124a3565b82525050565b612117816124d1565b82525050565b612126816124e0565b82525050565b612135816124e0565b82525050565b612144816124ea565b82525050565b612153816124fa565b82525050565b600060208201905061216e6000830184611c3e565b92915050565b60006102008201905061218a6000830187611c2f565b818103602083015261219c818661200e565b90506121ab6040830185612084565b6121b9610100830184611f6c565b95945050505050565b60006080820190506121d76000830187611c3e565b6121e46020830186611c3e565b6121f1604083018561212c565b6121fe606083018461212c565b95945050505050565b600060408201905061221c6000830185611c3e565b612229602083018461212c565b9392505050565b60006020820190506122456000830184611c4d565b92915050565b60006020820190506122606000830184611c7a565b92915050565b600060a08201905061227b6000830188611c7a565b612288602083018761213b565b612295604083018661213b565b6122a2606083018561213b565b6122af608083018461213b565b9695505050505050565b60006020820190506122ce6000830184611c98565b92915050565b600060208201905081810360008301526122ed81611ce0565b9050919050565b6000602082019050818103600083015261230d81611d46565b9050919050565b6000602082019050818103600083015261232d81611d86565b9050919050565b6000602082019050818103600083015261234d81611dec565b9050919050565b6000602082019050818103600083015261236d81611e2c565b9050919050565b6000602082019050818103600083015261238d81611e6c565b9050919050565b600060208201905081810360008301526123ad81611eac565b9050919050565b600060208201905081810360008301526123cd81611f12565b9050919050565b600060208201905081810360008301526123ed81611f2c565b9050919050565b6000602082019050612409600083018461212c565b92915050565b600081519050919050565b600082825260208201905092915050565b600082825260208201905092915050565b6000612447826124b1565b9050919050565b60008115159050919050565b60007fffffffffffffffffffffffffffffffffffffffffffffffff000000000000000082169050919050565b6000819050919050565b600081905061249e826125a7565b919050565b600061ffff82169050919050565b600073ffffffffffffffffffffffffffffffffffffffff82169050919050565b600062ffffff82169050919050565b6000819050919050565b600063ffffffff82169050919050565b600060ff82169050919050565b60006125128261253d565b9050919050565b600061252482612490565b9050919050565b6000612536826124fa565b9050919050565b60006125488261254f565b9050919050565b600061255a826124b1565b9050919050565b60005b8381101561257f578082015181840152602081019050612564565b8381111561258e576000848401525b50505050565bfe5b6000601f19601f8301169050919050565b600d81106125b8576125b7612594565b5b50565b6125c48161243c565b81146125cf57600080fd5b50565b6125db8161244e565b81146125e657600080fd5b50565b6125f281612486565b81146125fd57600080fd5b50565b612609816124e0565b811461261457600080fd5b5056fe456e756d657261626c655365743a20696e646578206f7574206f6620626f756e6473416363657373436f6e74726f6c3a2073656e646572206d75737420626520616e2061646d696e20746f206772616e74416363657373436f6e74726f6c3a2073656e646572206d75737420626520616e2061646d696e20746f207265766f6b65416363657373436f6e74726f6c3a2063616e206f6e6c792072656e6f756e636520726f6c657320666f722073656c66a2646970667358221220c567b40bee4e2cf273e2c3276728108d249f06578754eae860fc687cb61c071664736f6c63430007050033",
  "immutableReferences": {},
  "source": "// SPDX-License-Identifier: MIT\r\npragma solidity 0.7.5;\r\npragma abicoder v2;\r\n\r\nimport '@openzeppelin/contracts/access/AccessControl.sol';\r\nimport \"@openzeppelin/contracts/utils/Context.sol\";\r\nimport '@openzeppelin/contracts/math/SafeMath.sol';\r\nimport './IEtherealCharacter.sol';\r\nimport './IBEP20.sol';\r\n\r\ncontract EtherealGame is Context, AccessControl\r\n{\r\n  struct Player {\r\n    bytes32 nickname;\r\n    uint32 wins;\r\n    uint32 loss;\r\n    uint32 tie;\r\n    uint32 gaveup;\r\n  }\r\n\r\n  struct Fight {\r\n    address player1;\r\n    address player2;\r\n    uint256 player1CharacterId;\r\n    uint256 player2CharacterId;\r\n  }\r\n  \r\n  // Player role to improve access control\r\n  bytes32 public constant PLAYER_ROLE = keccak256(\"PLAYER_ROLE\");\r\n\r\n  // Addresses of other contracts\r\n  address public planetContract;\r\n  address public characterContract;\r\n  address public weaponsContract;\r\n  address public kopernikTokenContract;\r\n\r\n  // Contract status\r\n  bool public active;\r\n  // Table of players\r\n  mapping(address => Player) public playerData;\r\n  address[] public players;\r\n  uint256 public numPlayers;\r\n  mapping(bytes32 => bool) public playerNicknameExists;\r\n  mapping(address => bool) public playerIsRegistered;\r\n  \r\n  // Table of fights\r\n  Fight[] public fights;\r\n  uint256 public numFights;\r\n  // Statistics\r\n  address public topPlayer;\r\n  uint256 public topFighter;\r\n\r\n  // Settings\r\n  uint256 public initialTokens;\r\n\r\n  /*\r\n  * @dev Check if bytes32 is empty\r\n  */\r\n  modifier isNotEmptyBytes32(bytes32 _s)\r\n  {\r\n    require(\r\n      (keccak256(abi.encode(_s)) != keccak256(abi.encode(\"\"))) &&\r\n      (keccak256(abi.encode(_s)) != keccak256(abi.encode(0x00))),\r\n      \"Empty string not allowed\"\r\n    );\r\n    _;\r\n  }\r\n\r\n\r\n\t/*\r\n\t*\t@dev Check if contract is active\r\n\t*/\r\n\tmodifier isContractActive {\r\n\t\trequire( active, \"Contract is inactive\" );\r\n\t\t_;\r\n\t}\r\n\r\n  /*\r\n  * @dev Check if contract is active\r\n  */\r\n  modifier isNotRegistered() {\r\n    require(!playerIsRegistered[_msgSender()], \"Player is already registered\");\r\n    _;\r\n  }\r\n\r\n  /*\r\n  * @dev Check if planet name is available or if is already used\r\n  */\r\n  modifier isPlayerNicknameAvailable(bytes32 _name) {\r\n    require(\r\n      !playerNicknameExists[_name],\r\n      \"Nickname name already exists\"\r\n    );\r\n    _;\r\n  }\r\n\r\n\r\n  /*\r\n  * @dev Log contract status update\r\n  */\r\n  event ContractStatusUpdated(bool newStatus);\r\n  event LibContractAddressUpdated(address newAddress, bytes32 contractName);\r\n\t\r\n  /*\r\n  * @dev Set default admin role to owner\r\n  */\r\n  constructor(\r\n    address _planetAddress,\r\n    address _characterAddress,\r\n    address _weaponAddress,\r\n    address _tokenAddress,\r\n    uint256 _initialTokens\r\n  ) {\r\n    _setupRole(DEFAULT_ADMIN_ROLE, _msgSender());\r\n    _setPlanetContractAddress(_planetAddress);\r\n    _setCharacterContractAddress(_characterAddress);\r\n    _setWeaponContractAddress(_weaponAddress);\r\n    _setKopernikTokenContractAddress(_tokenAddress);\r\n    initialTokens = _initialTokens;\r\n    active = true;\r\n  }\r\n\r\n  /*\r\n  *  @Update planet contract address\r\n  */\r\n  function _setPlanetContractAddress(address _contract)\r\n    private\r\n  {\r\n    planetContract = _contract;\r\n    emit LibContractAddressUpdated(_contract, 'planet');\r\n  }\r\n\r\n  /*\r\n  *  @Update character contract address\r\n  */\r\n  function _setCharacterContractAddress(address _contract)\r\n    private\r\n  {\r\n    characterContract = _contract;\r\n    emit LibContractAddressUpdated(_contract, 'character');\r\n  }\r\n\r\n  /*\r\n  *  @Update weapon contract address\r\n  */\r\n  function _setWeaponContractAddress(address _contract)\r\n    private\r\n  {\r\n    weaponsContract = _contract;\r\n    emit LibContractAddressUpdated(_contract, 'weapon');\r\n  }\r\n\r\n  /*\r\n  *  @Update token contract address\r\n  */\r\n  function _setKopernikTokenContractAddress(address _contract)\r\n    private\r\n  {\r\n    kopernikTokenContract = _contract;\r\n    emit LibContractAddressUpdated(_contract, 'kopernik');\r\n  }\r\n\r\n  /*\r\n  *  @dev Register a new player\r\n  */\r\n  function _registerPlayer(bytes32 _name)\r\n    private\r\n    isNotEmptyBytes32(_name)\r\n    isNotRegistered\r\n    isPlayerNicknameAvailable(_name)\r\n  {\r\n    playerData[_msgSender()] = Player(_name, 0, 0, 0, 0);\r\n    players.push(_msgSender());\r\n    playerNicknameExists[_name] = true;\r\n    playerIsRegistered[_msgSender()] = true;\r\n    numPlayers = players.length;\r\n    _setupRole(PLAYER_ROLE, _msgSender());\r\n  }\r\n\r\n  /*\r\n  * @dev Send initial tokens\r\n  */\r\n  function _sendInitialTokensToPlayer(address _to)\r\n    private\r\n  {\r\n    IBEP20 KopernikToken = IBEP20(kopernikTokenContract);\r\n    uint256 etherealBalance = KopernikToken.balanceOf(address(this));\r\n    // Check contract balance\r\n    if (etherealBalance < initialTokens) {\r\n      revert(\"Not enough balance on Ethereal balance!\");\r\n    }\r\n    if (!KopernikToken.transfer(_to, initialTokens)) {\r\n      revert(\"Error transfering tokens\");\r\n    }\r\n  }\r\n\r\n  /*\r\n  * @dev Create a new character\r\n  */\r\n  function _createCharacter(bytes32 _name)\r\n    private\r\n    isNotEmptyBytes32(_name)\r\n    returns (uint256)\r\n  {\r\n    \r\n    IEtherealCharacter.ElementOfNature primaryElement = IEtherealCharacter.ElementOfNature.Air;\r\n    IEtherealCharacter.ElementOfNature secondaryElement = IEtherealCharacter.ElementOfNature.Water;\r\n    \r\n    IEtherealCharacter CharacterContract = IEtherealCharacter(characterContract);\r\n    IEtherealCharacter.CharacterBaseMetadata memory extraBaseMetaData = IEtherealCharacter.CharacterBaseMetadata(\r\n      _name, \"\", \"\", 1, 0\r\n    );\r\n    IEtherealCharacter.CharacterPhysicalMetadata memory extraPhysicalMetaData = IEtherealCharacter.CharacterPhysicalMetadata(\r\n      1, 1, 1, 1, 1, 1\r\n    );\r\n    IEtherealCharacter.CharacterAttributesMetadata memory extraAbilitiesMetaData = IEtherealCharacter.CharacterAttributesMetadata(\r\n      primaryElement, secondaryElement, 1, 1, 1, 1, 1, 1\r\n    );\r\n\r\n    uint256 characterId = CharacterContract.mint(\r\n      _msgSender(),\r\n      extraBaseMetaData,\r\n      extraPhysicalMetaData,\r\n      extraAbilitiesMetaData\r\n    );\r\n    return characterId;\r\n  }\r\n\r\n  /*\r\n  * @dev Create a new player and send initial tokens\r\n  */\r\n  function registerPlayer(bytes32 _name)\r\n    public\r\n    isContractActive\r\n  {\r\n    _registerPlayer(_name);\r\n    _sendInitialTokensToPlayer(_msgSender());\r\n  }\r\n\r\n  /*\r\n  * @dev Create a new character\r\n  */\r\n  function createCharacter(bytes32 _name)\r\n    public\r\n    isContractActive\r\n    returns(uint256)\r\n  {\r\n    require(hasRole(PLAYER_ROLE, _msgSender()), \"activateDeactivateContract: must have player role\");\r\n\r\n    uint256 characterId = _createCharacter(_name);\r\n    return characterId;\r\n  }\r\n\r\n  /*\r\n  * @notice Update contract status\r\n  */\r\n  function activateDeactivateContract(bool _active)\r\n    external\r\n  {\r\n    require(hasRole(DEFAULT_ADMIN_ROLE, _msgSender()), \"activateDeactivateContract: must have admin role\");\r\n\r\n    active = _active;\r\n    emit ContractStatusUpdated(_active);\r\n  }\r\n\r\n\r\n\r\n}",
  "sourcePath": "c:/xampp/htdocs/ethereal-bnb/truffle-files/contracts/EtherealGame.sol",
  "compiler": {
    "name": "solc",
    "version": "0.7.5+commit.eb77ed08.Emscripten.clang"
  },
  "schemaVersion": "3.3.3",
  "updatedAt": "2021-02-15T08:08:40.563Z",
  "networkType": "ethereum",
  "devdoc": {
    "kind": "dev",
    "methods": {
      "getRoleAdmin(bytes32)": {
        "details": "Returns the admin role that controls `role`. See {grantRole} and {revokeRole}. To change a role's admin, use {_setRoleAdmin}."
      },
      "getRoleMember(bytes32,uint256)": {
        "details": "Returns one of the accounts that have `role`. `index` must be a value between 0 and {getRoleMemberCount}, non-inclusive. Role bearers are not sorted in any particular way, and their ordering may change at any point. WARNING: When using {getRoleMember} and {getRoleMemberCount}, make sure you perform all queries on the same block. See the following https://forum.openzeppelin.com/t/iterating-over-elements-on-enumerableset-in-openzeppelin-contracts/2296[forum post] for more information."
      },
      "getRoleMemberCount(bytes32)": {
        "details": "Returns the number of accounts that have `role`. Can be used together with {getRoleMember} to enumerate all bearers of a role."
      },
      "grantRole(bytes32,address)": {
        "details": "Grants `role` to `account`. If `account` had not been already granted `role`, emits a {RoleGranted} event. Requirements: - the caller must have ``role``'s admin role."
      },
      "hasRole(bytes32,address)": {
        "details": "Returns `true` if `account` has been granted `role`."
      },
      "renounceRole(bytes32,address)": {
        "details": "Revokes `role` from the calling account. Roles are often managed via {grantRole} and {revokeRole}: this function's purpose is to provide a mechanism for accounts to lose their privileges if they are compromised (such as when a trusted device is misplaced). If the calling account had been granted `role`, emits a {RoleRevoked} event. Requirements: - the caller must be `account`."
      },
      "revokeRole(bytes32,address)": {
        "details": "Revokes `role` from `account`. If `account` had been granted `role`, emits a {RoleRevoked} event. Requirements: - the caller must have ``role``'s admin role."
      }
    },
    "version": 1
  },
  "userdoc": {
    "kind": "user",
    "methods": {},
    "version": 1
  }
}