{
  "contractName": "EtherealWeapon",
  "abi": [
    {
      "inputs": [
        {
          "internalType": "string",
          "name": "name",
          "type": "string"
        },
        {
          "internalType": "string",
          "name": "symbol",
          "type": "string"
        },
        {
          "internalType": "string",
          "name": "baseURI",
          "type": "string"
        }
      ],
      "stateMutability": "nonpayable",
      "type": "constructor"
    },
    {
      "anonymous": false,
      "inputs": [
        {
          "indexed": true,
          "internalType": "address",
          "name": "owner",
          "type": "address"
        },
        {
          "indexed": true,
          "internalType": "address",
          "name": "approved",
          "type": "address"
        },
        {
          "indexed": true,
          "internalType": "uint256",
          "name": "tokenId",
          "type": "uint256"
        }
      ],
      "name": "Approval",
      "type": "event"
    },
    {
      "anonymous": false,
      "inputs": [
        {
          "indexed": true,
          "internalType": "address",
          "name": "owner",
          "type": "address"
        },
        {
          "indexed": true,
          "internalType": "address",
          "name": "operator",
          "type": "address"
        },
        {
          "indexed": false,
          "internalType": "bool",
          "name": "approved",
          "type": "bool"
        }
      ],
      "name": "ApprovalForAll",
      "type": "event"
    },
    {
      "anonymous": false,
      "inputs": [
        {
          "indexed": false,
          "internalType": "string",
          "name": "_baseURI",
          "type": "string"
        }
      ],
      "name": "NewBaseURI",
      "type": "event"
    },
    {
      "anonymous": false,
      "inputs": [
        {
          "indexed": false,
          "internalType": "address",
          "name": "account",
          "type": "address"
        }
      ],
      "name": "Paused",
      "type": "event"
    },
    {
      "anonymous": false,
      "inputs": [
        {
          "indexed": true,
          "internalType": "bytes32",
          "name": "role",
          "type": "bytes32"
        },
        {
          "indexed": true,
          "internalType": "bytes32",
          "name": "previousAdminRole",
          "type": "bytes32"
        },
        {
          "indexed": true,
          "internalType": "bytes32",
          "name": "newAdminRole",
          "type": "bytes32"
        }
      ],
      "name": "RoleAdminChanged",
      "type": "event"
    },
    {
      "anonymous": false,
      "inputs": [
        {
          "indexed": true,
          "internalType": "bytes32",
          "name": "role",
          "type": "bytes32"
        },
        {
          "indexed": true,
          "internalType": "address",
          "name": "account",
          "type": "address"
        },
        {
          "indexed": true,
          "internalType": "address",
          "name": "sender",
          "type": "address"
        }
      ],
      "name": "RoleGranted",
      "type": "event"
    },
    {
      "anonymous": false,
      "inputs": [
        {
          "indexed": true,
          "internalType": "bytes32",
          "name": "role",
          "type": "bytes32"
        },
        {
          "indexed": true,
          "internalType": "address",
          "name": "account",
          "type": "address"
        },
        {
          "indexed": true,
          "internalType": "address",
          "name": "sender",
          "type": "address"
        }
      ],
      "name": "RoleRevoked",
      "type": "event"
    },
    {
      "anonymous": false,
      "inputs": [
        {
          "indexed": true,
          "internalType": "address",
          "name": "from",
          "type": "address"
        },
        {
          "indexed": true,
          "internalType": "address",
          "name": "to",
          "type": "address"
        },
        {
          "indexed": true,
          "internalType": "uint256",
          "name": "tokenId",
          "type": "uint256"
        }
      ],
      "name": "Transfer",
      "type": "event"
    },
    {
      "anonymous": false,
      "inputs": [
        {
          "indexed": false,
          "internalType": "address",
          "name": "account",
          "type": "address"
        }
      ],
      "name": "Unpaused",
      "type": "event"
    },
    {
      "inputs": [],
      "name": "DEFAULT_ADMIN_ROLE",
      "outputs": [
        {
          "internalType": "bytes32",
          "name": "",
          "type": "bytes32"
        }
      ],
      "stateMutability": "view",
      "type": "function",
      "constant": true
    },
    {
      "inputs": [],
      "name": "MINTER_ROLE",
      "outputs": [
        {
          "internalType": "bytes32",
          "name": "",
          "type": "bytes32"
        }
      ],
      "stateMutability": "view",
      "type": "function",
      "constant": true
    },
    {
      "inputs": [],
      "name": "PAUSER_ROLE",
      "outputs": [
        {
          "internalType": "bytes32",
          "name": "",
          "type": "bytes32"
        }
      ],
      "stateMutability": "view",
      "type": "function",
      "constant": true
    },
    {
      "inputs": [
        {
          "internalType": "address",
          "name": "to",
          "type": "address"
        },
        {
          "internalType": "uint256",
          "name": "tokenId",
          "type": "uint256"
        }
      ],
      "name": "approve",
      "outputs": [],
      "stateMutability": "nonpayable",
      "type": "function"
    },
    {
      "inputs": [
        {
          "internalType": "address",
          "name": "owner",
          "type": "address"
        }
      ],
      "name": "balanceOf",
      "outputs": [
        {
          "internalType": "uint256",
          "name": "",
          "type": "uint256"
        }
      ],
      "stateMutability": "view",
      "type": "function",
      "constant": true
    },
    {
      "inputs": [],
      "name": "baseURI",
      "outputs": [
        {
          "internalType": "string",
          "name": "",
          "type": "string"
        }
      ],
      "stateMutability": "view",
      "type": "function",
      "constant": true
    },
    {
      "inputs": [
        {
          "internalType": "uint256",
          "name": "tokenId",
          "type": "uint256"
        }
      ],
      "name": "getApproved",
      "outputs": [
        {
          "internalType": "address",
          "name": "",
          "type": "address"
        }
      ],
      "stateMutability": "view",
      "type": "function",
      "constant": true
    },
    {
      "inputs": [
        {
          "internalType": "bytes32",
          "name": "role",
          "type": "bytes32"
        }
      ],
      "name": "getRoleAdmin",
      "outputs": [
        {
          "internalType": "bytes32",
          "name": "",
          "type": "bytes32"
        }
      ],
      "stateMutability": "view",
      "type": "function",
      "constant": true
    },
    {
      "inputs": [
        {
          "internalType": "bytes32",
          "name": "role",
          "type": "bytes32"
        },
        {
          "internalType": "uint256",
          "name": "index",
          "type": "uint256"
        }
      ],
      "name": "getRoleMember",
      "outputs": [
        {
          "internalType": "address",
          "name": "",
          "type": "address"
        }
      ],
      "stateMutability": "view",
      "type": "function",
      "constant": true
    },
    {
      "inputs": [
        {
          "internalType": "bytes32",
          "name": "role",
          "type": "bytes32"
        }
      ],
      "name": "getRoleMemberCount",
      "outputs": [
        {
          "internalType": "uint256",
          "name": "",
          "type": "uint256"
        }
      ],
      "stateMutability": "view",
      "type": "function",
      "constant": true
    },
    {
      "inputs": [
        {
          "internalType": "bytes32",
          "name": "role",
          "type": "bytes32"
        },
        {
          "internalType": "address",
          "name": "account",
          "type": "address"
        }
      ],
      "name": "grantRole",
      "outputs": [],
      "stateMutability": "nonpayable",
      "type": "function"
    },
    {
      "inputs": [
        {
          "internalType": "bytes32",
          "name": "role",
          "type": "bytes32"
        },
        {
          "internalType": "address",
          "name": "account",
          "type": "address"
        }
      ],
      "name": "hasRole",
      "outputs": [
        {
          "internalType": "bool",
          "name": "",
          "type": "bool"
        }
      ],
      "stateMutability": "view",
      "type": "function",
      "constant": true
    },
    {
      "inputs": [
        {
          "internalType": "address",
          "name": "owner",
          "type": "address"
        },
        {
          "internalType": "address",
          "name": "operator",
          "type": "address"
        }
      ],
      "name": "isApprovedForAll",
      "outputs": [
        {
          "internalType": "bool",
          "name": "",
          "type": "bool"
        }
      ],
      "stateMutability": "view",
      "type": "function",
      "constant": true
    },
    {
      "inputs": [],
      "name": "name",
      "outputs": [
        {
          "internalType": "string",
          "name": "",
          "type": "string"
        }
      ],
      "stateMutability": "view",
      "type": "function",
      "constant": true
    },
    {
      "inputs": [
        {
          "internalType": "uint256",
          "name": "tokenId",
          "type": "uint256"
        }
      ],
      "name": "ownerOf",
      "outputs": [
        {
          "internalType": "address",
          "name": "",
          "type": "address"
        }
      ],
      "stateMutability": "view",
      "type": "function",
      "constant": true
    },
    {
      "inputs": [],
      "name": "paused",
      "outputs": [
        {
          "internalType": "bool",
          "name": "",
          "type": "bool"
        }
      ],
      "stateMutability": "view",
      "type": "function",
      "constant": true
    },
    {
      "inputs": [
        {
          "internalType": "bytes32",
          "name": "role",
          "type": "bytes32"
        },
        {
          "internalType": "address",
          "name": "account",
          "type": "address"
        }
      ],
      "name": "renounceRole",
      "outputs": [],
      "stateMutability": "nonpayable",
      "type": "function"
    },
    {
      "inputs": [
        {
          "internalType": "bytes32",
          "name": "role",
          "type": "bytes32"
        },
        {
          "internalType": "address",
          "name": "account",
          "type": "address"
        }
      ],
      "name": "revokeRole",
      "outputs": [],
      "stateMutability": "nonpayable",
      "type": "function"
    },
    {
      "inputs": [
        {
          "internalType": "address",
          "name": "from",
          "type": "address"
        },
        {
          "internalType": "address",
          "name": "to",
          "type": "address"
        },
        {
          "internalType": "uint256",
          "name": "tokenId",
          "type": "uint256"
        }
      ],
      "name": "safeTransferFrom",
      "outputs": [],
      "stateMutability": "nonpayable",
      "type": "function"
    },
    {
      "inputs": [
        {
          "internalType": "address",
          "name": "from",
          "type": "address"
        },
        {
          "internalType": "address",
          "name": "to",
          "type": "address"
        },
        {
          "internalType": "uint256",
          "name": "tokenId",
          "type": "uint256"
        },
        {
          "internalType": "bytes",
          "name": "_data",
          "type": "bytes"
        }
      ],
      "name": "safeTransferFrom",
      "outputs": [],
      "stateMutability": "nonpayable",
      "type": "function"
    },
    {
      "inputs": [
        {
          "internalType": "address",
          "name": "operator",
          "type": "address"
        },
        {
          "internalType": "bool",
          "name": "approved",
          "type": "bool"
        }
      ],
      "name": "setApprovalForAll",
      "outputs": [],
      "stateMutability": "nonpayable",
      "type": "function"
    },
    {
      "inputs": [
        {
          "internalType": "bytes4",
          "name": "interfaceId",
          "type": "bytes4"
        }
      ],
      "name": "supportsInterface",
      "outputs": [
        {
          "internalType": "bool",
          "name": "",
          "type": "bool"
        }
      ],
      "stateMutability": "view",
      "type": "function",
      "constant": true
    },
    {
      "inputs": [],
      "name": "symbol",
      "outputs": [
        {
          "internalType": "string",
          "name": "",
          "type": "string"
        }
      ],
      "stateMutability": "view",
      "type": "function",
      "constant": true
    },
    {
      "inputs": [
        {
          "internalType": "uint256",
          "name": "index",
          "type": "uint256"
        }
      ],
      "name": "tokenByIndex",
      "outputs": [
        {
          "internalType": "uint256",
          "name": "",
          "type": "uint256"
        }
      ],
      "stateMutability": "view",
      "type": "function",
      "constant": true
    },
    {
      "inputs": [
        {
          "internalType": "address",
          "name": "owner",
          "type": "address"
        },
        {
          "internalType": "uint256",
          "name": "index",
          "type": "uint256"
        }
      ],
      "name": "tokenOfOwnerByIndex",
      "outputs": [
        {
          "internalType": "uint256",
          "name": "",
          "type": "uint256"
        }
      ],
      "stateMutability": "view",
      "type": "function",
      "constant": true
    },
    {
      "inputs": [
        {
          "internalType": "uint256",
          "name": "tokenId",
          "type": "uint256"
        }
      ],
      "name": "tokenURI",
      "outputs": [
        {
          "internalType": "string",
          "name": "",
          "type": "string"
        }
      ],
      "stateMutability": "view",
      "type": "function",
      "constant": true
    },
    {
      "inputs": [],
      "name": "totalSupply",
      "outputs": [
        {
          "internalType": "uint256",
          "name": "",
          "type": "uint256"
        }
      ],
      "stateMutability": "view",
      "type": "function",
      "constant": true
    },
    {
      "inputs": [
        {
          "internalType": "address",
          "name": "from",
          "type": "address"
        },
        {
          "internalType": "address",
          "name": "to",
          "type": "address"
        },
        {
          "internalType": "uint256",
          "name": "tokenId",
          "type": "uint256"
        }
      ],
      "name": "transferFrom",
      "outputs": [],
      "stateMutability": "nonpayable",
      "type": "function"
    },
    {
      "inputs": [
        {
          "internalType": "bytes32",
          "name": "",
          "type": "bytes32"
        }
      ],
      "name": "weaponNameExists",
      "outputs": [
        {
          "internalType": "bool",
          "name": "",
          "type": "bool"
        }
      ],
      "stateMutability": "view",
      "type": "function",
      "constant": true
    },
    {
      "inputs": [
        {
          "internalType": "uint256",
          "name": "",
          "type": "uint256"
        }
      ],
      "name": "weapons",
      "outputs": [
        {
          "internalType": "bytes32",
          "name": "name",
          "type": "bytes32"
        },
        {
          "internalType": "enum IEtherealBase.ElementOfNature",
          "name": "strongAgainstElement",
          "type": "uint8"
        },
        {
          "internalType": "enum IEtherealBase.ElementOfNature",
          "name": "weakAgainstElement",
          "type": "uint8"
        },
        {
          "internalType": "uint8",
          "name": "life",
          "type": "uint8"
        },
        {
          "internalType": "uint8",
          "name": "armor",
          "type": "uint8"
        },
        {
          "internalType": "uint8",
          "name": "strength",
          "type": "uint8"
        },
        {
          "internalType": "uint8",
          "name": "speed",
          "type": "uint8"
        },
        {
          "internalType": "uint8",
          "name": "luck",
          "type": "uint8"
        },
        {
          "internalType": "uint8",
          "name": "spirit",
          "type": "uint8"
        }
      ],
      "stateMutability": "view",
      "type": "function",
      "constant": true
    },
    {
      "inputs": [
        {
          "internalType": "string",
          "name": "_baseURI",
          "type": "string"
        }
      ],
      "name": "setBaseURI",
      "outputs": [],
      "stateMutability": "nonpayable",
      "type": "function"
    },
    {
      "inputs": [
        {
          "internalType": "address",
          "name": "to",
          "type": "address"
        },
        {
          "components": [
            {
              "internalType": "bytes32",
              "name": "name",
              "type": "bytes32"
            },
            {
              "internalType": "enum IEtherealBase.ElementOfNature",
              "name": "strongAgainstElement",
              "type": "uint8"
            },
            {
              "internalType": "enum IEtherealBase.ElementOfNature",
              "name": "weakAgainstElement",
              "type": "uint8"
            },
            {
              "internalType": "uint8",
              "name": "life",
              "type": "uint8"
            },
            {
              "internalType": "uint8",
              "name": "armor",
              "type": "uint8"
            },
            {
              "internalType": "uint8",
              "name": "strength",
              "type": "uint8"
            },
            {
              "internalType": "uint8",
              "name": "speed",
              "type": "uint8"
            },
            {
              "internalType": "uint8",
              "name": "luck",
              "type": "uint8"
            },
            {
              "internalType": "uint8",
              "name": "spirit",
              "type": "uint8"
            }
          ],
          "internalType": "struct IEtherealBase.WeaponMetadata",
          "name": "extraBaseMetaData",
          "type": "tuple"
        }
      ],
      "name": "mint",
      "outputs": [
        {
          "internalType": "uint256",
          "name": "",
          "type": "uint256"
        }
      ],
      "stateMutability": "nonpayable",
      "type": "function"
    },
    {
      "inputs": [
        {
          "internalType": "uint256",
          "name": "tokenId",
          "type": "uint256"
        }
      ],
      "name": "burn",
      "outputs": [],
      "stateMutability": "nonpayable",
      "type": "function"
    },
    {
      "inputs": [],
      "name": "pause",
      "outputs": [],
      "stateMutability": "nonpayable",
      "type": "function"
    },
    {
      "inputs": [],
      "name": "unpause",
      "outputs": [],
      "stateMutability": "nonpayable",
      "type": "function"
    }
  ],
  "bytecode": "0x60806040523480156200001157600080fd5b5060405162004ef238038062004ef2833981810160405281019062000037919062000575565b8282620000516301ffc9a760e01b620001a860201b60201c565b81600790805190602001906200006992919062000463565b5080600890805190602001906200008292919062000463565b506200009b6380ac58cd60e01b620001a860201b60201c565b620000b3635b5e139f60e01b620001a860201b60201c565b620000cb63780e9d6360e01b620001a860201b60201c565b50506000600b60006101000a81548160ff0219169083151502179055506200010c6000801b62000100620002b160201b60201c565b620002b960201b60201c565b6200014d7f9f2df0fed2c77648de5860a4cc508cd0818c85b8b8a1ab4ceeef8d981c8956a662000141620002b160201b60201c565b620002b960201b60201c565b6200018e7f65d7a28e3265b37a6474929f336521b332c1681b933f6cb9f3376673440d862a62000182620002b160201b60201c565b620002b960201b60201c565b6200019f81620002cf60201b60201c565b505050620006b5565b63ffffffff60e01b817bffffffffffffffffffffffffffffffffffffffffffffffffffffffff1916141562000245576040517f08c379a000000000000000000000000000000000000000000000000000000000815260040180806020018281038252601c8152602001807f4552433136353a20696e76616c696420696e746572666163652069640000000081525060200191505060405180910390fd5b6001806000837bffffffffffffffffffffffffffffffffffffffffffffffffffffffff19167bffffffffffffffffffffffffffffffffffffffffffffffffffffffff1916815260200190815260200160002060006101000a81548160ff02191690831515021790555050565b600033905090565b620002cb8282620002eb60201b60201c565b5050565b80600a9080519060200190620002e792919062000463565b5050565b62000319816000808581526020019081526020016000206000016200038e60201b62001cc71790919060201c565b156200038a576200032f620002b160201b60201c565b73ffffffffffffffffffffffffffffffffffffffff168173ffffffffffffffffffffffffffffffffffffffff16837f2f8788117e7eff1d82e926ec794901d17c78024a50270940304540a733656f0d60405160405180910390a45b5050565b6000620003be836000018373ffffffffffffffffffffffffffffffffffffffff1660001b620003c660201b60201c565b905092915050565b6000620003da83836200044060201b60201c565b620004355782600001829080600181540180825580915050600190039060005260206000200160009091909190915055826000018054905083600101600084815260200190815260200160002081905550600190506200043a565b600090505b92915050565b600080836001016000848152602001908152602001600020541415905092915050565b828054600181600116156101000203166002900490600052602060002090601f0160209004810192826200049b5760008555620004e7565b82601f10620004b657805160ff1916838001178555620004e7565b82800160010185558215620004e7579182015b82811115620004e6578251825591602001919060010190620004c9565b5b509050620004f69190620004fa565b5090565b5b8082111562000515576000816000905550600101620004fb565b5090565b600082601f8301126200052b57600080fd5b8151620005426200053c826200064a565b62000616565b915080825260208301602083018583830111156200055f57600080fd5b6200056c8382846200067d565b50505092915050565b6000806000606084860312156200058b57600080fd5b600084015167ffffffffffffffff811115620005a657600080fd5b620005b48682870162000519565b935050602084015167ffffffffffffffff811115620005d257600080fd5b620005e08682870162000519565b925050604084015167ffffffffffffffff811115620005fe57600080fd5b6200060c8682870162000519565b9150509250925092565b6000604051905081810181811067ffffffffffffffff8211171562000640576200063f620006b3565b5b8060405250919050565b600067ffffffffffffffff821115620006685762000667620006b3565b5b601f19601f8301169050602081019050919050565b60005b838110156200069d57808201518184015260208101905062000680565b83811115620006ad576000848401525b50505050565bfe5b61482d80620006c56000396000f3fe608060405234801561001057600080fd5b50600436106102115760003560e01c80635c975abb11610125578063a22cb465116100ad578063d53913931161007c578063d539139314610652578063d547741f14610670578063d927c5101461068c578063e63ab1e9146106bc578063e985e9c5146106da57610211565b8063a22cb465146105ba578063b88d4fde146105d6578063c87b56dd146105f2578063ca15c8731461062257610211565b80638456cb59116100f45780638456cb59146105145780639010d07c1461051e57806391d148541461054e57806395d89b411461057e578063a217fddf1461059c57610211565b80635c975abb146104785780636352211e146104965780636c0360eb146104c657806370a08231146104e457610211565b80632f5e1878116101a857806342842e0e1161017757806342842e0e146103bc57806342966c68146103d85780634f6ccce7146103f4578063555e73c81461042457806355f804b31461045c57610211565b80632f5e1878146103365780632f745c591461036657806336568abe146103965780633f4ba83a146103b257610211565b806318160ddd116101e457806318160ddd146102b057806323b872dd146102ce578063248a9ca3146102ea5780632f2ff15d1461031a57610211565b806301ffc9a71461021657806306fdde0314610246578063081812fc14610264578063095ea7b314610294575b600080fd5b610230600480360381019061022b9190613c0a565b61070a565b60405161023d9190614064565b60405180910390f35b61024e610772565b60405161025b9190614142565b60405180910390f35b61027e60048036038101906102799190613c74565b610814565b60405161028b9190614049565b60405180910390f35b6102ae60048036038101906102a99190613b2d565b6108af565b005b6102b86109f3565b6040516102c59190614264565b60405180910390f35b6102e860048036038101906102e391906139ea565b610a04565b005b61030460048036038101906102ff9190613b69565b610a7a565b604051610311919061407f565b60405180910390f35b610334600480360381019061032f9190613b92565b610a99565b005b610350600480360381019061034b9190613af0565b610b22565b60405161035d9190614264565b60405180910390f35b610380600480360381019061037b9190613b2d565b610e7d565b60405161038d9190614264565b60405180910390f35b6103b060048036038101906103ab9190613b92565b610ed8565b005b6103ba610f71565b005b6103d660048036038101906103d191906139ea565b610feb565b005b6103f260048036038101906103ed9190613c74565b61100b565b005b61040e60048036038101906104099190613c74565b611164565b60405161041b9190614264565b60405180910390f35b61043e60048036038101906104399190613c74565b611187565b6040516104539998979695949392919061409a565b60405180910390f35b61047660048036038101906104719190613c33565b61123d565b005b6104806112d3565b60405161048d9190614064565b60405180910390f35b6104b060048036038101906104ab9190613c74565b6112ea565b6040516104bd9190614049565b60405180910390f35b6104ce611321565b6040516104db9190614142565b60405180910390f35b6104fe60048036038101906104f99190613985565b6113c3565b60405161050b9190614264565b60405180910390f35b61051c611498565b005b61053860048036038101906105339190613bce565b611512565b6040516105459190614049565b60405180910390f35b61056860048036038101906105639190613b92565b611543565b6040516105759190614064565b60405180910390f35b610586611574565b6040516105939190614142565b60405180910390f35b6105a4611616565b6040516105b1919061407f565b60405180910390f35b6105d460048036038101906105cf9190613ab4565b61161d565b005b6105f060048036038101906105eb9190613a39565b6117d3565b005b61060c60048036038101906106079190613c74565b61184b565b6040516106199190614142565b60405180910390f35b61063c60048036038101906106379190613b69565b611b1c565b6040516106499190614264565b60405180910390f35b61065a611b42565b604051610667919061407f565b60405180910390f35b61068a60048036038101906106859190613b92565b611b66565b005b6106a660048036038101906106a19190613b69565b611bef565b6040516106b39190614064565b60405180910390f35b6106c4611c0f565b6040516106d1919061407f565b60405180910390f35b6106f460048036038101906106ef91906139ae565b611c33565b6040516107019190614064565b60405180910390f35b600060016000837bffffffffffffffffffffffffffffffffffffffffffffffffffffffff19167bffffffffffffffffffffffffffffffffffffffffffffffffffffffff1916815260200190815260200160002060009054906101000a900460ff169050919050565b606060078054600181600116156101000203166002900480601f01602080910402602001604051908101604052809291908181526020018280546001816001161561010002031660029004801561080a5780601f106107df5761010080835404028352916020019161080a565b820191906000526020600020905b8154815290600101906020018083116107ed57829003601f168201915b5050505050905090565b600061081f82611cf7565b610874576040517f08c379a000000000000000000000000000000000000000000000000000000000815260040180806020018281038252602c8152602001806146f3602c913960400191505060405180910390fd5b6005600083815260200190815260200160002060009054906101000a900473ffffffffffffffffffffffffffffffffffffffff169050919050565b60006108ba826112ea565b90508073ffffffffffffffffffffffffffffffffffffffff168373ffffffffffffffffffffffffffffffffffffffff161415610941576040517f08c379a00000000000000000000000000000000000000000000000000000000081526004018080602001828103825260218152602001806147776021913960400191505060405180910390fd5b8073ffffffffffffffffffffffffffffffffffffffff16610960611d14565b73ffffffffffffffffffffffffffffffffffffffff16148061098f575061098e81610989611d14565b611c33565b5b6109e4576040517f08c379a00000000000000000000000000000000000000000000000000000000081526004018080602001828103825260388152602001806146466038913960400191505060405180910390fd5b6109ee8383611d1c565b505050565b60006109ff6003611dd5565b905090565b610a15610a0f611d14565b82611dea565b610a6a576040517f08c379a00000000000000000000000000000000000000000000000000000000081526004018080602001828103825260318152602001806147986031913960400191505060405180910390fd5b610a75838383611ede565b505050565b6000806000838152602001908152602001600020600201549050919050565b610abf60008084815260200190815260200160002060020154610aba611d14565b611543565b610b14576040517f08c379a000000000000000000000000000000000000000000000000000000000815260040180806020018281038252602f81526020018061453f602f913960400191505060405180910390fd5b610b1e8282612121565b5050565b6000610b557f9f2df0fed2c77648de5860a4cc508cd0818c85b8b8a1ab4ceeef8d981c8956a6610b50611d14565b611543565b610b94576040517f08c379a0000000000000000000000000000000000000000000000000000000008152600401610b8b906141e4565b60405180910390fd5b604051602001610ba390614204565b604051602081830303815290604052805190602001208260000151604051602001610bce919061407f565b6040516020818303038152906040528051906020012014158015610c4357506000604051602001610bff9190614127565b604051602081830303815290604052805190602001208260000151604051602001610c2a919061407f565b6040516020818303038152906040528051906020012014155b610c82576040517f08c379a0000000000000000000000000000000000000000000000000000000008152600401610c79906141a4565b60405180910390fd5b600e60008360000151815260200190815260200160002060009054906101000a900460ff1615610ce7576040517f08c379a0000000000000000000000000000000000000000000000000000000008152600401610cde90614164565b60405180910390fd5b6000610cf3600c6121b4565b9050610cff84826121c2565b610d09600c6121e0565b6001600e60008560000151815260200190815260200160002060006101000a81548160ff02191690831515021790555082600d60008381526020019081526020016000206000820151816000015560208201518160010160006101000a81548160ff0219169083600c811115610d7b57fe5b021790555060408201518160010160016101000a81548160ff0219169083600c811115610da457fe5b021790555060608201518160010160026101000a81548160ff021916908360ff16021790555060808201518160010160036101000a81548160ff021916908360ff16021790555060a08201518160010160046101000a81548160ff021916908360ff16021790555060c08201518160010160056101000a81548160ff021916908360ff16021790555060e08201518160010160066101000a81548160ff021916908360ff1602179055506101008201518160010160076101000a81548160ff021916908360ff1602179055509050508091505092915050565b6000610ed082600260008673ffffffffffffffffffffffffffffffffffffffff1673ffffffffffffffffffffffffffffffffffffffff1681526020019081526020016000206121f690919063ffffffff16565b905092915050565b610ee0611d14565b73ffffffffffffffffffffffffffffffffffffffff168173ffffffffffffffffffffffffffffffffffffffff1614610f63576040517f08c379a000000000000000000000000000000000000000000000000000000000815260040180806020018281038252602f8152602001806147c9602f913960400191505060405180910390fd5b610f6d8282612210565b5050565b610fa27f65d7a28e3265b37a6474929f336521b332c1681b933f6cb9f3376673440d862a610f9d611d14565b611543565b610fe1576040517f08c379a0000000000000000000000000000000000000000000000000000000008152600401610fd890614244565b60405180910390fd5b610fe96122a3565b565b611006838383604051806020016040528060008152506117d3565b505050565b61101c611016611d14565b82611dea565b61105b576040517f08c379a000000000000000000000000000000000000000000000000000000000815260040161105290614224565b60405180910390fd5b6110648161238e565b6000600d6000838152602001908152602001600020600001549050600e600082815260200190815260200160002060006101000a81549060ff0219169055600d60008381526020019081526020016000206000808201600090556001820160006101000a81549060ff02191690556001820160016101000a81549060ff02191690556001820160026101000a81549060ff02191690556001820160036101000a81549060ff02191690556001820160046101000a81549060ff02191690556001820160056101000a81549060ff02191690556001820160066101000a81549060ff02191690556001820160076101000a81549060ff021916905550505050565b60008061117b8360036124c890919063ffffffff16565b50905080915050919050565b600d6020528060005260406000206000915090508060000154908060010160009054906101000a900460ff16908060010160019054906101000a900460ff16908060010160029054906101000a900460ff16908060010160039054906101000a900460ff16908060010160049054906101000a900460ff16908060010160059054906101000a900460ff16908060010160069054906101000a900460ff16908060010160079054906101000a900460ff16905089565b6112516000801b61124c611d14565b611543565b611290576040517f08c379a0000000000000000000000000000000000000000000000000000000008152600401611287906141c4565b60405180910390fd5b611299816124f4565b7f325d37e8fb549c86966f09bc3e6f62eb3afa93b255d6e3234338001f3d80bd86816040516112c89190614142565b60405180910390a150565b6000600b60009054906101000a900460ff16905090565b600061131a826040518060600160405280602981526020016146a860299139600361250e9092919063ffffffff16565b9050919050565b6060600a8054600181600116156101000203166002900480601f0160208091040260200160405190810160405280929190818152602001828054600181600116156101000203166002900480156113b95780601f1061138e576101008083540402835291602001916113b9565b820191906000526020600020905b81548152906001019060200180831161139c57829003601f168201915b5050505050905090565b60008073ffffffffffffffffffffffffffffffffffffffff168273ffffffffffffffffffffffffffffffffffffffff16141561144a576040517f08c379a000000000000000000000000000000000000000000000000000000000815260040180806020018281038252602a81526020018061467e602a913960400191505060405180910390fd5b611491600260008473ffffffffffffffffffffffffffffffffffffffff1673ffffffffffffffffffffffffffffffffffffffff16815260200190815260200160002061252d565b9050919050565b6114c97f65d7a28e3265b37a6474929f336521b332c1681b933f6cb9f3376673440d862a6114c4611d14565b611543565b611508576040517f08c379a00000000000000000000000000000000000000000000000000000000081526004016114ff90614184565b60405180910390fd5b611510612542565b565b600061153b8260008086815260200190815260200160002060000161262e90919063ffffffff16565b905092915050565b600061156c8260008086815260200190815260200160002060000161264890919063ffffffff16565b905092915050565b606060088054600181600116156101000203166002900480601f01602080910402602001604051908101604052809291908181526020018280546001816001161561010002031660029004801561160c5780601f106115e15761010080835404028352916020019161160c565b820191906000526020600020905b8154815290600101906020018083116115ef57829003601f168201915b5050505050905090565b6000801b81565b611625611d14565b73ffffffffffffffffffffffffffffffffffffffff168273ffffffffffffffffffffffffffffffffffffffff1614156116c6576040517f08c379a00000000000000000000000000000000000000000000000000000000081526004018080602001828103825260198152602001807f4552433732313a20617070726f766520746f2063616c6c65720000000000000081525060200191505060405180910390fd5b80600660006116d3611d14565b73ffffffffffffffffffffffffffffffffffffffff1673ffffffffffffffffffffffffffffffffffffffff16815260200190815260200160002060008473ffffffffffffffffffffffffffffffffffffffff1673ffffffffffffffffffffffffffffffffffffffff16815260200190815260200160002060006101000a81548160ff0219169083151502179055508173ffffffffffffffffffffffffffffffffffffffff16611780611d14565b73ffffffffffffffffffffffffffffffffffffffff167f17307eab39ab6107e8899845ad3d59bd9653f200f220920489ca2b5937696c318360405180821515815260200191505060405180910390a35050565b6117e46117de611d14565b83611dea565b611839576040517f08c379a00000000000000000000000000000000000000000000000000000000081526004018080602001828103825260318152602001806147986031913960400191505060405180910390fd5b61184584848484612678565b50505050565b606061185682611cf7565b6118ab576040517f08c379a000000000000000000000000000000000000000000000000000000000815260040180806020018281038252602f815260200180614748602f913960400191505060405180910390fd5b6060600960008481526020019081526020016000208054600181600116156101000203166002900480601f0160208091040260200160405190810160405280929190818152602001828054600181600116156101000203166002900480156119545780601f1061192957610100808354040283529160200191611954565b820191906000526020600020905b81548152906001019060200180831161193757829003601f168201915b505050505090506060611965611321565b905060008151141561197b578192505050611b17565b600082511115611a4c5780826040516020018083805190602001908083835b602083106119bd578051825260208201915060208101905060208303925061199a565b6001836020036101000a03801982511681845116808217855250505050505090500182805190602001908083835b60208310611a0e57805182526020820191506020810190506020830392506119eb565b6001836020036101000a0380198251168184511680821785525050505050509050019250505060405160208183030381529060405292505050611b17565b80611a56856126ea565b6040516020018083805190602001908083835b60208310611a8c5780518252602082019150602081019050602083039250611a69565b6001836020036101000a03801982511681845116808217855250505050505090500182805190602001908083835b60208310611add5780518252602082019150602081019050602083039250611aba565b6001836020036101000a03801982511681845116808217855250505050505090500192505050604051602081830303815290604052925050505b919050565b6000611b3b600080848152602001908152602001600020600001612831565b9050919050565b7f9f2df0fed2c77648de5860a4cc508cd0818c85b8b8a1ab4ceeef8d981c8956a681565b611b8c60008084815260200190815260200160002060020154611b87611d14565b611543565b611be1576040517f08c379a00000000000000000000000000000000000000000000000000000000081526004018080602001828103825260308152602001806146166030913960400191505060405180910390fd5b611beb8282612210565b5050565b600e6020528060005260406000206000915054906101000a900460ff1681565b7f65d7a28e3265b37a6474929f336521b332c1681b933f6cb9f3376673440d862a81565b6000600660008473ffffffffffffffffffffffffffffffffffffffff1673ffffffffffffffffffffffffffffffffffffffff16815260200190815260200160002060008373ffffffffffffffffffffffffffffffffffffffff1673ffffffffffffffffffffffffffffffffffffffff16815260200190815260200160002060009054906101000a900460ff16905092915050565b6000611cef836000018373ffffffffffffffffffffffffffffffffffffffff1660001b612846565b905092915050565b6000611d0d8260036128b690919063ffffffff16565b9050919050565b600033905090565b816005600083815260200190815260200160002060006101000a81548173ffffffffffffffffffffffffffffffffffffffff021916908373ffffffffffffffffffffffffffffffffffffffff160217905550808273ffffffffffffffffffffffffffffffffffffffff16611d8f836112ea565b73ffffffffffffffffffffffffffffffffffffffff167f8c5be1e5ebec7d5bd14f71427d1e84f3dd0314c0f7b2291e5b200ac8c7c3b92560405160405180910390a45050565b6000611de3826000016128d0565b9050919050565b6000611df582611cf7565b611e4a576040517f08c379a000000000000000000000000000000000000000000000000000000000815260040180806020018281038252602c8152602001806145ea602c913960400191505060405180910390fd5b6000611e55836112ea565b90508073ffffffffffffffffffffffffffffffffffffffff168473ffffffffffffffffffffffffffffffffffffffff161480611ec457508373ffffffffffffffffffffffffffffffffffffffff16611eac84610814565b73ffffffffffffffffffffffffffffffffffffffff16145b80611ed55750611ed48185611c33565b5b91505092915050565b8273ffffffffffffffffffffffffffffffffffffffff16611efe826112ea565b73ffffffffffffffffffffffffffffffffffffffff1614611f6a576040517f08c379a000000000000000000000000000000000000000000000000000000000815260040180806020018281038252602981526020018061471f6029913960400191505060405180910390fd5b600073ffffffffffffffffffffffffffffffffffffffff168273ffffffffffffffffffffffffffffffffffffffff161415611ff0576040517f08c379a00000000000000000000000000000000000000000000000000000000081526004018080602001828103825260248152602001806145a06024913960400191505060405180910390fd5b611ffb8383836128e1565b612006600082611d1c565b61205781600260008673ffffffffffffffffffffffffffffffffffffffff1673ffffffffffffffffffffffffffffffffffffffff1681526020019081526020016000206128f190919063ffffffff16565b506120a981600260008573ffffffffffffffffffffffffffffffffffffffff1673ffffffffffffffffffffffffffffffffffffffff16815260200190815260200160002061290b90919063ffffffff16565b506120c0818360036129259092919063ffffffff16565b50808273ffffffffffffffffffffffffffffffffffffffff168473ffffffffffffffffffffffffffffffffffffffff167fddf252ad1be2c89b69c2b068fc378daa952ba7f163c4a11628f55a4df523b3ef60405160405180910390a4505050565b61214881600080858152602001908152602001600020600001611cc790919063ffffffff16565b156121b057612155611d14565b73ffffffffffffffffffffffffffffffffffffffff168173ffffffffffffffffffffffffffffffffffffffff16837f2f8788117e7eff1d82e926ec794901d17c78024a50270940304540a733656f0d60405160405180910390a45b5050565b600081600001549050919050565b6121dc82826040518060200160405280600081525061295a565b5050565b6001816000016000828254019250508190555050565b600061220583600001836129cb565b60001c905092915050565b61223781600080858152602001908152602001600020600001612a4e90919063ffffffff16565b1561229f57612244611d14565b73ffffffffffffffffffffffffffffffffffffffff168173ffffffffffffffffffffffffffffffffffffffff16837ff6391f5c32d9c69d2a47ea670b442974b53935d1edc7fd64eb21e047a839171b60405160405180910390a45b5050565b6122ab6112d3565b61231d576040517f08c379a00000000000000000000000000000000000000000000000000000000081526004018080602001828103825260148152602001807f5061757361626c653a206e6f742070617573656400000000000000000000000081525060200191505060405180910390fd5b6000600b60006101000a81548160ff0219169083151502179055507f5db9ee0a495bf2e6ff9c91a7834c1ba4fdd244a5e8aa4e537bd38aeae4b073aa612361611d14565b604051808273ffffffffffffffffffffffffffffffffffffffff16815260200191505060405180910390a1565b6000612399826112ea565b90506123a7816000846128e1565b6123b2600083611d1c565b6000600960008481526020019081526020016000208054600181600116156101000203166002900490501461240157600960008381526020019081526020016000206000612400919061367b565b5b61245282600260008473ffffffffffffffffffffffffffffffffffffffff1673ffffffffffffffffffffffffffffffffffffffff1681526020019081526020016000206128f190919063ffffffff16565b50612467826003612a7e90919063ffffffff16565b5081600073ffffffffffffffffffffffffffffffffffffffff168273ffffffffffffffffffffffffffffffffffffffff167fddf252ad1be2c89b69c2b068fc378daa952ba7f163c4a11628f55a4df523b3ef60405160405180910390a45050565b6000806000806124db8660000186612a98565b915091508160001c8160001c9350935050509250929050565b80600a908051906020019061250a9291906136c3565b5050565b6000612521846000018460001b84612b31565b60001c90509392505050565b600061253b82600001612c27565b9050919050565b61254a6112d3565b156125bd576040517f08c379a00000000000000000000000000000000000000000000000000000000081526004018080602001828103825260108152602001807f5061757361626c653a207061757365640000000000000000000000000000000081525060200191505060405180910390fd5b6001600b60006101000a81548160ff0219169083151502179055507f62e78cea01bee320cd4e420270b5ea74000d11b0c9f74754ebdbfc544b05a258612601611d14565b604051808273ffffffffffffffffffffffffffffffffffffffff16815260200191505060405180910390a1565b600061263d83600001836129cb565b60001c905092915050565b6000612670836000018373ffffffffffffffffffffffffffffffffffffffff1660001b612c38565b905092915050565b612683848484611ede565b61268f84848484612c5b565b6126e4576040517f08c379a000000000000000000000000000000000000000000000000000000000815260040180806020018281038252603281526020018061456e6032913960400191505060405180910390fd5b50505050565b60606000821415612732576040518060400160405280600181526020017f3000000000000000000000000000000000000000000000000000000000000000815250905061282c565b600082905060005b6000821461275c578080600101915050600a828161275457fe5b04915061273a565b60608167ffffffffffffffff8111801561277557600080fd5b506040519080825280601f01601f1916602001820160405280156127a85781602001600182028036833780820191505090505b50905060006001830390508593505b6000841461282457600a84816127c957fe5b0660300160f81b828280600190039350815181106127e357fe5b60200101907effffffffffffffffffffffffffffffffffffffffffffffffffffffffffffff1916908160001a905350600a848161281c57fe5b0493506127b7565b819450505050505b919050565b600061283f82600001612c27565b9050919050565b60006128528383612c38565b6128ab5782600001829080600181540180825580915050600190039060005260206000200160009091909190915055826000018054905083600101600084815260200190815260200160002081905550600190506128b0565b600090505b92915050565b60006128c8836000018360001b612e74565b905092915050565b600081600001805490509050919050565b6128ec838383612e97565b505050565b6000612903836000018360001b612f05565b905092915050565b600061291d836000018360001b612846565b905092915050565b6000612951846000018460001b8473ffffffffffffffffffffffffffffffffffffffff1660001b612fed565b90509392505050565b61296483836130c9565b6129716000848484612c5b565b6129c6576040517f08c379a000000000000000000000000000000000000000000000000000000000815260040180806020018281038252603281526020018061456e6032913960400191505060405180910390fd5b505050565b600081836000018054905011612a2c576040517f08c379a00000000000000000000000000000000000000000000000000000000081526004018080602001828103825260228152602001806144f26022913960400191505060405180910390fd5b826000018281548110612a3b57fe5b9060005260206000200154905092915050565b6000612a76836000018373ffffffffffffffffffffffffffffffffffffffff1660001b612f05565b905092915050565b6000612a90836000018360001b6132bd565b905092915050565b60008082846000018054905011612afa576040517f08c379a00000000000000000000000000000000000000000000000000000000081526004018080602001828103825260228152602001806146d16022913960400191505060405180910390fd5b6000846000018481548110612b0b57fe5b906000526020600020906002020190508060000154816001015492509250509250929050565b60008084600101600085815260200190815260200160002054905060008114158390612bf8576040517f08c379a00000000000000000000000000000000000000000000000000000000081526004018080602001828103825283818151815260200191508051906020019080838360005b83811015612bbd578082015181840152602081019050612ba2565b50505050905090810190601f168015612bea5780820380516001836020036101000a031916815260200191505b509250505060405180910390fd5b50846000016001820381548110612c0b57fe5b9060005260206000209060020201600101549150509392505050565b600081600001805490509050919050565b600080836001016000848152602001908152602001600020541415905092915050565b6000612c7c8473ffffffffffffffffffffffffffffffffffffffff166133d6565b612c895760019050612e6c565b6060612df363150b7a0260e01b612c9e611d14565b888787604051602401808573ffffffffffffffffffffffffffffffffffffffff1681526020018473ffffffffffffffffffffffffffffffffffffffff16815260200183815260200180602001828103825283818151815260200191508051906020019080838360005b83811015612d22578082015181840152602081019050612d07565b50505050905090810190601f168015612d4f5780820380516001836020036101000a031916815260200191505b5095505050505050604051602081830303815290604052907bffffffffffffffffffffffffffffffffffffffffffffffffffffffff19166020820180517bffffffffffffffffffffffffffffffffffffffffffffffffffffffff838183161783525050505060405180606001604052806032815260200161456e603291398773ffffffffffffffffffffffffffffffffffffffff166133e99092919063ffffffff16565b90506000818060200190516020811015612e0c57600080fd5b8101908080519060200190929190505050905063150b7a0260e01b7bffffffffffffffffffffffffffffffffffffffffffffffffffffffff1916817bffffffffffffffffffffffffffffffffffffffffffffffffffffffff191614925050505b949350505050565b600080836001016000848152602001908152602001600020541415905092915050565b612ea2838383613401565b612eaa6112d3565b15612f00576040517f08c379a000000000000000000000000000000000000000000000000000000000815260040180806020018281038252602b815260200180614514602b913960400191505060405180910390fd5b505050565b60008083600101600084815260200190815260200160002054905060008114612fe15760006001820390506000600186600001805490500390506000866000018281548110612f5057fe5b9060005260206000200154905080876000018481548110612f6d57fe5b9060005260206000200181905550600183018760010160008381526020019081526020016000208190555086600001805480612fa557fe5b60019003818190600052602060002001600090559055866001016000878152602001908152602001600020600090556001945050505050612fe7565b60009150505b92915050565b6000808460010160008581526020019081526020016000205490506000811415613094578460000160405180604001604052808681526020018581525090806001815401808255809150506001900390600052602060002090600202016000909190919091506000820151816000015560208201518160010155505084600001805490508560010160008681526020019081526020016000208190555060019150506130c2565b828560000160018303815481106130a757fe5b90600052602060002090600202016001018190555060009150505b9392505050565b600073ffffffffffffffffffffffffffffffffffffffff168273ffffffffffffffffffffffffffffffffffffffff16141561316c576040517f08c379a00000000000000000000000000000000000000000000000000000000081526004018080602001828103825260208152602001807f4552433732313a206d696e7420746f20746865207a65726f206164647265737381525060200191505060405180910390fd5b61317581611cf7565b156131e8576040517f08c379a000000000000000000000000000000000000000000000000000000000815260040180806020018281038252601c8152602001807f4552433732313a20746f6b656e20616c7265616479206d696e7465640000000081525060200191505060405180910390fd5b6131f4600083836128e1565b61324581600260008573ffffffffffffffffffffffffffffffffffffffff1673ffffffffffffffffffffffffffffffffffffffff16815260200190815260200160002061290b90919063ffffffff16565b5061325c818360036129259092919063ffffffff16565b50808273ffffffffffffffffffffffffffffffffffffffff16600073ffffffffffffffffffffffffffffffffffffffff167fddf252ad1be2c89b69c2b068fc378daa952ba7f163c4a11628f55a4df523b3ef60405160405180910390a45050565b600080836001016000848152602001908152602001600020549050600081146133ca576000600182039050600060018660000180549050039050600086600001828154811061330857fe5b906000526020600020906002020190508087600001848154811061332857fe5b906000526020600020906002020160008201548160000155600182015481600101559050506001830187600101600083600001548152602001908152602001600020819055508660000180548061337b57fe5b60019003818190600052602060002090600202016000808201600090556001820160009055505090558660010160008781526020019081526020016000206000905560019450505050506133d0565b60009150505b92915050565b600080823b905060008111915050919050565b60606133f88484600085613406565b90509392505050565b505050565b606082471015613461576040517f08c379a00000000000000000000000000000000000000000000000000000000081526004018080602001828103825260268152602001806145c46026913960400191505060405180910390fd5b61346a856133d6565b6134dc576040517f08c379a000000000000000000000000000000000000000000000000000000000815260040180806020018281038252601d8152602001807f416464726573733a2063616c6c20746f206e6f6e2d636f6e747261637400000081525060200191505060405180910390fd5b600060608673ffffffffffffffffffffffffffffffffffffffff1685876040518082805190602001908083835b6020831061352c5780518252602082019150602081019050602083039250613509565b6001836020036101000a03801982511681845116808217855250505050505090500191505060006040518083038185875af1925050503d806000811461358e576040519150601f19603f3d011682016040523d82523d6000602084013e613593565b606091505b50915091506135a38282866135af565b92505050949350505050565b606083156135bf57829050613674565b6000835111156135d25782518084602001fd5b816040517f08c379a00000000000000000000000000000000000000000000000000000000081526004018080602001828103825283818151815260200191508051906020019080838360005b8381101561363957808201518184015260208101905061361e565b50505050905090810190601f1680156136665780820380516001836020036101000a031916815260200191505b509250505060405180910390fd5b9392505050565b50805460018160011615610100020316600290046000825580601f106136a157506136c0565b601f0160209004906000526020600020908101906136bf9190613751565b5b50565b828054600181600116156101000203166002900490600052602060002090601f0160209004810192826136f95760008555613740565b82601f1061371257805160ff1916838001178555613740565b82800160010185558215613740579182015b8281111561373f578251825591602001919060010190613724565b5b50905061374d9190613751565b5090565b5b8082111561376a576000816000905550600101613752565b5090565b60008135905061377d81614457565b92915050565b6000813590506137928161446e565b92915050565b6000813590506137a781614485565b92915050565b6000813590506137bc8161449c565b92915050565b600082601f8301126137d357600080fd5b81356137e66137e1826142b0565b61427f565b9150808252602083016020830185838301111561380257600080fd5b61380d8382846143ee565b50505092915050565b600081359050613825816144b3565b92915050565b600082601f83011261383c57600080fd5b813561384f61384a826142e0565b61427f565b9150808252602083016020830185838301111561386b57600080fd5b6138768382846143ee565b50505092915050565b6000610120828403121561389257600080fd5b61389d61012061427f565b905060006138ad84828501613798565b60008301525060206138c184828501613816565b60208301525060406138d584828501613816565b60408301525060606138e984828501613970565b60608301525060806138fd84828501613970565b60808301525060a061391184828501613970565b60a08301525060c061392584828501613970565b60c08301525060e061393984828501613970565b60e08301525061010061394e84828501613970565b6101008301525092915050565b60008135905061396a816144c3565b92915050565b60008135905061397f816144da565b92915050565b60006020828403121561399757600080fd5b60006139a58482850161376e565b91505092915050565b600080604083850312156139c157600080fd5b60006139cf8582860161376e565b92505060206139e08582860161376e565b9150509250929050565b6000806000606084860312156139ff57600080fd5b6000613a0d8682870161376e565b9350506020613a1e8682870161376e565b9250506040613a2f8682870161395b565b9150509250925092565b60008060008060808587031215613a4f57600080fd5b6000613a5d8782880161376e565b9450506020613a6e8782880161376e565b9350506040613a7f8782880161395b565b925050606085013567ffffffffffffffff811115613a9c57600080fd5b613aa8878288016137c2565b91505092959194509250565b60008060408385031215613ac757600080fd5b6000613ad58582860161376e565b9250506020613ae685828601613783565b9150509250929050565b6000806101408385031215613b0457600080fd5b6000613b128582860161376e565b9250506020613b238582860161387f565b9150509250929050565b60008060408385031215613b4057600080fd5b6000613b4e8582860161376e565b9250506020613b5f8582860161395b565b9150509250929050565b600060208284031215613b7b57600080fd5b6000613b8984828501613798565b91505092915050565b60008060408385031215613ba557600080fd5b6000613bb385828601613798565b9250506020613bc48582860161376e565b9150509250929050565b60008060408385031215613be157600080fd5b6000613bef85828601613798565b9250506020613c008582860161395b565b9150509250929050565b600060208284031215613c1c57600080fd5b6000613c2a848285016137ad565b91505092915050565b600060208284031215613c4557600080fd5b600082013567ffffffffffffffff811115613c5f57600080fd5b613c6b8482850161382b565b91505092915050565b600060208284031215613c8657600080fd5b6000613c948482850161395b565b91505092915050565b613ca68161432c565b82525050565b613cb58161433e565b82525050565b613cc48161434a565b82525050565b613cd3816143ca565b82525050565b613ce2816143dc565b82525050565b6000613cf382614310565b613cfd818561431b565b9350613d0d8185602086016143fd565b613d1681614432565b840191505092915050565b6000613d2e604b8361431b565b91507f457468657265616c576561706f6e3a206e616d6520616c72656164792074616b60008301527f656e20627920616e6f7468657220776561706f6e203a292043686f6f7365206160208301527f6e6f74686572206f6e65210000000000000000000000000000000000000000006040830152606082019050919050565b6000613dba603e8361431b565b91507f4552433732315072657365744d696e7465725061757365724175746f49643a2060008301527f6d75737420686176652070617573657220726f6c6520746f20706175736500006020830152604082019050919050565b6000613e20602f8361431b565b91507f457468657265616c576561706f6e3a20776561706f6e206e616d652073686f7560008301527f6c64206e6f7420626520656d70747900000000000000000000000000000000006020830152604082019050919050565b6000613e8660328361431b565b91507f457468657265616c576561706f6e3a206d75737420686176652061646d696e2060008301527f726f6c6520746f207365744261736555524900000000000000000000000000006020830152604082019050919050565b6000613eec60318361431b565b91507f457468657265616c576561706f6e4d696e743a206d7573742068617665206d6960008301527f6e74657220726f6c6520746f206d696e740000000000000000000000000000006020830152604082019050919050565b6000613f5260008361431b565b9150600082019050919050565b6000613f6c60308361431b565b91507f4552433732314275726e61626c653a2063616c6c6572206973206e6f74206f7760008301527f6e6572206e6f7220617070726f766564000000000000000000000000000000006020830152604082019050919050565b6000613fd260408361431b565b91507f4552433732315072657365744d696e7465725061757365724175746f49643a2060008301527f6d75737420686176652070617573657220726f6c6520746f20756e70617573656020830152604082019050919050565b614034816143b3565b82525050565b614043816143bd565b82525050565b600060208201905061405e6000830184613c9d565b92915050565b60006020820190506140796000830184613cac565b92915050565b60006020820190506140946000830184613cbb565b92915050565b6000610120820190506140b0600083018c613cbb565b6140bd602083018b613cca565b6140ca604083018a613cca565b6140d7606083018961403a565b6140e4608083018861403a565b6140f160a083018761403a565b6140fe60c083018661403a565b61410b60e083018561403a565b61411961010083018461403a565b9a9950505050505050505050565b600060208201905061413c6000830184613cd9565b92915050565b6000602082019050818103600083015261415c8184613ce8565b905092915050565b6000602082019050818103600083015261417d81613d21565b9050919050565b6000602082019050818103600083015261419d81613dad565b9050919050565b600060208201905081810360008301526141bd81613e13565b9050919050565b600060208201905081810360008301526141dd81613e79565b9050919050565b600060208201905081810360008301526141fd81613edf565b9050919050565b6000602082019050818103600083015261421d81613f45565b9050919050565b6000602082019050818103600083015261423d81613f5f565b9050919050565b6000602082019050818103600083015261425d81613fc5565b9050919050565b6000602082019050614279600083018461402b565b92915050565b6000604051905081810181811067ffffffffffffffff821117156142a6576142a5614430565b5b8060405250919050565b600067ffffffffffffffff8211156142cb576142ca614430565b5b601f19601f8301169050602081019050919050565b600067ffffffffffffffff8211156142fb576142fa614430565b5b601f19601f8301169050602081019050919050565b600081519050919050565b600082825260208201905092915050565b600061433782614393565b9050919050565b60008115159050919050565b6000819050919050565b60007fffffffff0000000000000000000000000000000000000000000000000000000082169050919050565b600081905061438e82614443565b919050565b600073ffffffffffffffffffffffffffffffffffffffff82169050919050565b6000819050919050565b600060ff82169050919050565b60006143d582614380565b9050919050565b60006143e7826143bd565b9050919050565b82818337600083830152505050565b60005b8381101561441b578082015181840152602081019050614400565b8381111561442a576000848401525b50505050565bfe5b6000601f19601f8301169050919050565b600d811061445457614453614430565b5b50565b6144608161432c565b811461446b57600080fd5b50565b6144778161433e565b811461448257600080fd5b50565b61448e8161434a565b811461449957600080fd5b50565b6144a581614354565b81146144b057600080fd5b50565b600d81106144c057600080fd5b50565b6144cc816143b3565b81146144d757600080fd5b50565b6144e3816143bd565b81146144ee57600080fd5b5056fe456e756d657261626c655365743a20696e646578206f7574206f6620626f756e64734552433732315061757361626c653a20746f6b656e207472616e73666572207768696c6520706175736564416363657373436f6e74726f6c3a2073656e646572206d75737420626520616e2061646d696e20746f206772616e744552433732313a207472616e7366657220746f206e6f6e20455243373231526563656976657220696d706c656d656e7465724552433732313a207472616e7366657220746f20746865207a65726f2061646472657373416464726573733a20696e73756666696369656e742062616c616e636520666f722063616c6c4552433732313a206f70657261746f7220717565727920666f72206e6f6e6578697374656e7420746f6b656e416363657373436f6e74726f6c3a2073656e646572206d75737420626520616e2061646d696e20746f207265766f6b654552433732313a20617070726f76652063616c6c6572206973206e6f74206f776e6572206e6f7220617070726f76656420666f7220616c6c4552433732313a2062616c616e636520717565727920666f7220746865207a65726f20616464726573734552433732313a206f776e657220717565727920666f72206e6f6e6578697374656e7420746f6b656e456e756d657261626c654d61703a20696e646578206f7574206f6620626f756e64734552433732313a20617070726f76656420717565727920666f72206e6f6e6578697374656e7420746f6b656e4552433732313a207472616e73666572206f6620746f6b656e2074686174206973206e6f74206f776e4552433732314d657461646174613a2055524920717565727920666f72206e6f6e6578697374656e7420746f6b656e4552433732313a20617070726f76616c20746f2063757272656e74206f776e65724552433732313a207472616e736665722063616c6c6572206973206e6f74206f776e6572206e6f7220617070726f766564416363657373436f6e74726f6c3a2063616e206f6e6c792072656e6f756e636520726f6c657320666f722073656c66a2646970667358221220107611de092e4f40c3eefda1a1a82afc7612105de4271176cef915c46f8865f764736f6c63430007050033",
  "immutableReferences": {},
  "source": "// SPDX-License-Identifier: MIT\r\npragma solidity 0.7.5;\r\npragma abicoder v2;\r\n\r\nimport \"@openzeppelin/contracts/access/AccessControl.sol\";\r\nimport \"@openzeppelin/contracts/utils/Context.sol\";\r\nimport \"@openzeppelin/contracts/utils/Counters.sol\";\r\nimport \"@openzeppelin/contracts/token/ERC721/ERC721.sol\";\r\nimport \"@openzeppelin/contracts/token/ERC721/ERC721Burnable.sol\";\r\nimport \"@openzeppelin/contracts/token/ERC721/ERC721Pausable.sol\";\r\nimport '@openzeppelin/contracts/math/SafeMath.sol';\r\nimport './SafeMath8.sol';\r\nimport './SafeMath16.sol';\r\nimport './SafeMath24.sol';\r\nimport './SafeMath32.sol';\r\nimport './IEtherealBase.sol';\r\n\r\n\r\n/**\r\n * @dev {ERC721} token, including:\r\n *\r\n *  - ability for holders to burn (destroy) their tokens\r\n *  - a minter role that allows for token minting (creation)\r\n *  - a pauser role that allows to stop all token transfers\r\n *  - token ID and URI autogeneration\r\n *  - includes extra properties to store important metadata\r\n *\r\n * This contract uses {AccessControl} to lock permissioned functions using the\r\n * different roles - head to its documentation for details.\r\n *\r\n * The account that deploys the contract will be granted the minter and pauser\r\n * roles, as well as the default admin role, which will let it grant both minter\r\n * and pauser roles to other accounts.\r\n */\r\ncontract EtherealWeapon is Context, AccessControl, ERC721Burnable, ERC721Pausable, IEtherealBase {\r\n    using Counters for Counters.Counter;\r\n\r\n    bytes32 public constant MINTER_ROLE = keccak256(\"MINTER_ROLE\");\r\n    bytes32 public constant PAUSER_ROLE = keccak256(\"PAUSER_ROLE\");\r\n\r\n    Counters.Counter private _tokenIdTracker;\r\n    using SafeMath for uint256;\r\n    using SafeMath8 for uint8;\r\n    using SafeMath16 for uint16;\r\n    using SafeMath24 for uint24;\r\n    using SafeMath32 for uint32;\r\n    \r\n    /**\r\n    * @dev Character extra metadata tables\r\n    */\r\n    mapping(uint256 => WeaponMetadata) public weapons;\r\n    mapping(bytes32 => bool) public weaponNameExists;\r\n    \r\n    /**\r\n     * @dev Emitted when `tokenId` token is transferred from `from` to `to`.\r\n     */\r\n    event NewBaseURI(string _baseURI);\r\n\r\n    /**\r\n     * @dev Grants `DEFAULT_ADMIN_ROLE`, `MINTER_ROLE` and `PAUSER_ROLE` to the\r\n     * account that deploys the contract.\r\n     *\r\n     * Token URIs will be autogenerated based on `baseURI` and their token IDs.\r\n     * See {ERC721-tokenURI}.\r\n     */\r\n    constructor(string memory name, string memory symbol, string memory baseURI) ERC721(name, symbol) {\r\n        _setupRole(DEFAULT_ADMIN_ROLE, _msgSender());\r\n\r\n        _setupRole(MINTER_ROLE, _msgSender());\r\n        _setupRole(PAUSER_ROLE, _msgSender());\r\n\r\n        _setBaseURI(baseURI);\r\n    }\r\n\r\n    \r\n    /**\r\n     * @dev External function to set the base URI for all token IDs. \r\n     */\r\n    function setBaseURI(string memory _baseURI) external {\r\n      require(\r\n        hasRole(DEFAULT_ADMIN_ROLE, _msgSender()),\r\n        \"EtherealWeapon: must have admin role to setBaseURI\"\r\n      );\r\n      _setBaseURI(_baseURI);\r\n      emit NewBaseURI(_baseURI);\r\n    }\r\n\r\n    /**\r\n     * @dev Creates a new token for `to`. Its token ID will be automatically\r\n     * assigned (and available on the emitted {IERC721-Transfer} event), and the token\r\n     * URI autogenerated based on the base URI passed at construction.\r\n     *\r\n     * See {ERC721-_mint}.\r\n     *\r\n     * Requirements:\r\n     *\r\n     * - the caller must have the `MINTER_ROLE`.\r\n     */\r\n    function mint(\r\n      address to,\r\n      WeaponMetadata memory extraBaseMetaData\r\n    )\r\n        public\r\n        returns (uint256)\r\n    {\r\n        require(hasRole(MINTER_ROLE, _msgSender()), \"EtherealWeaponMint: must have minter role to mint\");\r\n        require(\r\n          keccak256(abi.encode(extraBaseMetaData.name)) != keccak256(abi.encode(\"\")) &&\r\n          keccak256(abi.encode(extraBaseMetaData.name)) != keccak256(abi.encode(0x00)),\r\n          \"EtherealWeapon: weapon name should not be empty\"\r\n        );\r\n        require(\r\n          !weaponNameExists[extraBaseMetaData.name],\r\n          \"EtherealWeapon: name already taken by another weapon :) Choose another one!\"\r\n        );\r\n\r\n        // We cannot just use balanceOf to create the new tokenId because tokens\r\n        // can be burned (destroyed), so we need a separate counter.\r\n        uint256 currentTokenId = _tokenIdTracker.current();\r\n        _safeMint(to, currentTokenId);\r\n        _tokenIdTracker.increment();\r\n        weaponNameExists[extraBaseMetaData.name] = true;\r\n        weapons[currentTokenId] = extraBaseMetaData;\r\n        return currentTokenId;\r\n    }\r\n\r\n    /**\r\n     * @dev Burns `tokenId`. See {ERC721-_burn}.\r\n     *\r\n     * Requirements:\r\n     *\r\n     * - The caller must own `tokenId` or be an approved operator.\r\n     */\r\n    function burn(uint256 tokenId) public override {\r\n        //solhint-disable-next-line max-line-length\r\n        require(_isApprovedOrOwner(_msgSender(), tokenId), \"ERC721Burnable: caller is not owner nor approved\");\r\n        _burn(tokenId);\r\n        bytes32 tmpWeaponName = weapons[tokenId].name;\r\n        delete weaponNameExists[tmpWeaponName];\r\n        delete weapons[tokenId];\r\n    }\r\n\r\n    /**\r\n     * @dev Pauses all token transfers.\r\n     *\r\n     * See {ERC721Pausable} and {Pausable-_pause}.\r\n     *\r\n     * Requirements:\r\n     *\r\n     * - the caller must have the `PAUSER_ROLE`.\r\n     */\r\n    function pause() public virtual {\r\n        require(hasRole(PAUSER_ROLE, _msgSender()), \"ERC721PresetMinterPauserAutoId: must have pauser role to pause\");\r\n        _pause();\r\n    }\r\n\r\n    /**\r\n     * @dev Unpauses all token transfers.\r\n     *\r\n     * See {ERC721Pausable} and {Pausable-_unpause}.\r\n     *\r\n     * Requirements:\r\n     *\r\n     * - the caller must have the `PAUSER_ROLE`.\r\n     */\r\n    function unpause() public virtual {\r\n        require(hasRole(PAUSER_ROLE, _msgSender()), \"ERC721PresetMinterPauserAutoId: must have pauser role to unpause\");\r\n        _unpause();\r\n    }\r\n\r\n    function _beforeTokenTransfer(address from, address to, uint256 tokenId) internal virtual override(ERC721, ERC721Pausable) {\r\n        super._beforeTokenTransfer(from, to, tokenId);\r\n    }\r\n}",
  "sourcePath": "C:/xampp/htdocs/ethereal-bnb/truffle-files/contracts/EtherealWeapon.sol",
  "compiler": {
    "name": "solc",
    "version": "0.7.5+commit.eb77ed08.Emscripten.clang"
  },
  "schemaVersion": "3.3.3",
  "updatedAt": "2021-02-17T01:22:45.567Z",
  "networkType": "ethereum",
  "devdoc": {
    "details": "{ERC721} token, including:  - ability for holders to burn (destroy) their tokens  - a minter role that allows for token minting (creation)  - a pauser role that allows to stop all token transfers  - token ID and URI autogeneration  - includes extra properties to store important metadata This contract uses {AccessControl} to lock permissioned functions using the different roles - head to its documentation for details. The account that deploys the contract will be granted the minter and pauser roles, as well as the default admin role, which will let it grant both minter and pauser roles to other accounts.",
    "events": {
      "NewBaseURI(string)": {
        "details": "Emitted when `tokenId` token is transferred from `from` to `to`."
      }
    },
    "kind": "dev",
    "methods": {
      "approve(address,uint256)": {
        "details": "See {IERC721-approve}."
      },
      "balanceOf(address)": {
        "details": "See {IERC721-balanceOf}."
      },
      "baseURI()": {
        "details": "Returns the base URI set via {_setBaseURI}. This will be automatically added as a prefix in {tokenURI} to each token's URI, or to the token ID if no specific URI is set for that token ID."
      },
      "burn(uint256)": {
        "details": "Burns `tokenId`. See {ERC721-_burn}. Requirements: - The caller must own `tokenId` or be an approved operator."
      },
      "constructor": {
        "details": "Grants `DEFAULT_ADMIN_ROLE`, `MINTER_ROLE` and `PAUSER_ROLE` to the account that deploys the contract. Token URIs will be autogenerated based on `baseURI` and their token IDs. See {ERC721-tokenURI}."
      },
      "getApproved(uint256)": {
        "details": "See {IERC721-getApproved}."
      },
      "getRoleAdmin(bytes32)": {
        "details": "Returns the admin role that controls `role`. See {grantRole} and {revokeRole}. To change a role's admin, use {_setRoleAdmin}."
      },
      "getRoleMember(bytes32,uint256)": {
        "details": "Returns one of the accounts that have `role`. `index` must be a value between 0 and {getRoleMemberCount}, non-inclusive. Role bearers are not sorted in any particular way, and their ordering may change at any point. WARNING: When using {getRoleMember} and {getRoleMemberCount}, make sure you perform all queries on the same block. See the following https://forum.openzeppelin.com/t/iterating-over-elements-on-enumerableset-in-openzeppelin-contracts/2296[forum post] for more information."
      },
      "getRoleMemberCount(bytes32)": {
        "details": "Returns the number of accounts that have `role`. Can be used together with {getRoleMember} to enumerate all bearers of a role."
      },
      "grantRole(bytes32,address)": {
        "details": "Grants `role` to `account`. If `account` had not been already granted `role`, emits a {RoleGranted} event. Requirements: - the caller must have ``role``'s admin role."
      },
      "hasRole(bytes32,address)": {
        "details": "Returns `true` if `account` has been granted `role`."
      },
      "isApprovedForAll(address,address)": {
        "details": "See {IERC721-isApprovedForAll}."
      },
      "mint(address,(bytes32,uint8,uint8,uint8,uint8,uint8,uint8,uint8,uint8))": {
        "details": "Creates a new token for `to`. Its token ID will be automatically assigned (and available on the emitted {IERC721-Transfer} event), and the token URI autogenerated based on the base URI passed at construction. See {ERC721-_mint}. Requirements: - the caller must have the `MINTER_ROLE`."
      },
      "name()": {
        "details": "See {IERC721Metadata-name}."
      },
      "ownerOf(uint256)": {
        "details": "See {IERC721-ownerOf}."
      },
      "pause()": {
        "details": "Pauses all token transfers. See {ERC721Pausable} and {Pausable-_pause}. Requirements: - the caller must have the `PAUSER_ROLE`."
      },
      "paused()": {
        "details": "Returns true if the contract is paused, and false otherwise."
      },
      "renounceRole(bytes32,address)": {
        "details": "Revokes `role` from the calling account. Roles are often managed via {grantRole} and {revokeRole}: this function's purpose is to provide a mechanism for accounts to lose their privileges if they are compromised (such as when a trusted device is misplaced). If the calling account had been granted `role`, emits a {RoleRevoked} event. Requirements: - the caller must be `account`."
      },
      "revokeRole(bytes32,address)": {
        "details": "Revokes `role` from `account`. If `account` had been granted `role`, emits a {RoleRevoked} event. Requirements: - the caller must have ``role``'s admin role."
      },
      "safeTransferFrom(address,address,uint256)": {
        "details": "See {IERC721-safeTransferFrom}."
      },
      "safeTransferFrom(address,address,uint256,bytes)": {
        "details": "See {IERC721-safeTransferFrom}."
      },
      "setApprovalForAll(address,bool)": {
        "details": "See {IERC721-setApprovalForAll}."
      },
      "setBaseURI(string)": {
        "details": "External function to set the base URI for all token IDs. "
      },
      "supportsInterface(bytes4)": {
        "details": "See {IERC165-supportsInterface}. Time complexity O(1), guaranteed to always use less than 30 000 gas."
      },
      "symbol()": {
        "details": "See {IERC721Metadata-symbol}."
      },
      "tokenByIndex(uint256)": {
        "details": "See {IERC721Enumerable-tokenByIndex}."
      },
      "tokenOfOwnerByIndex(address,uint256)": {
        "details": "See {IERC721Enumerable-tokenOfOwnerByIndex}."
      },
      "tokenURI(uint256)": {
        "details": "See {IERC721Metadata-tokenURI}."
      },
      "totalSupply()": {
        "details": "See {IERC721Enumerable-totalSupply}."
      },
      "transferFrom(address,address,uint256)": {
        "details": "See {IERC721-transferFrom}."
      },
      "unpause()": {
        "details": "Unpauses all token transfers. See {ERC721Pausable} and {Pausable-_unpause}. Requirements: - the caller must have the `PAUSER_ROLE`."
      }
    },
    "stateVariables": {
      "weapons": {
        "details": "Character extra metadata tables"
      }
    },
    "version": 1
  },
  "userdoc": {
    "kind": "user",
    "methods": {},
    "version": 1
  }
}