{
  "contractName": "EtherealGame",
  "abi": [
    {
      "inputs": [
        {
          "internalType": "address",
          "name": "_planetAddress",
          "type": "address"
        },
        {
          "internalType": "address",
          "name": "_characterAddress",
          "type": "address"
        },
        {
          "internalType": "address",
          "name": "_weaponAddress",
          "type": "address"
        },
        {
          "internalType": "address",
          "name": "_tokenAddress",
          "type": "address"
        },
        {
          "internalType": "uint256",
          "name": "_initialTokens",
          "type": "uint256"
        }
      ],
      "stateMutability": "nonpayable",
      "type": "constructor"
    },
    {
      "anonymous": false,
      "inputs": [
        {
          "indexed": false,
          "internalType": "bool",
          "name": "newStatus",
          "type": "bool"
        }
      ],
      "name": "ContractStatusUpdate",
      "type": "event"
    },
    {
      "anonymous": false,
      "inputs": [
        {
          "indexed": false,
          "internalType": "address",
          "name": "newAddress",
          "type": "address"
        },
        {
          "indexed": false,
          "internalType": "bytes32",
          "name": "contractName",
          "type": "bytes32"
        }
      ],
      "name": "LibContractAddressUpdate",
      "type": "event"
    },
    {
      "anonymous": false,
      "inputs": [
        {
          "indexed": true,
          "internalType": "address",
          "name": "player",
          "type": "address"
        },
        {
          "indexed": false,
          "internalType": "bytes32",
          "name": "name",
          "type": "bytes32"
        }
      ],
      "name": "NewCharacterMinted",
      "type": "event"
    },
    {
      "anonymous": false,
      "inputs": [
        {
          "indexed": true,
          "internalType": "address",
          "name": "player1",
          "type": "address"
        },
        {
          "indexed": true,
          "internalType": "address",
          "name": "player2",
          "type": "address"
        },
        {
          "indexed": false,
          "internalType": "uint256",
          "name": "id",
          "type": "uint256"
        }
      ],
      "name": "NewFightRequest",
      "type": "event"
    },
    {
      "anonymous": false,
      "inputs": [
        {
          "indexed": true,
          "internalType": "address",
          "name": "player1",
          "type": "address"
        },
        {
          "indexed": true,
          "internalType": "address",
          "name": "player2",
          "type": "address"
        }
      ],
      "name": "NewFightRequestAccepted",
      "type": "event"
    },
    {
      "anonymous": false,
      "inputs": [
        {
          "indexed": true,
          "internalType": "address",
          "name": "player",
          "type": "address"
        },
        {
          "indexed": false,
          "internalType": "bytes32",
          "name": "name",
          "type": "bytes32"
        },
        {
          "indexed": false,
          "internalType": "uint256",
          "name": "totalPlayers",
          "type": "uint256"
        }
      ],
      "name": "NewPlayerRegistered",
      "type": "event"
    },
    {
      "anonymous": false,
      "inputs": [
        {
          "indexed": true,
          "internalType": "enum IEtherealBase.ElementOfNature",
          "name": "_me",
          "type": "uint8"
        },
        {
          "indexed": false,
          "internalType": "enum IEtherealBase.ElementOfNature",
          "name": "_enemy",
          "type": "uint8"
        },
        {
          "indexed": false,
          "internalType": "uint8",
          "name": "_prob",
          "type": "uint8"
        }
      ],
      "name": "ProbabilityOfWinningUpdate",
      "type": "event"
    },
    {
      "anonymous": false,
      "inputs": [
        {
          "indexed": true,
          "internalType": "bytes32",
          "name": "role",
          "type": "bytes32"
        },
        {
          "indexed": true,
          "internalType": "bytes32",
          "name": "previousAdminRole",
          "type": "bytes32"
        },
        {
          "indexed": true,
          "internalType": "bytes32",
          "name": "newAdminRole",
          "type": "bytes32"
        }
      ],
      "name": "RoleAdminChanged",
      "type": "event"
    },
    {
      "anonymous": false,
      "inputs": [
        {
          "indexed": true,
          "internalType": "bytes32",
          "name": "role",
          "type": "bytes32"
        },
        {
          "indexed": true,
          "internalType": "address",
          "name": "account",
          "type": "address"
        },
        {
          "indexed": true,
          "internalType": "address",
          "name": "sender",
          "type": "address"
        }
      ],
      "name": "RoleGranted",
      "type": "event"
    },
    {
      "anonymous": false,
      "inputs": [
        {
          "indexed": true,
          "internalType": "bytes32",
          "name": "role",
          "type": "bytes32"
        },
        {
          "indexed": true,
          "internalType": "address",
          "name": "account",
          "type": "address"
        },
        {
          "indexed": true,
          "internalType": "address",
          "name": "sender",
          "type": "address"
        }
      ],
      "name": "RoleRevoked",
      "type": "event"
    },
    {
      "inputs": [],
      "name": "DEFAULT_ADMIN_ROLE",
      "outputs": [
        {
          "internalType": "bytes32",
          "name": "",
          "type": "bytes32"
        }
      ],
      "stateMutability": "view",
      "type": "function",
      "constant": true
    },
    {
      "inputs": [],
      "name": "PLAYER_ROLE",
      "outputs": [
        {
          "internalType": "bytes32",
          "name": "",
          "type": "bytes32"
        }
      ],
      "stateMutability": "view",
      "type": "function",
      "constant": true
    },
    {
      "inputs": [],
      "name": "active",
      "outputs": [
        {
          "internalType": "bool",
          "name": "",
          "type": "bool"
        }
      ],
      "stateMutability": "view",
      "type": "function",
      "constant": true
    },
    {
      "inputs": [],
      "name": "characterContract",
      "outputs": [
        {
          "internalType": "address",
          "name": "",
          "type": "address"
        }
      ],
      "stateMutability": "view",
      "type": "function",
      "constant": true
    },
    {
      "inputs": [
        {
          "internalType": "address",
          "name": "",
          "type": "address"
        },
        {
          "internalType": "uint256",
          "name": "",
          "type": "uint256"
        }
      ],
      "name": "fightRequests",
      "outputs": [
        {
          "internalType": "address",
          "name": "contender",
          "type": "address"
        },
        {
          "internalType": "uint256",
          "name": "contenderCharacterId",
          "type": "uint256"
        },
        {
          "internalType": "uint256",
          "name": "myCharacterId",
          "type": "uint256"
        },
        {
          "internalType": "bool",
          "name": "accepted",
          "type": "bool"
        },
        {
          "internalType": "bool",
          "name": "rejected",
          "type": "bool"
        },
        {
          "internalType": "bool",
          "name": "pending",
          "type": "bool"
        },
        {
          "internalType": "bool",
          "name": "win",
          "type": "bool"
        },
        {
          "internalType": "bool",
          "name": "loss",
          "type": "bool"
        },
        {
          "internalType": "bool",
          "name": "tie",
          "type": "bool"
        },
        {
          "internalType": "uint256",
          "name": "expirationDate",
          "type": "uint256"
        }
      ],
      "stateMutability": "view",
      "type": "function",
      "constant": true
    },
    {
      "inputs": [
        {
          "internalType": "bytes32",
          "name": "role",
          "type": "bytes32"
        }
      ],
      "name": "getRoleAdmin",
      "outputs": [
        {
          "internalType": "bytes32",
          "name": "",
          "type": "bytes32"
        }
      ],
      "stateMutability": "view",
      "type": "function",
      "constant": true
    },
    {
      "inputs": [
        {
          "internalType": "bytes32",
          "name": "role",
          "type": "bytes32"
        },
        {
          "internalType": "uint256",
          "name": "index",
          "type": "uint256"
        }
      ],
      "name": "getRoleMember",
      "outputs": [
        {
          "internalType": "address",
          "name": "",
          "type": "address"
        }
      ],
      "stateMutability": "view",
      "type": "function",
      "constant": true
    },
    {
      "inputs": [
        {
          "internalType": "bytes32",
          "name": "role",
          "type": "bytes32"
        }
      ],
      "name": "getRoleMemberCount",
      "outputs": [
        {
          "internalType": "uint256",
          "name": "",
          "type": "uint256"
        }
      ],
      "stateMutability": "view",
      "type": "function",
      "constant": true
    },
    {
      "inputs": [
        {
          "internalType": "bytes32",
          "name": "role",
          "type": "bytes32"
        },
        {
          "internalType": "address",
          "name": "account",
          "type": "address"
        }
      ],
      "name": "grantRole",
      "outputs": [],
      "stateMutability": "nonpayable",
      "type": "function"
    },
    {
      "inputs": [
        {
          "internalType": "bytes32",
          "name": "role",
          "type": "bytes32"
        },
        {
          "internalType": "address",
          "name": "account",
          "type": "address"
        }
      ],
      "name": "hasRole",
      "outputs": [
        {
          "internalType": "bool",
          "name": "",
          "type": "bool"
        }
      ],
      "stateMutability": "view",
      "type": "function",
      "constant": true
    },
    {
      "inputs": [],
      "name": "initialTokens",
      "outputs": [
        {
          "internalType": "uint256",
          "name": "",
          "type": "uint256"
        }
      ],
      "stateMutability": "view",
      "type": "function",
      "constant": true
    },
    {
      "inputs": [],
      "name": "kopernikTokenContract",
      "outputs": [
        {
          "internalType": "address",
          "name": "",
          "type": "address"
        }
      ],
      "stateMutability": "view",
      "type": "function",
      "constant": true
    },
    {
      "inputs": [],
      "name": "numPlayers",
      "outputs": [
        {
          "internalType": "uint256",
          "name": "",
          "type": "uint256"
        }
      ],
      "stateMutability": "view",
      "type": "function",
      "constant": true
    },
    {
      "inputs": [],
      "name": "planetContract",
      "outputs": [
        {
          "internalType": "address",
          "name": "",
          "type": "address"
        }
      ],
      "stateMutability": "view",
      "type": "function",
      "constant": true
    },
    {
      "inputs": [
        {
          "internalType": "address",
          "name": "",
          "type": "address"
        }
      ],
      "name": "playerData",
      "outputs": [
        {
          "internalType": "bytes32",
          "name": "nickname",
          "type": "bytes32"
        },
        {
          "internalType": "uint32",
          "name": "wins",
          "type": "uint32"
        },
        {
          "internalType": "uint32",
          "name": "loss",
          "type": "uint32"
        },
        {
          "internalType": "uint32",
          "name": "tie",
          "type": "uint32"
        },
        {
          "internalType": "uint32",
          "name": "gaveup",
          "type": "uint32"
        }
      ],
      "stateMutability": "view",
      "type": "function",
      "constant": true
    },
    {
      "inputs": [
        {
          "internalType": "address",
          "name": "",
          "type": "address"
        }
      ],
      "name": "playerIsRegistered",
      "outputs": [
        {
          "internalType": "bool",
          "name": "",
          "type": "bool"
        }
      ],
      "stateMutability": "view",
      "type": "function",
      "constant": true
    },
    {
      "inputs": [
        {
          "internalType": "bytes32",
          "name": "",
          "type": "bytes32"
        }
      ],
      "name": "playerNicknameExists",
      "outputs": [
        {
          "internalType": "bool",
          "name": "",
          "type": "bool"
        }
      ],
      "stateMutability": "view",
      "type": "function",
      "constant": true
    },
    {
      "inputs": [
        {
          "internalType": "uint256",
          "name": "",
          "type": "uint256"
        }
      ],
      "name": "players",
      "outputs": [
        {
          "internalType": "address",
          "name": "",
          "type": "address"
        }
      ],
      "stateMutability": "view",
      "type": "function",
      "constant": true
    },
    {
      "inputs": [
        {
          "internalType": "enum IEtherealBase.ElementOfNature",
          "name": "",
          "type": "uint8"
        },
        {
          "internalType": "enum IEtherealBase.ElementOfNature",
          "name": "",
          "type": "uint8"
        }
      ],
      "name": "probabilityOfWinningAgainstElem",
      "outputs": [
        {
          "internalType": "uint8",
          "name": "",
          "type": "uint8"
        }
      ],
      "stateMutability": "view",
      "type": "function",
      "constant": true
    },
    {
      "inputs": [
        {
          "internalType": "bytes32",
          "name": "role",
          "type": "bytes32"
        },
        {
          "internalType": "address",
          "name": "account",
          "type": "address"
        }
      ],
      "name": "renounceRole",
      "outputs": [],
      "stateMutability": "nonpayable",
      "type": "function"
    },
    {
      "inputs": [
        {
          "internalType": "bytes32",
          "name": "role",
          "type": "bytes32"
        },
        {
          "internalType": "address",
          "name": "account",
          "type": "address"
        }
      ],
      "name": "revokeRole",
      "outputs": [],
      "stateMutability": "nonpayable",
      "type": "function"
    },
    {
      "inputs": [],
      "name": "topFighter",
      "outputs": [
        {
          "internalType": "uint256",
          "name": "",
          "type": "uint256"
        }
      ],
      "stateMutability": "view",
      "type": "function",
      "constant": true
    },
    {
      "inputs": [],
      "name": "topPlayer",
      "outputs": [
        {
          "internalType": "address",
          "name": "",
          "type": "address"
        }
      ],
      "stateMutability": "view",
      "type": "function",
      "constant": true
    },
    {
      "inputs": [
        {
          "internalType": "address",
          "name": "",
          "type": "address"
        }
      ],
      "name": "totalFightRequests",
      "outputs": [
        {
          "internalType": "uint256",
          "name": "",
          "type": "uint256"
        }
      ],
      "stateMutability": "view",
      "type": "function",
      "constant": true
    },
    {
      "inputs": [],
      "name": "weaponsContract",
      "outputs": [
        {
          "internalType": "address",
          "name": "",
          "type": "address"
        }
      ],
      "stateMutability": "view",
      "type": "function",
      "constant": true
    },
    {
      "inputs": [
        {
          "internalType": "bytes32",
          "name": "_name",
          "type": "bytes32"
        }
      ],
      "name": "registerPlayer",
      "outputs": [],
      "stateMutability": "nonpayable",
      "type": "function"
    },
    {
      "inputs": [
        {
          "components": [
            {
              "internalType": "bytes32",
              "name": "name",
              "type": "bytes32"
            },
            {
              "internalType": "bytes24",
              "name": "birthdate",
              "type": "bytes24"
            },
            {
              "internalType": "string",
              "name": "description",
              "type": "string"
            },
            {
              "internalType": "uint256",
              "name": "planetId",
              "type": "uint256"
            },
            {
              "internalType": "uint8",
              "name": "genre",
              "type": "uint8"
            }
          ],
          "internalType": "struct IEtherealBase.CharacterBaseMetadata",
          "name": "extraBaseMetaData",
          "type": "tuple"
        },
        {
          "components": [
            {
              "internalType": "uint24",
              "name": "skintone",
              "type": "uint24"
            },
            {
              "internalType": "uint24",
              "name": "haircolor",
              "type": "uint24"
            },
            {
              "internalType": "uint24",
              "name": "eyescolor",
              "type": "uint24"
            },
            {
              "internalType": "uint16",
              "name": "weight",
              "type": "uint16"
            },
            {
              "internalType": "uint16",
              "name": "height",
              "type": "uint16"
            },
            {
              "internalType": "uint8",
              "name": "bodyType",
              "type": "uint8"
            }
          ],
          "internalType": "struct IEtherealBase.CharacterPhysicalMetadata",
          "name": "extraPhysicalMetaData",
          "type": "tuple"
        },
        {
          "components": [
            {
              "internalType": "enum IEtherealBase.ElementOfNature",
              "name": "primaryElement",
              "type": "uint8"
            },
            {
              "internalType": "enum IEtherealBase.ElementOfNature",
              "name": "secondaryElement",
              "type": "uint8"
            },
            {
              "internalType": "uint8",
              "name": "life",
              "type": "uint8"
            },
            {
              "internalType": "uint8",
              "name": "armor",
              "type": "uint8"
            },
            {
              "internalType": "uint8",
              "name": "strength",
              "type": "uint8"
            },
            {
              "internalType": "uint8",
              "name": "speed",
              "type": "uint8"
            },
            {
              "internalType": "uint8",
              "name": "luck",
              "type": "uint8"
            },
            {
              "internalType": "uint8",
              "name": "spirit",
              "type": "uint8"
            },
            {
              "internalType": "uint8",
              "name": "level",
              "type": "uint8"
            },
            {
              "internalType": "uint8",
              "name": "extraSkillsPoints",
              "type": "uint8"
            }
          ],
          "internalType": "struct IEtherealBase.CharacterAttributesMetadata",
          "name": "extraAbilitiesMetaData",
          "type": "tuple"
        }
      ],
      "name": "createCharacter",
      "outputs": [
        {
          "internalType": "uint256",
          "name": "",
          "type": "uint256"
        }
      ],
      "stateMutability": "nonpayable",
      "type": "function"
    },
    {
      "inputs": [
        {
          "internalType": "address",
          "name": "_contender",
          "type": "address"
        },
        {
          "internalType": "uint256",
          "name": "_characterId",
          "type": "uint256"
        }
      ],
      "name": "requestFight",
      "outputs": [
        {
          "internalType": "uint256",
          "name": "",
          "type": "uint256"
        }
      ],
      "stateMutability": "nonpayable",
      "type": "function"
    },
    {
      "inputs": [
        {
          "internalType": "uint256",
          "name": "_fightRequestId",
          "type": "uint256"
        },
        {
          "internalType": "uint256",
          "name": "_myCharacterId",
          "type": "uint256"
        }
      ],
      "name": "acceptFight",
      "outputs": [
        {
          "internalType": "uint256",
          "name": "",
          "type": "uint256"
        },
        {
          "internalType": "uint8",
          "name": "",
          "type": "uint8"
        }
      ],
      "stateMutability": "nonpayable",
      "type": "function"
    },
    {
      "inputs": [
        {
          "internalType": "enum IEtherealBase.ElementOfNature",
          "name": "_me",
          "type": "uint8"
        },
        {
          "internalType": "enum IEtherealBase.ElementOfNature",
          "name": "_enemy",
          "type": "uint8"
        },
        {
          "internalType": "uint8",
          "name": "_probWin",
          "type": "uint8"
        }
      ],
      "name": "assignProbabilityOfWinning",
      "outputs": [],
      "stateMutability": "nonpayable",
      "type": "function"
    },
    {
      "inputs": [
        {
          "internalType": "bool",
          "name": "_active",
          "type": "bool"
        }
      ],
      "name": "activateDeactivateContract",
      "outputs": [],
      "stateMutability": "nonpayable",
      "type": "function"
    }
  ],
  "bytecode": "0x60806040523480156200001157600080fd5b50604051620060bc380380620060bc833981810160405281019062000037919062000484565b6200005b6000801b6200004f620000cc60201b60201c565b620000d460201b60201c565b6200006c85620000ea60201b60201c565b6200007d846200016760201b60201c565b6200008e83620001e460201b60201c565b6200009f826200026160201b60201c565b80600f819055506001600460146101000a81548160ff0219169083151502179055505050505050620006cd565b600033905090565b620000e68282620002de60201b60201c565b5050565b80600160006101000a81548173ffffffffffffffffffffffffffffffffffffffff021916908373ffffffffffffffffffffffffffffffffffffffff1602179055507fc02dd078a5d63c2645d0da4b3173f425d353dafebbb14064059edbd4244a31bf816040516200015c919062000630565b60405180910390a150565b80600260006101000a81548173ffffffffffffffffffffffffffffffffffffffff021916908373ffffffffffffffffffffffffffffffffffffffff1602179055507fc02dd078a5d63c2645d0da4b3173f425d353dafebbb14064059edbd4244a31bf81604051620001d99190620005af565b60405180910390a150565b80600360006101000a81548173ffffffffffffffffffffffffffffffffffffffff021916908373ffffffffffffffffffffffffffffffffffffffff1602179055507fc02dd078a5d63c2645d0da4b3173f425d353dafebbb14064059edbd4244a31bf81604051620002569190620005da565b60405180910390a150565b80600460006101000a81548173ffffffffffffffffffffffffffffffffffffffff021916908373ffffffffffffffffffffffffffffffffffffffff1602179055507fc02dd078a5d63c2645d0da4b3173f425d353dafebbb14064059edbd4244a31bf81604051620002d3919062000605565b60405180910390a150565b6200030c816000808581526020019081526020016000206000016200038160201b620017001790919060201c565b156200037d5762000322620000cc60201b60201c565b73ffffffffffffffffffffffffffffffffffffffff168173ffffffffffffffffffffffffffffffffffffffff16837f2f8788117e7eff1d82e926ec794901d17c78024a50270940304540a733656f0d60405160405180910390a45b5050565b6000620003b1836000018373ffffffffffffffffffffffffffffffffffffffff1660001b620003b960201b60201c565b905092915050565b6000620003cd83836200043360201b60201c565b620004285782600001829080600181540180825580915050600190039060005260206000200160009091909190915055826000018054905083600101600084815260200190815260200160002081905550600190506200042d565b600090505b92915050565b600080836001016000848152602001908152602001600020541415905092915050565b600081519050620004678162000699565b92915050565b6000815190506200047e81620006b3565b92915050565b600080600080600060a086880312156200049d57600080fd5b6000620004ad8882890162000456565b9550506020620004c08882890162000456565b9450506040620004d38882890162000456565b9350506060620004e68882890162000456565b9250506080620004f9888289016200046d565b9150509295509295909350565b62000511816200065b565b82525050565b7f6368617261637465720000000000000000000000000000000000000000000000815250565b7f776561706f6e0000000000000000000000000000000000000000000000000000815250565b7f6b6f7065726e696b000000000000000000000000000000000000000000000000815250565b7f706c616e65740000000000000000000000000000000000000000000000000000815250565b6000604082019050620005c6600083018462000506565b620005d46020830162000517565b92915050565b6000604082019050620005f1600083018462000506565b620005ff602083016200053d565b92915050565b60006040820190506200061c600083018462000506565b6200062a6020830162000563565b92915050565b600060408201905062000647600083018462000506565b620006556020830162000589565b92915050565b600062000668826200066f565b9050919050565b600073ffffffffffffffffffffffffffffffffffffffff82169050919050565b6000819050919050565b620006a4816200065b565b8114620006b057600080fd5b50565b620006be816200068f565b8114620006ca57600080fd5b50565b6159df80620006dd6000396000f3fe608060405234801561001057600080fd5b50600436106101e55760003560e01c80638996e7dc1161010f578063ca15c873116100a2578063daee4ec811610071578063daee4ec8146105ef578063dd9054931461060d578063e18e32dc1461063e578063f71d96cb1461065a576101e5565b8063ca15c87314610543578063d2facacc14610573578063d547741f146105a3578063d5cfee3e146105bf576101e5565b806397b2f556116100de57806397b2f556146104a75780639ccd14b9146104c5578063a217fddf146104f5578063be353a5014610513576101e5565b80638996e7dc1461040d5780638f089c17146104295780639010d07c1461044757806391d1485414610477576101e5565b80633505c67d116101875780634810c35b116101565780634810c35b1461037157806350bfeadc146103a157806367dcb2c3146103bf5780636ebe71f8146103ef576101e5565b80633505c67d146102e557806336568abe14610303578063424aeded1461031f57806343b60f7414610353576101e5565b8063248a9ca3116101c3578063248a9ca3146102425780632a02d1fd146102725780632f2ff15d14610290578063309e5a5f146102ac576101e5565b806302fb0c5e146101ea57806316c30ebc1461020857806321bbf14c14610226575b600080fd5b6101f261068a565b6040516101ff9190615197565b60405180910390f35b61021061069d565b60405161021d91906151b2565b60405180910390f35b610240600480360381019061023b9190614353565b6106c1565b005b61025c600480360381019061025791906143a5565b610768565b60405161026991906151b2565b60405180910390f35b61027a610787565b6040516102879190614fa9565b60405180910390f35b6102aa60048036038101906102a591906143ce565b6107ad565b005b6102c660048036038101906102c19190614317565b610836565b6040516102dc9a999897969594939291906150fb565b60405180910390f35b6102ed610915565b6040516102fa9190614fa9565b60405180910390f35b61031d600480360381019061031891906143ce565b61093b565b005b610339600480360381019061033491906142c5565b6109d4565b60405161034a9594939291906151f6565b60405180910390f35b61035b610a4a565b6040516103689190614fa9565b60405180910390f35b61038b600480360381019061038691906143a5565b610a70565b6040516103989190615197565b60405180910390f35b6103a9610a90565b6040516103b6919061550d565b60405180910390f35b6103d960048036038101906103d491906144fb565b610a96565b6040516103e6919061550d565b60405180910390f35b6103f7610b71565b6040516104049190614fa9565b60405180910390f35b610427600480360381019061042291906143a5565b610b97565b005b610431610c02565b60405161043e9190614fa9565b60405180910390f35b610461600480360381019061045c919061440a565b610c28565b60405161046e9190614fa9565b60405180910390f35b610491600480360381019061048c91906143ce565b610c59565b60405161049e9190615197565b60405180910390f35b6104af610c8a565b6040516104bc919061550d565b60405180910390f35b6104df60048036038101906104da9190614446565b610c90565b6040516104ec91906155a3565b60405180910390f35b6104fd610cbf565b60405161050a91906151b2565b60405180910390f35b61052d600480360381019061052891906142c5565b610cc6565b60405161053a919061550d565b60405180910390f35b61055d600480360381019061055891906143a5565b610cde565b60405161056a919061550d565b60405180910390f35b61058d60048036038101906105889190614317565b610d04565b60405161059a919061550d565b60405180910390f35b6105bd60048036038101906105b891906143ce565b610ddd565b005b6105d960048036038101906105d491906142c5565b610e66565b6040516105e69190615197565b60405180910390f35b6105f7610e86565b604051610604919061550d565b60405180910390f35b610627600480360381019061062291906145b5565b610e8c565b60405161063592919061557a565b60405180910390f35b61065860048036038101906106539190614482565b61165e565b005b610674600480360381019061066f9190614563565b6116c1565b6040516106819190614fa9565b60405180910390f35b600460149054906101000a900460ff1681565b7fce04d177cfe9f73a7157bda35b0add7251966ad70509ceaef76ad7d5e6c4504281565b6106d56000801b6106d0611730565b610c59565b610714576040517f08c379a000000000000000000000000000000000000000000000000000000000815260040161070b9061530d565b60405180910390fd5b80600460146101000a81548160ff0219169083151502179055507f09712b3452a5348a0328397d58ce3c6cdc382ad233b3c04924a1f5683fa925748160405161075d9190615197565b60405180910390a150565b6000806000838152602001908152602001600020600201549050919050565b600460009054906101000a900473ffffffffffffffffffffffffffffffffffffffff1681565b6107d3600080848152602001908152602001600020600201546107ce611730565b610c59565b610828576040517f08c379a000000000000000000000000000000000000000000000000000000000815260040180806020018281038252602f8152602001806158fb602f913960400191505060405180910390fd5b6108328282611738565b5050565b600a602052816000526040600020818154811061085257600080fd5b9060005260206000209060050201600091509150508060000160009054906101000a900473ffffffffffffffffffffffffffffffffffffffff16908060010154908060020154908060030160009054906101000a900460ff16908060030160019054906101000a900460ff16908060030160029054906101000a900460ff16908060030160039054906101000a900460ff16908060030160049054906101000a900460ff16908060030160059054906101000a900460ff1690806004015490508a565b600360009054906101000a900473ffffffffffffffffffffffffffffffffffffffff1681565b610943611730565b73ffffffffffffffffffffffffffffffffffffffff168173ffffffffffffffffffffffffffffffffffffffff16146109c6576040517f08c379a000000000000000000000000000000000000000000000000000000000815260040180806020018281038252602f81526020018061597b602f913960400191505060405180910390fd5b6109d082826117cb565b5050565b60056020528060005260406000206000915090508060000154908060010160009054906101000a900463ffffffff16908060010160049054906101000a900463ffffffff16908060010160089054906101000a900463ffffffff169080600101600c9054906101000a900463ffffffff16905085565b600260009054906101000a900473ffffffffffffffffffffffffffffffffffffffff1681565b60086020528060005260406000206000915054906101000a900460ff1681565b600f5481565b6000600460149054906101000a900460ff16610ae7576040517f08c379a0000000000000000000000000000000000000000000000000000000008152600401610ade9061534d565b60405180910390fd5b610b187fce04d177cfe9f73a7157bda35b0add7251966ad70509ceaef76ad7d5e6c45042610b13611730565b610c59565b610b57576040517f08c379a0000000000000000000000000000000000000000000000000000000008152600401610b4e906153ed565b60405180910390fd5b6000610b6485858561185e565b9050809150509392505050565b600d60009054906101000a900473ffffffffffffffffffffffffffffffffffffffff1681565b600460149054906101000a900460ff16610be6576040517f08c379a0000000000000000000000000000000000000000000000000000000008152600401610bdd9061534d565b60405180910390fd5b610bef81611ba1565b610bff610bfa611730565b612040565b50565b600160009054906101000a900473ffffffffffffffffffffffffffffffffffffffff1681565b6000610c518260008086815260200190815260200160002060000161220c90919063ffffffff16565b905092915050565b6000610c828260008086815260200190815260200160002060000161222690919063ffffffff16565b905092915050565b60075481565b600c6020528160005260406000206020528060005260406000206000915091509054906101000a900460ff1681565b6000801b81565b600b6020528060005260406000206000915090505481565b6000610cfd600080848152602001908152602001600020600001612256565b9050919050565b6000600460149054906101000a900460ff16610d55576040517f08c379a0000000000000000000000000000000000000000000000000000000008152600401610d4c9061534d565b60405180910390fd5b610d867fce04d177cfe9f73a7157bda35b0add7251966ad70509ceaef76ad7d5e6c45042610d81611730565b610c59565b610dc5576040517f08c379a0000000000000000000000000000000000000000000000000000000008152600401610dbc906153ad565b60405180910390fd5b6000610dd1848461226b565b90508091505092915050565b610e0360008084815260200190815260200160002060020154610dfe611730565b610c59565b610e58576040517f08c379a000000000000000000000000000000000000000000000000000000000815260040180806020018281038252603081526020018061592a6030913960400191505060405180910390fd5b610e6282826117cb565b5050565b60096020528060005260406000206000915054906101000a900460ff1681565b600e5481565b600080600460149054906101000a900460ff16610ede576040517f08c379a0000000000000000000000000000000000000000000000000000000008152600401610ed59061534d565b60405180910390fd5b610f0f7fce04d177cfe9f73a7157bda35b0add7251966ad70509ceaef76ad7d5e6c45042610f0a611730565b610c59565b610f4e576040517f08c379a0000000000000000000000000000000000000000000000000000000008152600401610f459061548d565b60405180910390fd5b6000610f5a8585612809565b90506000806000610f69613daa565b600260009054906101000a900473ffffffffffffffffffffffffffffffffffffffff1673ffffffffffffffffffffffffffffffffffffffff1663e1d65d7f896040518263ffffffff1660e01b8152600401610fc4919061550d565b6101406040518083038186803b158015610fdd57600080fd5b505afa158015610ff1573d6000803e3d6000fd5b505050506040513d601f19601f8201168201806040525081019061101591906144d1565b905061101f613daa565b600260009054906101000a900473ffffffffffffffffffffffffffffffffffffffff1673ffffffffffffffffffffffffffffffffffffffff1663e1d65d7f876040518263ffffffff1660e01b815260040161107a919061550d565b6101406040518083038186803b15801561109357600080fd5b505afa1580156110a7573d6000803e3d6000fd5b505050506040513d601f19601f820116820180604052508101906110cb91906144d1565b90506110d982828b8961301b565b80955081965050508885141561135757600260009054906101000a900473ffffffffffffffffffffffffffffffffffffffff1673ffffffffffffffffffffffffffffffffffffffff1663de072a1c8a60066040518363ffffffff1660e01b8152600401611147929190615551565b602060405180830381600087803b15801561116157600080fd5b505af1158015611175573d6000803e3d6000fd5b505050506040513d601f19601f8201168201806040525081019061119991906145f1565b92506001600a60006111a9611730565b73ffffffffffffffffffffffffffffffffffffffff1673ffffffffffffffffffffffffffffffffffffffff1681526020019081526020016000208b815481106111ee57fe5b906000526020600020906005020160030160036101000a81548160ff021916908315150217905550600460009054906101000a900473ffffffffffffffffffffffffffffffffffffffff1673ffffffffffffffffffffffffffffffffffffffff166323b872dd600a6000611260611730565b73ffffffffffffffffffffffffffffffffffffffff1673ffffffffffffffffffffffffffffffffffffffff1681526020019081526020016000208c815481106112a557fe5b906000526020600020906005020160000160009054906101000a900473ffffffffffffffffffffffffffffffffffffffff166112df611730565b60646040518463ffffffff1660e01b81526004016112ff9392919061509b565b602060405180830381600087803b15801561131957600080fd5b505af115801561132d573d6000803e3d6000fd5b505050506040513d601f19601f82011682018060405250810190611351919061437c565b5061164b565b60008514156113e0576001600a600061136e611730565b73ffffffffffffffffffffffffffffffffffffffff1673ffffffffffffffffffffffffffffffffffffffff1681526020019081526020016000208b815481106113b357fe5b906000526020600020906005020160030160056101000a81548160ff02191690831515021790555061164a565b600260009054906101000a900473ffffffffffffffffffffffffffffffffffffffff1673ffffffffffffffffffffffffffffffffffffffff1663de072a1c8760046040518363ffffffff1660e01b815260040161143e929190615528565b602060405180830381600087803b15801561145857600080fd5b505af115801561146c573d6000803e3d6000fd5b505050506040513d601f19601f8201168201806040525081019061149091906145f1565b92506001600a60006114a0611730565b73ffffffffffffffffffffffffffffffffffffffff1673ffffffffffffffffffffffffffffffffffffffff1681526020019081526020016000208b815481106114e557fe5b906000526020600020906005020160030160046101000a81548160ff021916908315150217905550600460009054906101000a900473ffffffffffffffffffffffffffffffffffffffff1673ffffffffffffffffffffffffffffffffffffffff166323b872dd611553611730565b600a600061155f611730565b73ffffffffffffffffffffffffffffffffffffffff1673ffffffffffffffffffffffffffffffffffffffff1681526020019081526020016000208d815481106115a457fe5b906000526020600020906005020160000160009054906101000a900473ffffffffffffffffffffffffffffffffffffffff1660646040518463ffffffff1660e01b81526004016115f693929190614fed565b602060405180830381600087803b15801561161057600080fd5b505af1158015611624573d6000803e3d6000fd5b505050506040513d601f19601f82011682018060405250810190611648919061437c565b505b5b8483975097505050505050509250929050565b6116726000801b61166d611730565b610c59565b6116b1576040517f08c379a00000000000000000000000000000000000000000000000000000000081526004016116a89061540d565b60405180910390fd5b6116bc8383836132bb565b505050565b600681815481106116d157600080fd5b906000526020600020016000915054906101000a900473ffffffffffffffffffffffffffffffffffffffff1681565b6000611728836000018373ffffffffffffffffffffffffffffffffffffffff1660001b61346c565b905092915050565b600033905090565b61175f8160008085815260200190815260200160002060000161170090919063ffffffff16565b156117c75761176c611730565b73ffffffffffffffffffffffffffffffffffffffff168173ffffffffffffffffffffffffffffffffffffffff16837f2f8788117e7eff1d82e926ec794901d17c78024a50270940304540a733656f0d60405160405180910390a45b5050565b6117f2816000808581526020019081526020016000206000016134dc90919063ffffffff16565b1561185a576117ff611730565b73ffffffffffffffffffffffffffffffffffffffff168173ffffffffffffffffffffffffffffffffffffffff16837ff6391f5c32d9c69d2a47ea670b442974b53935d1edc7fd64eb21e047a839171b60405160405180910390a45b5050565b6000600a61186b8361350c565b63ffffffff16146118b1576040517f08c379a00000000000000000000000000000000000000000000000000000000081526004016118a8906152ad565b60405180910390fd5b600160009054906101000a900473ffffffffffffffffffffffffffffffffffffffff1673ffffffffffffffffffffffffffffffffffffffff1663100e12d085606001516040518263ffffffff1660e01b8152600401611910919061550d565b60206040518083038186803b15801561192857600080fd5b505afa15801561193c573d6000803e3d6000fd5b505050506040513d601f19601f82011682018060405250810190611960919061437c565b61199f576040517f08c379a0000000000000000000000000000000000000000000000000000000008152600401611996906152ed565b60405180910390fd5b600182610100019060ff16908160ff1681525050600082610120019060ff16908160ff16815250506000600260009054906101000a900473ffffffffffffffffffffffffffffffffffffffff16905060008173ffffffffffffffffffffffffffffffffffffffff1663d8f7af39611a14611730565b8888886040518563ffffffff1660e01b8152600401611a369493929190615024565b602060405180830381600087803b158015611a5057600080fd5b505af1158015611a64573d6000803e3d6000fd5b505050506040513d601f19601f82011682018060405250810190611a88919061458c565b9050600160009054906101000a900473ffffffffffffffffffffffffffffffffffffffff1673ffffffffffffffffffffffffffffffffffffffff1663f4107cbe87606001516040518263ffffffff1660e01b8152600401611ae9919061550d565b602060405180830381600087803b158015611b0357600080fd5b505af1158015611b17573d6000803e3d6000fd5b505050506040513d601f19601f82011682018060405250810190611b3b919061458c565b50611b44611730565b73ffffffffffffffffffffffffffffffffffffffff167f62be5f3bdc2d869fa9c0f72d60d1efc5baa37ba376c364bd58557e952b3fcf878760000151604051611b8d91906151b2565b60405180910390a280925050509392505050565b80604051602001611bb19061544d565b6040516020818303038152906040528051906020012081604051602001611bd891906151b2565b6040516020818303038152906040528051906020012014158015611c4957506000604051602001611c099190615272565b6040516020818303038152906040528051906020012081604051602001611c3091906151b2565b6040516020818303038152906040528051906020012014155b611c88576040517f08c379a0000000000000000000000000000000000000000000000000000000008152600401611c7f9061532d565b60405180910390fd5b60096000611c94611730565b73ffffffffffffffffffffffffffffffffffffffff1673ffffffffffffffffffffffffffffffffffffffff16815260200190815260200160002060009054906101000a900460ff1615611d1c576040517f08c379a0000000000000000000000000000000000000000000000000000000008152600401611d139061538d565b60405180910390fd5b816008600082815260200190815260200160002060009054906101000a900460ff1615611d7e576040517f08c379a0000000000000000000000000000000000000000000000000000000008152600401611d759061536d565b60405180910390fd5b6040518060a00160405280848152602001600063ffffffff168152602001600063ffffffff168152602001600063ffffffff168152602001600063ffffffff1681525060056000611dcd611730565b73ffffffffffffffffffffffffffffffffffffffff1673ffffffffffffffffffffffffffffffffffffffff1681526020019081526020016000206000820151816000015560208201518160010160006101000a81548163ffffffff021916908363ffffffff16021790555060408201518160010160046101000a81548163ffffffff021916908363ffffffff16021790555060608201518160010160086101000a81548163ffffffff021916908363ffffffff160217905550608082015181600101600c6101000a81548163ffffffff021916908363ffffffff1602179055509050506006611eba611730565b9080600181540180825580915050600190039060005260206000200160009091909190916101000a81548173ffffffffffffffffffffffffffffffffffffffff021916908373ffffffffffffffffffffffffffffffffffffffff16021790555060016008600085815260200190815260200160002060006101000a81548160ff021916908315150217905550600160096000611f54611730565b73ffffffffffffffffffffffffffffffffffffffff1673ffffffffffffffffffffffffffffffffffffffff16815260200190815260200160002060006101000a81548160ff021916908315150217905550600680549050600781905550611fe27fce04d177cfe9f73a7157bda35b0add7251966ad70509ceaef76ad7d5e6c45042611fdd611730565b6135a8565b611fea611730565b73ffffffffffffffffffffffffffffffffffffffff167fb15dfd21b68df9009b3cf0c00f71adb58432149afacbb5e885e3cece431e95ff846007546040516120339291906151cd565b60405180910390a2505050565b6000600460009054906101000a900473ffffffffffffffffffffffffffffffffffffffff16905060008173ffffffffffffffffffffffffffffffffffffffff166370a08231306040518263ffffffff1660e01b81526004016120a29190614fa9565b60206040518083038186803b1580156120ba57600080fd5b505afa1580156120ce573d6000803e3d6000fd5b505050506040513d601f19601f820116820180604052508101906120f2919061458c565b9050600f54811015612139576040517f08c379a0000000000000000000000000000000000000000000000000000000008152600401612130906152cd565b60405180910390fd5b8173ffffffffffffffffffffffffffffffffffffffff1663a9059cbb84600f546040518363ffffffff1660e01b81526004016121769291906150d2565b602060405180830381600087803b15801561219057600080fd5b505af11580156121a4573d6000803e3d6000fd5b505050506040513d601f19601f820116820180604052508101906121c8919061437c565b612207576040517f08c379a00000000000000000000000000000000000000000000000000000000081526004016121fe906154ed565b60405180910390fd5b505050565b600061221b83600001836135b6565b60001c905092915050565b600061224e836000018373ffffffffffffffffffffffffffffffffffffffff1660001b613639565b905092915050565b60006122648260000161365c565b9050919050565b60006001600460009054906101000a900473ffffffffffffffffffffffffffffffffffffffff1673ffffffffffffffffffffffffffffffffffffffff1663dd62ed3e6122b5611730565b306040518363ffffffff1660e01b81526004016122d3929190614fc4565b60206040518083038186803b1580156122eb57600080fd5b505afa1580156122ff573d6000803e3d6000fd5b505050506040513d601f19601f82011682018060405250810190612323919061458c565b1015612364576040517f08c379a000000000000000000000000000000000000000000000000000000000815260040161235b9061546d565b60405180910390fd5b61236c611730565b73ffffffffffffffffffffffffffffffffffffffff16600260009054906101000a900473ffffffffffffffffffffffffffffffffffffffff1673ffffffffffffffffffffffffffffffffffffffff16636352211e846040518263ffffffff1660e01b81526004016123dd919061550d565b602060405180830381600087803b1580156123f757600080fd5b505af115801561240b573d6000803e3d6000fd5b505050506040513d601f19601f8201168201806040525081019061242f91906142ee565b73ffffffffffffffffffffffffffffffffffffffff1614612485576040517f08c379a000000000000000000000000000000000000000000000000000000000815260040161247c906153cd565b60405180910390fd5b600a60008473ffffffffffffffffffffffffffffffffffffffff1673ffffffffffffffffffffffffffffffffffffffff1681526020019081526020016000206040518061014001604052806124d8611730565b73ffffffffffffffffffffffffffffffffffffffff168152602001848152602001600081526020016000151581526020016000151581526020016001151581526020016000151581526020016000151581526020016000151581526020016103844201815250908060018154018082558091505060019003906000526020600020906005020160009091909190915060008201518160000160006101000a81548173ffffffffffffffffffffffffffffffffffffffff021916908373ffffffffffffffffffffffffffffffffffffffff160217905550602082015181600101556040820151816002015560608201518160030160006101000a81548160ff02191690831515021790555060808201518160030160016101000a81548160ff02191690831515021790555060a08201518160030160026101000a81548160ff02191690831515021790555060c08201518160030160036101000a81548160ff02191690831515021790555060e08201518160030160046101000a81548160ff0219169083151502179055506101008201518160030160056101000a81548160ff02191690831515021790555061012082015181600401555050600a60008473ffffffffffffffffffffffffffffffffffffffff1673ffffffffffffffffffffffffffffffffffffffff16815260200190815260200160002080549050600b60008573ffffffffffffffffffffffffffffffffffffffff1673ffffffffffffffffffffffffffffffffffffffff168152602001908152602001600020819055508273ffffffffffffffffffffffffffffffffffffffff16612735611730565b73ffffffffffffffffffffffffffffffffffffffff167f9666d22455f262a428885a8577a540aa86f9d8697637c663bd39379ce76341dd600b60008773ffffffffffffffffffffffffffffffffffffffff1673ffffffffffffffffffffffffffffffffffffffff168152602001908152602001600020546040516127b9919061550d565b60405180910390a3600b60008473ffffffffffffffffffffffffffffffffffffffff1673ffffffffffffffffffffffffffffffffffffffff16815260200190815260200160002054905092915050565b6000600b6000612817611730565b73ffffffffffffffffffffffffffffffffffffffff1673ffffffffffffffffffffffffffffffffffffffff168152602001908152602001600020548310612893576040517f08c379a000000000000000000000000000000000000000000000000000000000815260040161288a906154cd565b60405180910390fd5b42600a60006128a0611730565b73ffffffffffffffffffffffffffffffffffffffff1673ffffffffffffffffffffffffffffffffffffffff16815260200190815260200160002084815481106128e557fe5b90600052602060002090600502016004015410612937576040517f08c379a000000000000000000000000000000000000000000000000000000000815260040161292e9061528d565b60405180910390fd5b600a6000612943611730565b73ffffffffffffffffffffffffffffffffffffffff1673ffffffffffffffffffffffffffffffffffffffff168152602001908152602001600020838154811061298857fe5b906000526020600020906005020160030160029054906101000a900460ff166129e6576040517f08c379a00000000000000000000000000000000000000000000000000000000081526004016129dd906154ad565b60405180910390fd5b6001600460009054906101000a900473ffffffffffffffffffffffffffffffffffffffff1673ffffffffffffffffffffffffffffffffffffffff1663dd62ed3e612a2e611730565b306040518363ffffffff1660e01b8152600401612a4c929190614fc4565b60206040518083038186803b158015612a6457600080fd5b505afa158015612a78573d6000803e3d6000fd5b505050506040513d601f19601f82011682018060405250810190612a9c919061458c565b1015612add576040517f08c379a0000000000000000000000000000000000000000000000000000000008152600401612ad49061546d565b60405180910390fd5b6064600460009054906101000a900473ffffffffffffffffffffffffffffffffffffffff1673ffffffffffffffffffffffffffffffffffffffff1663dd62ed3e600a6000612b29611730565b73ffffffffffffffffffffffffffffffffffffffff1673ffffffffffffffffffffffffffffffffffffffff1681526020019081526020016000208681548110612b6e57fe5b906000526020600020906005020160000160009054906101000a900473ffffffffffffffffffffffffffffffffffffffff16306040518363ffffffff1660e01b8152600401612bbe929190615072565b60206040518083038186803b158015612bd657600080fd5b505afa158015612bea573d6000803e3d6000fd5b505050506040513d601f19601f82011682018060405250810190612c0e919061458c565b1015612c4f576040517f08c379a0000000000000000000000000000000000000000000000000000000008152600401612c469061546d565b60405180910390fd5b612c57611730565b73ffffffffffffffffffffffffffffffffffffffff16600260009054906101000a900473ffffffffffffffffffffffffffffffffffffffff1673ffffffffffffffffffffffffffffffffffffffff16636352211e846040518263ffffffff1660e01b8152600401612cc8919061550d565b602060405180830381600087803b158015612ce257600080fd5b505af1158015612cf6573d6000803e3d6000fd5b505050506040513d601f19601f82011682018060405250810190612d1a91906142ee565b73ffffffffffffffffffffffffffffffffffffffff1614612d70576040517f08c379a0000000000000000000000000000000000000000000000000000000008152600401612d67906153cd565b60405180910390fd5b6001600a6000612d7e611730565b73ffffffffffffffffffffffffffffffffffffffff1673ffffffffffffffffffffffffffffffffffffffff1681526020019081526020016000208481548110612dc357fe5b906000526020600020906005020160030160006101000a81548160ff0219169083151502179055506000600a6000612df9611730565b73ffffffffffffffffffffffffffffffffffffffff1673ffffffffffffffffffffffffffffffffffffffff1681526020019081526020016000208481548110612e3e57fe5b906000526020600020906005020160030160026101000a81548160ff02191690831515021790555081600a6000612e73611730565b73ffffffffffffffffffffffffffffffffffffffff1673ffffffffffffffffffffffffffffffffffffffff1681526020019081526020016000208481548110612eb857fe5b906000526020600020906005020160020181905550600a6000612ed9611730565b73ffffffffffffffffffffffffffffffffffffffff1673ffffffffffffffffffffffffffffffffffffffff1681526020019081526020016000208381548110612f1e57fe5b906000526020600020906005020160000160009054906101000a900473ffffffffffffffffffffffffffffffffffffffff1673ffffffffffffffffffffffffffffffffffffffff16612f6e611730565b73ffffffffffffffffffffffffffffffffffffffff167fe2babda772122669377c29315efa3fb1f9823e70da2a8b2e7cbb28d00230c38560405160405180910390a3600a6000612fbc611730565b73ffffffffffffffffffffffffffffffffffffffff1673ffffffffffffffffffffffffffffffffffffffff168152602001908152602001600020838154811061300157fe5b906000526020600020906005020160010154905092915050565b6000806000600c60008860000151600c81111561303457fe5b600c81111561303f57fe5b815260200190815260200160002060008760000151600c81111561305f57fe5b600c81111561306a57fe5b815260200190815260200160002060009054906101000a900460ff1660ff1690506000600c60008960000151600c8111156130a157fe5b600c8111156130ac57fe5b815260200190815260200160002060008860200151600c8111156130cc57fe5b600c8111156130d757fe5b815260200190815260200160002060009054906101000a900460ff1660ff1690506000600c60008a60200151600c81111561310e57fe5b600c81111561311957fe5b815260200190815260200160002060008960000151600c81111561313957fe5b600c81111561314457fe5b815260200190815260200160002060009054906101000a900460ff1660ff1690506000600c60008b60200151600c81111561317b57fe5b600c81111561318657fe5b815260200190815260200160002060008a60200151600c8111156131a657fe5b600c8111156131b157fe5b815260200190815260200160002060009054906101000a900460ff1660ff16905060006131de8b8b61366d565b9050613224600361321286613200898661ffff166139e190919063ffffffff16565b61ffff166139e190919063ffffffff16565b61ffff16613a7190919063ffffffff16565b905061326a600361325884613246878661ffff166139e190919063ffffffff16565b61ffff166139e190919063ffffffff16565b61ffff16613a7190919063ffffffff16565b9050603c8161ffff16106132885788819650965050505050506132b2565b60328161ffff1610156132a55787819650965050505050506132b2565b6000819650965050505050505b94509492505050565b60648160ff161115613302576040517f08c379a00000000000000000000000000000000000000000000000000000000081526004016132f99061542d565b60405180910390fd5b600081606403905081600c600086600c81111561331b57fe5b600c81111561332657fe5b8152602001908152602001600020600085600c81111561334257fe5b600c81111561334d57fe5b815260200190815260200160002060006101000a81548160ff021916908360ff16021790555083600c81111561337f57fe5b7f184ca1b6e59081f312c2ab1e90a1a442486d2324c3be4ebe8f4253f63082f6e884846040516133b0929190615249565b60405180910390a280600c600085600c8111156133c957fe5b600c8111156133d457fe5b8152602001908152602001600020600086600c8111156133f057fe5b600c8111156133fb57fe5b815260200190815260200160002060006101000a81548160ff021916908360ff16021790555082600c81111561342d57fe5b7f184ca1b6e59081f312c2ab1e90a1a442486d2324c3be4ebe8f4253f63082f6e8858360405161345e929190615249565b60405180910390a250505050565b60006134788383613639565b6134d15782600001829080600181540180825580915050600190039060005260206000200160009091909190915055826000018054905083600101600084815260200190815260200160002081905550600190506134d6565b600090505b92915050565b6000613504836000018373ffffffffffffffffffffffffffffffffffffffff1660001b613b06565b905092915050565b6000806135466135308460800151856060015160ff16613bee90919063ffffffff16565b846040015160ff16613bee90919063ffffffff16565b60ff16905061359d61358561356f8560e001518660c0015160ff16613bee90919063ffffffff16565b8560a0015160ff16613bee90919063ffffffff16565b60ff168263ffffffff16613c7c90919063ffffffff16565b905080915050919050565b6135b28282611738565b5050565b600081836000018054905011613617576040517f08c379a00000000000000000000000000000000000000000000000000000000081526004018080602001828103825260228152602001806158d96022913960400191505060405180910390fd5b82600001828154811061362657fe5b9060005260206000200154905092915050565b600080836001016000848152602001908152602001600020541415905092915050565b600081600001805490509050919050565b6000806136c9613698846040015160ff16866040015160ff1661ffff166139e190919063ffffffff16565b6136b76064876040015160ff1661ffff16613d1090919063ffffffff16565b61ffff16613a7190919063ffffffff16565b905060006137266136f5856060015160ff16876060015160ff1661ffff166139e190919063ffffffff16565b6137146064886060015160ff1661ffff16613d1090919063ffffffff16565b61ffff16613a7190919063ffffffff16565b90506000613783613752866080015160ff16886080015160ff1661ffff166139e190919063ffffffff16565b6137716064896080015160ff1661ffff16613d1090919063ffffffff16565b61ffff16613a7190919063ffffffff16565b905060006137e06137af8760a0015160ff168960a0015160ff1661ffff166139e190919063ffffffff16565b6137ce60648a60a0015160ff1661ffff16613d1090919063ffffffff16565b61ffff16613a7190919063ffffffff16565b9050600061383d61380c8860c0015160ff168a60c0015160ff1661ffff166139e190919063ffffffff16565b61382b60648b60c0015160ff1661ffff16613d1090919063ffffffff16565b61ffff16613a7190919063ffffffff16565b9050600061389a6138698960e0015160ff168b60e0015160ff1661ffff166139e190919063ffffffff16565b61388860648c60e0015160ff1661ffff16613d1090919063ffffffff16565b61ffff16613a7190919063ffffffff16565b905060006138fa6138c88a610100015160ff168c610100015160ff1661ffff166139e190919063ffffffff16565b6138e860648d610100015160ff1661ffff16613d1090919063ffffffff16565b61ffff16613a7190919063ffffffff16565b9050600061394260036139308861391e8b8d61ffff166139e190919063ffffffff16565b61ffff166139e190919063ffffffff16565b61ffff16613a7190919063ffffffff16565b9050613988600361397686613964898661ffff166139e190919063ffffffff16565b61ffff166139e190919063ffffffff16565b61ffff16613a7190919063ffffffff16565b90506139ce60036139bc846139aa878661ffff166139e190919063ffffffff16565b61ffff166139e190919063ffffffff16565b61ffff16613a7190919063ffffffff16565b9050809850505050505050505092915050565b60008082840190508361ffff168161ffff161015613a67576040517f08c379a000000000000000000000000000000000000000000000000000000000815260040180806020018281038252601b8152602001807f536166654d6174683a206164646974696f6e206f766572666c6f77000000000081525060200191505060405180910390fd5b8091505092915050565b6000808261ffff1611613aec576040517f08c379a000000000000000000000000000000000000000000000000000000000815260040180806020018281038252601a8152602001807f536166654d6174683a206469766973696f6e206279207a65726f00000000000081525060200191505060405180910390fd5b8161ffff168361ffff1681613afd57fe5b04905092915050565b60008083600101600084815260200190815260200160002054905060008114613be25760006001820390506000600186600001805490500390506000866000018281548110613b5157fe5b9060005260206000200154905080876000018481548110613b6e57fe5b9060005260206000200181905550600183018760010160008381526020019081526020016000208190555086600001805480613ba657fe5b60019003818190600052602060002001600090559055866001016000878152602001908152602001600020600090556001945050505050613be8565b60009150505b92915050565b60008082840190508360ff168160ff161015613c72576040517f08c379a000000000000000000000000000000000000000000000000000000000815260040180806020018281038252601b8152602001807f536166654d6174683a206164646974696f6e206f766572666c6f77000000000081525060200191505060405180910390fd5b8091505092915050565b60008082840190508363ffffffff168163ffffffff161015613d06576040517f08c379a000000000000000000000000000000000000000000000000000000000815260040180806020018281038252601b8152602001807f536166654d6174683a206164646974696f6e206f766572666c6f77000000000081525060200191505060405180910390fd5b8091505092915050565b6000808361ffff161415613d275760009050613da4565b600082840290508261ffff168461ffff168261ffff1681613d4457fe5b0461ffff1614613d9f576040517f08c379a000000000000000000000000000000000000000000000000000000000815260040180806020018281038252602181526020018061595a6021913960400191505060405180910390fd5b809150505b92915050565b6040518061014001604052806000600c811115613dc357fe5b81526020016000600c811115613dd557fe5b8152602001600060ff168152602001600060ff168152602001600060ff168152602001600060ff168152602001600060ff168152602001600060ff168152602001600060ff168152602001600060ff1681525090565b600081359050613e3a81615810565b92915050565b600081519050613e4f81615810565b92915050565b600081359050613e6481615827565b92915050565b600081519050613e7981615827565b92915050565b600081359050613e8e8161583e565b92915050565b600081359050613ea381615855565b92915050565b600081359050613eb88161586c565b92915050565b600081519050613ecd8161586c565b92915050565b600082601f830112613ee457600080fd5b8135613ef7613ef2826155ef565b6155be565b91508082526020830160208301858383011115613f1357600080fd5b613f1e8382846157a7565b50505092915050565b60006101408284031215613f3a57600080fd5b613f456101406155be565b90506000613f5584828501613ea9565b6000830152506020613f6984828501613ea9565b6020830152506040613f7d8482850161429b565b6040830152506060613f918482850161429b565b6060830152506080613fa58482850161429b565b60808301525060a0613fb98482850161429b565b60a08301525060c0613fcd8482850161429b565b60c08301525060e0613fe18482850161429b565b60e083015250610100613ff68482850161429b565b6101008301525061012061400c8482850161429b565b6101208301525092915050565b6000610140828403121561402c57600080fd5b6140376101406155be565b9050600061404784828501613ebe565b600083015250602061405b84828501613ebe565b602083015250604061406f848285016142b0565b6040830152506060614083848285016142b0565b6060830152506080614097848285016142b0565b60808301525060a06140ab848285016142b0565b60a08301525060c06140bf848285016142b0565b60c08301525060e06140d3848285016142b0565b60e0830152506101006140e8848285016142b0565b610100830152506101206140fe848285016142b0565b6101208301525092915050565b600060a0828403121561411d57600080fd5b61412760a06155be565b9050600061413784828501613e94565b600083015250602061414b84828501613e7f565b602083015250604082013567ffffffffffffffff81111561416b57600080fd5b61417784828501613ed3565b604083015250606061418b84828501614271565b606083015250608061419f8482850161429b565b60808301525092915050565b600060c082840312156141bd57600080fd5b6141c760c06155be565b905060006141d78482850161425c565b60008301525060206141eb8482850161425c565b60208301525060406141ff8482850161425c565b604083015250606061421384828501614247565b606083015250608061422784828501614247565b60808301525060a061423b8482850161429b565b60a08301525092915050565b6000813590506142568161587c565b92915050565b60008135905061426b81615893565b92915050565b600081359050614280816158aa565b92915050565b600081519050614295816158aa565b92915050565b6000813590506142aa816158c1565b92915050565b6000815190506142bf816158c1565b92915050565b6000602082840312156142d757600080fd5b60006142e584828501613e2b565b91505092915050565b60006020828403121561430057600080fd5b600061430e84828501613e40565b91505092915050565b6000806040838503121561432a57600080fd5b600061433885828601613e2b565b925050602061434985828601614271565b9150509250929050565b60006020828403121561436557600080fd5b600061437384828501613e55565b91505092915050565b60006020828403121561438e57600080fd5b600061439c84828501613e6a565b91505092915050565b6000602082840312156143b757600080fd5b60006143c584828501613e94565b91505092915050565b600080604083850312156143e157600080fd5b60006143ef85828601613e94565b925050602061440085828601613e2b565b9150509250929050565b6000806040838503121561441d57600080fd5b600061442b85828601613e94565b925050602061443c85828601614271565b9150509250929050565b6000806040838503121561445957600080fd5b600061446785828601613ea9565b925050602061447885828601613ea9565b9150509250929050565b60008060006060848603121561449757600080fd5b60006144a586828701613ea9565b93505060206144b686828701613ea9565b92505060406144c78682870161429b565b9150509250925092565b600061014082840312156144e457600080fd5b60006144f284828501614019565b91505092915050565b6000806000610220848603121561451157600080fd5b600084013567ffffffffffffffff81111561452b57600080fd5b6145378682870161410b565b9350506020614548868287016141ab565b92505060e061455986828701613f27565b9150509250925092565b60006020828403121561457557600080fd5b600061458384828501614271565b91505092915050565b60006020828403121561459e57600080fd5b60006145ac84828501614286565b91505092915050565b600080604083850312156145c857600080fd5b60006145d685828601614271565b92505060206145e785828601614271565b9150509250929050565b60006020828403121561460357600080fd5b6000614611848285016142b0565b91505092915050565b61462381615717565b82525050565b6146328161564c565b82525050565b6146418161565e565b82525050565b6146508161566a565b82525050565b61465f81615696565b82525050565b61466e81615696565b82525050565b61467d81615729565b82525050565b61468c81615729565b82525050565b61469b8161573b565b82525050565b6146aa8161574d565b82525050565b6146b98161575f565b82525050565b6146c881615771565b82525050565b60006146d98261561f565b6146e3818561562a565b93506146f38185602086016157b6565b6146fc816157eb565b840191505092915050565b600061471460178361563b565b91507f496e7669746174696f6e206861732065787069726564210000000000000000006000830152602082019050919050565b6000614754602c8361563b565b91507f5468652073756d206f6620736b696c6c7320706f696e7473206d75737420626560008301527f20657175616c20746f20313000000000000000000000000000000000000000006020830152604082019050919050565b60006147ba602c8361563b565b91507f4e6f7420656e6f7567682062616c616e6365206f6e20457468657265616c476160008301527f6d6520636f6e74726163742100000000000000000000000000000000000000006020830152604082019050919050565b600061482060118361563b565b91507f496e76616c696420706c616e65742069640000000000000000000000000000006000830152602082019050919050565b600061486060308361563b565b91507f616374697661746544656163746976617465436f6e74726163743a206d75737460008301527f20686176652061646d696e20726f6c65000000000000000000000000000000006020830152604082019050919050565b60006148c660188361563b565b91507f456d70747920737472696e67206e6f7420616c6c6f77656400000000000000006000830152602082019050919050565b600061490660148361563b565b91507f436f6e747261637420697320696e6163746976650000000000000000000000006000830152602082019050919050565b6000614946601c8361563b565b91507f4e69636b6e616d65206e616d6520616c726561647920657869737473000000006000830152602082019050919050565b6000614986601c8361563b565b91507f506c6179657220697320616c72656164792072656769737465726564000000006000830152602082019050919050565b60006149c660238361563b565b91507f7265717565737446696768743a206d757374206861766520706c61796572207260008301527f6f6c6500000000000000000000000000000000000000000000000000000000006020830152604082019050919050565b6000614a2c60288361563b565b91507f53656e646572206973206e6f7420746865206f776e6572206f6620746865206360008301527f68617261637465720000000000000000000000000000000000000000000000006020830152604082019050919050565b6000614a9260268361563b565b91507f6372656174654368617261637465723a206d757374206861766520706c61796560008301527f7220726f6c6500000000000000000000000000000000000000000000000000006020830152604082019050919050565b6000614af860308361563b565b91507f61737369676e50726f626162696c6974794f6657696e6e696e673a206d75737460008301527f20686176652061646d696e20726f6c65000000000000000000000000000000006020830152604082019050919050565b6000614b5e60258361563b565b91507f50726f626162696c697479206d757374206265206265747765656e203020616e60008301527f64203130300000000000000000000000000000000000000000000000000000006020830152604082019050919050565b6000614bc460008361563b565b9150600082019050919050565b6000614bde60208361563b565b91507f4e6f7420656e6f75676820746f6b656e7320616c6c6f77656420746f207573656000830152602082019050919050565b6000614c1e60228361563b565b91507f61636365707446696768743a206d757374206861766520706c6179657220726f60008301527f6c650000000000000000000000000000000000000000000000000000000000006020830152604082019050919050565b6000614c8460278361563b565b91507f496e7669746174696f6e2077617320616c726561647920616363657465642f7260008301527f656a6563746564000000000000000000000000000000000000000000000000006020830152604082019050919050565b6000614cea60218361563b565b91507f466967687420696e646578206265796f6e6420617272617920656c656d656e7460008301527f73000000000000000000000000000000000000000000000000000000000000006020830152604082019050919050565b6000614d5060188361563b565b91507f4572726f72207472616e73666572696e6720746f6b656e7300000000000000006000830152602082019050919050565b61014082016000820151614d9a6000850182614674565b506020820151614dad6020850182614674565b506040820151614dc06040850182614f8b565b506060820151614dd36060850182614f8b565b506080820151614de66080850182614f8b565b5060a0820151614df960a0850182614f8b565b5060c0820151614e0c60c0850182614f8b565b5060e0820151614e1f60e0850182614f8b565b50610100820151614e34610100850182614f8b565b50610120820151614e49610120850182614f8b565b50505050565b600060a083016000830151614e676000860182614656565b506020830151614e7a6020860182614647565b5060408301518482036040860152614e9282826146ce565b9150506060830151614ea76060860182614f5e565b506080830151614eba6080860182614f8b565b508091505092915050565b60c082016000820151614edb6000850182614f4f565b506020820151614eee6020850182614f4f565b506040820151614f016040850182614f4f565b506060820151614f146060850182614f40565b506080820151614f276080850182614f40565b5060a0820151614f3a60a0850182614f8b565b50505050565b614f49816156b3565b82525050565b614f58816156e1565b82525050565b614f67816156f0565b82525050565b614f76816156f0565b82525050565b614f85816156fa565b82525050565b614f948161570a565b82525050565b614fa38161570a565b82525050565b6000602082019050614fbe6000830184614629565b92915050565b6000604082019050614fd9600083018561461a565b614fe66020830184614629565b9392505050565b6000606082019050615002600083018661461a565b61500f6020830185614629565b61501c60408301846146a1565b949350505050565b60006102408201905061503a600083018761461a565b818103602083015261504c8186614e4f565b905061505b6040830185614ec5565b615069610100830184614d83565b95945050505050565b60006040820190506150876000830185614629565b6150946020830184614629565b9392505050565b60006060820190506150b06000830186614629565b6150bd602083018561461a565b6150ca60408301846146a1565b949350505050565b60006040820190506150e76000830185614629565b6150f46020830184614f6d565b9392505050565b600061014082019050615111600083018d614629565b61511e602083018c614f6d565b61512b604083018b614f6d565b615138606083018a614638565b6151456080830189614638565b61515260a0830188614638565b61515f60c0830187614638565b61516c60e0830186614638565b61517a610100830185614638565b615188610120830184614f6d565b9b9a5050505050505050505050565b60006020820190506151ac6000830184614638565b92915050565b60006020820190506151c76000830184614665565b92915050565b60006040820190506151e26000830185614665565b6151ef6020830184614f6d565b9392505050565b600060a08201905061520b6000830188614665565b6152186020830187614f7c565b6152256040830186614f7c565b6152326060830185614f7c565b61523f6080830184614f7c565b9695505050505050565b600060408201905061525e6000830185614683565b61526b6020830184614f9a565b9392505050565b60006020820190506152876000830184614692565b92915050565b600060208201905081810360008301526152a681614707565b9050919050565b600060208201905081810360008301526152c681614747565b9050919050565b600060208201905081810360008301526152e6816147ad565b9050919050565b6000602082019050818103600083015261530681614813565b9050919050565b6000602082019050818103600083015261532681614853565b9050919050565b60006020820190508181036000830152615346816148b9565b9050919050565b60006020820190508181036000830152615366816148f9565b9050919050565b6000602082019050818103600083015261538681614939565b9050919050565b600060208201905081810360008301526153a681614979565b9050919050565b600060208201905081810360008301526153c6816149b9565b9050919050565b600060208201905081810360008301526153e681614a1f565b9050919050565b6000602082019050818103600083015261540681614a85565b9050919050565b6000602082019050818103600083015261542681614aeb565b9050919050565b6000602082019050818103600083015261544681614b51565b9050919050565b6000602082019050818103600083015261546681614bb7565b9050919050565b6000602082019050818103600083015261548681614bd1565b9050919050565b600060208201905081810360008301526154a681614c11565b9050919050565b600060208201905081810360008301526154c681614c77565b9050919050565b600060208201905081810360008301526154e681614cdd565b9050919050565b6000602082019050818103600083015261550681614d43565b9050919050565b60006020820190506155226000830184614f6d565b92915050565b600060408201905061553d6000830185614f6d565b61554a60208301846146b0565b9392505050565b60006040820190506155666000830185614f6d565b61557360208301846146bf565b9392505050565b600060408201905061558f6000830185614f6d565b61559c6020830184614f9a565b9392505050565b60006020820190506155b86000830184614f9a565b92915050565b6000604051905081810181811067ffffffffffffffff821117156155e5576155e46157e9565b5b8060405250919050565b600067ffffffffffffffff82111561560a576156096157e9565b5b601f19601f8301169050602081019050919050565b600081519050919050565b600082825260208201905092915050565b600082825260208201905092915050565b6000615657826156c1565b9050919050565b60008115159050919050565b60007fffffffffffffffffffffffffffffffffffffffffffffffff000000000000000082169050919050565b6000819050919050565b60008190506156ae826157fc565b919050565b600061ffff82169050919050565b600073ffffffffffffffffffffffffffffffffffffffff82169050919050565b600062ffffff82169050919050565b6000819050919050565b600063ffffffff82169050919050565b600060ff82169050919050565b600061572282615783565b9050919050565b6000615734826156a0565b9050919050565b60006157468261570a565b9050919050565b6000615758826156f0565b9050919050565b600061576a8261570a565b9050919050565b600061577c8261570a565b9050919050565b600061578e82615795565b9050919050565b60006157a0826156c1565b9050919050565b82818337600083830152505050565b60005b838110156157d45780820151818401526020810190506157b9565b838111156157e3576000848401525b50505050565bfe5b6000601f19601f8301169050919050565b600d811061580d5761580c6157e9565b5b50565b6158198161564c565b811461582457600080fd5b50565b6158308161565e565b811461583b57600080fd5b50565b6158478161566a565b811461585257600080fd5b50565b61585e81615696565b811461586957600080fd5b50565b600d811061587957600080fd5b50565b615885816156b3565b811461589057600080fd5b50565b61589c816156e1565b81146158a757600080fd5b50565b6158b3816156f0565b81146158be57600080fd5b50565b6158ca8161570a565b81146158d557600080fd5b5056fe456e756d657261626c655365743a20696e646578206f7574206f6620626f756e6473416363657373436f6e74726f6c3a2073656e646572206d75737420626520616e2061646d696e20746f206772616e74416363657373436f6e74726f6c3a2073656e646572206d75737420626520616e2061646d696e20746f207265766f6b65536166654d6174683a206d756c7469706c69636174696f6e206f766572666c6f77416363657373436f6e74726f6c3a2063616e206f6e6c792072656e6f756e636520726f6c657320666f722073656c66a264697066735822122051bd456d71a24618af49a09bd34a705d87b7577cb4a1d659d3976785b4c8e3f264736f6c63430007050033",
  "immutableReferences": {},
  "source": "// SPDX-License-Identifier: MIT\r\npragma solidity 0.7.5;\r\npragma abicoder v2;\r\n\r\nimport '@openzeppelin/contracts/access/AccessControl.sol';\r\nimport \"@openzeppelin/contracts/utils/Context.sol\";\r\nimport '@openzeppelin/contracts/math/SafeMath.sol';\r\nimport './SafeMath8.sol';\r\nimport './SafeMath16.sol';\r\nimport './SafeMath24.sol';\r\nimport './SafeMath32.sol';\r\nimport './IEtherealBase.sol';\r\nimport './IEtherealCharacter.sol';\r\nimport './IEtherealPlanet.sol';\r\nimport './IBEP20.sol';\r\n\r\ncontract EtherealGame is Context, AccessControl, IEtherealBase\r\n{\r\n  using SafeMath for uint256;\r\n  using SafeMath8 for uint8;\r\n  using SafeMath16 for uint16;\r\n  using SafeMath24 for uint24;\r\n  using SafeMath32 for uint32;\r\n\r\n  struct Player {\r\n    bytes32 nickname;\r\n    uint32 wins;\r\n    uint32 loss;\r\n    uint32 tie;\r\n    uint32 gaveup;\r\n  }\r\n\r\n  struct Fight {\r\n    address player1;\r\n    address player2;\r\n    uint256 player1CharacterId;\r\n    uint256 player2CharacterId;\r\n  }\r\n\r\n  struct FightRequest {\r\n    address contender;\r\n    uint256 contenderCharacterId;\r\n    uint256 myCharacterId;\r\n    bool accepted;\r\n    bool rejected;\r\n    bool pending;\r\n    bool win;\r\n    bool loss;\r\n    bool tie;\r\n    uint256 expirationDate;\r\n  }\r\n\r\n\r\n  \r\n  // Player role to improve access control\r\n  bytes32 public constant PLAYER_ROLE = keccak256(\"PLAYER_ROLE\");\r\n\r\n  // Addresses of other contracts\r\n  address public planetContract;\r\n  address public characterContract;\r\n  address public weaponsContract;\r\n  address public kopernikTokenContract;\r\n\r\n  // Contract status\r\n  bool public active;\r\n  // Table of players\r\n  mapping(address => Player) public playerData;\r\n  address[] public players;\r\n  uint256 public numPlayers;\r\n  mapping(bytes32 => bool) public playerNicknameExists;\r\n  mapping(address => bool) public playerIsRegistered;\r\n  \r\n  // Table of fight requests\r\n  mapping(address => FightRequest[]) public fightRequests;\r\n  mapping(address => uint256) public totalFightRequests;\r\n\r\n  // Table for Elements of nature probs\r\n  mapping(ElementOfNature => mapping(ElementOfNature => uint8)) public probabilityOfWinningAgainstElem;\r\n\r\n  // Statistics\r\n  address public topPlayer;\r\n  uint256 public topFighter;\r\n\r\n  // Settings\r\n  uint256 public initialTokens;\r\n\r\n  /*\r\n  * @dev Check if bytes32 is empty\r\n  */\r\n  modifier isNotEmptyBytes32(bytes32 _s)\r\n  {\r\n    require(\r\n      (keccak256(abi.encode(_s)) != keccak256(abi.encode(\"\"))) &&\r\n      (keccak256(abi.encode(_s)) != keccak256(abi.encode(0x00))),\r\n      \"Empty string not allowed\"\r\n    );\r\n    _;\r\n  }\r\n\r\n\r\n\t/*\r\n\t*\t@dev Check if contract is active\r\n\t*/\r\n\tmodifier isContractActive {\r\n\t\trequire( active, \"Contract is inactive\" );\r\n\t\t_;\r\n\t}\r\n\r\n  /*\r\n  * @dev Check if contract is active\r\n  */\r\n  modifier isNotRegistered() {\r\n    require(!playerIsRegistered[_msgSender()], \"Player is already registered\");\r\n    _;\r\n  }\r\n\r\n  /*\r\n  * @dev Check if planet name is available or if is already used\r\n  */\r\n  modifier isPlayerNicknameAvailable(bytes32 _name) {\r\n    require(\r\n      !playerNicknameExists[_name],\r\n      \"Nickname name already exists\"\r\n    );\r\n    _;\r\n  }\r\n\r\n\r\n  /*\r\n  * @dev Log contract status update\r\n  */\r\n  event ContractStatusUpdate(bool newStatus);\r\n  event LibContractAddressUpdate(address newAddress, bytes32 contractName);\r\n  event ProbabilityOfWinningUpdate(ElementOfNature indexed _me, ElementOfNature _enemy, uint8 _prob);\r\n  event NewPlayerRegistered(address indexed player, bytes32 name, uint256 totalPlayers);\r\n  event NewCharacterMinted(address indexed player, bytes32 name);\r\n  event NewFightRequest(address indexed player1, address indexed player2, uint256 id);\r\n  event NewFightRequestAccepted(address indexed player1, address indexed player2);\r\n\r\n  /*\r\n  * @dev Set default admin role to owner\r\n  */\r\n  constructor(\r\n    address _planetAddress,\r\n    address _characterAddress,\r\n    address _weaponAddress,\r\n    address _tokenAddress,\r\n    uint256 _initialTokens\r\n  ) {\r\n    _setupRole(DEFAULT_ADMIN_ROLE, _msgSender());\r\n    _setPlanetContractAddress(_planetAddress);\r\n    _setCharacterContractAddress(_characterAddress);\r\n    _setWeaponContractAddress(_weaponAddress);\r\n    _setKopernikTokenContractAddress(_tokenAddress);\r\n    initialTokens = _initialTokens;\r\n    active = true;\r\n  }\r\n\r\n  /*\r\n  *  @Update planet contract address\r\n  */\r\n  function _setPlanetContractAddress(address _contract)\r\n    private\r\n  {\r\n    planetContract = _contract;\r\n    emit LibContractAddressUpdate(_contract, 'planet');\r\n  }\r\n\r\n  /*\r\n  *  @Update character contract address\r\n  */\r\n  function _setCharacterContractAddress(address _contract)\r\n    private\r\n  {\r\n    characterContract = _contract;\r\n    emit LibContractAddressUpdate(_contract, 'character');\r\n  }\r\n\r\n  /*\r\n  *  @Update weapon contract address\r\n  */\r\n  function _setWeaponContractAddress(address _contract)\r\n    private\r\n  {\r\n    weaponsContract = _contract;\r\n    emit LibContractAddressUpdate(_contract, 'weapon');\r\n  }\r\n\r\n  /*\r\n  *  @Update token contract address\r\n  */\r\n  function _setKopernikTokenContractAddress(address _contract)\r\n    private\r\n  {\r\n    kopernikTokenContract = _contract;\r\n    emit LibContractAddressUpdate(_contract, 'kopernik');\r\n  }\r\n\r\n  /*\r\n  *  @dev Register a new player\r\n  */\r\n  function _registerPlayer(bytes32 _name)\r\n    private\r\n    isNotEmptyBytes32(_name)\r\n    isNotRegistered\r\n    isPlayerNicknameAvailable(_name)\r\n  {\r\n    playerData[_msgSender()] = Player(_name, 0, 0, 0, 0);\r\n    players.push(_msgSender());\r\n    playerNicknameExists[_name] = true;\r\n    playerIsRegistered[_msgSender()] = true;\r\n    numPlayers = players.length;\r\n    _setupRole(PLAYER_ROLE, _msgSender());\r\n    emit NewPlayerRegistered(_msgSender(), _name, numPlayers);\r\n  }\r\n\r\n  /*\r\n  * @dev Send initial tokens\r\n  */\r\n  function _sendInitialTokensToPlayer(address _to)\r\n    private\r\n  {\r\n    IBEP20 KopernikToken = IBEP20(kopernikTokenContract);\r\n    uint256 etherealBalance = KopernikToken.balanceOf(address(this));\r\n    // Check contract balance\r\n    if (etherealBalance < initialTokens) {\r\n      revert(\"Not enough balance on EtherealGame contract!\");\r\n    }\r\n    if (!KopernikToken.transfer(_to, initialTokens)) {\r\n      revert(\"Error transfering tokens\");\r\n    }\r\n  }\r\n\r\n  /*\r\n  * @dev Returns the Sum of skills points on Metadata object\r\n  */\r\n  function _sumSkillsPoints(CharacterAttributesMetadata memory extraAbilitiesMetaData)\r\n    private\r\n    pure\r\n    returns (uint32)\r\n  {\r\n    uint32 res = extraAbilitiesMetaData.life.add(\r\n      extraAbilitiesMetaData.armor.add(\r\n        extraAbilitiesMetaData.strength\r\n      )\r\n    );\r\n    res = res.add(\r\n      extraAbilitiesMetaData.speed.add(\r\n        extraAbilitiesMetaData.luck.add(\r\n          extraAbilitiesMetaData.spirit\r\n        )\r\n      )\r\n    );\r\n\r\n    return res;\r\n  }\r\n\r\n  /*\r\n  * @dev Create a new character\r\n  *\r\n  * - Only 10pts for skills (abilities) can be assigned on creation \r\n  */\r\n  function _createCharacter(\r\n    // BaseMetadata\r\n    CharacterBaseMetadata memory extraBaseMetaData,\r\n    // PhysicalMetadata\r\n    CharacterPhysicalMetadata memory extraPhysicalMetaData,\r\n    // AttributesMetadata\r\n    CharacterAttributesMetadata memory extraAbilitiesMetaData\r\n  )\r\n    private\r\n    returns (uint256)\r\n  {\r\n    require(_sumSkillsPoints(extraAbilitiesMetaData) == 10, \"The sum of skills points must be equal to 10\");\r\n    // The planet must be valid\r\n    require(\r\n      IEtherealPlanet(planetContract).getIsPlanetActive(extraBaseMetaData.planetId), \"Invalid planet id\"\r\n    );\r\n\r\n    extraAbilitiesMetaData.level = 1;\r\n    extraAbilitiesMetaData.extraSkillsPoints = 0;\r\n\r\n    IEtherealCharacter CharacterContract = IEtherealCharacter(characterContract);\r\n    uint256 characterId = CharacterContract.mint(\r\n      _msgSender(),\r\n      extraBaseMetaData,\r\n      extraPhysicalMetaData,\r\n      extraAbilitiesMetaData\r\n    );\r\n    // Increment planet population counter\r\n    IEtherealPlanet(planetContract).increasePopulation(extraBaseMetaData.planetId);\r\n\r\n    emit NewCharacterMinted(_msgSender(), extraBaseMetaData.name);\r\n    return characterId;\r\n  }\r\n\r\n  \r\n\r\n  /*\r\n  * @dev Assign/update probability of my _element defeating _enemy\r\n  */\r\n  function _assignProbabilityOfWinning(\r\n    ElementOfNature _me,\r\n    ElementOfNature _enemy,\r\n    uint8 _probWin\r\n  )\r\n    private\r\n  {\r\n    require (_probWin <= 100, \"Probability must be between 0 and 100\");\r\n    uint8 probLoss = 100 - _probWin;\r\n    probabilityOfWinningAgainstElem[_me][_enemy] = _probWin;\r\n    emit ProbabilityOfWinningUpdate(_me, _enemy, _probWin);\r\n    probabilityOfWinningAgainstElem[_enemy][_me] = probLoss;\r\n    emit ProbabilityOfWinningUpdate(_enemy, _me, probLoss);\r\n  }\r\n\r\n  /*\r\n  * @dev Request fight\r\n  */\r\n  function _requestFight(address _contender, uint256 _characterId)\r\n    private\r\n    returns(uint256)\r\n  {\r\n    require(\r\n      IBEP20(kopernikTokenContract).allowance(\r\n        _msgSender(), address(this)\r\n      ) >= 1, \"Not enough tokens allowed to use\"\r\n    );\r\n    require(\r\n      IEtherealCharacter(characterContract).ownerOf(_characterId) == _msgSender(),\r\n      \"Sender is not the owner of the character\"\r\n    );\r\n\r\n    // Initialize as true only the \"pending\" flag\r\n    fightRequests[_contender].push(FightRequest(\r\n        _msgSender(), _characterId, 0, false, false, true, false, false, false,\r\n        block.timestamp + 15 minutes\r\n      ));\r\n    totalFightRequests[_contender] = fightRequests[_contender].length;\r\n    NewFightRequest(_msgSender(), _contender, totalFightRequests[_contender]);\r\n    return totalFightRequests[_contender];\r\n  }\r\n\r\n  /*\r\n  * @dev Accept fight\r\n  * Returns contender Character Id\r\n  */\r\n  function _acceptFight(uint256 _fightRequestId, uint256 _myCharacterId)\r\n    private\r\n    returns (uint256)\r\n  {\r\n    require(\r\n      _fightRequestId < totalFightRequests[_msgSender()],\r\n      \"Fight index beyond array elements\"\r\n    );\r\n    require(\r\n      fightRequests[_msgSender()][_fightRequestId].expirationDate < block.timestamp,\r\n      \"Invitation has expired!\"\r\n    );\r\n    require(\r\n      fightRequests[_msgSender()][_fightRequestId].pending,\r\n      \"Invitation was already acceted/rejected\"\r\n    );\r\n    require(\r\n      IBEP20(kopernikTokenContract).allowance(\r\n        _msgSender(), address(this)\r\n      ) >= 1, \"Not enough tokens allowed to use\"\r\n    );\r\n    require(\r\n      IBEP20(kopernikTokenContract).allowance(\r\n        fightRequests[_msgSender()][_fightRequestId].contender, address(this)\r\n      ) >= 100, \"Not enough tokens allowed to use\"\r\n    );\r\n    require(\r\n      IEtherealCharacter(characterContract).ownerOf(_myCharacterId) == _msgSender(),\r\n      \"Sender is not the owner of the character\"\r\n    );\r\n\r\n    // Update status of Fight Request log\r\n    fightRequests[_msgSender()][_fightRequestId].accepted = true;\r\n    fightRequests[_msgSender()][_fightRequestId].pending = false;\r\n    fightRequests[_msgSender()][_fightRequestId].myCharacterId = _myCharacterId;\r\n    NewFightRequestAccepted(\r\n      _msgSender(), \r\n      fightRequests[_msgSender()][_fightRequestId].contender\r\n    );\r\n\r\n    return fightRequests[_msgSender()][_fightRequestId].contenderCharacterId;\r\n\r\n  }\r\n\r\n  /*\r\n  * @dev Probabilities of _ch1 winning against _ch2\r\n  */\r\n  function _probOfCh1DefeatingCh2(\r\n    CharacterAttributesMetadata memory _ch1,\r\n    CharacterAttributesMetadata memory _ch2\r\n  )\r\n    private\r\n    pure\r\n    returns(uint16)\r\n  {\r\n    uint16 probLife = (uint16(_ch1.life).mul(100)).div(uint16(_ch1.life).add(uint16(_ch2.life)));\r\n    uint16 probArmor = (uint16(_ch1.armor).mul(100)).div(uint16(_ch1.armor).add(uint16(_ch2.armor)));\r\n    uint16 probStrength = (uint16(_ch1.strength).mul(100)).div(uint16(_ch1.strength).add(uint16(_ch2.strength)));\r\n    uint16 probSpeed = (uint16(_ch1.speed).mul(100)).div(uint16(_ch1.speed).add(uint16(_ch2.speed)));\r\n    uint16 probLuck = (uint16(_ch1.luck).mul(100)).div(uint16(_ch1.luck).add(uint16(_ch2.luck)));\r\n    uint16 probSpirit = (uint16(_ch1.spirit).mul(100)).div(uint16(_ch1.spirit).add(uint16(_ch2.spirit)));\r\n    uint16 probLevel = (uint16(_ch1.level).mul(100)).div(uint16(_ch1.level).add(uint16(_ch2.level)));\r\n    // Sum all probabilities\r\n    uint16 probFinal = (\r\n      probLife.add(probArmor).add(probStrength)\r\n    ).div(3);\r\n    probFinal = (probFinal.add(probSpeed).add(probLuck)).div(3);\r\n    probFinal = (probFinal.add(probSpirit).add(probLevel)).div(3);\r\n\r\n    return probFinal;\r\n  }\r\n\r\n  /*\r\n  * @dev FIGHT!\r\n  *   returns winner\r\n  */\r\n  function _fight(\r\n    CharacterAttributesMetadata memory _ch1,\r\n    CharacterAttributesMetadata memory _ch2,\r\n    uint256 _myCharacterId,\r\n    uint256 _contenderId\r\n  )\r\n    private\r\n    view\r\n    returns(uint256, uint16)\r\n  {\r\n    // Get elements probs from table\r\n    uint16 probPrimaryElem1 = probabilityOfWinningAgainstElem[_ch1.primaryElement][_ch2.primaryElement];\r\n    uint16 probPrimaryElem2 = probabilityOfWinningAgainstElem[_ch1.primaryElement][_ch2.secondaryElement];\r\n    uint16 probSecondaryElem1 = probabilityOfWinningAgainstElem[_ch1.secondaryElement][_ch2.primaryElement];\r\n    uint16 probSecondaryElem2 = probabilityOfWinningAgainstElem[_ch1.secondaryElement][_ch2.secondaryElement];\r\n  \r\n    // Sum abilities probabilitites\r\n    uint16 probFinal = _probOfCh1DefeatingCh2(_ch1, _ch2);\r\n    \r\n    // Add probabilities from Elements of Nature\r\n    probFinal = (\r\n      probFinal.add(probPrimaryElem1).add(probPrimaryElem2)\r\n    ).div(3);\r\n    probFinal = (\r\n      probFinal.add(probSecondaryElem1).add(probSecondaryElem2)\r\n    ).div(3);\r\n\r\n    // Possible results\r\n    /*\r\n    * NOTE: Probably a PRNG would be more fun, but we need an Oracle!\r\n    */\r\n    if (probFinal >= 60) {\r\n      return (_myCharacterId, probFinal);\r\n    } else if (probFinal < 50) {\r\n      return (_contenderId, probFinal);\r\n    }\r\n\r\n    // Default (draw)\r\n    return (0, probFinal);\r\n  }\r\n\r\n\r\n  /*\r\n  * @dev Create a new player and send initial tokens\r\n  */\r\n  function registerPlayer(bytes32 _name)\r\n    public\r\n    isContractActive\r\n  {\r\n    _registerPlayer(_name);\r\n    _sendInitialTokensToPlayer(_msgSender());\r\n  }\r\n\r\n  /*\r\n  * @dev Create a new character\r\n  */\r\n  function createCharacter(\r\n    // BaseMetadata\r\n    CharacterBaseMetadata memory extraBaseMetaData,\r\n    // PhysicalMetadata\r\n    CharacterPhysicalMetadata memory extraPhysicalMetaData,\r\n    // AttributesMetadata\r\n    CharacterAttributesMetadata memory extraAbilitiesMetaData\r\n  )\r\n    public\r\n    isContractActive\r\n    returns(uint256)\r\n  {\r\n    require(hasRole(PLAYER_ROLE, _msgSender()), \"createCharacter: must have player role\");\r\n\r\n    uint256 characterId = _createCharacter(\r\n      extraBaseMetaData,\r\n      extraPhysicalMetaData,\r\n      extraAbilitiesMetaData\r\n    );\r\n    return characterId;\r\n  }\r\n\r\n  /*\r\n  * @dev Request a fight\r\n  */\r\n  function requestFight(\r\n    address _contender,\r\n    uint256 _characterId\r\n  )\r\n    public\r\n    isContractActive\r\n    returns(uint256)\r\n  {\r\n    require(hasRole(PLAYER_ROLE, _msgSender()), \"requestFight: must have player role\");\r\n    uint256 fightId = _requestFight(_contender, _characterId);\r\n    return fightId;\r\n  }\r\n\r\n  /*\r\n  * @dev Accept request and FIGHT!\r\n  * returns Winner\r\n  */\r\n  function acceptFight(\r\n    uint256 _fightRequestId, uint256 _myCharacterId\r\n  )\r\n    public\r\n    isContractActive\r\n    returns (uint256, uint8)\r\n  {\r\n    require(hasRole(PLAYER_ROLE, _msgSender()), \"acceptFight: must have player role\");\r\n    // ACCEPT FIGHT\r\n    uint256 _contenderCharacterId = _acceptFight(_fightRequestId, _myCharacterId);\r\n\r\n    // FIGHT\r\n    uint256 winner;\r\n    uint16 prob;\r\n    uint8 newLevel;\r\n    CharacterAttributesMetadata memory _ch1 = IEtherealCharacter(characterContract).characterAttributesMetadata(_myCharacterId);\r\n    CharacterAttributesMetadata memory _ch2 = IEtherealCharacter(characterContract).characterAttributesMetadata(_contenderCharacterId);\r\n    (winner, prob) = _fight(_ch1, _ch2, _myCharacterId, _contenderCharacterId);\r\n\r\n\r\n    // IF PLAYER 1 WINS (IF I WIN)\r\n    if (winner == _myCharacterId) {\r\n      // Upgrade Fight request status and winner\r\n      newLevel = IEtherealCharacter(characterContract).upgradeCharacter(_myCharacterId, 6);\r\n      fightRequests[_msgSender()][_fightRequestId].win = true;\r\n\r\n      // Send 1 KopernikToken to winner from loser\r\n      IBEP20(kopernikTokenContract).transferFrom(\r\n        //Sender\r\n        fightRequests[_msgSender()][_fightRequestId].contender,\r\n        // Recipient\r\n        _msgSender(),\r\n        // Amount\r\n        100  \r\n      );\r\n\r\n    } // TIE\r\n    else if(winner == 0) {\r\n      // Upgrade Fight request status\r\n      fightRequests[_msgSender()][_fightRequestId].tie = true;\r\n\r\n    } // ELSE PLAYER 2 WINS\r\n    else {\r\n      // Upgrade Fight request status and winner\r\n      newLevel = IEtherealCharacter(characterContract).upgradeCharacter(_contenderCharacterId, 4);\r\n      fightRequests[_msgSender()][_fightRequestId].loss = true;\r\n\r\n      // Send 1 KopernikToken to winner from loser\r\n      // Send 1 KopernikToken to winner from loser\r\n      IBEP20(kopernikTokenContract).transferFrom(\r\n        //Sender\r\n        _msgSender(),\r\n        // Recipient\r\n        fightRequests[_msgSender()][_fightRequestId].contender,\r\n        // Amount\r\n        100  \r\n      );\r\n    }\r\n\r\n    return (winner, newLevel);\r\n\r\n  }\r\n\r\n  /*\r\n  * @dev Assign/update probability of my _element defeating _enemy\r\n  */\r\n  function assignProbabilityOfWinning(\r\n    ElementOfNature _me,\r\n    ElementOfNature _enemy,\r\n    uint8 _probWin\r\n  )\r\n    external\r\n  {\r\n    require(hasRole(DEFAULT_ADMIN_ROLE, _msgSender()), \"assignProbabilityOfWinning: must have admin role\");\r\n    _assignProbabilityOfWinning(_me, _enemy, _probWin);\r\n  }\r\n\r\n  /*\r\n  * @dev Update contract status\r\n  */\r\n  function activateDeactivateContract(bool _active)\r\n    external\r\n  {\r\n    require(hasRole(DEFAULT_ADMIN_ROLE, _msgSender()), \"activateDeactivateContract: must have admin role\");\r\n\r\n    active = _active;\r\n    emit ContractStatusUpdate(_active);\r\n  }\r\n\r\n\r\n\r\n}",
  "sourcePath": "C:/xampp/htdocs/ethereal-bnb/truffle-files/contracts/EtherealGame.sol",
  "compiler": {
    "name": "solc",
    "version": "0.7.5+commit.eb77ed08.Emscripten.clang"
  },
  "schemaVersion": "3.3.3",
  "updatedAt": "2021-02-18T01:21:21.584Z",
  "networkType": "ethereum",
  "devdoc": {
    "kind": "dev",
    "methods": {
      "getRoleAdmin(bytes32)": {
        "details": "Returns the admin role that controls `role`. See {grantRole} and {revokeRole}. To change a role's admin, use {_setRoleAdmin}."
      },
      "getRoleMember(bytes32,uint256)": {
        "details": "Returns one of the accounts that have `role`. `index` must be a value between 0 and {getRoleMemberCount}, non-inclusive. Role bearers are not sorted in any particular way, and their ordering may change at any point. WARNING: When using {getRoleMember} and {getRoleMemberCount}, make sure you perform all queries on the same block. See the following https://forum.openzeppelin.com/t/iterating-over-elements-on-enumerableset-in-openzeppelin-contracts/2296[forum post] for more information."
      },
      "getRoleMemberCount(bytes32)": {
        "details": "Returns the number of accounts that have `role`. Can be used together with {getRoleMember} to enumerate all bearers of a role."
      },
      "grantRole(bytes32,address)": {
        "details": "Grants `role` to `account`. If `account` had not been already granted `role`, emits a {RoleGranted} event. Requirements: - the caller must have ``role``'s admin role."
      },
      "hasRole(bytes32,address)": {
        "details": "Returns `true` if `account` has been granted `role`."
      },
      "renounceRole(bytes32,address)": {
        "details": "Revokes `role` from the calling account. Roles are often managed via {grantRole} and {revokeRole}: this function's purpose is to provide a mechanism for accounts to lose their privileges if they are compromised (such as when a trusted device is misplaced). If the calling account had been granted `role`, emits a {RoleRevoked} event. Requirements: - the caller must be `account`."
      },
      "revokeRole(bytes32,address)": {
        "details": "Revokes `role` from `account`. If `account` had been granted `role`, emits a {RoleRevoked} event. Requirements: - the caller must have ``role``'s admin role."
      }
    },
    "version": 1
  },
  "userdoc": {
    "kind": "user",
    "methods": {},
    "version": 1
  }
}