{
  "contractName": "EtherealCharacter",
  "abi": [
    {
      "inputs": [
        {
          "internalType": "string",
          "name": "name",
          "type": "string"
        },
        {
          "internalType": "string",
          "name": "symbol",
          "type": "string"
        },
        {
          "internalType": "string",
          "name": "baseURI",
          "type": "string"
        }
      ],
      "stateMutability": "nonpayable",
      "type": "constructor"
    },
    {
      "anonymous": false,
      "inputs": [
        {
          "indexed": true,
          "internalType": "address",
          "name": "owner",
          "type": "address"
        },
        {
          "indexed": true,
          "internalType": "address",
          "name": "approved",
          "type": "address"
        },
        {
          "indexed": true,
          "internalType": "uint256",
          "name": "tokenId",
          "type": "uint256"
        }
      ],
      "name": "Approval",
      "type": "event"
    },
    {
      "anonymous": false,
      "inputs": [
        {
          "indexed": true,
          "internalType": "address",
          "name": "owner",
          "type": "address"
        },
        {
          "indexed": true,
          "internalType": "address",
          "name": "operator",
          "type": "address"
        },
        {
          "indexed": false,
          "internalType": "bool",
          "name": "approved",
          "type": "bool"
        }
      ],
      "name": "ApprovalForAll",
      "type": "event"
    },
    {
      "anonymous": false,
      "inputs": [
        {
          "indexed": true,
          "internalType": "uint256",
          "name": "_tokendId",
          "type": "uint256"
        },
        {
          "indexed": false,
          "internalType": "uint8",
          "name": "_level",
          "type": "uint8"
        }
      ],
      "name": "CharacterLevelUpgrade",
      "type": "event"
    },
    {
      "anonymous": false,
      "inputs": [
        {
          "indexed": true,
          "internalType": "uint256",
          "name": "_tokendId",
          "type": "uint256"
        },
        {
          "indexed": false,
          "internalType": "uint8",
          "name": "_skillsPoints",
          "type": "uint8"
        }
      ],
      "name": "CharacterSkillsUpgrade",
      "type": "event"
    },
    {
      "anonymous": false,
      "inputs": [
        {
          "indexed": false,
          "internalType": "string",
          "name": "_baseURI",
          "type": "string"
        }
      ],
      "name": "NewBaseURI",
      "type": "event"
    },
    {
      "anonymous": false,
      "inputs": [
        {
          "indexed": false,
          "internalType": "address",
          "name": "account",
          "type": "address"
        }
      ],
      "name": "Paused",
      "type": "event"
    },
    {
      "anonymous": false,
      "inputs": [
        {
          "indexed": true,
          "internalType": "bytes32",
          "name": "role",
          "type": "bytes32"
        },
        {
          "indexed": true,
          "internalType": "bytes32",
          "name": "previousAdminRole",
          "type": "bytes32"
        },
        {
          "indexed": true,
          "internalType": "bytes32",
          "name": "newAdminRole",
          "type": "bytes32"
        }
      ],
      "name": "RoleAdminChanged",
      "type": "event"
    },
    {
      "anonymous": false,
      "inputs": [
        {
          "indexed": true,
          "internalType": "bytes32",
          "name": "role",
          "type": "bytes32"
        },
        {
          "indexed": true,
          "internalType": "address",
          "name": "account",
          "type": "address"
        },
        {
          "indexed": true,
          "internalType": "address",
          "name": "sender",
          "type": "address"
        }
      ],
      "name": "RoleGranted",
      "type": "event"
    },
    {
      "anonymous": false,
      "inputs": [
        {
          "indexed": true,
          "internalType": "bytes32",
          "name": "role",
          "type": "bytes32"
        },
        {
          "indexed": true,
          "internalType": "address",
          "name": "account",
          "type": "address"
        },
        {
          "indexed": true,
          "internalType": "address",
          "name": "sender",
          "type": "address"
        }
      ],
      "name": "RoleRevoked",
      "type": "event"
    },
    {
      "anonymous": false,
      "inputs": [
        {
          "indexed": true,
          "internalType": "address",
          "name": "from",
          "type": "address"
        },
        {
          "indexed": true,
          "internalType": "address",
          "name": "to",
          "type": "address"
        },
        {
          "indexed": true,
          "internalType": "uint256",
          "name": "tokenId",
          "type": "uint256"
        }
      ],
      "name": "Transfer",
      "type": "event"
    },
    {
      "anonymous": false,
      "inputs": [
        {
          "indexed": false,
          "internalType": "address",
          "name": "account",
          "type": "address"
        }
      ],
      "name": "Unpaused",
      "type": "event"
    },
    {
      "inputs": [],
      "name": "DEFAULT_ADMIN_ROLE",
      "outputs": [
        {
          "internalType": "bytes32",
          "name": "",
          "type": "bytes32"
        }
      ],
      "stateMutability": "view",
      "type": "function",
      "constant": true
    },
    {
      "inputs": [],
      "name": "MINTER_ROLE",
      "outputs": [
        {
          "internalType": "bytes32",
          "name": "",
          "type": "bytes32"
        }
      ],
      "stateMutability": "view",
      "type": "function",
      "constant": true
    },
    {
      "inputs": [],
      "name": "PAUSER_ROLE",
      "outputs": [
        {
          "internalType": "bytes32",
          "name": "",
          "type": "bytes32"
        }
      ],
      "stateMutability": "view",
      "type": "function",
      "constant": true
    },
    {
      "inputs": [
        {
          "internalType": "address",
          "name": "to",
          "type": "address"
        },
        {
          "internalType": "uint256",
          "name": "tokenId",
          "type": "uint256"
        }
      ],
      "name": "approve",
      "outputs": [],
      "stateMutability": "nonpayable",
      "type": "function"
    },
    {
      "inputs": [
        {
          "internalType": "address",
          "name": "owner",
          "type": "address"
        }
      ],
      "name": "balanceOf",
      "outputs": [
        {
          "internalType": "uint256",
          "name": "",
          "type": "uint256"
        }
      ],
      "stateMutability": "view",
      "type": "function",
      "constant": true
    },
    {
      "inputs": [],
      "name": "baseURI",
      "outputs": [
        {
          "internalType": "string",
          "name": "",
          "type": "string"
        }
      ],
      "stateMutability": "view",
      "type": "function",
      "constant": true
    },
    {
      "inputs": [
        {
          "internalType": "uint256",
          "name": "",
          "type": "uint256"
        }
      ],
      "name": "characterAttributesMetadata",
      "outputs": [
        {
          "internalType": "enum IEtherealBase.ElementOfNature",
          "name": "primaryElement",
          "type": "uint8"
        },
        {
          "internalType": "enum IEtherealBase.ElementOfNature",
          "name": "secondaryElement",
          "type": "uint8"
        },
        {
          "internalType": "uint8",
          "name": "life",
          "type": "uint8"
        },
        {
          "internalType": "uint8",
          "name": "armor",
          "type": "uint8"
        },
        {
          "internalType": "uint8",
          "name": "strength",
          "type": "uint8"
        },
        {
          "internalType": "uint8",
          "name": "speed",
          "type": "uint8"
        },
        {
          "internalType": "uint8",
          "name": "luck",
          "type": "uint8"
        },
        {
          "internalType": "uint8",
          "name": "spirit",
          "type": "uint8"
        },
        {
          "internalType": "uint8",
          "name": "level",
          "type": "uint8"
        },
        {
          "internalType": "uint8",
          "name": "extraSkillsPoints",
          "type": "uint8"
        }
      ],
      "stateMutability": "view",
      "type": "function",
      "constant": true
    },
    {
      "inputs": [
        {
          "internalType": "uint256",
          "name": "",
          "type": "uint256"
        }
      ],
      "name": "characterBaseMetadata",
      "outputs": [
        {
          "internalType": "bytes32",
          "name": "name",
          "type": "bytes32"
        },
        {
          "internalType": "bytes24",
          "name": "birthdate",
          "type": "bytes24"
        },
        {
          "internalType": "string",
          "name": "description",
          "type": "string"
        },
        {
          "internalType": "uint256",
          "name": "planetId",
          "type": "uint256"
        },
        {
          "internalType": "uint8",
          "name": "genre",
          "type": "uint8"
        }
      ],
      "stateMutability": "view",
      "type": "function",
      "constant": true
    },
    {
      "inputs": [
        {
          "internalType": "bytes32",
          "name": "",
          "type": "bytes32"
        }
      ],
      "name": "characterNameExists",
      "outputs": [
        {
          "internalType": "bool",
          "name": "",
          "type": "bool"
        }
      ],
      "stateMutability": "view",
      "type": "function",
      "constant": true
    },
    {
      "inputs": [
        {
          "internalType": "uint256",
          "name": "",
          "type": "uint256"
        }
      ],
      "name": "characterPhysicalMetadata",
      "outputs": [
        {
          "internalType": "uint24",
          "name": "skintone",
          "type": "uint24"
        },
        {
          "internalType": "uint24",
          "name": "haircolor",
          "type": "uint24"
        },
        {
          "internalType": "uint24",
          "name": "eyescolor",
          "type": "uint24"
        },
        {
          "internalType": "uint16",
          "name": "weight",
          "type": "uint16"
        },
        {
          "internalType": "uint16",
          "name": "height",
          "type": "uint16"
        },
        {
          "internalType": "uint8",
          "name": "bodyType",
          "type": "uint8"
        }
      ],
      "stateMutability": "view",
      "type": "function",
      "constant": true
    },
    {
      "inputs": [
        {
          "internalType": "uint256",
          "name": "tokenId",
          "type": "uint256"
        }
      ],
      "name": "getApproved",
      "outputs": [
        {
          "internalType": "address",
          "name": "",
          "type": "address"
        }
      ],
      "stateMutability": "view",
      "type": "function",
      "constant": true
    },
    {
      "inputs": [
        {
          "internalType": "bytes32",
          "name": "role",
          "type": "bytes32"
        }
      ],
      "name": "getRoleAdmin",
      "outputs": [
        {
          "internalType": "bytes32",
          "name": "",
          "type": "bytes32"
        }
      ],
      "stateMutability": "view",
      "type": "function",
      "constant": true
    },
    {
      "inputs": [
        {
          "internalType": "bytes32",
          "name": "role",
          "type": "bytes32"
        },
        {
          "internalType": "uint256",
          "name": "index",
          "type": "uint256"
        }
      ],
      "name": "getRoleMember",
      "outputs": [
        {
          "internalType": "address",
          "name": "",
          "type": "address"
        }
      ],
      "stateMutability": "view",
      "type": "function",
      "constant": true
    },
    {
      "inputs": [
        {
          "internalType": "bytes32",
          "name": "role",
          "type": "bytes32"
        }
      ],
      "name": "getRoleMemberCount",
      "outputs": [
        {
          "internalType": "uint256",
          "name": "",
          "type": "uint256"
        }
      ],
      "stateMutability": "view",
      "type": "function",
      "constant": true
    },
    {
      "inputs": [
        {
          "internalType": "bytes32",
          "name": "role",
          "type": "bytes32"
        },
        {
          "internalType": "address",
          "name": "account",
          "type": "address"
        }
      ],
      "name": "grantRole",
      "outputs": [],
      "stateMutability": "nonpayable",
      "type": "function"
    },
    {
      "inputs": [
        {
          "internalType": "bytes32",
          "name": "role",
          "type": "bytes32"
        },
        {
          "internalType": "address",
          "name": "account",
          "type": "address"
        }
      ],
      "name": "hasRole",
      "outputs": [
        {
          "internalType": "bool",
          "name": "",
          "type": "bool"
        }
      ],
      "stateMutability": "view",
      "type": "function",
      "constant": true
    },
    {
      "inputs": [
        {
          "internalType": "address",
          "name": "owner",
          "type": "address"
        },
        {
          "internalType": "address",
          "name": "operator",
          "type": "address"
        }
      ],
      "name": "isApprovedForAll",
      "outputs": [
        {
          "internalType": "bool",
          "name": "",
          "type": "bool"
        }
      ],
      "stateMutability": "view",
      "type": "function",
      "constant": true
    },
    {
      "inputs": [],
      "name": "name",
      "outputs": [
        {
          "internalType": "string",
          "name": "",
          "type": "string"
        }
      ],
      "stateMutability": "view",
      "type": "function",
      "constant": true
    },
    {
      "inputs": [
        {
          "internalType": "uint256",
          "name": "tokenId",
          "type": "uint256"
        }
      ],
      "name": "ownerOf",
      "outputs": [
        {
          "internalType": "address",
          "name": "",
          "type": "address"
        }
      ],
      "stateMutability": "view",
      "type": "function",
      "constant": true
    },
    {
      "inputs": [],
      "name": "paused",
      "outputs": [
        {
          "internalType": "bool",
          "name": "",
          "type": "bool"
        }
      ],
      "stateMutability": "view",
      "type": "function",
      "constant": true
    },
    {
      "inputs": [
        {
          "internalType": "bytes32",
          "name": "role",
          "type": "bytes32"
        },
        {
          "internalType": "address",
          "name": "account",
          "type": "address"
        }
      ],
      "name": "renounceRole",
      "outputs": [],
      "stateMutability": "nonpayable",
      "type": "function"
    },
    {
      "inputs": [
        {
          "internalType": "bytes32",
          "name": "role",
          "type": "bytes32"
        },
        {
          "internalType": "address",
          "name": "account",
          "type": "address"
        }
      ],
      "name": "revokeRole",
      "outputs": [],
      "stateMutability": "nonpayable",
      "type": "function"
    },
    {
      "inputs": [
        {
          "internalType": "address",
          "name": "from",
          "type": "address"
        },
        {
          "internalType": "address",
          "name": "to",
          "type": "address"
        },
        {
          "internalType": "uint256",
          "name": "tokenId",
          "type": "uint256"
        }
      ],
      "name": "safeTransferFrom",
      "outputs": [],
      "stateMutability": "nonpayable",
      "type": "function"
    },
    {
      "inputs": [
        {
          "internalType": "address",
          "name": "from",
          "type": "address"
        },
        {
          "internalType": "address",
          "name": "to",
          "type": "address"
        },
        {
          "internalType": "uint256",
          "name": "tokenId",
          "type": "uint256"
        },
        {
          "internalType": "bytes",
          "name": "_data",
          "type": "bytes"
        }
      ],
      "name": "safeTransferFrom",
      "outputs": [],
      "stateMutability": "nonpayable",
      "type": "function"
    },
    {
      "inputs": [
        {
          "internalType": "address",
          "name": "operator",
          "type": "address"
        },
        {
          "internalType": "bool",
          "name": "approved",
          "type": "bool"
        }
      ],
      "name": "setApprovalForAll",
      "outputs": [],
      "stateMutability": "nonpayable",
      "type": "function"
    },
    {
      "inputs": [
        {
          "internalType": "bytes4",
          "name": "interfaceId",
          "type": "bytes4"
        }
      ],
      "name": "supportsInterface",
      "outputs": [
        {
          "internalType": "bool",
          "name": "",
          "type": "bool"
        }
      ],
      "stateMutability": "view",
      "type": "function",
      "constant": true
    },
    {
      "inputs": [],
      "name": "symbol",
      "outputs": [
        {
          "internalType": "string",
          "name": "",
          "type": "string"
        }
      ],
      "stateMutability": "view",
      "type": "function",
      "constant": true
    },
    {
      "inputs": [
        {
          "internalType": "uint256",
          "name": "index",
          "type": "uint256"
        }
      ],
      "name": "tokenByIndex",
      "outputs": [
        {
          "internalType": "uint256",
          "name": "",
          "type": "uint256"
        }
      ],
      "stateMutability": "view",
      "type": "function",
      "constant": true
    },
    {
      "inputs": [
        {
          "internalType": "address",
          "name": "owner",
          "type": "address"
        },
        {
          "internalType": "uint256",
          "name": "index",
          "type": "uint256"
        }
      ],
      "name": "tokenOfOwnerByIndex",
      "outputs": [
        {
          "internalType": "uint256",
          "name": "",
          "type": "uint256"
        }
      ],
      "stateMutability": "view",
      "type": "function",
      "constant": true
    },
    {
      "inputs": [
        {
          "internalType": "uint256",
          "name": "tokenId",
          "type": "uint256"
        }
      ],
      "name": "tokenURI",
      "outputs": [
        {
          "internalType": "string",
          "name": "",
          "type": "string"
        }
      ],
      "stateMutability": "view",
      "type": "function",
      "constant": true
    },
    {
      "inputs": [],
      "name": "totalSupply",
      "outputs": [
        {
          "internalType": "uint256",
          "name": "",
          "type": "uint256"
        }
      ],
      "stateMutability": "view",
      "type": "function",
      "constant": true
    },
    {
      "inputs": [
        {
          "internalType": "address",
          "name": "from",
          "type": "address"
        },
        {
          "internalType": "address",
          "name": "to",
          "type": "address"
        },
        {
          "internalType": "uint256",
          "name": "tokenId",
          "type": "uint256"
        }
      ],
      "name": "transferFrom",
      "outputs": [],
      "stateMutability": "nonpayable",
      "type": "function"
    },
    {
      "inputs": [
        {
          "internalType": "string",
          "name": "_baseURI",
          "type": "string"
        }
      ],
      "name": "setBaseURI",
      "outputs": [],
      "stateMutability": "nonpayable",
      "type": "function"
    },
    {
      "inputs": [
        {
          "internalType": "address",
          "name": "to",
          "type": "address"
        },
        {
          "components": [
            {
              "internalType": "bytes32",
              "name": "name",
              "type": "bytes32"
            },
            {
              "internalType": "bytes24",
              "name": "birthdate",
              "type": "bytes24"
            },
            {
              "internalType": "string",
              "name": "description",
              "type": "string"
            },
            {
              "internalType": "uint256",
              "name": "planetId",
              "type": "uint256"
            },
            {
              "internalType": "uint8",
              "name": "genre",
              "type": "uint8"
            }
          ],
          "internalType": "struct IEtherealBase.CharacterBaseMetadata",
          "name": "extraBaseMetaData",
          "type": "tuple"
        },
        {
          "components": [
            {
              "internalType": "uint24",
              "name": "skintone",
              "type": "uint24"
            },
            {
              "internalType": "uint24",
              "name": "haircolor",
              "type": "uint24"
            },
            {
              "internalType": "uint24",
              "name": "eyescolor",
              "type": "uint24"
            },
            {
              "internalType": "uint16",
              "name": "weight",
              "type": "uint16"
            },
            {
              "internalType": "uint16",
              "name": "height",
              "type": "uint16"
            },
            {
              "internalType": "uint8",
              "name": "bodyType",
              "type": "uint8"
            }
          ],
          "internalType": "struct IEtherealBase.CharacterPhysicalMetadata",
          "name": "extraPhysicalMetaData",
          "type": "tuple"
        },
        {
          "components": [
            {
              "internalType": "enum IEtherealBase.ElementOfNature",
              "name": "primaryElement",
              "type": "uint8"
            },
            {
              "internalType": "enum IEtherealBase.ElementOfNature",
              "name": "secondaryElement",
              "type": "uint8"
            },
            {
              "internalType": "uint8",
              "name": "life",
              "type": "uint8"
            },
            {
              "internalType": "uint8",
              "name": "armor",
              "type": "uint8"
            },
            {
              "internalType": "uint8",
              "name": "strength",
              "type": "uint8"
            },
            {
              "internalType": "uint8",
              "name": "speed",
              "type": "uint8"
            },
            {
              "internalType": "uint8",
              "name": "luck",
              "type": "uint8"
            },
            {
              "internalType": "uint8",
              "name": "spirit",
              "type": "uint8"
            },
            {
              "internalType": "uint8",
              "name": "level",
              "type": "uint8"
            },
            {
              "internalType": "uint8",
              "name": "extraSkillsPoints",
              "type": "uint8"
            }
          ],
          "internalType": "struct IEtherealBase.CharacterAttributesMetadata",
          "name": "extraAbilitiesMetaData",
          "type": "tuple"
        }
      ],
      "name": "mint",
      "outputs": [
        {
          "internalType": "uint256",
          "name": "",
          "type": "uint256"
        }
      ],
      "stateMutability": "nonpayable",
      "type": "function"
    },
    {
      "inputs": [
        {
          "internalType": "uint256",
          "name": "tokenId",
          "type": "uint256"
        }
      ],
      "name": "burn",
      "outputs": [],
      "stateMutability": "nonpayable",
      "type": "function"
    },
    {
      "inputs": [],
      "name": "pause",
      "outputs": [],
      "stateMutability": "nonpayable",
      "type": "function"
    },
    {
      "inputs": [],
      "name": "unpause",
      "outputs": [],
      "stateMutability": "nonpayable",
      "type": "function"
    },
    {
      "inputs": [
        {
          "internalType": "uint256",
          "name": "_tokenId",
          "type": "uint256"
        },
        {
          "internalType": "uint8",
          "name": "_skillsPointsEarned",
          "type": "uint8"
        }
      ],
      "name": "upgradeCharacter",
      "outputs": [
        {
          "internalType": "uint8",
          "name": "",
          "type": "uint8"
        }
      ],
      "stateMutability": "nonpayable",
      "type": "function"
    }
  ],
  "bytecode": "0x60806040523480156200001157600080fd5b5060405162005e8838038062005e88833981810160405281019062000037919062000575565b8282620000516301ffc9a760e01b620001a860201b60201c565b81600790805190602001906200006992919062000463565b5080600890805190602001906200008292919062000463565b506200009b6380ac58cd60e01b620001a860201b60201c565b620000b3635b5e139f60e01b620001a860201b60201c565b620000cb63780e9d6360e01b620001a860201b60201c565b50506000600b60006101000a81548160ff0219169083151502179055506200010c6000801b62000100620002b160201b60201c565b620002b960201b60201c565b6200014d7f9f2df0fed2c77648de5860a4cc508cd0818c85b8b8a1ab4ceeef8d981c8956a662000141620002b160201b60201c565b620002b960201b60201c565b6200018e7f65d7a28e3265b37a6474929f336521b332c1681b933f6cb9f3376673440d862a62000182620002b160201b60201c565b620002b960201b60201c565b6200019f81620002cf60201b60201c565b505050620006b5565b63ffffffff60e01b817bffffffffffffffffffffffffffffffffffffffffffffffffffffffff1916141562000245576040517f08c379a000000000000000000000000000000000000000000000000000000000815260040180806020018281038252601c8152602001807f4552433136353a20696e76616c696420696e746572666163652069640000000081525060200191505060405180910390fd5b6001806000837bffffffffffffffffffffffffffffffffffffffffffffffffffffffff19167bffffffffffffffffffffffffffffffffffffffffffffffffffffffff1916815260200190815260200160002060006101000a81548160ff02191690831515021790555050565b600033905090565b620002cb8282620002eb60201b60201c565b5050565b80600a9080519060200190620002e792919062000463565b5050565b62000319816000808581526020019081526020016000206000016200038e60201b620022951790919060201c565b156200038a576200032f620002b160201b60201c565b73ffffffffffffffffffffffffffffffffffffffff168173ffffffffffffffffffffffffffffffffffffffff16837f2f8788117e7eff1d82e926ec794901d17c78024a50270940304540a733656f0d60405160405180910390a45b5050565b6000620003be836000018373ffffffffffffffffffffffffffffffffffffffff1660001b620003c660201b60201c565b905092915050565b6000620003da83836200044060201b60201c565b620004355782600001829080600181540180825580915050600190039060005260206000200160009091909190915055826000018054905083600101600084815260200190815260200160002081905550600190506200043a565b600090505b92915050565b600080836001016000848152602001908152602001600020541415905092915050565b828054600181600116156101000203166002900490600052602060002090601f0160209004810192826200049b5760008555620004e7565b82601f10620004b657805160ff1916838001178555620004e7565b82800160010185558215620004e7579182015b82811115620004e6578251825591602001919060010190620004c9565b5b509050620004f69190620004fa565b5090565b5b8082111562000515576000816000905550600101620004fb565b5090565b600082601f8301126200052b57600080fd5b8151620005426200053c826200064a565b62000616565b915080825260208301602083018583830111156200055f57600080fd5b6200056c8382846200067d565b50505092915050565b6000806000606084860312156200058b57600080fd5b600084015167ffffffffffffffff811115620005a657600080fd5b620005b48682870162000519565b935050602084015167ffffffffffffffff811115620005d257600080fd5b620005e08682870162000519565b925050604084015167ffffffffffffffff811115620005fe57600080fd5b6200060c8682870162000519565b9150509250925092565b6000604051905081810181811067ffffffffffffffff8211171562000640576200063f620006b3565b5b8060405250919050565b600067ffffffffffffffff821115620006685762000667620006b3565b5b601f19601f8301169050602081019050919050565b60005b838110156200069d57808201518184015260208101905062000680565b83811115620006ad576000848401525b50505050565bfe5b6157c380620006c56000396000f3fe608060405234801561001057600080fd5b50600436106102325760003560e01c806370a0823111610130578063ca15c873116100b8578063e1d65d7f1161007c578063e1d65d7f146106d9578063e63ab1e914610712578063e985e9c514610730578063ebaf308814610760578063eeff53f01461079057610232565b8063ca15c8731461060f578063d53913931461063f578063d547741f1461065d578063d8f7af3914610679578063de072a1c146106a957610232565b806395d89b41116100ff57806395d89b411461056b578063a217fddf14610589578063a22cb465146105a7578063b88d4fde146105c3578063c87b56dd146105df57610232565b806370a08231146104d15780638456cb59146105015780639010d07c1461050b57806391d148541461053b57610232565b806336568abe116101be5780634f6ccce7116101825780634f6ccce71461041957806355f804b3146104495780635c975abb146104655780636352211e146104835780636c0360eb146104b357610232565b806336568abe146103875780633f4ba83a146103a357806342842e0e146103ad57806342966c68146103c95780634e39cafc146103e557610232565b806318160ddd1161020557806318160ddd146102d157806323b872dd146102ef578063248a9ca31461030b5780632f2ff15d1461033b5780632f745c591461035757610232565b806301ffc9a71461023757806306fdde0314610267578063081812fc14610285578063095ea7b3146102b5575b600080fd5b610251600480360381019061024c919061491d565b6107c5565b60405161025e9190614e46565b60405180910390f35b61026f61082d565b60405161027c9190614f8d565b60405180910390f35b61029f600480360381019061029a9190614987565b6108cf565b6040516102ac9190614e2b565b60405180910390f35b6102cf60048036038101906102ca9190614840565b61096a565b005b6102d9610aae565b6040516102e69190615130565b60405180910390f35b610309600480360381019061030491906146bd565b610abf565b005b6103256004803603810190610320919061487c565b610b35565b6040516103329190614e61565b60405180910390f35b610355600480360381019061035091906148a5565b610b54565b005b610371600480360381019061036c9190614840565b610bdd565b60405161037e9190615130565b60405180910390f35b6103a1600480360381019061039c91906148a5565b610c38565b005b6103ab610cd1565b005b6103c760048036038101906103c291906146bd565b610d4b565b005b6103e360048036038101906103de9190614987565b610d6b565b005b6103ff60048036038101906103fa9190614987565b610fef565b604051610410959493929190614e7c565b60405180910390f35b610433600480360381019061042e9190614987565b6110d7565b6040516104409190615130565b60405180910390f35b610463600480360381019061045e9190614946565b6110fa565b005b61046d611190565b60405161047a9190614e46565b60405180910390f35b61049d60048036038101906104989190614987565b6111a7565b6040516104aa9190614e2b565b60405180910390f35b6104bb6111de565b6040516104c89190614f8d565b60405180910390f35b6104eb60048036038101906104e69190614658565b611280565b6040516104f89190615130565b60405180910390f35b610509611355565b005b610525600480360381019061052091906148e1565b6113cf565b6040516105329190614e2b565b60405180910390f35b610555600480360381019061055091906148a5565b611400565b6040516105629190614e46565b60405180910390f35b610573611431565b6040516105809190614f8d565b60405180910390f35b6105916114d3565b60405161059e9190614e61565b60405180910390f35b6105c160048036038101906105bc9190614787565b6114da565b005b6105dd60048036038101906105d8919061470c565b611690565b005b6105f960048036038101906105f49190614987565b611708565b6040516106069190614f8d565b60405180910390f35b6106296004803603810190610624919061487c565b6119d9565b6040516106369190615130565b60405180910390f35b6106476119ff565b6040516106549190614e61565b60405180910390f35b610677600480360381019061067291906148a5565b611a23565b005b610693600480360381019061068e91906147c3565b611aac565b6040516106a09190615130565b60405180910390f35b6106c360048036038101906106be91906149b0565b611fc9565b6040516106d0919061514b565b60405180910390f35b6106f360048036038101906106ee9190614987565b612055565b6040516107099a99989796959493929190614ed6565b60405180910390f35b61071a61212b565b6040516107279190614e61565b60405180910390f35b61074a60048036038101906107459190614681565b61214f565b6040516107579190614e46565b60405180910390f35b61077a6004803603810190610775919061487c565b6121e3565b6040516107879190614e46565b60405180910390f35b6107aa60048036038101906107a59190614987565b612203565b6040516107bc969594939291906150cf565b60405180910390f35b600060016000837bffffffffffffffffffffffffffffffffffffffffffffffffffffffff19167bffffffffffffffffffffffffffffffffffffffffffffffffffffffff1916815260200190815260200160002060009054906101000a900460ff169050919050565b606060078054600181600116156101000203166002900480601f0160208091040260200160405190810160405280929190818152602001828054600181600116156101000203166002900480156108c55780601f1061089a576101008083540402835291602001916108c5565b820191906000526020600020905b8154815290600101906020018083116108a857829003601f168201915b5050505050905090565b60006108da826122c5565b61092f576040517f08c379a000000000000000000000000000000000000000000000000000000000815260040180806020018281038252602c815260200180615689602c913960400191505060405180910390fd5b6005600083815260200190815260200160002060009054906101000a900473ffffffffffffffffffffffffffffffffffffffff169050919050565b6000610975826111a7565b90508073ffffffffffffffffffffffffffffffffffffffff168373ffffffffffffffffffffffffffffffffffffffff1614156109fc576040517f08c379a000000000000000000000000000000000000000000000000000000000815260040180806020018281038252602181526020018061570d6021913960400191505060405180910390fd5b8073ffffffffffffffffffffffffffffffffffffffff16610a1b6122e2565b73ffffffffffffffffffffffffffffffffffffffff161480610a4a5750610a4981610a446122e2565b61214f565b5b610a9f576040517f08c379a00000000000000000000000000000000000000000000000000000000081526004018080602001828103825260388152602001806155bb6038913960400191505060405180910390fd5b610aa983836122ea565b505050565b6000610aba60036123a3565b905090565b610ad0610aca6122e2565b826123b8565b610b25576040517f08c379a000000000000000000000000000000000000000000000000000000000815260040180806020018281038252603181526020018061572e6031913960400191505060405180910390fd5b610b308383836124ac565b505050565b6000806000838152602001908152602001600020600201549050919050565b610b7a60008084815260200190815260200160002060020154610b756122e2565b611400565b610bcf576040517f08c379a000000000000000000000000000000000000000000000000000000000815260040180806020018281038252602f8152602001806154b4602f913960400191505060405180910390fd5b610bd982826126ef565b5050565b6000610c3082600260008673ffffffffffffffffffffffffffffffffffffffff1673ffffffffffffffffffffffffffffffffffffffff16815260200190815260200160002061278290919063ffffffff16565b905092915050565b610c406122e2565b73ffffffffffffffffffffffffffffffffffffffff168173ffffffffffffffffffffffffffffffffffffffff1614610cc3576040517f08c379a000000000000000000000000000000000000000000000000000000000815260040180806020018281038252602f81526020018061575f602f913960400191505060405180910390fd5b610ccd828261279c565b5050565b610d027f65d7a28e3265b37a6474929f336521b332c1681b933f6cb9f3376673440d862a610cfd6122e2565b611400565b610d41576040517f08c379a0000000000000000000000000000000000000000000000000000000008152600401610d38906150af565b60405180910390fd5b610d4961282f565b565b610d6683838360405180602001604052806000815250611690565b505050565b610d7c610d766122e2565b826123b8565b610dbb576040517f08c379a0000000000000000000000000000000000000000000000000000000008152600401610db29061508f565b60405180910390fd5b610dc48161291a565b6000600d60008381526020019081526020016000206000015490506010600082815260200190815260200160002060006101000a81549060ff0219169055600d60008381526020019081526020016000206000808201600090556001820160006101000a81549077ffffffffffffffffffffffffffffffffffffffffffffffff0219169055600282016000610e5991906141bd565b60038201600090556004820160006101000a81549060ff02191690555050600f6000838152602001908152602001600020600080820160006101000a81549060ff02191690556000820160016101000a81549060ff02191690556000820160026101000a81549060ff02191690556000820160036101000a81549060ff02191690556000820160046101000a81549060ff02191690556000820160056101000a81549060ff02191690556000820160066101000a81549060ff02191690556000820160076101000a81549060ff02191690556000820160086101000a81549060ff02191690556000820160096101000a81549060ff02191690555050600e6000838152602001908152602001600020600080820160006101000a81549062ffffff02191690556000820160036101000a81549062ffffff02191690556000820160066101000a81549062ffffff02191690556000820160096101000a81549061ffff021916905560008201600b6101000a81549061ffff021916905560008201600d6101000a81549060ff021916905550505050565b600d6020528060005260406000206000915090508060000154908060010160009054906101000a900460401b90806002018054600181600116156101000203166002900480601f0160208091040260200160405190810160405280929190818152602001828054600181600116156101000203166002900480156110b45780601f10611089576101008083540402835291602001916110b4565b820191906000526020600020905b81548152906001019060200180831161109757829003601f168201915b5050505050908060030154908060040160009054906101000a900460ff16905085565b6000806110ee836003612a5490919063ffffffff16565b50905080915050919050565b61110e6000801b6111096122e2565b611400565b61114d576040517f08c379a00000000000000000000000000000000000000000000000000000000081526004016111449061500f565b60405180910390fd5b61115681612a80565b7f325d37e8fb549c86966f09bc3e6f62eb3afa93b255d6e3234338001f3d80bd86816040516111859190614f8d565b60405180910390a150565b6000600b60009054906101000a900460ff16905090565b60006111d78260405180606001604052806029815260200161561d602991396003612a9a9092919063ffffffff16565b9050919050565b6060600a8054600181600116156101000203166002900480601f0160208091040260200160405190810160405280929190818152602001828054600181600116156101000203166002900480156112765780601f1061124b57610100808354040283529160200191611276565b820191906000526020600020905b81548152906001019060200180831161125957829003601f168201915b5050505050905090565b60008073ffffffffffffffffffffffffffffffffffffffff168273ffffffffffffffffffffffffffffffffffffffff161415611307576040517f08c379a000000000000000000000000000000000000000000000000000000000815260040180806020018281038252602a8152602001806155f3602a913960400191505060405180910390fd5b61134e600260008473ffffffffffffffffffffffffffffffffffffffff1673ffffffffffffffffffffffffffffffffffffffff168152602001908152602001600020612ab9565b9050919050565b6113867f65d7a28e3265b37a6474929f336521b332c1681b933f6cb9f3376673440d862a6113816122e2565b611400565b6113c5576040517f08c379a00000000000000000000000000000000000000000000000000000000081526004016113bc90614fef565b60405180910390fd5b6113cd612ace565b565b60006113f882600080868152602001908152602001600020600001612bba90919063ffffffff16565b905092915050565b600061142982600080868152602001908152602001600020600001612bd490919063ffffffff16565b905092915050565b606060088054600181600116156101000203166002900480601f0160208091040260200160405190810160405280929190818152602001828054600181600116156101000203166002900480156114c95780601f1061149e576101008083540402835291602001916114c9565b820191906000526020600020905b8154815290600101906020018083116114ac57829003601f168201915b5050505050905090565b6000801b81565b6114e26122e2565b73ffffffffffffffffffffffffffffffffffffffff168273ffffffffffffffffffffffffffffffffffffffff161415611583576040517f08c379a00000000000000000000000000000000000000000000000000000000081526004018080602001828103825260198152602001807f4552433732313a20617070726f766520746f2063616c6c65720000000000000081525060200191505060405180910390fd5b80600660006115906122e2565b73ffffffffffffffffffffffffffffffffffffffff1673ffffffffffffffffffffffffffffffffffffffff16815260200190815260200160002060008473ffffffffffffffffffffffffffffffffffffffff1673ffffffffffffffffffffffffffffffffffffffff16815260200190815260200160002060006101000a81548160ff0219169083151502179055508173ffffffffffffffffffffffffffffffffffffffff1661163d6122e2565b73ffffffffffffffffffffffffffffffffffffffff167f17307eab39ab6107e8899845ad3d59bd9653f200f220920489ca2b5937696c318360405180821515815260200191505060405180910390a35050565b6116a161169b6122e2565b836123b8565b6116f6576040517f08c379a000000000000000000000000000000000000000000000000000000000815260040180806020018281038252603181526020018061572e6031913960400191505060405180910390fd5b61170284848484612c04565b50505050565b6060611713826122c5565b611768576040517f08c379a000000000000000000000000000000000000000000000000000000000815260040180806020018281038252602f8152602001806156de602f913960400191505060405180910390fd5b6060600960008481526020019081526020016000208054600181600116156101000203166002900480601f0160208091040260200160405190810160405280929190818152602001828054600181600116156101000203166002900480156118115780601f106117e657610100808354040283529160200191611811565b820191906000526020600020905b8154815290600101906020018083116117f457829003601f168201915b5050505050905060606118226111de565b90506000815114156118385781925050506119d4565b6000825111156119095780826040516020018083805190602001908083835b6020831061187a5780518252602082019150602081019050602083039250611857565b6001836020036101000a03801982511681845116808217855250505050505090500182805190602001908083835b602083106118cb57805182526020820191506020810190506020830392506118a8565b6001836020036101000a03801982511681845116808217855250505050505090500192505050604051602081830303815290604052925050506119d4565b8061191385612c76565b6040516020018083805190602001908083835b602083106119495780518252602082019150602081019050602083039250611926565b6001836020036101000a03801982511681845116808217855250505050505090500182805190602001908083835b6020831061199a5780518252602082019150602081019050602083039250611977565b6001836020036101000a03801982511681845116808217855250505050505090500192505050604051602081830303815290604052925050505b919050565b60006119f8600080848152602001908152602001600020600001612dbd565b9050919050565b7f9f2df0fed2c77648de5860a4cc508cd0818c85b8b8a1ab4ceeef8d981c8956a681565b611a4960008084815260200190815260200160002060020154611a446122e2565b611400565b611a9e576040517f08c379a000000000000000000000000000000000000000000000000000000000815260040180806020018281038252603081526020018061558b6030913960400191505060405180910390fd5b611aa8828261279c565b5050565b6000611ad87f9f2df0fed2c77648de5860a4cc508cd0818c85b8b8a1ab4ceeef8d981c8956a633611400565b611b17576040517f08c379a0000000000000000000000000000000000000000000000000000000008152600401611b0e9061502f565b60405180910390fd5b604051602001611b269061506f565b604051602081830303815290604052805190602001208460000151604051602001611b519190614e61565b6040516020818303038152906040528051906020012014158015611bc657506000604051602001611b829190614f72565b604051602081830303815290604052805190602001208460000151604051602001611bad9190614e61565b6040516020818303038152906040528051906020012014155b611c05576040517f08c379a0000000000000000000000000000000000000000000000000000000008152600401611bfc90614fcf565b60405180910390fd5b601060008560000151815260200190815260200160002060009054906101000a900460ff1615611c6a576040517f08c379a0000000000000000000000000000000000000000000000000000000008152600401611c619061504f565b60405180910390fd5b6000611c76600c612dd2565b9050611c828682612de0565b611c8c600c612dfe565b6001601060008760000151815260200190815260200160002060006101000a81548160ff02191690831515021790555084600d60008381526020019081526020016000206000820151816000015560208201518160010160006101000a81548177ffffffffffffffffffffffffffffffffffffffffffffffff021916908360401c02179055506040820151816002019080519060200190611d2e929190614205565b506060820151816003015560808201518160040160006101000a81548160ff021916908360ff16021790555090505083600e600083815260200190815260200160002060008201518160000160006101000a81548162ffffff021916908362ffffff16021790555060208201518160000160036101000a81548162ffffff021916908362ffffff16021790555060408201518160000160066101000a81548162ffffff021916908362ffffff16021790555060608201518160000160096101000a81548161ffff021916908361ffff160217905550608082015181600001600b6101000a81548161ffff021916908361ffff16021790555060a082015181600001600d6101000a81548160ff021916908360ff16021790555090505082600f600083815260200190815260200160002060008201518160000160006101000a81548160ff0219169083600c811115611e8257fe5b021790555060208201518160000160016101000a81548160ff0219169083600c811115611eab57fe5b021790555060408201518160000160026101000a81548160ff021916908360ff16021790555060608201518160000160036101000a81548160ff021916908360ff16021790555060808201518160000160046101000a81548160ff021916908360ff16021790555060a08201518160000160056101000a81548160ff021916908360ff16021790555060c08201518160000160066101000a81548160ff021916908360ff16021790555060e08201518160000160076101000a81548160ff021916908360ff1602179055506101008201518160000160086101000a81548160ff021916908360ff1602179055506101208201518160000160096101000a81548160ff021916908360ff16021790555090505080915050949350505050565b6000611ff57f9f2df0fed2c77648de5860a4cc508cd0818c85b8b8a1ab4ceeef8d981c8956a633611400565b612034576040517f08c379a000000000000000000000000000000000000000000000000000000000815260040161202b90614faf565b60405180910390fd5b61203e8383612e14565b600061204984612eb7565b90508091505092915050565b600f6020528060005260406000206000915090508060000160009054906101000a900460ff16908060000160019054906101000a900460ff16908060000160029054906101000a900460ff16908060000160039054906101000a900460ff16908060000160049054906101000a900460ff16908060000160059054906101000a900460ff16908060000160069054906101000a900460ff16908060000160079054906101000a900460ff16908060000160089054906101000a900460ff16908060000160099054906101000a900460ff1690508a565b7f65d7a28e3265b37a6474929f336521b332c1681b933f6cb9f3376673440d862a81565b6000600660008473ffffffffffffffffffffffffffffffffffffffff1673ffffffffffffffffffffffffffffffffffffffff16815260200190815260200160002060008373ffffffffffffffffffffffffffffffffffffffff1673ffffffffffffffffffffffffffffffffffffffff16815260200190815260200160002060009054906101000a900460ff16905092915050565b60106020528060005260406000206000915054906101000a900460ff1681565b600e6020528060005260406000206000915090508060000160009054906101000a900462ffffff16908060000160039054906101000a900462ffffff16908060000160069054906101000a900462ffffff16908060000160099054906101000a900461ffff169080600001600b9054906101000a900461ffff169080600001600d9054906101000a900460ff16905086565b60006122bd836000018373ffffffffffffffffffffffffffffffffffffffff1660001b61311b565b905092915050565b60006122db82600361318b90919063ffffffff16565b9050919050565b600033905090565b816005600083815260200190815260200160002060006101000a81548173ffffffffffffffffffffffffffffffffffffffff021916908373ffffffffffffffffffffffffffffffffffffffff160217905550808273ffffffffffffffffffffffffffffffffffffffff1661235d836111a7565b73ffffffffffffffffffffffffffffffffffffffff167f8c5be1e5ebec7d5bd14f71427d1e84f3dd0314c0f7b2291e5b200ac8c7c3b92560405160405180910390a45050565b60006123b1826000016131a5565b9050919050565b60006123c3826122c5565b612418576040517f08c379a000000000000000000000000000000000000000000000000000000000815260040180806020018281038252602c81526020018061555f602c913960400191505060405180910390fd5b6000612423836111a7565b90508073ffffffffffffffffffffffffffffffffffffffff168473ffffffffffffffffffffffffffffffffffffffff16148061249257508373ffffffffffffffffffffffffffffffffffffffff1661247a846108cf565b73ffffffffffffffffffffffffffffffffffffffff16145b806124a357506124a2818561214f565b5b91505092915050565b8273ffffffffffffffffffffffffffffffffffffffff166124cc826111a7565b73ffffffffffffffffffffffffffffffffffffffff1614612538576040517f08c379a00000000000000000000000000000000000000000000000000000000081526004018080602001828103825260298152602001806156b56029913960400191505060405180910390fd5b600073ffffffffffffffffffffffffffffffffffffffff168273ffffffffffffffffffffffffffffffffffffffff1614156125be576040517f08c379a00000000000000000000000000000000000000000000000000000000081526004018080602001828103825260248152602001806155156024913960400191505060405180910390fd5b6125c98383836131b6565b6125d46000826122ea565b61262581600260008673ffffffffffffffffffffffffffffffffffffffff1673ffffffffffffffffffffffffffffffffffffffff1681526020019081526020016000206131c690919063ffffffff16565b5061267781600260008573ffffffffffffffffffffffffffffffffffffffff1673ffffffffffffffffffffffffffffffffffffffff1681526020019081526020016000206131e090919063ffffffff16565b5061268e818360036131fa9092919063ffffffff16565b50808273ffffffffffffffffffffffffffffffffffffffff168473ffffffffffffffffffffffffffffffffffffffff167fddf252ad1be2c89b69c2b068fc378daa952ba7f163c4a11628f55a4df523b3ef60405160405180910390a4505050565b6127168160008085815260200190815260200160002060000161229590919063ffffffff16565b1561277e576127236122e2565b73ffffffffffffffffffffffffffffffffffffffff168173ffffffffffffffffffffffffffffffffffffffff16837f2f8788117e7eff1d82e926ec794901d17c78024a50270940304540a733656f0d60405160405180910390a45b5050565b6000612791836000018361322f565b60001c905092915050565b6127c3816000808581526020019081526020016000206000016132b290919063ffffffff16565b1561282b576127d06122e2565b73ffffffffffffffffffffffffffffffffffffffff168173ffffffffffffffffffffffffffffffffffffffff16837ff6391f5c32d9c69d2a47ea670b442974b53935d1edc7fd64eb21e047a839171b60405160405180910390a45b5050565b612837611190565b6128a9576040517f08c379a00000000000000000000000000000000000000000000000000000000081526004018080602001828103825260148152602001807f5061757361626c653a206e6f742070617573656400000000000000000000000081525060200191505060405180910390fd5b6000600b60006101000a81548160ff0219169083151502179055507f5db9ee0a495bf2e6ff9c91a7834c1ba4fdd244a5e8aa4e537bd38aeae4b073aa6128ed6122e2565b604051808273ffffffffffffffffffffffffffffffffffffffff16815260200191505060405180910390a1565b6000612925826111a7565b9050612933816000846131b6565b61293e6000836122ea565b6000600960008481526020019081526020016000208054600181600116156101000203166002900490501461298d5760096000838152602001908152602001600020600061298c91906141bd565b5b6129de82600260008473ffffffffffffffffffffffffffffffffffffffff1673ffffffffffffffffffffffffffffffffffffffff1681526020019081526020016000206131c690919063ffffffff16565b506129f38260036132e290919063ffffffff16565b5081600073ffffffffffffffffffffffffffffffffffffffff168273ffffffffffffffffffffffffffffffffffffffff167fddf252ad1be2c89b69c2b068fc378daa952ba7f163c4a11628f55a4df523b3ef60405160405180910390a45050565b600080600080612a6786600001866132fc565b915091508160001c8160001c9350935050509250929050565b80600a9080519060200190612a96929190614205565b5050565b6000612aad846000018460001b84613395565b60001c90509392505050565b6000612ac78260000161348b565b9050919050565b612ad6611190565b15612b49576040517f08c379a00000000000000000000000000000000000000000000000000000000081526004018080602001828103825260108152602001807f5061757361626c653a207061757365640000000000000000000000000000000081525060200191505060405180910390fd5b6001600b60006101000a81548160ff0219169083151502179055507f62e78cea01bee320cd4e420270b5ea74000d11b0c9f74754ebdbfc544b05a258612b8d6122e2565b604051808273ffffffffffffffffffffffffffffffffffffffff16815260200191505060405180910390a1565b6000612bc9836000018361322f565b60001c905092915050565b6000612bfc836000018373ffffffffffffffffffffffffffffffffffffffff1660001b61349c565b905092915050565b612c0f8484846124ac565b612c1b848484846134bf565b612c70576040517f08c379a00000000000000000000000000000000000000000000000000000000081526004018080602001828103825260328152602001806154e36032913960400191505060405180910390fd5b50505050565b60606000821415612cbe576040518060400160405280600181526020017f30000000000000000000000000000000000000000000000000000000000000008152509050612db8565b600082905060005b60008214612ce8578080600101915050600a8281612ce057fe5b049150612cc6565b60608167ffffffffffffffff81118015612d0157600080fd5b506040519080825280601f01601f191660200182016040528015612d345781602001600182028036833780820191505090505b50905060006001830390508593505b60008414612db057600a8481612d5557fe5b0660300160f81b82828060019003935081518110612d6f57fe5b60200101907effffffffffffffffffffffffffffffffffffffffffffffffffffffffffffff1916908160001a905350600a8481612da857fe5b049350612d43565b819450505050505b919050565b6000612dcb8260000161348b565b9050919050565b600081600001549050919050565b612dfa8282604051806020016040528060008152506136d8565b5050565b6001816000016000828254019250508190555050565b612e4d81600f600085815260200190815260200160002060000160099054906101000a900460ff1660ff1661374990919063ffffffff16565b600f600084815260200190815260200160002060000160096101000a81548160ff021916908360ff160217905550817f698fe6a0c8e88f3a26c4f6d306155607ea59271272aefde276ea05eba25504cc82604051612eab919061514b565b60405180910390a25050565b6000806001600f600085815260200190815260200160002060000160089054906101000a900460ff16019050612efa600a8260ff166137d790919063ffffffff16565b60ff16613066600f6000868152602001908152602001600020604051806101400160405290816000820160009054906101000a900460ff16600c811115612f3d57fe5b600c811115612f4857fe5b81526020016000820160019054906101000a900460ff16600c811115612f6a57fe5b600c811115612f7557fe5b81526020016000820160029054906101000a900460ff1660ff1660ff1681526020016000820160039054906101000a900460ff1660ff1660ff1681526020016000820160049054906101000a900460ff1660ff1660ff1681526020016000820160059054906101000a900460ff1660ff1660ff1681526020016000820160069054906101000a900460ff1660ff1660ff1681526020016000820160079054906101000a900460ff1660ff1660ff1681526020016000820160089054906101000a900460ff1660ff1660ff1681526020016000820160099054906101000a900460ff1660ff1660ff168152505061386c565b63ffffffff1610613112576130ab6001600f600086815260200190815260200160002060000160089054906101000a900460ff1660ff1661374990919063ffffffff16565b600f600085815260200190815260200160002060000160086101000a81548160ff021916908360ff160217905550827f83e0ee5e18710413edd81d6290c4a68c329c3c8740395b33740f94b96bfd1a2982604051613109919061514b565b60405180910390a25b80915050919050565b6000613127838361349c565b613180578260000182908060018154018082558091505060019003906000526020600020016000909190919091505582600001805490508360010160008481526020019081526020016000208190555060019050613185565b600090505b92915050565b600061319d836000018360001b613922565b905092915050565b600081600001805490509050919050565b6131c1838383613945565b505050565b60006131d8836000018360001b6139b3565b905092915050565b60006131f2836000018360001b61311b565b905092915050565b6000613226846000018460001b8473ffffffffffffffffffffffffffffffffffffffff1660001b613a9b565b90509392505050565b600081836000018054905011613290576040517f08c379a00000000000000000000000000000000000000000000000000000000081526004018080602001828103825260228152602001806154676022913960400191505060405180910390fd5b82600001828154811061329f57fe5b9060005260206000200154905092915050565b60006132da836000018373ffffffffffffffffffffffffffffffffffffffff1660001b6139b3565b905092915050565b60006132f4836000018360001b613b77565b905092915050565b6000808284600001805490501161335e576040517f08c379a00000000000000000000000000000000000000000000000000000000081526004018080602001828103825260228152602001806156466022913960400191505060405180910390fd5b600084600001848154811061336f57fe5b906000526020600020906002020190508060000154816001015492509250509250929050565b6000808460010160008581526020019081526020016000205490506000811415839061345c576040517f08c379a00000000000000000000000000000000000000000000000000000000081526004018080602001828103825283818151815260200191508051906020019080838360005b83811015613421578082015181840152602081019050613406565b50505050905090810190601f16801561344e5780820380516001836020036101000a031916815260200191505b509250505060405180910390fd5b5084600001600182038154811061346f57fe5b9060005260206000209060020201600101549150509392505050565b600081600001805490509050919050565b600080836001016000848152602001908152602001600020541415905092915050565b60006134e08473ffffffffffffffffffffffffffffffffffffffff16613c90565b6134ed57600190506136d0565b606061365763150b7a0260e01b6135026122e2565b888787604051602401808573ffffffffffffffffffffffffffffffffffffffff1681526020018473ffffffffffffffffffffffffffffffffffffffff16815260200183815260200180602001828103825283818151815260200191508051906020019080838360005b8381101561358657808201518184015260208101905061356b565b50505050905090810190601f1680156135b35780820380516001836020036101000a031916815260200191505b5095505050505050604051602081830303815290604052907bffffffffffffffffffffffffffffffffffffffffffffffffffffffff19166020820180517bffffffffffffffffffffffffffffffffffffffffffffffffffffffff83818316178352505050506040518060600160405280603281526020016154e3603291398773ffffffffffffffffffffffffffffffffffffffff16613ca39092919063ffffffff16565b9050600081806020019051602081101561367057600080fd5b8101908080519060200190929190505050905063150b7a0260e01b7bffffffffffffffffffffffffffffffffffffffffffffffffffffffff1916817bffffffffffffffffffffffffffffffffffffffffffffffffffffffff191614925050505b949350505050565b6136e28383613cbb565b6136ef60008484846134bf565b613744576040517f08c379a00000000000000000000000000000000000000000000000000000000081526004018080602001828103825260328152602001806154e36032913960400191505060405180910390fd5b505050565b60008082840190508360ff168160ff1610156137cd576040517f08c379a000000000000000000000000000000000000000000000000000000000815260040180806020018281038252601b8152602001807f536166654d6174683a206164646974696f6e206f766572666c6f77000000000081525060200191505060405180910390fd5b8091505092915050565b6000808360ff1614156137ed5760009050613866565b600082840290508260ff168460ff168260ff168161380757fe5b0460ff1614613861576040517f08c379a00000000000000000000000000000000000000000000000000000000081526004018080602001828103825260218152602001806156686021913960400191505060405180910390fd5b809150505b92915050565b6000806138c06138aa613894856101200151866080015160ff1661374990919063ffffffff16565b856060015160ff1661374990919063ffffffff16565b846040015160ff1661374990919063ffffffff16565b60ff1690506139176138ff6138e98560e001518660c0015160ff1661374990919063ffffffff16565b8560a0015160ff1661374990919063ffffffff16565b60ff168263ffffffff16613eaf90919063ffffffff16565b905080915050919050565b600080836001016000848152602001908152602001600020541415905092915050565b613950838383613f43565b613958611190565b156139ae576040517f08c379a000000000000000000000000000000000000000000000000000000000815260040180806020018281038252602b815260200180615489602b913960400191505060405180910390fd5b505050565b60008083600101600084815260200190815260200160002054905060008114613a8f57600060018203905060006001866000018054905003905060008660000182815481106139fe57fe5b9060005260206000200154905080876000018481548110613a1b57fe5b9060005260206000200181905550600183018760010160008381526020019081526020016000208190555086600001805480613a5357fe5b60019003818190600052602060002001600090559055866001016000878152602001908152602001600020600090556001945050505050613a95565b60009150505b92915050565b6000808460010160008581526020019081526020016000205490506000811415613b4257846000016040518060400160405280868152602001858152509080600181540180825580915050600190039060005260206000209060020201600090919091909150600082015181600001556020820151816001015550508460000180549050856001016000868152602001908152602001600020819055506001915050613b70565b82856000016001830381548110613b5557fe5b90600052602060002090600202016001018190555060009150505b9392505050565b60008083600101600084815260200190815260200160002054905060008114613c845760006001820390506000600186600001805490500390506000866000018281548110613bc257fe5b9060005260206000209060020201905080876000018481548110613be257fe5b9060005260206000209060020201600082015481600001556001820154816001015590505060018301876001016000836000015481526020019081526020016000208190555086600001805480613c3557fe5b6001900381819060005260206000209060020201600080820160009055600182016000905550509055866001016000878152602001908152602001600020600090556001945050505050613c8a565b60009150505b92915050565b600080823b905060008111915050919050565b6060613cb28484600085613f48565b90509392505050565b600073ffffffffffffffffffffffffffffffffffffffff168273ffffffffffffffffffffffffffffffffffffffff161415613d5e576040517f08c379a00000000000000000000000000000000000000000000000000000000081526004018080602001828103825260208152602001807f4552433732313a206d696e7420746f20746865207a65726f206164647265737381525060200191505060405180910390fd5b613d67816122c5565b15613dda576040517f08c379a000000000000000000000000000000000000000000000000000000000815260040180806020018281038252601c8152602001807f4552433732313a20746f6b656e20616c7265616479206d696e7465640000000081525060200191505060405180910390fd5b613de6600083836131b6565b613e3781600260008573ffffffffffffffffffffffffffffffffffffffff1673ffffffffffffffffffffffffffffffffffffffff1681526020019081526020016000206131e090919063ffffffff16565b50613e4e818360036131fa9092919063ffffffff16565b50808273ffffffffffffffffffffffffffffffffffffffff16600073ffffffffffffffffffffffffffffffffffffffff167fddf252ad1be2c89b69c2b068fc378daa952ba7f163c4a11628f55a4df523b3ef60405160405180910390a45050565b60008082840190508363ffffffff168163ffffffff161015613f39576040517f08c379a000000000000000000000000000000000000000000000000000000000815260040180806020018281038252601b8152602001807f536166654d6174683a206164646974696f6e206f766572666c6f77000000000081525060200191505060405180910390fd5b8091505092915050565b505050565b606082471015613fa3576040517f08c379a00000000000000000000000000000000000000000000000000000000081526004018080602001828103825260268152602001806155396026913960400191505060405180910390fd5b613fac85613c90565b61401e576040517f08c379a000000000000000000000000000000000000000000000000000000000815260040180806020018281038252601d8152602001807f416464726573733a2063616c6c20746f206e6f6e2d636f6e747261637400000081525060200191505060405180910390fd5b600060608673ffffffffffffffffffffffffffffffffffffffff1685876040518082805190602001908083835b6020831061406e578051825260208201915060208101905060208303925061404b565b6001836020036101000a03801982511681845116808217855250505050505090500191505060006040518083038185875af1925050503d80600081146140d0576040519150601f19603f3d011682016040523d82523d6000602084013e6140d5565b606091505b50915091506140e58282866140f1565b92505050949350505050565b60608315614101578290506141b6565b6000835111156141145782518084602001fd5b816040517f08c379a00000000000000000000000000000000000000000000000000000000081526004018080602001828103825283818151815260200191508051906020019080838360005b8381101561417b578082015181840152602081019050614160565b50505050905090810190601f1680156141a85780820380516001836020036101000a031916815260200191505b509250505060405180910390fd5b9392505050565b50805460018160011615610100020316600290046000825580601f106141e35750614202565b601f0160209004906000526020600020908101906142019190614293565b5b50565b828054600181600116156101000203166002900490600052602060002090601f01602090048101928261423b5760008555614282565b82601f1061425457805160ff1916838001178555614282565b82800160010185558215614282579182015b82811115614281578251825591602001919060010190614266565b5b50905061428f9190614293565b5090565b5b808211156142ac576000816000905550600101614294565b5090565b6000813590506142bf81615387565b92915050565b6000813590506142d48161539e565b92915050565b6000813590506142e9816153b5565b92915050565b6000813590506142fe816153cc565b92915050565b600081359050614313816153e3565b92915050565b600082601f83011261432a57600080fd5b813561433d61433882615197565b615166565b9150808252602083016020830185838301111561435957600080fd5b61436483828461531e565b50505092915050565b60008135905061437c816153fa565b92915050565b600082601f83011261439357600080fd5b81356143a66143a1826151c7565b615166565b915080825260208301602083018583830111156143c257600080fd5b6143cd83828461531e565b50505092915050565b600061014082840312156143e957600080fd5b6143f4610140615166565b905060006144048482850161436d565b60008301525060206144188482850161436d565b602083015250604061442c84828501614643565b604083015250606061444084828501614643565b606083015250608061445484828501614643565b60808301525060a061446884828501614643565b60a08301525060c061447c84828501614643565b60c08301525060e061449084828501614643565b60e0830152506101006144a584828501614643565b610100830152506101206144bb84828501614643565b6101208301525092915050565b600060a082840312156144da57600080fd5b6144e460a0615166565b905060006144f4848285016142ef565b6000830152506020614508848285016142da565b602083015250604082013567ffffffffffffffff81111561452857600080fd5b61453484828501614382565b60408301525060606145488482850161462e565b606083015250608061455c84828501614643565b60808301525092915050565b600060c0828403121561457a57600080fd5b61458460c0615166565b9050600061459484828501614619565b60008301525060206145a884828501614619565b60208301525060406145bc84828501614619565b60408301525060606145d084828501614604565b60608301525060806145e484828501614604565b60808301525060a06145f884828501614643565b60a08301525092915050565b6000813590506146138161540a565b92915050565b60008135905061462881615421565b92915050565b60008135905061463d81615438565b92915050565b6000813590506146528161544f565b92915050565b60006020828403121561466a57600080fd5b6000614678848285016142b0565b91505092915050565b6000806040838503121561469457600080fd5b60006146a2858286016142b0565b92505060206146b3858286016142b0565b9150509250929050565b6000806000606084860312156146d257600080fd5b60006146e0868287016142b0565b93505060206146f1868287016142b0565b92505060406147028682870161462e565b9150509250925092565b6000806000806080858703121561472257600080fd5b6000614730878288016142b0565b9450506020614741878288016142b0565b93505060406147528782880161462e565b925050606085013567ffffffffffffffff81111561476f57600080fd5b61477b87828801614319565b91505092959194509250565b6000806040838503121561479a57600080fd5b60006147a8858286016142b0565b92505060206147b9858286016142c5565b9150509250929050565b60008060008061024085870312156147da57600080fd5b60006147e8878288016142b0565b945050602085013567ffffffffffffffff81111561480557600080fd5b614811878288016144c8565b935050604061482287828801614568565b925050610100614834878288016143d6565b91505092959194509250565b6000806040838503121561485357600080fd5b6000614861858286016142b0565b92505060206148728582860161462e565b9150509250929050565b60006020828403121561488e57600080fd5b600061489c848285016142ef565b91505092915050565b600080604083850312156148b857600080fd5b60006148c6858286016142ef565b92505060206148d7858286016142b0565b9150509250929050565b600080604083850312156148f457600080fd5b6000614902858286016142ef565b92505060206149138582860161462e565b9150509250929050565b60006020828403121561492f57600080fd5b600061493d84828501614304565b91505092915050565b60006020828403121561495857600080fd5b600082013567ffffffffffffffff81111561497257600080fd5b61497e84828501614382565b91505092915050565b60006020828403121561499957600080fd5b60006149a78482850161462e565b91505092915050565b600080604083850312156149c357600080fd5b60006149d18582860161462e565b92505060206149e285828601614643565b9150509250929050565b6149f581615213565b82525050565b614a0481615225565b82525050565b614a1381615231565b82525050565b614a228161525d565b82525050565b614a31816152fa565b82525050565b614a408161530c565b82525050565b6000614a51826151f7565b614a5b8185615202565b9350614a6b81856020860161532d565b614a7481615362565b840191505092915050565b6000614a8c603383615202565b91507f457468657265616c4368617261637465723a206d7573742068617665206d696e60008301527f74657220726f6c6520746f2075706772616465000000000000000000000000006020830152604082019050919050565b6000614af2603583615202565b91507f457468657265616c4368617261637465723a20636861726163746572206e616d60008301527f652073686f756c64206e6f7420626520656d70747900000000000000000000006020830152604082019050919050565b6000614b58603e83615202565b91507f4552433732315072657365744d696e7465725061757365724175746f49643a2060008301527f6d75737420686176652070617573657220726f6c6520746f20706175736500006020830152604082019050919050565b6000614bbe603583615202565b91507f457468657265616c4368617261637465723a206d75737420686176652061646d60008301527f696e20726f6c6520746f207365744261736555524900000000000000000000006020830152604082019050919050565b6000614c24603083615202565b91507f457468657265616c4368617261637465723a206d7573742068617665206d696e60008301527f74657220726f6c6520746f206d696e74000000000000000000000000000000006020830152604082019050919050565b6000614c8a604c83615202565b91507f457468657265616c4368617261637465723a206e616d6520616c72656164792060008301527f74616b656e20627920616e6f746865722075736572203a292043686f6f73652060208301527f616e6f74686572206f6e652100000000000000000000000000000000000000006040830152606082019050919050565b6000614d16600083615202565b9150600082019050919050565b6000614d30603083615202565b91507f4552433732314275726e61626c653a2063616c6c6572206973206e6f74206f7760008301527f6e6572206e6f7220617070726f766564000000000000000000000000000000006020830152604082019050919050565b6000614d96604083615202565b91507f4552433732315072657365744d696e7465725061757365724175746f49643a2060008301527f6d75737420686176652070617573657220726f6c6520746f20756e70617573656020830152604082019050919050565b614df8816152a6565b82525050565b614e07816152d4565b82525050565b614e16816152e3565b82525050565b614e25816152ed565b82525050565b6000602082019050614e4060008301846149ec565b92915050565b6000602082019050614e5b60008301846149fb565b92915050565b6000602082019050614e766000830184614a19565b92915050565b600060a082019050614e916000830188614a19565b614e9e6020830187614a0a565b8181036040830152614eb08186614a46565b9050614ebf6060830185614e0d565b614ecc6080830184614e1c565b9695505050505050565b600061014082019050614eec600083018d614a28565b614ef9602083018c614a28565b614f06604083018b614e1c565b614f13606083018a614e1c565b614f206080830189614e1c565b614f2d60a0830188614e1c565b614f3a60c0830187614e1c565b614f4760e0830186614e1c565b614f55610100830185614e1c565b614f63610120830184614e1c565b9b9a5050505050505050505050565b6000602082019050614f876000830184614a37565b92915050565b60006020820190508181036000830152614fa78184614a46565b905092915050565b60006020820190508181036000830152614fc881614a7f565b9050919050565b60006020820190508181036000830152614fe881614ae5565b9050919050565b6000602082019050818103600083015261500881614b4b565b9050919050565b6000602082019050818103600083015261502881614bb1565b9050919050565b6000602082019050818103600083015261504881614c17565b9050919050565b6000602082019050818103600083015261506881614c7d565b9050919050565b6000602082019050818103600083015261508881614d09565b9050919050565b600060208201905081810360008301526150a881614d23565b9050919050565b600060208201905081810360008301526150c881614d89565b9050919050565b600060c0820190506150e46000830189614dfe565b6150f16020830188614dfe565b6150fe6040830187614dfe565b61510b6060830186614def565b6151186080830185614def565b61512560a0830184614e1c565b979650505050505050565b60006020820190506151456000830184614e0d565b92915050565b60006020820190506151606000830184614e1c565b92915050565b6000604051905081810181811067ffffffffffffffff8211171561518d5761518c615360565b5b8060405250919050565b600067ffffffffffffffff8211156151b2576151b1615360565b5b601f19601f8301169050602081019050919050565b600067ffffffffffffffff8211156151e2576151e1615360565b5b601f19601f8301169050602081019050919050565b600081519050919050565b600082825260208201905092915050565b600061521e826152b4565b9050919050565b60008115159050919050565b60007fffffffffffffffffffffffffffffffffffffffffffffffff000000000000000082169050919050565b6000819050919050565b60007fffffffff0000000000000000000000000000000000000000000000000000000082169050919050565b60008190506152a182615373565b919050565b600061ffff82169050919050565b600073ffffffffffffffffffffffffffffffffffffffff82169050919050565b600062ffffff82169050919050565b6000819050919050565b600060ff82169050919050565b600061530582615293565b9050919050565b6000615317826152ed565b9050919050565b82818337600083830152505050565b60005b8381101561534b578082015181840152602081019050615330565b8381111561535a576000848401525b50505050565bfe5b6000601f19601f8301169050919050565b600d811061538457615383615360565b5b50565b61539081615213565b811461539b57600080fd5b50565b6153a781615225565b81146153b257600080fd5b50565b6153be81615231565b81146153c957600080fd5b50565b6153d58161525d565b81146153e057600080fd5b50565b6153ec81615267565b81146153f757600080fd5b50565b600d811061540757600080fd5b50565b615413816152a6565b811461541e57600080fd5b50565b61542a816152d4565b811461543557600080fd5b50565b615441816152e3565b811461544c57600080fd5b50565b615458816152ed565b811461546357600080fd5b5056fe456e756d657261626c655365743a20696e646578206f7574206f6620626f756e64734552433732315061757361626c653a20746f6b656e207472616e73666572207768696c6520706175736564416363657373436f6e74726f6c3a2073656e646572206d75737420626520616e2061646d696e20746f206772616e744552433732313a207472616e7366657220746f206e6f6e20455243373231526563656976657220696d706c656d656e7465724552433732313a207472616e7366657220746f20746865207a65726f2061646472657373416464726573733a20696e73756666696369656e742062616c616e636520666f722063616c6c4552433732313a206f70657261746f7220717565727920666f72206e6f6e6578697374656e7420746f6b656e416363657373436f6e74726f6c3a2073656e646572206d75737420626520616e2061646d696e20746f207265766f6b654552433732313a20617070726f76652063616c6c6572206973206e6f74206f776e6572206e6f7220617070726f76656420666f7220616c6c4552433732313a2062616c616e636520717565727920666f7220746865207a65726f20616464726573734552433732313a206f776e657220717565727920666f72206e6f6e6578697374656e7420746f6b656e456e756d657261626c654d61703a20696e646578206f7574206f6620626f756e6473536166654d6174683a206d756c7469706c69636174696f6e206f766572666c6f774552433732313a20617070726f76656420717565727920666f72206e6f6e6578697374656e7420746f6b656e4552433732313a207472616e73666572206f6620746f6b656e2074686174206973206e6f74206f776e4552433732314d657461646174613a2055524920717565727920666f72206e6f6e6578697374656e7420746f6b656e4552433732313a20617070726f76616c20746f2063757272656e74206f776e65724552433732313a207472616e736665722063616c6c6572206973206e6f74206f776e6572206e6f7220617070726f766564416363657373436f6e74726f6c3a2063616e206f6e6c792072656e6f756e636520726f6c657320666f722073656c66a2646970667358221220ae3bd55b2495f95b4f55cdfc4040334a410bed8a8f3e3fa823085498b09c3e2564736f6c63430007050033",
  "immutableReferences": {},
  "source": "// SPDX-License-Identifier: MIT\r\npragma solidity 0.7.5;\r\npragma abicoder v2;\r\n\r\nimport \"@openzeppelin/contracts/access/AccessControl.sol\";\r\nimport \"@openzeppelin/contracts/utils/Context.sol\";\r\nimport \"@openzeppelin/contracts/utils/Counters.sol\";\r\nimport \"@openzeppelin/contracts/token/ERC721/ERC721.sol\";\r\nimport \"@openzeppelin/contracts/token/ERC721/ERC721Burnable.sol\";\r\nimport \"@openzeppelin/contracts/token/ERC721/ERC721Pausable.sol\";\r\nimport '@openzeppelin/contracts/math/SafeMath.sol';\r\nimport './IEtherealBase.sol';\r\nimport './SafeMath8.sol';\r\nimport './SafeMath32.sol';\r\n\r\n\r\n/**\r\n * @dev {ERC721} token, including:\r\n *\r\n *  - ability for holders to burn (destroy) their tokens\r\n *  - a minter role that allows for token minting (creation)\r\n *  - a pauser role that allows to stop all token transfers\r\n *  - token ID and URI autogeneration\r\n *  - includes extra properties to store important metadata\r\n *\r\n * This contract uses {AccessControl} to lock permissioned functions using the\r\n * different roles - head to its documentation for details.\r\n *\r\n * The account that deploys the contract will be granted the minter and pauser\r\n * roles, as well as the default admin role, which will let it grant both minter\r\n * and pauser roles to other accounts.\r\n */\r\ncontract EtherealCharacter is Context, AccessControl, ERC721Burnable, ERC721Pausable, IEtherealBase {\r\n    using Counters for Counters.Counter;\r\n    using SafeMath8 for uint8;\r\n    using SafeMath32 for uint32;\r\n\r\n    bytes32 public constant MINTER_ROLE = keccak256(\"MINTER_ROLE\");\r\n    bytes32 public constant PAUSER_ROLE = keccak256(\"PAUSER_ROLE\");\r\n\r\n    Counters.Counter private _tokenIdTracker;\r\n    using SafeMath for uint256;\r\n\r\n   \r\n    /**\r\n    * @dev Character extra metadata tables\r\n    */\r\n    mapping(uint256 => CharacterBaseMetadata) public characterBaseMetadata;\r\n    mapping(uint256 => CharacterPhysicalMetadata) public characterPhysicalMetadata;\r\n    mapping(uint256 => CharacterAttributesMetadata) public characterAttributesMetadata;\r\n    mapping(bytes32 => bool) public characterNameExists;\r\n    \r\n    /**\r\n     * @dev Emitted when `tokenId` token is transferred from `from` to `to`.\r\n     */\r\n    event NewBaseURI(string _baseURI);\r\n    event CharacterSkillsUpgrade(uint256 indexed _tokendId, uint8 _skillsPoints);\r\n    event CharacterLevelUpgrade(uint256 indexed _tokendId, uint8 _level);\r\n\r\n    /**\r\n     * @dev Grants `DEFAULT_ADMIN_ROLE`, `MINTER_ROLE` and `PAUSER_ROLE` to the\r\n     * account that deploys the contract.\r\n     *\r\n     * Token URIs will be autogenerated based on `baseURI` and their token IDs.\r\n     * See {ERC721-tokenURI}.\r\n     */\r\n    constructor(string memory name, string memory symbol, string memory baseURI) ERC721(name, symbol) {\r\n        _setupRole(DEFAULT_ADMIN_ROLE, _msgSender());\r\n\r\n        _setupRole(MINTER_ROLE, _msgSender());\r\n        _setupRole(PAUSER_ROLE, _msgSender());\r\n\r\n        _setBaseURI(baseURI);\r\n    }\r\n\r\n    \r\n    /**\r\n     * @dev External function to set the base URI for all token IDs. \r\n     */\r\n    function setBaseURI(string memory _baseURI) external {\r\n      require(\r\n        hasRole(DEFAULT_ADMIN_ROLE, _msgSender()),\r\n        \"EtherealCharacter: must have admin role to setBaseURI\"\r\n      );\r\n      _setBaseURI(_baseURI);\r\n      emit NewBaseURI(_baseURI);\r\n    }\r\n\r\n    /**\r\n     * @dev Creates a new token for `to`. Its token ID will be automatically\r\n     * assigned (and available on the emitted {IERC721-Transfer} event), and the token\r\n     * URI autogenerated based on the base URI passed at construction.\r\n     *\r\n     * See {ERC721-_mint}.\r\n     *\r\n     * Requirements:\r\n     *\r\n     * - the caller must have the `MINTER_ROLE`.\r\n     */\r\n    function mint(\r\n      address to,\r\n      CharacterBaseMetadata memory extraBaseMetaData,\r\n      CharacterPhysicalMetadata memory extraPhysicalMetaData,\r\n      CharacterAttributesMetadata memory extraAbilitiesMetaData\r\n    )\r\n        public\r\n        returns (uint256)\r\n    {\r\n        require(hasRole(MINTER_ROLE, msg.sender), \"EtherealCharacter: must have minter role to mint\");\r\n        require(\r\n          keccak256(abi.encode(extraBaseMetaData.name)) != keccak256(abi.encode(\"\")) &&\r\n          keccak256(abi.encode(extraBaseMetaData.name)) != keccak256(abi.encode(0x00)),\r\n          \"EtherealCharacter: character name should not be empty\"\r\n        );\r\n        require(\r\n          !characterNameExists[extraBaseMetaData.name],\r\n          \"EtherealCharacter: name already taken by another user :) Choose another one!\"\r\n        );\r\n\r\n\r\n        // We cannot just use balanceOf to create the new tokenId because tokens\r\n        // can be burned (destroyed), so we need a separate counter.\r\n        uint256 currentTokenId = _tokenIdTracker.current();\r\n        _safeMint(to, currentTokenId);\r\n        _tokenIdTracker.increment();\r\n        characterNameExists[extraBaseMetaData.name] = true;\r\n        characterBaseMetadata[currentTokenId] = extraBaseMetaData;\r\n        characterPhysicalMetadata[currentTokenId] = extraPhysicalMetaData;\r\n        characterAttributesMetadata[currentTokenId] = extraAbilitiesMetaData;\r\n        return currentTokenId;\r\n    }\r\n\r\n    /**\r\n     * @dev Burns `tokenId`. See {ERC721-_burn}.\r\n     *\r\n     * Requirements:\r\n     *\r\n     * - The caller must own `tokenId` or be an approved operator.\r\n     */\r\n    function burn(uint256 tokenId) public override {\r\n        //solhint-disable-next-line max-line-length\r\n        require(_isApprovedOrOwner(_msgSender(), tokenId), \"ERC721Burnable: caller is not owner nor approved\");\r\n        _burn(tokenId);\r\n        bytes32 tmpChrName = characterBaseMetadata[tokenId].name;\r\n        delete characterNameExists[tmpChrName];\r\n        delete characterBaseMetadata[tokenId];\r\n        delete characterAttributesMetadata[tokenId];\r\n        delete characterPhysicalMetadata[tokenId];\r\n    }\r\n\r\n    /**\r\n     * @dev Pauses all token transfers.\r\n     *\r\n     * See {ERC721Pausable} and {Pausable-_pause}.\r\n     *\r\n     * Requirements:\r\n     *\r\n     * - the caller must have the `PAUSER_ROLE`.\r\n     */\r\n    function pause() public virtual {\r\n        require(hasRole(PAUSER_ROLE, _msgSender()), \"ERC721PresetMinterPauserAutoId: must have pauser role to pause\");\r\n        _pause();\r\n    }\r\n\r\n    /**\r\n     * @dev Unpauses all token transfers.\r\n     *\r\n     * See {ERC721Pausable} and {Pausable-_unpause}.\r\n     *\r\n     * Requirements:\r\n     *\r\n     * - the caller must have the `PAUSER_ROLE`.\r\n     */\r\n    function unpause() public virtual {\r\n        require(hasRole(PAUSER_ROLE, _msgSender()), \"ERC721PresetMinterPauserAutoId: must have pauser role to unpause\");\r\n        _unpause();\r\n    }\r\n\r\n    function _beforeTokenTransfer(address from, address to, uint256 tokenId) internal virtual override(ERC721, ERC721Pausable) {\r\n        super._beforeTokenTransfer(from, to, tokenId);\r\n    }\r\n\r\n    /*\r\n    * @dev Increase skills points\r\n    */\r\n    function _increaseCharacterSkillsPoints(\r\n      uint256 _tokenId,\r\n      uint8 _skillsPointsEarned\r\n    )\r\n      private\r\n    {\r\n      characterAttributesMetadata[_tokenId].extraSkillsPoints = characterAttributesMetadata[_tokenId].extraSkillsPoints.add(_skillsPointsEarned);\r\n      emit CharacterSkillsUpgrade(_tokenId, _skillsPointsEarned);\r\n    }\r\n\r\n    /*\r\n    * @dev Returns the Sum of skills points on Metadata object\r\n    */\r\n    function _sumSkillsPoints(CharacterAttributesMetadata memory extraAbilitiesMetaData)\r\n      private\r\n      pure\r\n      returns (uint32)\r\n    {\r\n      uint32 res = extraAbilitiesMetaData.life.add(\r\n        extraAbilitiesMetaData.armor.add(\r\n          extraAbilitiesMetaData.strength.add(\r\n              extraAbilitiesMetaData.extraSkillsPoints\r\n            )\r\n        )\r\n      );\r\n      res = res.add(\r\n        extraAbilitiesMetaData.speed.add(\r\n          extraAbilitiesMetaData.luck.add(\r\n            extraAbilitiesMetaData.spirit\r\n          )\r\n        )\r\n      );\r\n\r\n      return res;\r\n    }\r\n\r\n    /*\r\n    * @dev Upgrade character's level if all requirements are met\r\n    */\r\n    function _levelUpgrade(\r\n      uint256 _tokenId\r\n    )\r\n      private\r\n      returns (uint8)\r\n    {\r\n      uint8 newLevel = characterAttributesMetadata[_tokenId].level + 1;\r\n\r\n      if (_sumSkillsPoints(characterAttributesMetadata[_tokenId]) >= newLevel.mul(10)) {\r\n        characterAttributesMetadata[_tokenId].level = characterAttributesMetadata[_tokenId].level.add(1);\r\n        emit CharacterLevelUpgrade(_tokenId, newLevel);\r\n      }\r\n\r\n      return newLevel;\r\n    }\r\n\r\n    /*\r\n    * @dev Increase skills points and upgrade character level \r\n    */\r\n    function upgradeCharacter(\r\n      uint256 _tokenId,\r\n      uint8 _skillsPointsEarned\r\n    )\r\n      external\r\n      returns (uint8)\r\n    {\r\n      require(hasRole(MINTER_ROLE, msg.sender), \"EtherealCharacter: must have minter role to upgrade\");\r\n      _increaseCharacterSkillsPoints(_tokenId, _skillsPointsEarned);\r\n      uint8 newLevel = _levelUpgrade(_tokenId);\r\n      return newLevel;\r\n    }\r\n\r\n\r\n}",
  "sourcePath": "C:/xampp/htdocs/ethereal-bnb/truffle-files/contracts/EtherealCharacter.sol",
  "compiler": {
    "name": "solc",
    "version": "0.7.5+commit.eb77ed08.Emscripten.clang"
  },
  "schemaVersion": "3.3.3",
  "updatedAt": "2021-02-20T10:28:21.705Z",
  "networkType": "ethereum",
  "devdoc": {
    "details": "{ERC721} token, including:  - ability for holders to burn (destroy) their tokens  - a minter role that allows for token minting (creation)  - a pauser role that allows to stop all token transfers  - token ID and URI autogeneration  - includes extra properties to store important metadata This contract uses {AccessControl} to lock permissioned functions using the different roles - head to its documentation for details. The account that deploys the contract will be granted the minter and pauser roles, as well as the default admin role, which will let it grant both minter and pauser roles to other accounts.",
    "events": {
      "NewBaseURI(string)": {
        "details": "Emitted when `tokenId` token is transferred from `from` to `to`."
      }
    },
    "kind": "dev",
    "methods": {
      "approve(address,uint256)": {
        "details": "See {IERC721-approve}."
      },
      "balanceOf(address)": {
        "details": "See {IERC721-balanceOf}."
      },
      "baseURI()": {
        "details": "Returns the base URI set via {_setBaseURI}. This will be automatically added as a prefix in {tokenURI} to each token's URI, or to the token ID if no specific URI is set for that token ID."
      },
      "burn(uint256)": {
        "details": "Burns `tokenId`. See {ERC721-_burn}. Requirements: - The caller must own `tokenId` or be an approved operator."
      },
      "constructor": {
        "details": "Grants `DEFAULT_ADMIN_ROLE`, `MINTER_ROLE` and `PAUSER_ROLE` to the account that deploys the contract. Token URIs will be autogenerated based on `baseURI` and their token IDs. See {ERC721-tokenURI}."
      },
      "getApproved(uint256)": {
        "details": "See {IERC721-getApproved}."
      },
      "getRoleAdmin(bytes32)": {
        "details": "Returns the admin role that controls `role`. See {grantRole} and {revokeRole}. To change a role's admin, use {_setRoleAdmin}."
      },
      "getRoleMember(bytes32,uint256)": {
        "details": "Returns one of the accounts that have `role`. `index` must be a value between 0 and {getRoleMemberCount}, non-inclusive. Role bearers are not sorted in any particular way, and their ordering may change at any point. WARNING: When using {getRoleMember} and {getRoleMemberCount}, make sure you perform all queries on the same block. See the following https://forum.openzeppelin.com/t/iterating-over-elements-on-enumerableset-in-openzeppelin-contracts/2296[forum post] for more information."
      },
      "getRoleMemberCount(bytes32)": {
        "details": "Returns the number of accounts that have `role`. Can be used together with {getRoleMember} to enumerate all bearers of a role."
      },
      "grantRole(bytes32,address)": {
        "details": "Grants `role` to `account`. If `account` had not been already granted `role`, emits a {RoleGranted} event. Requirements: - the caller must have ``role``'s admin role."
      },
      "hasRole(bytes32,address)": {
        "details": "Returns `true` if `account` has been granted `role`."
      },
      "isApprovedForAll(address,address)": {
        "details": "See {IERC721-isApprovedForAll}."
      },
      "mint(address,(bytes32,bytes24,string,uint256,uint8),(uint24,uint24,uint24,uint16,uint16,uint8),(uint8,uint8,uint8,uint8,uint8,uint8,uint8,uint8,uint8,uint8))": {
        "details": "Creates a new token for `to`. Its token ID will be automatically assigned (and available on the emitted {IERC721-Transfer} event), and the token URI autogenerated based on the base URI passed at construction. See {ERC721-_mint}. Requirements: - the caller must have the `MINTER_ROLE`."
      },
      "name()": {
        "details": "See {IERC721Metadata-name}."
      },
      "ownerOf(uint256)": {
        "details": "See {IERC721-ownerOf}."
      },
      "pause()": {
        "details": "Pauses all token transfers. See {ERC721Pausable} and {Pausable-_pause}. Requirements: - the caller must have the `PAUSER_ROLE`."
      },
      "paused()": {
        "details": "Returns true if the contract is paused, and false otherwise."
      },
      "renounceRole(bytes32,address)": {
        "details": "Revokes `role` from the calling account. Roles are often managed via {grantRole} and {revokeRole}: this function's purpose is to provide a mechanism for accounts to lose their privileges if they are compromised (such as when a trusted device is misplaced). If the calling account had been granted `role`, emits a {RoleRevoked} event. Requirements: - the caller must be `account`."
      },
      "revokeRole(bytes32,address)": {
        "details": "Revokes `role` from `account`. If `account` had been granted `role`, emits a {RoleRevoked} event. Requirements: - the caller must have ``role``'s admin role."
      },
      "safeTransferFrom(address,address,uint256)": {
        "details": "See {IERC721-safeTransferFrom}."
      },
      "safeTransferFrom(address,address,uint256,bytes)": {
        "details": "See {IERC721-safeTransferFrom}."
      },
      "setApprovalForAll(address,bool)": {
        "details": "See {IERC721-setApprovalForAll}."
      },
      "setBaseURI(string)": {
        "details": "External function to set the base URI for all token IDs. "
      },
      "supportsInterface(bytes4)": {
        "details": "See {IERC165-supportsInterface}. Time complexity O(1), guaranteed to always use less than 30 000 gas."
      },
      "symbol()": {
        "details": "See {IERC721Metadata-symbol}."
      },
      "tokenByIndex(uint256)": {
        "details": "See {IERC721Enumerable-tokenByIndex}."
      },
      "tokenOfOwnerByIndex(address,uint256)": {
        "details": "See {IERC721Enumerable-tokenOfOwnerByIndex}."
      },
      "tokenURI(uint256)": {
        "details": "See {IERC721Metadata-tokenURI}."
      },
      "totalSupply()": {
        "details": "See {IERC721Enumerable-totalSupply}."
      },
      "transferFrom(address,address,uint256)": {
        "details": "See {IERC721-transferFrom}."
      },
      "unpause()": {
        "details": "Unpauses all token transfers. See {ERC721Pausable} and {Pausable-_unpause}. Requirements: - the caller must have the `PAUSER_ROLE`."
      }
    },
    "stateVariables": {
      "characterBaseMetadata": {
        "details": "Character extra metadata tables"
      }
    },
    "version": 1
  },
  "userdoc": {
    "kind": "user",
    "methods": {},
    "version": 1
  }
}