{
  "contractName": "PlanetFactory",
  "abi": [
    {
      "inputs": [],
      "stateMutability": "nonpayable",
      "type": "constructor"
    },
    {
      "anonymous": false,
      "inputs": [
        {
          "indexed": false,
          "internalType": "bool",
          "name": "newStatus",
          "type": "bool"
        }
      ],
      "name": "ContractStatusUpdated",
      "type": "event"
    },
    {
      "anonymous": false,
      "inputs": [
        {
          "indexed": false,
          "internalType": "uint256",
          "name": "planetId",
          "type": "uint256"
        },
        {
          "indexed": false,
          "internalType": "bytes32",
          "name": "name",
          "type": "bytes32"
        }
      ],
      "name": "NewPlanetCreated",
      "type": "event"
    },
    {
      "anonymous": false,
      "inputs": [
        {
          "indexed": true,
          "internalType": "address",
          "name": "previousOwner",
          "type": "address"
        },
        {
          "indexed": true,
          "internalType": "address",
          "name": "newOwner",
          "type": "address"
        }
      ],
      "name": "OwnershipTransferred",
      "type": "event"
    },
    {
      "anonymous": false,
      "inputs": [
        {
          "indexed": false,
          "internalType": "uint256",
          "name": "planetId",
          "type": "uint256"
        },
        {
          "indexed": false,
          "internalType": "bool",
          "name": "newStatus",
          "type": "bool"
        }
      ],
      "name": "PlanetStatusUpdated",
      "type": "event"
    },
    {
      "inputs": [],
      "name": "active",
      "outputs": [
        {
          "internalType": "bool",
          "name": "",
          "type": "bool"
        }
      ],
      "stateMutability": "view",
      "type": "function",
      "constant": true
    },
    {
      "inputs": [],
      "name": "owner",
      "outputs": [
        {
          "internalType": "address",
          "name": "",
          "type": "address"
        }
      ],
      "stateMutability": "view",
      "type": "function",
      "constant": true
    },
    {
      "inputs": [
        {
          "internalType": "bytes32",
          "name": "",
          "type": "bytes32"
        }
      ],
      "name": "planetNameExists",
      "outputs": [
        {
          "internalType": "bool",
          "name": "",
          "type": "bool"
        }
      ],
      "stateMutability": "view",
      "type": "function",
      "constant": true
    },
    {
      "inputs": [
        {
          "internalType": "uint256",
          "name": "",
          "type": "uint256"
        }
      ],
      "name": "planets",
      "outputs": [
        {
          "internalType": "bytes32",
          "name": "name",
          "type": "bytes32"
        },
        {
          "internalType": "string",
          "name": "description",
          "type": "string"
        },
        {
          "internalType": "uint256",
          "name": "population",
          "type": "uint256"
        },
        {
          "internalType": "bool",
          "name": "active",
          "type": "bool"
        }
      ],
      "stateMutability": "view",
      "type": "function",
      "constant": true
    },
    {
      "inputs": [],
      "name": "renounceOwnership",
      "outputs": [],
      "stateMutability": "nonpayable",
      "type": "function"
    },
    {
      "inputs": [],
      "name": "totalInactivePlanets",
      "outputs": [
        {
          "internalType": "uint256",
          "name": "",
          "type": "uint256"
        }
      ],
      "stateMutability": "view",
      "type": "function",
      "constant": true
    },
    {
      "inputs": [],
      "name": "totalNumPlanets",
      "outputs": [
        {
          "internalType": "uint256",
          "name": "",
          "type": "uint256"
        }
      ],
      "stateMutability": "view",
      "type": "function",
      "constant": true
    },
    {
      "inputs": [
        {
          "internalType": "address",
          "name": "newOwner",
          "type": "address"
        }
      ],
      "name": "transferOwnership",
      "outputs": [],
      "stateMutability": "nonpayable",
      "type": "function"
    },
    {
      "inputs": [
        {
          "internalType": "bytes32",
          "name": "_name",
          "type": "bytes32"
        },
        {
          "internalType": "string",
          "name": "_description",
          "type": "string"
        }
      ],
      "name": "createPlanet",
      "outputs": [
        {
          "internalType": "uint256",
          "name": "id",
          "type": "uint256"
        }
      ],
      "stateMutability": "nonpayable",
      "type": "function"
    },
    {
      "inputs": [
        {
          "internalType": "uint256",
          "name": "_planetId",
          "type": "uint256"
        },
        {
          "internalType": "bool",
          "name": "_active",
          "type": "bool"
        }
      ],
      "name": "activateDeactivatePlanet",
      "outputs": [],
      "stateMutability": "nonpayable",
      "type": "function"
    },
    {
      "inputs": [
        {
          "internalType": "bool",
          "name": "_active",
          "type": "bool"
        }
      ],
      "name": "activateDeactivateContract",
      "outputs": [],
      "stateMutability": "nonpayable",
      "type": "function"
    },
    {
      "inputs": [],
      "name": "getNumActivePlanets",
      "outputs": [
        {
          "internalType": "uint256",
          "name": "",
          "type": "uint256"
        }
      ],
      "stateMutability": "view",
      "type": "function",
      "constant": true
    },
    {
      "inputs": [],
      "name": "getPlanets",
      "outputs": [
        {
          "internalType": "uint256[]",
          "name": "",
          "type": "uint256[]"
        }
      ],
      "stateMutability": "view",
      "type": "function",
      "constant": true
    },
    {
      "inputs": [],
      "name": "getInactivePlanets",
      "outputs": [
        {
          "internalType": "uint256[]",
          "name": "",
          "type": "uint256[]"
        }
      ],
      "stateMutability": "view",
      "type": "function",
      "constant": true
    }
  ],
  "bytecode": "0x608060405234801561001057600080fd5b5060006100216100c460201b60201c565b9050806000806101000a81548173ffffffffffffffffffffffffffffffffffffffff021916908373ffffffffffffffffffffffffffffffffffffffff1602179055508073ffffffffffffffffffffffffffffffffffffffff16600073ffffffffffffffffffffffffffffffffffffffff167f8be0079c531659141344cd1fd0a4f28419497f9722a3daafe3b4186f6b6457e060405160405180910390a3506100cc565b600033905090565b61179b806100db6000396000f3fe608060405234801561001057600080fd5b50600436106100e95760003560e01c8063715018a61161008c578063d64a626e11610066578063d64a626e14610353578063e581e0b614610371578063f2fde38b1461044a578063f32bb4231461048e576100e9565b8063715018a6146102f75780638da5cb5b14610301578063b0fc900b14610335576100e9565b806326c1e750116100c857806326c1e75014610178578063292438c71461023657806340d893091461027a57806364f54717146102d9576100e9565b8062912bd0146100ee57806302fb0c5e1461012857806321bbf14c14610148575b600080fd5b6101266004803603604081101561010457600080fd5b81019080803590602001909291908035151590602001909291905050506104ed565b005b6101306107b9565b60405180821515815260200191505060405180910390f35b6101766004803603602081101561015e57600080fd5b810190808035151590602001909291905050506107cc565b005b6101a46004803603602081101561018e57600080fd5b81019080803590602001909291905050506108d1565b60405180858152602001806020018481526020018315158152602001828103825285818151815260200191508051906020019080838360005b838110156101f85780820151818401526020810190506101dd565b50505050905090810190601f1680156102255780820380516001836020036101000a031916815260200191505b509550505050505060405180910390f35b6102626004803603602081101561024c57600080fd5b81019080803590602001909291905050506109a6565b60405180821515815260200191505060405180910390f35b6102826109c6565b6040518080602001828103825283818151815260200191508051906020019060200280838360005b838110156102c55780820151818401526020810190506102aa565b505050509050019250505060405180910390f35b6102e1610b42565b6040518082815260200191505060405180910390f35b6102ff610b48565b005b610309610cb5565b604051808273ffffffffffffffffffffffffffffffffffffffff16815260200191505060405180910390f35b61033d610cde565b6040518082815260200191505060405180910390f35b61035b610ce4565b6040518082815260200191505060405180910390f35b6104346004803603604081101561038757600080fd5b8101908080359060200190929190803590602001906401000000008111156103ae57600080fd5b8201836020820111156103c057600080fd5b803590602001918460018302840111640100000000831117156103e257600080fd5b91908080601f016020809104026020016040519081016040528093929190818152602001838380828437600081840152601f19601f820116905080830192505050505050509192919290505050610d8a565b6040518082815260200191505060405180910390f35b61048c6004803603602081101561046057600080fd5b81019080803573ffffffffffffffffffffffffffffffffffffffff169060200190929190505050611193565b005b610496611385565b6040518080602001828103825283818151815260200191508051906020019060200280838360005b838110156104d95780820151818401526020810190506104be565b505050509050019250505060405180910390f35b6104f5611581565b73ffffffffffffffffffffffffffffffffffffffff16610513610cb5565b73ffffffffffffffffffffffffffffffffffffffff161461059c576040517f08c379a00000000000000000000000000000000000000000000000000000000081526004018080602001828103825260208152602001807f4f776e61626c653a2063616c6c6572206973206e6f7420746865206f776e657281525060200191505060405180910390fd5b600560009054906101000a900460ff1661061e576040517f08c379a00000000000000000000000000000000000000000000000000000000081526004018080602001828103825260148152602001807f436f6e747261637420697320696e61637469766500000000000000000000000081525060200191505060405180910390fd5b604051602001808060200182810382526000815260200160200191505060405160208183030381529060405280519060200120600160008481526020019081526020016000206000015460405160200180828152602001915050604051602081830303815290604052805190602001201415610702576040517f08c379a00000000000000000000000000000000000000000000000000000000081526004018080602001828103825260148152602001807f506c616e657420646f65736e277420657869737400000000000000000000000081525060200191505060405180910390fd5b806001600084815260200190815260200160002060030160006101000a81548160ff02191690831515021790555080156107575761074c600160045461158990919063ffffffff16565b600481905550610774565b61076d600160045461160c90919063ffffffff16565b6004819055505b7f7d364863130b2db985ca067bf7ffe3eae1d3e9d99f41b292e0965ea5c3ca8d0182826040518083815260200182151581526020019250505060405180910390a15050565b600560009054906101000a900460ff1681565b6107d4611581565b73ffffffffffffffffffffffffffffffffffffffff166107f2610cb5565b73ffffffffffffffffffffffffffffffffffffffff161461087b576040517f08c379a00000000000000000000000000000000000000000000000000000000081526004018080602001828103825260208152602001807f4f776e61626c653a2063616c6c6572206973206e6f7420746865206f776e657281525060200191505060405180910390fd5b80600560006101000a81548160ff0219169083151502179055507f89cb8aeac390e3fc9016dc87a4ed02fbbb63c5adafcbb03db9b6227a14fe589d8160405180821515815260200191505060405180910390a150565b6001602052806000526040600020600091509050806000015490806001018054600181600116156101000203166002900480601f0160208091040260200160405190810160405280929190818152602001828054600181600116156101000203166002900480156109835780601f1061095857610100808354040283529160200191610983565b820191906000526020600020905b81548152906001019060200180831161096657829003601f168201915b5050505050908060020154908060030160009054906101000a900460ff16905084565b60026020528060005260406000206000915054906101000a900460ff1681565b6060600560009054906101000a900460ff16610a4a576040517f08c379a00000000000000000000000000000000000000000000000000000000081526004018080602001828103825260148152602001807f436f6e747261637420697320696e61637469766500000000000000000000000081525060200191505060405180910390fd5b606060045467ffffffffffffffff81118015610a6557600080fd5b50604051908082528060200260200182016040528015610a945781602001602082028036833780820191505090505b5090506000805b600354811015610b39576001600082815260200190815260200160002060030160009054906101000a900460ff168015610ad6575060045482105b15610b0f5780838381518110610ae857fe5b602002602001018181525050610b0860018361160c90919063ffffffff16565b9150610b1e565b6004548210610b1d57610b39565b5b610b3260018261160c90919063ffffffff16565b9050610a9b565b50819250505090565b60045481565b610b50611581565b73ffffffffffffffffffffffffffffffffffffffff16610b6e610cb5565b73ffffffffffffffffffffffffffffffffffffffff1614610bf7576040517f08c379a00000000000000000000000000000000000000000000000000000000081526004018080602001828103825260208152602001807f4f776e61626c653a2063616c6c6572206973206e6f7420746865206f776e657281525060200191505060405180910390fd5b600073ffffffffffffffffffffffffffffffffffffffff1660008054906101000a900473ffffffffffffffffffffffffffffffffffffffff1673ffffffffffffffffffffffffffffffffffffffff167f8be0079c531659141344cd1fd0a4f28419497f9722a3daafe3b4186f6b6457e060405160405180910390a360008060006101000a81548173ffffffffffffffffffffffffffffffffffffffff021916908373ffffffffffffffffffffffffffffffffffffffff160217905550565b60008060009054906101000a900473ffffffffffffffffffffffffffffffffffffffff16905090565b60035481565b6000600560009054906101000a900460ff16610d68576040517f08c379a00000000000000000000000000000000000000000000000000000000081526004018080602001828103825260148152602001807f436f6e747261637420697320696e61637469766500000000000000000000000081525060200191505060405180910390fd5b6000610d8160045460035461158990919063ffffffff16565b90508091505090565b6000610d94611581565b73ffffffffffffffffffffffffffffffffffffffff16610db2610cb5565b73ffffffffffffffffffffffffffffffffffffffff1614610e3b576040517f08c379a00000000000000000000000000000000000000000000000000000000081526004018080602001828103825260208152602001807f4f776e61626c653a2063616c6c6572206973206e6f7420746865206f776e657281525060200191505060405180910390fd5b600560009054906101000a900460ff16610ebd576040517f08c379a00000000000000000000000000000000000000000000000000000000081526004018080602001828103825260148152602001807f436f6e747261637420697320696e61637469766500000000000000000000000081525060200191505060405180910390fd5b826040516020018080602001828103825260008152602001602001915050604051602081830303815290604052805190602001208160405160200180828152602001915050604051602081830303815290604052805190602001201415610f8c576040517f08c379a00000000000000000000000000000000000000000000000000000000081526004018080602001828103825260188152602001807f456d70747920737472696e67206e6f7420616c6c6f776564000000000000000081525060200191505060405180910390fd5b8360026000826040516020018082815260200191505060405160208183030381529060405280519060200120815260200190815260200160002060009054906101000a900460ff1615611047576040517f08c379a000000000000000000000000000000000000000000000000000000000815260040180806020018281038252601a8152602001807f506c616e6574206e616d6520616c72656164792065786973747300000000000081525060200191505060405180910390fd5b61105d600160035461160c90919063ffffffff16565b6003819055506000600354905060405180608001604052808781526020018681526020016000815260200160011515815250600160008381526020019081526020016000206000820151816000015560208201518160010190805190602001906110c8929190611694565b506040820151816002015560608201518160030160006101000a81548160ff021916908315150217905550905050600160026000886040516020018082815260200191505060405160208183030381529060405280519060200120815260200190815260200160002060006101000a81548160ff0219169083151502179055507f77173fe9730b8c94d6e2099a799c4891fb0142645f3e139e87aa71c5f014979a8187604051808381526020018281526020019250505060405180910390a180935050505092915050565b61119b611581565b73ffffffffffffffffffffffffffffffffffffffff166111b9610cb5565b73ffffffffffffffffffffffffffffffffffffffff1614611242576040517f08c379a00000000000000000000000000000000000000000000000000000000081526004018080602001828103825260208152602001807f4f776e61626c653a2063616c6c6572206973206e6f7420746865206f776e657281525060200191505060405180910390fd5b600073ffffffffffffffffffffffffffffffffffffffff168173ffffffffffffffffffffffffffffffffffffffff1614156112c8576040517f08c379a00000000000000000000000000000000000000000000000000000000081526004018080602001828103825260268152602001806117406026913960400191505060405180910390fd5b8073ffffffffffffffffffffffffffffffffffffffff1660008054906101000a900473ffffffffffffffffffffffffffffffffffffffff1673ffffffffffffffffffffffffffffffffffffffff167f8be0079c531659141344cd1fd0a4f28419497f9722a3daafe3b4186f6b6457e060405160405180910390a3806000806101000a81548173ffffffffffffffffffffffffffffffffffffffff021916908373ffffffffffffffffffffffffffffffffffffffff16021790555050565b6060600560009054906101000a900460ff16611409576040517f08c379a00000000000000000000000000000000000000000000000000000000081526004018080602001828103825260148152602001807f436f6e747261637420697320696e61637469766500000000000000000000000081525060200191505060405180910390fd5b60003073ffffffffffffffffffffffffffffffffffffffff1663d64a626e6040518163ffffffff1660e01b815260040160206040518083038186803b15801561145157600080fd5b505afa158015611465573d6000803e3d6000fd5b505050506040513d602081101561147b57600080fd5b8101908080519060200190929190505050905060608167ffffffffffffffff811180156114a757600080fd5b506040519080825280602002602001820160405280156114d65781602001602082028036833780820191505090505b5090506000805b600354811015611577576001600082815260200190815260200160002060030160009054906101000a900460ff16801561151657508382105b1561154f578083838151811061152857fe5b60200260200101818152505061154860018361160c90919063ffffffff16565b915061155c565b83821061155b57611577565b5b61157060018261160c90919063ffffffff16565b90506114dd565b5081935050505090565b600033905090565b600082821115611601576040517f08c379a000000000000000000000000000000000000000000000000000000000815260040180806020018281038252601e8152602001807f536166654d6174683a207375627472616374696f6e206f766572666c6f77000081525060200191505060405180910390fd5b818303905092915050565b60008082840190508381101561168a576040517f08c379a000000000000000000000000000000000000000000000000000000000815260040180806020018281038252601b8152602001807f536166654d6174683a206164646974696f6e206f766572666c6f77000000000081525060200191505060405180910390fd5b8091505092915050565b828054600181600116156101000203166002900490600052602060002090601f0160209004810192826116ca5760008555611711565b82601f106116e357805160ff1916838001178555611711565b82800160010185558215611711579182015b828111156117105782518255916020019190600101906116f5565b5b50905061171e9190611722565b5090565b5b8082111561173b576000816000905550600101611723565b509056fe4f776e61626c653a206e6577206f776e657220697320746865207a65726f2061646472657373a2646970667358221220b4cc8c0c724bcdc377e483247606d4e0674a66e4a1819e7ba32c9d2257686e2264736f6c63430007050033",
  "immutableReferences": {},
  "source": "// SPDX-License-Identifier: MIT\r\npragma solidity 0.7.5;\r\nimport '@openzeppelin/contracts/access/Ownable.sol';\r\nimport '@openzeppelin/contracts/math/SafeMath.sol';\r\n\r\n/*\r\n* @notice Create new planets for the Ethereal universe\r\n* @author luckyr13\r\n*/\r\n\r\ncontract PlanetFactory is Ownable\r\n{\r\n\tusing SafeMath for uint256;\r\n\tstruct Planet {\r\n\t\tbytes32 name;\r\n\t\tstring description;\r\n\t\tuint256 population;\r\n\t\tbool active;\r\n\t}\r\n\r\n\tconstructor() {\r\n\t\t\r\n\t}\r\n\r\n\t// Planet's info\r\n\tmapping(uint256 => Planet) public planets;\r\n\t// Table to store if planet's name alreay exists\r\n\tmapping(bytes32 => bool) public planetNameExists;\r\n\r\n\t// Total number of planets\r\n\tuint256 public totalNumPlanets;\r\n\t// Total number of inactive planets\r\n\tuint256 public totalInactivePlanets;\r\n\t// Contract status\r\n\tbool public active;\r\n\r\n\t/*\r\n\t*\t@dev Check if bytes32 is empty\r\n\t*/\r\n\tmodifier isNotEmptyBytes32(bytes32 _s)\r\n\t{\r\n\t\trequire(\r\n\t\t\tkeccak256(abi.encode(_s)) != keccak256(abi.encode(\"\")),\r\n\t\t\t\"Empty string not allowed\"\r\n\t\t);\r\n\t\t_;\r\n\t}\r\n\r\n\t/*\r\n\t*\t@dev Check if planet name is available or if is already used\r\n\t*/\r\n\tmodifier isPlanetNameAvailable(bytes32 _name) {\r\n\t\trequire(\r\n\t\t\t!planetNameExists[keccak256(abi.encode(_name))],\r\n\t\t\t\"Planet name already exists\"\r\n\t\t);\r\n\t\t_;\r\n\t}\r\n\r\n\t/*\r\n\t*\t@dev Check if planet is active\r\n\t*/\r\n\tmodifier isPlanetActive(uint256 _planetId) {\r\n\t\trequire( planets[_planetId].active, \"Planet is inactive\" );\r\n\t\t_;\r\n\t}\r\n\r\n\t/*\r\n\t*\t@dev Check if contract is active\r\n\t*/\r\n\tmodifier isContractActive {\r\n\t\trequire( active, \"Contract is inactive\" );\r\n\t\t_;\r\n\t}\r\n\r\n\t/*\r\n\t* @dev Log new planet creation\r\n\t*/\r\n\tevent NewPlanetCreated(uint256 planetId, bytes32 name);\r\n\t/*\r\n\t* @dev Log planet status update\r\n\t*/\r\n\tevent PlanetStatusUpdated(uint256 planetId, bool newStatus);\r\n\t/*\r\n\t* @dev Log contract status update\r\n\t*/\r\n\tevent ContractStatusUpdated(bool newStatus);\r\n\r\n\r\n\t/*\r\n\t*\t@notice Create a new planet\r\n\t*/\r\n\tfunction createPlanet(\r\n\t\tbytes32 _name,\r\n\t\tstring memory _description\r\n\t) \r\n\t\texternal\r\n\t\tonlyOwner\r\n\t\tisContractActive\r\n\t\tisNotEmptyBytes32(_name)\r\n\t\tisPlanetNameAvailable(_name)\r\n\t\treturns (uint id)\r\n\t{\r\n\t\ttotalNumPlanets = totalNumPlanets.add(1);\r\n\t\tuint256 planetId = totalNumPlanets;\r\n\t\tplanets[planetId] = Planet(_name, _description, 0, true);\r\n\t\tplanetNameExists[keccak256(abi.encode(_name))] = true;\r\n\t\temit NewPlanetCreated(planetId, _name);\r\n\t\treturn planetId;\r\n\t}\r\n\r\n\t/*\r\n\t*\t@notice Update planet status\r\n\t*/\r\n\tfunction activateDeactivatePlanet(uint256 _planetId, bool _active)\r\n\t\texternal\r\n\t\tonlyOwner\r\n\t\tisContractActive\r\n\t{\r\n\t\t// Planet must exist\r\n\t\trequire(\r\n\t\t\tkeccak256(abi.encode(planets[_planetId].name)) != keccak256(abi.encode(\"\")),\r\n\t\t\t\"Planet doesn't exist\"\r\n\t\t);\r\n\t\tplanets[_planetId].active = _active;\r\n\t\tif (_active) {\r\n\t\t\ttotalInactivePlanets = totalInactivePlanets.sub(1);\r\n\t\t} else {\r\n\t\t\ttotalInactivePlanets = totalInactivePlanets.add(1);\r\n\t\t}\r\n\t\temit PlanetStatusUpdated(_planetId, _active);\r\n\t}\r\n\r\n\t/*\r\n\t*\t@notice Update contract status\r\n\t*/\r\n\tfunction activateDeactivateContract(bool _active)\r\n\t\texternal\r\n\t\tonlyOwner\r\n\t{\r\n\t\tactive = _active;\r\n\t\temit ContractStatusUpdated(_active);\r\n\t}\r\n\r\n\t/*\r\n\t* @notice Returns the number of active planets\r\n\t*/\r\n\tfunction getNumActivePlanets()\r\n\t\texternal\r\n\t\tview\r\n\t\tisContractActive\r\n\t\treturns (uint256)\r\n\t{\r\n\t\tuint256 total = totalNumPlanets.sub(totalInactivePlanets);\r\n\t\treturn total;\r\n\t}\r\n\r\n\t/*\r\n\t* @notice Returns the list of active planets\r\n\t*/\r\n\tfunction getPlanets()\r\n\t\texternal\r\n\t\tview\r\n\t\tisContractActive\r\n\t\treturns (uint256[] memory)\r\n\t{\r\n\t\tuint256 totalActive = this.getNumActivePlanets();\r\n\t\tuint256[] memory planetList = new uint256[](totalActive);\r\n\t\tuint256 counter = 0;\r\n\r\n\t\tfor (uint256 i = 0; i < totalNumPlanets; i = i.add(1)) {\r\n\t\t\tif (planets[i].active && counter < totalActive) {\r\n\t\t\t\tplanetList[counter] = i;\r\n\t\t\t\tcounter = counter.add(1);\r\n\t\t\t} else if (counter >= totalActive) {\r\n\t\t\t\tbreak;\r\n\t\t\t}\r\n\t\t}\r\n\r\n\t\treturn planetList;\r\n\t}\r\n\r\n\t/*\r\n\t* @notice Returns the list of inactive planets\r\n\t*/\r\n\tfunction getInactivePlanets()\r\n\t\texternal\r\n\t\tview\r\n\t\tisContractActive\r\n\t\treturns (uint256[] memory)\r\n\t{\r\n\t\tuint256[] memory planetList = new uint256[](totalInactivePlanets);\r\n\t\tuint256 counter = 0;\r\n\r\n\t\tfor (uint256 i = 0; i < totalNumPlanets; i = i.add(1)) {\r\n\t\t\tif (planets[i].active && counter < totalInactivePlanets) {\r\n\t\t\t\tplanetList[counter] = i;\r\n\t\t\t\tcounter = counter.add(1);\r\n\t\t\t} else if (counter >= totalInactivePlanets) {\r\n\t\t\t\tbreak;\r\n\t\t\t}\r\n\t\t}\r\n\r\n\t\treturn planetList;\r\n\t}\r\n\r\n\r\n}\r\n",
  "sourcePath": "C:/xampp/htdocs/ethereal-bnb/truffle-files/contracts/PlanetFactory.sol",
  "compiler": {
    "name": "solc",
    "version": "0.7.5+commit.eb77ed08.Emscripten.clang"
  },
  "schemaVersion": "3.3.3",
  "updatedAt": "2021-02-12T06:12:31.478Z",
  "networkType": "ethereum",
  "devdoc": {
    "kind": "dev",
    "methods": {
      "owner()": {
        "details": "Returns the address of the current owner."
      },
      "renounceOwnership()": {
        "details": "Leaves the contract without owner. It will not be possible to call `onlyOwner` functions anymore. Can only be called by the current owner. NOTE: Renouncing ownership will leave the contract without an owner, thereby removing any functionality that is only available to the owner."
      },
      "transferOwnership(address)": {
        "details": "Transfers ownership of the contract to a new account (`newOwner`). Can only be called by the current owner."
      }
    },
    "version": 1
  },
  "userdoc": {
    "kind": "user",
    "methods": {},
    "version": 1
  }
}